{
  "_format": "hh-sol-artifact-1",
  "contractName": "DdexSequencer",
  "sourceName": "contracts/DdexSequencer.sol",
  "abi": [
    {
      "inputs": [],
      "stateMutability": "nonpayable",
      "type": "constructor"
    },
    {
      "inputs": [
        {
          "internalType": "address",
          "name": "target",
          "type": "address"
        }
      ],
      "name": "AddressEmptyCode",
      "type": "error"
    },
    {
      "inputs": [
        {
          "internalType": "address",
          "name": "implementation",
          "type": "address"
        }
      ],
      "name": "ERC1967InvalidImplementation",
      "type": "error"
    },
    {
      "inputs": [],
      "name": "ERC1967NonPayable",
      "type": "error"
    },
    {
      "inputs": [],
      "name": "FailedCall",
      "type": "error"
    },
    {
      "inputs": [],
      "name": "InvalidInitialization",
      "type": "error"
    },
    {
      "inputs": [],
      "name": "NotInitializing",
      "type": "error"
    },
    {
      "inputs": [
        {
          "internalType": "address",
          "name": "owner",
          "type": "address"
        }
      ],
      "name": "OwnableInvalidOwner",
      "type": "error"
    },
    {
      "inputs": [
        {
          "internalType": "address",
          "name": "account",
          "type": "address"
        }
      ],
      "name": "OwnableUnauthorizedAccount",
      "type": "error"
    },
    {
      "inputs": [],
      "name": "UUPSUnauthorizedCallContext",
      "type": "error"
    },
    {
      "inputs": [
        {
          "internalType": "bytes32",
          "name": "slot",
          "type": "bytes32"
        }
      ],
      "name": "UUPSUnsupportedProxiableUUID",
      "type": "error"
    },
    {
      "anonymous": false,
      "inputs": [
        {
          "indexed": false,
          "internalType": "bytes32",
          "name": "blob",
          "type": "bytes32"
        },
        {
          "indexed": false,
          "internalType": "address",
          "name": "assignedValidator",
          "type": "address"
        }
      ],
      "name": "BlobAssigned",
      "type": "event"
    },
    {
      "anonymous": false,
      "inputs": [
        {
          "indexed": false,
          "internalType": "bytes32",
          "name": "blobhash",
          "type": "bytes32"
        }
      ],
      "name": "BlobExpired",
      "type": "event"
    },
    {
      "anonymous": false,
      "inputs": [
        {
          "indexed": false,
          "internalType": "uint256",
          "name": "_previousLifetime",
          "type": "uint256"
        },
        {
          "indexed": false,
          "internalType": "uint256",
          "name": "_currentLifetime",
          "type": "uint256"
        }
      ],
      "name": "BlobLifetimeChanged",
      "type": "event"
    },
    {
      "anonymous": false,
      "inputs": [
        {
          "indexed": false,
          "internalType": "uint64",
          "name": "version",
          "type": "uint64"
        }
      ],
      "name": "Initialized",
      "type": "event"
    },
    {
      "anonymous": false,
      "inputs": [
        {
          "indexed": false,
          "internalType": "bytes",
          "name": "commitment",
          "type": "bytes"
        },
        {
          "indexed": false,
          "internalType": "bytes32",
          "name": "image_id",
          "type": "bytes32"
        }
      ],
      "name": "NewBlobSubmitted",
      "type": "event"
    },
    {
      "anonymous": false,
      "inputs": [
        {
          "indexed": true,
          "internalType": "address",
          "name": "previousOwner",
          "type": "address"
        },
        {
          "indexed": true,
          "internalType": "address",
          "name": "newOwner",
          "type": "address"
        }
      ],
      "name": "OwnershipTransferred",
      "type": "event"
    },
    {
      "anonymous": false,
      "inputs": [],
      "name": "QueueMoved",
      "type": "event"
    },
    {
      "anonymous": false,
      "inputs": [
        {
          "indexed": true,
          "internalType": "address",
          "name": "implementation",
          "type": "address"
        }
      ],
      "name": "Upgraded",
      "type": "event"
    },
    {
      "anonymous": false,
      "inputs": [
        {
          "indexed": false,
          "internalType": "bytes1",
          "name": "_whitelistId",
          "type": "bytes1"
        },
        {
          "indexed": false,
          "internalType": "address",
          "name": "_previousAddress",
          "type": "address"
        },
        {
          "indexed": false,
          "internalType": "address",
          "name": "_newAddress",
          "type": "address"
        }
      ],
      "name": "WhitelistChanged",
      "type": "event"
    },
    {
      "anonymous": false,
      "inputs": [
        {
          "indexed": false,
          "internalType": "bool",
          "name": "current_status",
          "type": "bool"
        }
      ],
      "name": "WhitelistingStatusChanged",
      "type": "event"
    },
    {
      "inputs": [],
      "name": "DATA_PROVIDERS_WHITELIST",
      "outputs": [
        {
          "internalType": "bytes1",
          "name": "",
          "type": "bytes1"
        }
      ],
      "stateMutability": "view",
      "type": "function"
    },
    {
      "inputs": [],
      "name": "UPGRADE_INTERFACE_VERSION",
      "outputs": [
        {
          "internalType": "string",
          "name": "",
          "type": "string"
        }
      ],
      "stateMutability": "view",
      "type": "function"
    },
    {
      "inputs": [],
      "name": "VALIDATORS_WHITELIST",
      "outputs": [
        {
          "internalType": "bytes1",
          "name": "",
          "type": "bytes1"
        }
      ],
      "stateMutability": "view",
      "type": "function"
    },
    {
      "inputs": [],
      "name": "assignBlob",
      "outputs": [],
      "stateMutability": "nonpayable",
      "type": "function"
    },
    {
      "inputs": [],
      "name": "blobQueueHead",
      "outputs": [
        {
          "internalType": "bytes32",
          "name": "",
          "type": "bytes32"
        }
      ],
      "stateMutability": "view",
      "type": "function"
    },
    {
      "inputs": [],
      "name": "blobQueueTail",
      "outputs": [
        {
          "internalType": "bytes32",
          "name": "",
          "type": "bytes32"
        }
      ],
      "stateMutability": "view",
      "type": "function"
    },
    {
      "inputs": [
        {
          "internalType": "bytes32",
          "name": "",
          "type": "bytes32"
        }
      ],
      "name": "blobs",
      "outputs": [
        {
          "internalType": "bytes32",
          "name": "nextBlob",
          "type": "bytes32"
        },
        {
          "internalType": "bool",
          "name": "submitted",
          "type": "bool"
        },
        {
          "internalType": "address",
          "name": "proposer",
          "type": "address"
        },
        {
          "internalType": "bytes32",
          "name": "blobId",
          "type": "bytes32"
        },
        {
          "internalType": "bytes32",
          "name": "imageId",
          "type": "bytes32"
        },
        {
          "internalType": "address",
          "name": "assignedValidator",
          "type": "address"
        },
        {
          "internalType": "uint256",
          "name": "submissionBlock",
          "type": "uint256"
        }
      ],
      "stateMutability": "view",
      "type": "function"
    },
    {
      "inputs": [],
      "name": "ddexEmitter",
      "outputs": [
        {
          "internalType": "contract IDdexEmitter",
          "name": "",
          "type": "address"
        }
      ],
      "stateMutability": "view",
      "type": "function"
    },
    {
      "inputs": [],
      "name": "getQueueHeadDetails",
      "outputs": [
        {
          "components": [
            {
              "internalType": "bytes32",
              "name": "nextBlob",
              "type": "bytes32"
            },
            {
              "internalType": "bool",
              "name": "submitted",
              "type": "bool"
            },
            {
              "internalType": "address",
              "name": "proposer",
              "type": "address"
            },
            {
              "internalType": "bytes32",
              "name": "blobId",
              "type": "bytes32"
            },
            {
              "internalType": "bytes32",
              "name": "imageId",
              "type": "bytes32"
            },
            {
              "internalType": "address",
              "name": "assignedValidator",
              "type": "address"
            },
            {
              "internalType": "uint256",
              "name": "submissionBlock",
              "type": "uint256"
            }
          ],
          "internalType": "struct DdexSequencer.Blob",
          "name": "",
          "type": "tuple"
        },
        {
          "internalType": "bytes32",
          "name": "",
          "type": "bytes32"
        }
      ],
      "stateMutability": "view",
      "type": "function"
    },
    {
      "inputs": [],
      "name": "headProcessingStartBlock",
      "outputs": [
        {
          "internalType": "uint256",
          "name": "",
          "type": "uint256"
        }
      ],
      "stateMutability": "view",
      "type": "function"
    },
    {
      "inputs": [],
      "name": "headProcessingTimeInBlocks",
      "outputs": [
        {
          "internalType": "uint256",
          "name": "",
          "type": "uint256"
        }
      ],
      "stateMutability": "view",
      "type": "function"
    },
    {
      "inputs": [
        {
          "internalType": "address",
          "name": "dataProvidersWhitelist",
          "type": "address"
        },
        {
          "internalType": "address",
          "name": "validatorsWhitelist",
          "type": "address"
        },
        {
          "internalType": "address",
          "name": "stakeVaultAddress",
          "type": "address"
        }
      ],
      "name": "initialize",
      "outputs": [],
      "stateMutability": "nonpayable",
      "type": "function"
    },
    {
      "inputs": [],
      "name": "isQueueHeadExpired",
      "outputs": [
        {
          "internalType": "bool",
          "name": "",
          "type": "bool"
        }
      ],
      "stateMutability": "view",
      "type": "function"
    },
    {
      "inputs": [],
      "name": "moveQueue",
      "outputs": [],
      "stateMutability": "nonpayable",
      "type": "function"
    },
    {
      "inputs": [],
      "name": "nextBlobAssignment",
      "outputs": [
        {
          "internalType": "bytes32",
          "name": "",
          "type": "bytes32"
        }
      ],
      "stateMutability": "view",
      "type": "function"
    },
    {
      "inputs": [],
      "name": "owner",
      "outputs": [
        {
          "internalType": "address",
          "name": "",
          "type": "address"
        }
      ],
      "stateMutability": "view",
      "type": "function"
    },
    {
      "inputs": [],
      "name": "proxiableUUID",
      "outputs": [
        {
          "internalType": "bytes32",
          "name": "",
          "type": "bytes32"
        }
      ],
      "stateMutability": "view",
      "type": "function"
    },
    {
      "inputs": [],
      "name": "removeExpiredBlob",
      "outputs": [],
      "stateMutability": "nonpayable",
      "type": "function"
    },
    {
      "inputs": [],
      "name": "renounceOwnership",
      "outputs": [],
      "stateMutability": "nonpayable",
      "type": "function"
    },
    {
      "inputs": [
        {
          "internalType": "uint256",
          "name": "_newLifetime",
          "type": "uint256"
        }
      ],
      "name": "setBlobLifetime",
      "outputs": [],
      "stateMutability": "nonpayable",
      "type": "function"
    },
    {
      "inputs": [
        {
          "internalType": "contract IDdexEmitter",
          "name": "_ddexEmitter",
          "type": "address"
        }
      ],
      "name": "setDdexEmitter",
      "outputs": [],
      "stateMutability": "nonpayable",
      "type": "function"
    },
    {
      "inputs": [
        {
          "internalType": "uint256",
          "name": "newTimeInBlocks",
          "type": "uint256"
        }
      ],
      "name": "setHeadProcessingTimeInBlocks",
      "outputs": [],
      "stateMutability": "nonpayable",
      "type": "function"
    },
    {
      "inputs": [
        {
          "internalType": "bool",
          "name": "_disabled",
          "type": "bool"
        }
      ],
      "name": "setWhitelistingStatus",
      "outputs": [],
      "stateMutability": "nonpayable",
      "type": "function"
    },
    {
      "inputs": [
        {
          "internalType": "bytes32",
          "name": "_imageId",
          "type": "bytes32"
        },
        {
          "internalType": "bytes",
          "name": "_commitment",
          "type": "bytes"
        },
        {
          "internalType": "bytes32",
          "name": "_blobSha2",
          "type": "bytes32"
        }
      ],
      "name": "submitNewBlob",
      "outputs": [],
      "stateMutability": "nonpayable",
      "type": "function"
    },
    {
      "inputs": [
        {
          "internalType": "bytes32",
          "name": "_imageId",
          "type": "bytes32"
        },
        {
          "internalType": "bytes",
          "name": "_journal",
          "type": "bytes"
        },
        {
          "internalType": "bytes",
          "name": "_seal",
          "type": "bytes"
        },
        {
          "internalType": "string",
          "name": "_cid",
          "type": "string"
        }
      ],
      "name": "submitProof",
      "outputs": [],
      "stateMutability": "nonpayable",
      "type": "function"
    },
    {
      "inputs": [
        {
          "internalType": "address",
          "name": "newOwner",
          "type": "address"
        }
      ],
      "name": "transferOwnership",
      "outputs": [],
      "stateMutability": "nonpayable",
      "type": "function"
    },
    {
      "inputs": [
        {
          "internalType": "address",
          "name": "newImplementation",
          "type": "address"
        },
        {
          "internalType": "bytes",
          "name": "data",
          "type": "bytes"
        }
      ],
      "name": "upgradeToAndCall",
      "outputs": [],
      "stateMutability": "payable",
      "type": "function"
    },
    {
      "inputs": [
        {
          "internalType": "bytes1",
          "name": "",
          "type": "bytes1"
        }
      ],
      "name": "whitelists",
      "outputs": [
        {
          "internalType": "address",
          "name": "",
          "type": "address"
        }
      ],
      "stateMutability": "view",
      "type": "function"
    }
  ],
  "bytecode": "0x60a06040523073ffffffffffffffffffffffffffffffffffffffff1660809073ffffffffffffffffffffffffffffffffffffffff1681525034801562000043575f80fd5b50620000546200005a60201b60201c565b620001c4565b5f6200006b6200015e60201b60201c565b9050805f0160089054906101000a900460ff1615620000b6576040517ff92ee8a900000000000000000000000000000000000000000000000000000000815260040160405180910390fd5b67ffffffffffffffff8016815f015f9054906101000a900467ffffffffffffffff1667ffffffffffffffff16146200015b5767ffffffffffffffff815f015f6101000a81548167ffffffffffffffff021916908367ffffffffffffffff1602179055507fc7f505b2f371ae2175ee4913f4499e1f2633a7b5936321eed1cdaeb6115181d267ffffffffffffffff604051620001529190620001a9565b60405180910390a15b50565b5f7ff0c57e16840df040f15088dc2f81fe391c3923bec73e23a9662efc9c229c6a00905090565b5f67ffffffffffffffff82169050919050565b620001a38162000185565b82525050565b5f602082019050620001be5f83018462000198565b92915050565b608051613be5620001eb5f395f8181611b0f01528181611b640152611d1e0152613be55ff3fe6080604052600436106101b5575f3560e01c8063a49317d2116100eb578063dd181c7311610089578063eb89c8ce11610063578063eb89c8ce14610558578063f2fde38b14610580578063f4c681ef146105a8578063fd80dd46146105d2576101b5565b8063dd181c73146104c4578063ddae462214610506578063e68206f414610530576101b5565b8063bc99d2ae116100c5578063bc99d2ae14610432578063c0c53b8b1461045c578063cf492d0114610484578063dab2b5f61461049a576101b5565b8063a49317d2146103b4578063ac904c29146103de578063ad3cb1cc14610408576101b5565b8063629c6d8e11610158578063730e214f11610132578063730e214f1461030e5780638da5cb5b146103385780639d9ca9f914610362578063a02eeff31461038a576101b5565b8063629c6d8e146102ba578063715018a6146102e257806371d316a7146102f8576101b5565b8063067272ca11610194578063067272ca1461023657806325f16f9b1461024c5780634f1ef2861461027457806352d1902d14610290576101b5565b806265d3a6146101b957806303f61a0d146101e357806304ea9e431461020b575b5f80fd5b3480156101c4575f80fd5b506101cd61060e565b6040516101da91906127c1565b60405180910390f35b3480156101ee575f80fd5b506102096004803603810190610204919061281e565b610616565b005b348015610216575f80fd5b5061021f61066a565b60405161022d929190612964565b60405180910390f35b348015610241575f80fd5b5061024a61078b565b005b348015610257575f80fd5b50610272600480360381019061026d91906129c7565b610838565b005b61028e60048036038101906102899190612b58565b610883565b005b34801561029b575f80fd5b506102a46108a2565b6040516102b19190612bb2565b60405180910390f35b3480156102c5575f80fd5b506102e060048036038101906102db9190612bf5565b6108d3565b005b3480156102ed575f80fd5b506102f6610dbd565b005b348015610303575f80fd5b5061030c610dd0565b005b348015610319575f80fd5b50610322610e0a565b60405161032f91906127c1565b60405180910390f35b348015610343575f80fd5b5061034c610e12565b6040516103599190612c70565b60405180910390f35b34801561036d575f80fd5b5061038860048036038101906103839190612d84565b610e47565b005b348015610395575f80fd5b5061039e611176565b6040516103ab9190612e9b565b60405180910390f35b3480156103bf575f80fd5b506103c861119b565b6040516103d59190612ec3565b60405180910390f35b3480156103e9575f80fd5b506103f26111a1565b6040516103ff9190612bb2565b60405180910390f35b348015610413575f80fd5b5061041c6111a7565b6040516104299190612f56565b60405180910390f35b34801561043d575f80fd5b506104466111e0565b6040516104539190612ec3565b60405180910390f35b348015610467575f80fd5b50610482600480360381019061047d9190612f76565b6111e6565b005b34801561048f575f80fd5b506104986113cf565b005b3480156104a5575f80fd5b506104ae6117c1565b6040516104bb9190612bb2565b60405180910390f35b3480156104cf575f80fd5b506104ea60048036038101906104e59190612fc6565b6117c7565b6040516104fd9796959493929190613000565b60405180910390f35b348015610511575f80fd5b5061051a611850565b6040516105279190612bb2565b60405180910390f35b34801561053b575f80fd5b506105566004803603810190610551919061281e565b611856565b005b348015610563575f80fd5b5061057e60048036038101906105799190613097565b6118ab565b005b34801561058b575f80fd5b506105a660048036038101906105a191906130c2565b611922565b005b3480156105b3575f80fd5b506105bc6119a6565b6040516105c991906130ed565b60405180910390f35b3480156105dd575f80fd5b506105f860048036038101906105f39190613130565b6119ce565b6040516106059190612c70565b60405180910390f35b600160f81b81565b61061e6119fd565b5f6009549050816009819055507fa33c5f3fda231c6b2370016ccf5e177f08034336fec2c7cee031fc8a5358ed7e8160095460405161065e92919061315b565b60405180910390a15050565b61067261271a565b5f60055f60015481526020019081526020015f20600154816040518060e00160405290815f8201548152602001600182015f9054906101000a900460ff161515151581526020016001820160019054906101000a900473ffffffffffffffffffffffffffffffffffffffff1673ffffffffffffffffffffffffffffffffffffffff1673ffffffffffffffffffffffffffffffffffffffff1681526020016002820154815260200160038201548152602001600482015f9054906101000a900473ffffffffffffffffffffffffffffffffffffffff1673ffffffffffffffffffffffffffffffffffffffff1673ffffffffffffffffffffffffffffffffffffffff1681526020016005820154815250509150915091509091565b4360095460055f60015481526020019081526020015f20600501546107b091906131af565b106107f0576040517f08c379a00000000000000000000000000000000000000000000000000000000081526004016107e790613252565b60405180910390fd5b5f60015490506107fe611a84565b7faaa5f47b00376f8ec76c3f141f57bd77e93c18c44d6848df8c7b7eb8ede745d58160405161082d9190612bb2565b60405180910390a150565b6108406119fd565b8060045f6101000a81548173ffffffffffffffffffffffffffffffffffffffff021916908373ffffffffffffffffffffffffffffffffffffffff16021790555050565b61088b611b0d565b61089482611bf3565b61089e8282611bfe565b5050565b5f6108ab611d1c565b7f360894a13ba1a3210667c828492db98dca3e2076cc3735a920a3ca505d382bbc5f1b905090565b600160f81b600460149054906101000a900460ff16806109da57505f80827effffffffffffffffffffffffffffffffffffffffffffffffffffffffffffff19167effffffffffffffffffffffffffffffffffffffffffffffffffffffffffffff191681526020019081526020015f205f9054906101000a900473ffffffffffffffffffffffffffffffffffffffff1673ffffffffffffffffffffffffffffffffffffffff16633af32abf336040518263ffffffff1660e01b815260040161099a9190612c70565b602060405180830381865afa1580156109b5573d5f803e3d5ffd5b505050506040513d601f19601f820116820180604052508101906109d99190613284565b5b610a19576040517f08c379a0000000000000000000000000000000000000000000000000000000008152600401610a109061331f565b60405180910390fd5b5f801b8403610a5d576040517f08c379a0000000000000000000000000000000000000000000000000000000008152600401610a54906133ad565b60405180910390fd5b5f8060045f9054906101000a900473ffffffffffffffffffffffffffffffffffffffff1673ffffffffffffffffffffffffffffffffffffffff16634a418c6b6040518163ffffffff1660e01b81526004016040805180830381865afa158015610ac8573d5f803e3d5ffd5b505050506040513d601f19601f82011682018060405250810190610aec91906133df565b9150915085821480610afd57508581145b610b3c576040517f08c379a0000000000000000000000000000000000000000000000000000000008152600401610b339061348d565b60405180910390fd5b5f804990505f801b8103610b85576040517f08c379a0000000000000000000000000000000000000000000000000000000008152600401610b7c9061351b565b60405180910390fd5b5f60028287604051602001610b9b929190613559565b604051602081830303815290604052604051610bb791906135c8565b602060405180830381855afa158015610bd2573d5f803e3d5ffd5b5050506040513d601f19601f82011682018060405250810190610bf591906135de565b90505f151560055f8481526020019081526020015f206001015f9054906101000a900460ff16151514610c5d576040517f08c379a0000000000000000000000000000000000000000000000000000000008152600401610c5490613679565b60405180910390fd5b600160055f8481526020019081526020015f206001015f6101000a81548160ff0219169083151502179055503360055f8481526020019081526020015f2060010160016101000a81548173ffffffffffffffffffffffffffffffffffffffff021916908373ffffffffffffffffffffffffffffffffffffffff1602179055508060055f8481526020019081526020015f20600201819055504360055f8481526020019081526020015f20600501819055508760055f8481526020019081526020015f20600301819055505f801b60065403610d3a57816006819055505b5f801b60015403610d58578160018190555081600281905550610d7a565b8160055f60025481526020019081526020015f205f0181905550816002819055505b7fac98d2539fa9ebeb9e09126339ea1e80455247ad94aa6ce9b0f8a1a14598fd868789604051610dab9291906136df565b60405180910390a15050505050505050565b610dc56119fd565b610dce5f611da3565b565b610dd86119fd565b60065460015403610e005760055f60015481526020019081526020015f205f01546006819055505b610e08611a84565b565b600260f81b81565b5f80610e1c611e74565b9050805f015f9054906101000a900473ffffffffffffffffffffffffffffffffffffffff1691505090565b600260f81b600460149054906101000a900460ff1680610f4e57505f80827effffffffffffffffffffffffffffffffffffffffffffffffffffffffffffff19167effffffffffffffffffffffffffffffffffffffffffffffffffffffffffffff191681526020019081526020015f205f9054906101000a900473ffffffffffffffffffffffffffffffffffffffff1673ffffffffffffffffffffffffffffffffffffffff16633af32abf336040518263ffffffff1660e01b8152600401610f0e9190612c70565b602060405180830381865afa158015610f29573d5f803e3d5ffd5b505050506040513d601f19601f82011682018060405250810190610f4d9190613284565b5b610f8d576040517f08c379a0000000000000000000000000000000000000000000000000000000008152600401610f849061331f565b60405180910390fd5b5f801b60015403610fd3576040517f08c379a0000000000000000000000000000000000000000000000000000000008152600401610fca90613757565b60405180910390fd5b5f1515610fde6119a6565b151514611020576040517f08c379a0000000000000000000000000000000000000000000000000000000008152600401611017906137e5565b60405180910390fd5b60055f60015481526020019081526020015f206004015f9054906101000a900473ffffffffffffffffffffffffffffffffffffffff1673ffffffffffffffffffffffffffffffffffffffff163373ffffffffffffffffffffffffffffffffffffffff16146110c3576040517f08c379a00000000000000000000000000000000000000000000000000000000081526004016110ba90613873565b60405180910390fd5b60045f9054906101000a900473ffffffffffffffffffffffffffffffffffffffff1673ffffffffffffffffffffffffffffffffffffffff1663cdc3cbea87878787876040518663ffffffff1660e01b81526004016111259594939291906138bd565b6020604051808303815f875af1158015611141573d5f803e3d5ffd5b505050506040513d601f19601f8201168201806040525081019061116591906135de565b5061116e611a84565b505050505050565b60045f9054906101000a900473ffffffffffffffffffffffffffffffffffffffff1681565b60075481565b60015481565b6040518060400160405280600581526020017f352e302e3000000000000000000000000000000000000000000000000000000081525081565b60085481565b5f6111ef611e9b565b90505f815f0160089054906101000a900460ff161590505f825f015f9054906101000a900467ffffffffffffffff1690505f808267ffffffffffffffff161480156112375750825b90505f60018367ffffffffffffffff1614801561126a57505f3073ffffffffffffffffffffffffffffffffffffffff163b145b905081158015611278575080155b156112af576040517ff92ee8a900000000000000000000000000000000000000000000000000000000815260040160405180910390fd5b6001855f015f6101000a81548167ffffffffffffffff021916908367ffffffffffffffff16021790555083156112fc576001855f0160086101000a81548160ff0219169083151502179055505b61130a88600160f81b611ec2565b61131887600260f81b611ec2565b8560035f6101000a81548173ffffffffffffffffffffffffffffffffffffffff021916908373ffffffffffffffffffffffffffffffffffffffff160217905550611361336120a8565b6204000060098190555083156113c5575f855f0160086101000a81548160ff0219169083151502179055507fc7f505b2f371ae2175ee4913f4499e1f2633a7b5936321eed1cdaeb6115181d260016040516113bc9190613963565b60405180910390a15b5050505050505050565b600260f81b600460149054906101000a900460ff16806114d657505f80827effffffffffffffffffffffffffffffffffffffffffffffffffffffffffffff19167effffffffffffffffffffffffffffffffffffffffffffffffffffffffffffff191681526020019081526020015f205f9054906101000a900473ffffffffffffffffffffffffffffffffffffffff1673ffffffffffffffffffffffffffffffffffffffff16633af32abf336040518263ffffffff1660e01b81526004016114969190612c70565b602060405180830381865afa1580156114b1573d5f803e3d5ffd5b505050506040513d601f19601f820116820180604052508101906114d59190613284565b5b611515576040517f08c379a000000000000000000000000000000000000000000000000000000000815260040161150c9061331f565b60405180910390fd5b5f801b6001540361155b576040517f08c379a000000000000000000000000000000000000000000000000000000000815260040161155290613757565b60405180910390fd5b6006546001540361161d573360055f60065481526020019081526020015f206004015f6101000a81548173ffffffffffffffffffffffffffffffffffffffff021916908373ffffffffffffffffffffffffffffffffffffffff160217905550436007819055507f18787b9a62aea8ca201e3d5c3dc8641f50bfb2d2bad976519f64a665065f37e1600654336040516115f492919061397c565b60405180910390a160055f60065481526020019081526020015f205f01546006819055506117be565b600115156116296119a6565b1515036116cb573360055f60015481526020019081526020015f206004015f6101000a81548173ffffffffffffffffffffffffffffffffffffffff021916908373ffffffffffffffffffffffffffffffffffffffff160217905550436007819055507f18787b9a62aea8ca201e3d5c3dc8641f50bfb2d2bad976519f64a665065f37e1600154336040516116be92919061397c565b60405180910390a16117bd565b5f801b60065403611711576040517f08c379a000000000000000000000000000000000000000000000000000000000815260040161170890613a13565b60405180910390fd5b3360055f60065481526020019081526020015f206004015f6101000a81548173ffffffffffffffffffffffffffffffffffffffff021916908373ffffffffffffffffffffffffffffffffffffffff1602179055507f18787b9a62aea8ca201e3d5c3dc8641f50bfb2d2bad976519f64a665065f37e16006543360405161179892919061397c565b60405180910390a160055f60065481526020019081526020015f205f01546006819055505b5b50565b60065481565b6005602052805f5260405f205f91509050805f015490806001015f9054906101000a900460ff16908060010160019054906101000a900473ffffffffffffffffffffffffffffffffffffffff1690806002015490806003015490806004015f9054906101000a900473ffffffffffffffffffffffffffffffffffffffff16908060050154905087565b60025481565b61185e6119fd565b600181116118a1576040517f08c379a000000000000000000000000000000000000000000000000000000000815260040161189890613aa1565b60405180910390fd5b8060088190555050565b6118b36119fd565b801515600460149054906101000a900460ff1615151461191f5780600460146101000a81548160ff0219169083151502179055507fbc5fc42dba474600377c59d580874ad42480f5921ddef1c42b813cf0282340b08160405161191691906130ed565b60405180910390a15b50565b61192a6119fd565b5f73ffffffffffffffffffffffffffffffffffffffff168173ffffffffffffffffffffffffffffffffffffffff160361199a575f6040517f1e4fbdf70000000000000000000000000000000000000000000000000000000081526004016119919190612c70565b60405180910390fd5b6119a381611da3565b50565b5f6008546007546119b791906131af565b4311156119c757600190506119cb565b5f90505b90565b5f602052805f5260405f205f915054906101000a900473ffffffffffffffffffffffffffffffffffffffff1681565b611a056120bc565b73ffffffffffffffffffffffffffffffffffffffff16611a23610e12565b73ffffffffffffffffffffffffffffffffffffffff1614611a8257611a466120bc565b6040517f118cdaa7000000000000000000000000000000000000000000000000000000008152600401611a799190612c70565b60405180910390fd5b565b60025460015403611aae57611a976120c3565b5f801b6001819055505f801b600281905550611adf565b5f60055f60015481526020019081526020015f205f01549050611acf6120c3565b8060018190555043600781905550505b7f1ac623027405d5bb3ee9cdc9e1c31188ca5426ce824146298608bdc33419776660405160405180910390a1565b7f000000000000000000000000000000000000000000000000000000000000000073ffffffffffffffffffffffffffffffffffffffff163073ffffffffffffffffffffffffffffffffffffffff161480611bba57507f000000000000000000000000000000000000000000000000000000000000000073ffffffffffffffffffffffffffffffffffffffff16611ba161220c565b73ffffffffffffffffffffffffffffffffffffffff1614155b15611bf1576040517fe07c8dba00000000000000000000000000000000000000000000000000000000815260040160405180910390fd5b565b611bfb6119fd565b50565b8173ffffffffffffffffffffffffffffffffffffffff166352d1902d6040518163ffffffff1660e01b8152600401602060405180830381865afa925050508015611c6657506040513d601f19601f82011682018060405250810190611c6391906135de565b60015b611ca757816040517f4c9c8ce3000000000000000000000000000000000000000000000000000000008152600401611c9e9190612c70565b60405180910390fd5b7f360894a13ba1a3210667c828492db98dca3e2076cc3735a920a3ca505d382bbc5f1b8114611d0d57806040517faa1d49a4000000000000000000000000000000000000000000000000000000008152600401611d049190612bb2565b60405180910390fd5b611d17838361225f565b505050565b7f000000000000000000000000000000000000000000000000000000000000000073ffffffffffffffffffffffffffffffffffffffff163073ffffffffffffffffffffffffffffffffffffffff1614611da1576040517fe07c8dba00000000000000000000000000000000000000000000000000000000815260040160405180910390fd5b565b5f611dac611e74565b90505f815f015f9054906101000a900473ffffffffffffffffffffffffffffffffffffffff16905082825f015f6101000a81548173ffffffffffffffffffffffffffffffffffffffff021916908373ffffffffffffffffffffffffffffffffffffffff1602179055508273ffffffffffffffffffffffffffffffffffffffff168173ffffffffffffffffffffffffffffffffffffffff167f8be0079c531659141344cd1fd0a4f28419497f9722a3daafe3b4186f6b6457e060405160405180910390a3505050565b5f7f9016d09d72d40fdae2fd8ceac6b6234c7706214fd39c1cd1e609a0528c199300905090565b5f7ff0c57e16840df040f15088dc2f81fe391c3923bec73e23a9662efc9c229c6a00905090565b5f73ffffffffffffffffffffffffffffffffffffffff168273ffffffffffffffffffffffffffffffffffffffff1614611f5f57611f1f827f5470aee9000000000000000000000000000000000000000000000000000000006122d1565b611f5e576040517f08c379a0000000000000000000000000000000000000000000000000000000008152600401611f5590613b09565b60405180910390fd5b5b5f805f837effffffffffffffffffffffffffffffffffffffffffffffffffffffffffffff19167effffffffffffffffffffffffffffffffffffffffffffffffffffffffffffff191681526020019081526020015f205f9054906101000a900473ffffffffffffffffffffffffffffffffffffffff169050825f80847effffffffffffffffffffffffffffffffffffffffffffffffffffffffffffff19167effffffffffffffffffffffffffffffffffffffffffffffffffffffffffffff191681526020019081526020015f205f6101000a81548173ffffffffffffffffffffffffffffffffffffffff021916908373ffffffffffffffffffffffffffffffffffffffff1602179055507fbdb658fbebcb4884950df11335d9177f3b8c7fb1b1f5290202b9715198d7e10582828560405161209b93929190613b27565b60405180910390a1505050565b6120b06122f5565b6120b981612335565b50565b5f33905090565b5f60055f60015481526020019081526020015f206001015f6101000a81548160ff0219169083151502179055505f801b60055f60015481526020019081526020015f205f01819055505f60055f60015481526020019081526020015f2060010160016101000a81548173ffffffffffffffffffffffffffffffffffffffff021916908373ffffffffffffffffffffffffffffffffffffffff1602179055505f60055f60015481526020019081526020015f206004015f6101000a81548173ffffffffffffffffffffffffffffffffffffffff021916908373ffffffffffffffffffffffffffffffffffffffff1602179055505f801b60055f60015481526020019081526020015f20600301819055505f801b60055f60015481526020019081526020015f20600201819055505f60055f60015481526020019081526020015f2060050181905550565b5f6122387f360894a13ba1a3210667c828492db98dca3e2076cc3735a920a3ca505d382bbc5f1b6123b9565b5f015f9054906101000a900473ffffffffffffffffffffffffffffffffffffffff16905090565b612268826123c2565b8173ffffffffffffffffffffffffffffffffffffffff167fbc7cd75a20ee27fd9adebab32041f755214dbc6bffa90cc0225b39da2e5c2d3b60405160405180910390a25f815111156122c4576122be828261248b565b506122cd565b6122cc61250b565b5b5050565b5f6122db83612547565b80156122ed57506122ec8383612593565b5b905092915050565b6122fd61262c565b612333576040517fd7e6bcf800000000000000000000000000000000000000000000000000000000815260040160405180910390fd5b565b61233d6122f5565b5f73ffffffffffffffffffffffffffffffffffffffff168173ffffffffffffffffffffffffffffffffffffffff16036123ad575f6040517f1e4fbdf70000000000000000000000000000000000000000000000000000000081526004016123a49190612c70565b60405180910390fd5b6123b681611da3565b50565b5f819050919050565b5f8173ffffffffffffffffffffffffffffffffffffffff163b0361241d57806040517f4c9c8ce30000000000000000000000000000000000000000000000000000000081526004016124149190612c70565b60405180910390fd5b806124497f360894a13ba1a3210667c828492db98dca3e2076cc3735a920a3ca505d382bbc5f1b6123b9565b5f015f6101000a81548173ffffffffffffffffffffffffffffffffffffffff021916908373ffffffffffffffffffffffffffffffffffffffff16021790555050565b60605f808473ffffffffffffffffffffffffffffffffffffffff16846040516124b491906135c8565b5f60405180830381855af49150503d805f81146124ec576040519150601f19603f3d011682016040523d82523d5f602084013e6124f1565b606091505b509150915061250185838361264a565b9250505092915050565b5f341115612545576040517fb398979f00000000000000000000000000000000000000000000000000000000815260040160405180910390fd5b565b5f612572827f01ffc9a700000000000000000000000000000000000000000000000000000000612593565b801561258c575061258a8263ffffffff60e01b612593565b155b9050919050565b5f80826040516024016125a69190613b96565b6040516020818303038152906040526301ffc9a760e01b6020820180517bffffffffffffffffffffffffffffffffffffffffffffffffffffffff838183161783525050505090505f805f60205f8551602087018a617530fa92503d91505f519050828015612615575060208210155b801561262057505f81115b94505050505092915050565b5f612635611e9b565b5f0160089054906101000a900460ff16905090565b60608261265f5761265a826126d7565b6126cf565b5f825114801561268557505f8473ffffffffffffffffffffffffffffffffffffffff163b145b156126c757836040517f9996b3150000000000000000000000000000000000000000000000000000000081526004016126be9190612c70565b60405180910390fd5b8190506126d0565b5b9392505050565b5f815111156126e857805160208201fd5b6040517fd6bda27500000000000000000000000000000000000000000000000000000000815260040160405180910390fd5b6040518060e001604052805f80191681526020015f151581526020015f73ffffffffffffffffffffffffffffffffffffffff1681526020015f80191681526020015f80191681526020015f73ffffffffffffffffffffffffffffffffffffffff1681526020015f81525090565b5f7fff0000000000000000000000000000000000000000000000000000000000000082169050919050565b6127bb81612787565b82525050565b5f6020820190506127d45f8301846127b2565b92915050565b5f604051905090565b5f80fd5b5f80fd5b5f819050919050565b6127fd816127eb565b8114612807575f80fd5b50565b5f81359050612818816127f4565b92915050565b5f60208284031215612833576128326127e3565b5b5f6128408482850161280a565b91505092915050565b5f819050919050565b61285b81612849565b82525050565b5f8115159050919050565b61287581612861565b82525050565b5f73ffffffffffffffffffffffffffffffffffffffff82169050919050565b5f6128a48261287b565b9050919050565b6128b48161289a565b82525050565b6128c3816127eb565b82525050565b60e082015f8201516128dd5f850182612852565b5060208201516128f0602085018261286c565b50604082015161290360408501826128ab565b5060608201516129166060850182612852565b5060808201516129296080850182612852565b5060a082015161293c60a08501826128ab565b5060c082015161294f60c08501826128ba565b50505050565b61295e81612849565b82525050565b5f610100820190506129785f8301856128c9565b61298560e0830184612955565b9392505050565b5f6129968261289a565b9050919050565b6129a68161298c565b81146129b0575f80fd5b50565b5f813590506129c18161299d565b92915050565b5f602082840312156129dc576129db6127e3565b5b5f6129e9848285016129b3565b91505092915050565b6129fb8161289a565b8114612a05575f80fd5b50565b5f81359050612a16816129f2565b92915050565b5f80fd5b5f80fd5b5f601f19601f8301169050919050565b7f4e487b71000000000000000000000000000000000000000000000000000000005f52604160045260245ffd5b612a6a82612a24565b810181811067ffffffffffffffff82111715612a8957612a88612a34565b5b80604052505050565b5f612a9b6127da565b9050612aa78282612a61565b919050565b5f67ffffffffffffffff821115612ac657612ac5612a34565b5b612acf82612a24565b9050602081019050919050565b828183375f83830152505050565b5f612afc612af784612aac565b612a92565b905082815260208101848484011115612b1857612b17612a20565b5b612b23848285612adc565b509392505050565b5f82601f830112612b3f57612b3e612a1c565b5b8135612b4f848260208601612aea565b91505092915050565b5f8060408385031215612b6e57612b6d6127e3565b5b5f612b7b85828601612a08565b925050602083013567ffffffffffffffff811115612b9c57612b9b6127e7565b5b612ba885828601612b2b565b9150509250929050565b5f602082019050612bc55f830184612955565b92915050565b612bd481612849565b8114612bde575f80fd5b50565b5f81359050612bef81612bcb565b92915050565b5f805f60608486031215612c0c57612c0b6127e3565b5b5f612c1986828701612be1565b935050602084013567ffffffffffffffff811115612c3a57612c396127e7565b5b612c4686828701612b2b565b9250506040612c5786828701612be1565b9150509250925092565b612c6a8161289a565b82525050565b5f602082019050612c835f830184612c61565b92915050565b5f80fd5b5f80fd5b5f8083601f840112612ca657612ca5612a1c565b5b8235905067ffffffffffffffff811115612cc357612cc2612c89565b5b602083019150836001820283011115612cdf57612cde612c8d565b5b9250929050565b5f67ffffffffffffffff821115612d0057612cff612a34565b5b612d0982612a24565b9050602081019050919050565b5f612d28612d2384612ce6565b612a92565b905082815260208101848484011115612d4457612d43612a20565b5b612d4f848285612adc565b509392505050565b5f82601f830112612d6b57612d6a612a1c565b5b8135612d7b848260208601612d16565b91505092915050565b5f805f805f60808688031215612d9d57612d9c6127e3565b5b5f612daa88828901612be1565b955050602086013567ffffffffffffffff811115612dcb57612dca6127e7565b5b612dd788828901612b2b565b945050604086013567ffffffffffffffff811115612df857612df76127e7565b5b612e0488828901612c91565b9350935050606086013567ffffffffffffffff811115612e2757612e266127e7565b5b612e3388828901612d57565b9150509295509295909350565b5f819050919050565b5f612e63612e5e612e598461287b565b612e40565b61287b565b9050919050565b5f612e7482612e49565b9050919050565b5f612e8582612e6a565b9050919050565b612e9581612e7b565b82525050565b5f602082019050612eae5f830184612e8c565b92915050565b612ebd816127eb565b82525050565b5f602082019050612ed65f830184612eb4565b92915050565b5f81519050919050565b5f82825260208201905092915050565b5f5b83811015612f13578082015181840152602081019050612ef8565b5f8484015250505050565b5f612f2882612edc565b612f328185612ee6565b9350612f42818560208601612ef6565b612f4b81612a24565b840191505092915050565b5f6020820190508181035f830152612f6e8184612f1e565b905092915050565b5f805f60608486031215612f8d57612f8c6127e3565b5b5f612f9a86828701612a08565b9350506020612fab86828701612a08565b9250506040612fbc86828701612a08565b9150509250925092565b5f60208284031215612fdb57612fda6127e3565b5b5f612fe884828501612be1565b91505092915050565b612ffa81612861565b82525050565b5f60e0820190506130135f83018a612955565b6130206020830189612ff1565b61302d6040830188612c61565b61303a6060830187612955565b6130476080830186612955565b61305460a0830185612c61565b61306160c0830184612eb4565b98975050505050505050565b61307681612861565b8114613080575f80fd5b50565b5f813590506130918161306d565b92915050565b5f602082840312156130ac576130ab6127e3565b5b5f6130b984828501613083565b91505092915050565b5f602082840312156130d7576130d66127e3565b5b5f6130e484828501612a08565b91505092915050565b5f6020820190506131005f830184612ff1565b92915050565b61310f81612787565b8114613119575f80fd5b50565b5f8135905061312a81613106565b92915050565b5f60208284031215613145576131446127e3565b5b5f6131528482850161311c565b91505092915050565b5f60408201905061316e5f830185612eb4565b61317b6020830184612eb4565b9392505050565b7f4e487b71000000000000000000000000000000000000000000000000000000005f52601160045260245ffd5b5f6131b9826127eb565b91506131c4836127eb565b92508282019050808211156131dc576131db613182565b5b92915050565b7f4464657853657175656e6365723a20426c6f62206973207374696c6c20636f6e5f8201527f7369646572656420616c69766500000000000000000000000000000000000000602082015250565b5f61323c602d83612ee6565b9150613247826131e2565b604082019050919050565b5f6020820190508181035f83015261326981613230565b9050919050565b5f8151905061327e8161306d565b92915050565b5f60208284031215613299576132986127e3565b5b5f6132a684828501613270565b91505092915050565b7f4464657853657175656e6365723a2053656e646572206973206e6f74207768695f8201527f74656c6973746564000000000000000000000000000000000000000000000000602082015250565b5f613309602883612ee6565b9150613314826132af565b604082019050919050565b5f6020820190508181035f830152613336816132fd565b9050919050565b7f4464657853657175656e6365723a20496d61676549642063616e6e6f742062655f8201527f2030000000000000000000000000000000000000000000000000000000000000602082015250565b5f613397602283612ee6565b91506133a28261333d565b604082019050919050565b5f6020820190508181035f8301526133c48161338b565b9050919050565b5f815190506133d981612bcb565b92915050565b5f80604083850312156133f5576133f46127e3565b5b5f613402858286016133cb565b9250506020613413858286016133cb565b9150509250929050565b7f4464657853657175656e6365723a20556e737570706f7274656420696d6167655f8201527f4964000000000000000000000000000000000000000000000000000000000000602082015250565b5f613477602283612ee6565b91506134828261341d565b604082019050919050565b5f6020820190508181035f8301526134a48161346b565b9050919050565b7f4464657853657175656e6365723a20426c6f62206e6f7420666f756e6420696e5f8201527f2074780000000000000000000000000000000000000000000000000000000000602082015250565b5f613505602383612ee6565b9150613510826134ab565b604082019050919050565b5f6020820190508181035f830152613532816134f9565b9050919050565b5f819050919050565b61355361354e82612849565b613539565b82525050565b5f6135648285613542565b6020820191506135748284613542565b6020820191508190509392505050565b5f81519050919050565b5f81905092915050565b5f6135a282613584565b6135ac818561358e565b93506135bc818560208601612ef6565b80840191505092915050565b5f6135d38284613598565b915081905092915050565b5f602082840312156135f3576135f26127e3565b5b5f613600848285016133cb565b91505092915050565b7f4464657853657175656e6365723a20426c6f6220616c7265616479207375626d5f8201527f6974746564000000000000000000000000000000000000000000000000000000602082015250565b5f613663602583612ee6565b915061366e82613609565b604082019050919050565b5f6020820190508181035f83015261369081613657565b9050919050565b5f82825260208201905092915050565b5f6136b182613584565b6136bb8185613697565b93506136cb818560208601612ef6565b6136d481612a24565b840191505092915050565b5f6040820190508181035f8301526136f781856136a7565b90506137066020830184612955565b9392505050565b7f4464657853657175656e6365723a20517565756520697320656d7074790000005f82015250565b5f613741601d83612ee6565b915061374c8261370d565b602082019050919050565b5f6020820190508181035f83015261376e81613735565b9050919050565b7f4464657853657175656e6365723a20486561642070726f63657373696e6720745f8201527f696d652065787069726564000000000000000000000000000000000000000000602082015250565b5f6137cf602b83612ee6565b91506137da82613775565b604082019050919050565b5f6020820190508181035f8301526137fc816137c3565b9050919050565b7f4464657853657175656e6365723a206d73672e73656e646572206d75737420625f8201527f652061737369676e6d656e656420746f206865616420626c6f62000000000000602082015250565b5f61385d603a83612ee6565b915061386882613803565b604082019050919050565b5f6020820190508181035f83015261388a81613851565b9050919050565b5f61389c8385613697565b93506138a9838584612adc565b6138b283612a24565b840190509392505050565b5f6080820190506138d05f830188612955565b81810360208301526138e281876136a7565b905081810360408301526138f7818587613891565b9050818103606083015261390b8184612f1e565b90509695505050505050565b5f819050919050565b5f67ffffffffffffffff82169050919050565b5f61394d61394861394384613917565b612e40565b613920565b9050919050565b61395d81613933565b82525050565b5f6020820190506139765f830184613954565b92915050565b5f60408201905061398f5f830185612955565b61399c6020830184612c61565b9392505050565b7f4464657853657175656e6365723a20416c6c20626c6f62732061737369676e655f8201527f6400000000000000000000000000000000000000000000000000000000000000602082015250565b5f6139fd602183612ee6565b9150613a08826139a3565b604082019050919050565b5f6020820190508181035f830152613a2a816139f1565b9050919050565b7f4464657853657175656e6365723a20486561642070726f63657373696e6720745f8201527f696d65206d7573742062652067726561746572207468616e2031000000000000602082015250565b5f613a8b603a83612ee6565b9150613a9682613a31565b604082019050919050565b5f6020820190508181035f830152613ab881613a7f565b9050919050565b7f496e74657266616365206e6f7420737570706f727465640000000000000000005f82015250565b5f613af3601783612ee6565b9150613afe82613abf565b602082019050919050565b5f6020820190508181035f830152613b2081613ae7565b9050919050565b5f606082019050613b3a5f8301866127b2565b613b476020830185612c61565b613b546040830184612c61565b949350505050565b5f7fffffffff0000000000000000000000000000000000000000000000000000000082169050919050565b613b9081613b5c565b82525050565b5f602082019050613ba95f830184613b87565b9291505056fea264697066735822122057be92b6c94496decbf510d55702100ca414c74afbbf172e961b86ce39318c0464736f6c63430008180033",
  "linkReferences": {},
  "deployedLinkReferences": {}
}