{
  "_format": "hh-sol-artifact-1",
  "contractName": "DdexEmitter",
  "sourceName": "contracts/DdexEmitter.sol",
  "abi": [
    {
      "inputs": [],
      "stateMutability": "nonpayable",
      "type": "constructor"
    },
    {
      "inputs": [
        {
          "internalType": "address",
          "name": "target",
          "type": "address"
        }
      ],
      "name": "AddressEmptyCode",
      "type": "error"
    },
    {
      "inputs": [
        {
          "internalType": "address",
          "name": "implementation",
          "type": "address"
        }
      ],
      "name": "ERC1967InvalidImplementation",
      "type": "error"
    },
    {
      "inputs": [],
      "name": "ERC1967NonPayable",
      "type": "error"
    },
    {
      "inputs": [],
      "name": "FailedCall",
      "type": "error"
    },
    {
      "inputs": [],
      "name": "InvalidInitialization",
      "type": "error"
    },
    {
      "inputs": [],
      "name": "NotInitializing",
      "type": "error"
    },
    {
      "inputs": [
        {
          "internalType": "address",
          "name": "owner",
          "type": "address"
        }
      ],
      "name": "OwnableInvalidOwner",
      "type": "error"
    },
    {
      "inputs": [
        {
          "internalType": "address",
          "name": "account",
          "type": "address"
        }
      ],
      "name": "OwnableUnauthorizedAccount",
      "type": "error"
    },
    {
      "inputs": [],
      "name": "UUPSUnauthorizedCallContext",
      "type": "error"
    },
    {
      "inputs": [
        {
          "internalType": "bytes32",
          "name": "slot",
          "type": "bytes32"
        }
      ],
      "name": "UUPSUnsupportedProxiableUUID",
      "type": "error"
    },
    {
      "anonymous": false,
      "inputs": [
        {
          "components": [
            {
              "internalType": "bool",
              "name": "is_valid",
              "type": "bool"
            },
            {
              "internalType": "bytes32",
              "name": "digest",
              "type": "bytes32"
            },
            {
              "components": [
                {
                  "components": [
                    {
                      "internalType": "string",
                      "name": "title_text",
                      "type": "string"
                    },
                    {
                      "internalType": "string",
                      "name": "subtitle",
                      "type": "string"
                    },
                    {
                      "internalType": "string",
                      "name": "display_title_text",
                      "type": "string"
                    },
                    {
                      "internalType": "string[]",
                      "name": "release_types",
                      "type": "string[]"
                    },
                    {
                      "components": [
                        {
                          "internalType": "string",
                          "name": "artist_party_reference",
                          "type": "string"
                        },
                        {
                          "internalType": "int32",
                          "name": "sequence_number",
                          "type": "int32"
                        },
                        {
                          "internalType": "string[]",
                          "name": "display_artist_roles",
                          "type": "string[]"
                        }
                      ],
                      "internalType": "struct DisplayArtist[]",
                      "name": "display_artists",
                      "type": "tuple[]"
                    },
                    {
                      "components": [
                        {
                          "internalType": "string",
                          "name": "applicable_territory_code",
                          "type": "string"
                        },
                        {
                          "internalType": "string",
                          "name": "language_and_script_type",
                          "type": "string"
                        },
                        {
                          "internalType": "string",
                          "name": "display_artist_name",
                          "type": "string"
                        }
                      ],
                      "internalType": "struct DisplayArtistName[]",
                      "name": "display_artist_names",
                      "type": "tuple[]"
                    },
                    {
                      "components": [
                        {
                          "internalType": "string",
                          "name": "grid",
                          "type": "string"
                        },
                        {
                          "internalType": "string",
                          "name": "icpn",
                          "type": "string"
                        },
                        {
                          "internalType": "string[]",
                          "name": "proprietary_ids",
                          "type": "string[]"
                        }
                      ],
                      "internalType": "struct ReleaseId",
                      "name": "release_id",
                      "type": "tuple"
                    }
                  ],
                  "internalType": "struct Release",
                  "name": "release",
                  "type": "tuple"
                },
                {
                  "components": [
                    {
                      "internalType": "string",
                      "name": "display_title",
                      "type": "string"
                    },
                    {
                      "internalType": "string",
                      "name": "subtitle",
                      "type": "string"
                    },
                    {
                      "internalType": "string",
                      "name": "display_title_text",
                      "type": "string"
                    },
                    {
                      "components": [
                        {
                          "internalType": "string",
                          "name": "isrc",
                          "type": "string"
                        },
                        {
                          "components": [
                            {
                              "internalType": "uint16",
                              "name": "year",
                              "type": "uint16"
                            },
                            {
                              "internalType": "string",
                              "name": "p_line_text",
                              "type": "string"
                            }
                          ],
                          "internalType": "struct PLine[]",
                          "name": "p_lines",
                          "type": "tuple[]"
                        },
                        {
                          "components": [
                            {
                              "internalType": "string",
                              "name": "namespace",
                              "type": "string"
                            },
                            {
                              "internalType": "string",
                              "name": "user_defined_value",
                              "type": "string"
                            },
                            {
                              "internalType": "string",
                              "name": "parameter",
                              "type": "string"
                            }
                          ],
                          "internalType": "struct Fingerprint[]",
                          "name": "fingerprints",
                          "type": "tuple[]"
                        }
                      ],
                      "internalType": "struct SoundRecordingEdition[]",
                      "name": "sound_recording_editions",
                      "type": "tuple[]"
                    },
                    {
                      "components": [
                        {
                          "internalType": "string",
                          "name": "iswc",
                          "type": "string"
                        }
                      ],
                      "internalType": "struct WorkId[]",
                      "name": "work_ids",
                      "type": "tuple[]"
                    },
                    {
                      "components": [
                        {
                          "internalType": "string",
                          "name": "contributor_party_reference",
                          "type": "string"
                        },
                        {
                          "internalType": "int32",
                          "name": "sequence_number",
                          "type": "int32"
                        },
                        {
                          "internalType": "string[]",
                          "name": "contributor_roles",
                          "type": "string[]"
                        }
                      ],
                      "internalType": "struct Contributor[]",
                      "name": "contributors",
                      "type": "tuple[]"
                    },
                    {
                      "components": [
                        {
                          "internalType": "string",
                          "name": "grid",
                          "type": "string"
                        },
                        {
                          "internalType": "string",
                          "name": "icpn",
                          "type": "string"
                        },
                        {
                          "internalType": "string[]",
                          "name": "proprietary_ids",
                          "type": "string[]"
                        }
                      ],
                      "internalType": "struct ReleaseId",
                      "name": "track_release_id",
                      "type": "tuple"
                    }
                  ],
                  "internalType": "struct SoundRecording[]",
                  "name": "sound_recordings",
                  "type": "tuple[]"
                }
              ],
              "internalType": "struct ProvedMessage[]",
              "name": "messages",
              "type": "tuple[]"
            }
          ],
          "indexed": false,
          "internalType": "struct ProverPublicOutputs",
          "name": "proverPublicOutputs",
          "type": "tuple"
        }
      ],
      "name": "BlobProcessed",
      "type": "event"
    },
    {
      "anonymous": false,
      "inputs": [
        {
          "indexed": false,
          "internalType": "uint64",
          "name": "version",
          "type": "uint64"
        }
      ],
      "name": "Initialized",
      "type": "event"
    },
    {
      "anonymous": false,
      "inputs": [
        {
          "indexed": true,
          "internalType": "address",
          "name": "previousOwner",
          "type": "address"
        },
        {
          "indexed": true,
          "internalType": "address",
          "name": "newOwner",
          "type": "address"
        }
      ],
      "name": "OwnershipTransferred",
      "type": "event"
    },
    {
      "anonymous": false,
      "inputs": [
        {
          "indexed": true,
          "internalType": "address",
          "name": "implementation",
          "type": "address"
        }
      ],
      "name": "Upgraded",
      "type": "event"
    },
    {
      "inputs": [],
      "name": "UPGRADE_INTERFACE_VERSION",
      "outputs": [
        {
          "internalType": "string",
          "name": "",
          "type": "string"
        }
      ],
      "stateMutability": "view",
      "type": "function"
    },
    {
      "inputs": [],
      "name": "imageId",
      "outputs": [
        {
          "internalType": "bytes32",
          "name": "",
          "type": "bytes32"
        }
      ],
      "stateMutability": "view",
      "type": "function"
    },
    {
      "inputs": [
        {
          "internalType": "contract IRiscZeroVerifier",
          "name": "_riscZeroGroth16Verifier",
          "type": "address"
        },
        {
          "internalType": "address",
          "name": "_ddexSequencerAddress",
          "type": "address"
        }
      ],
      "name": "initialize",
      "outputs": [],
      "stateMutability": "nonpayable",
      "type": "function"
    },
    {
      "inputs": [],
      "name": "owner",
      "outputs": [
        {
          "internalType": "address",
          "name": "",
          "type": "address"
        }
      ],
      "stateMutability": "view",
      "type": "function"
    },
    {
      "inputs": [],
      "name": "proxiableUUID",
      "outputs": [
        {
          "internalType": "bytes32",
          "name": "",
          "type": "bytes32"
        }
      ],
      "stateMutability": "view",
      "type": "function"
    },
    {
      "inputs": [],
      "name": "renounceOwnership",
      "outputs": [],
      "stateMutability": "nonpayable",
      "type": "function"
    },
    {
      "inputs": [
        {
          "internalType": "bytes32",
          "name": "newImage",
          "type": "bytes32"
        }
      ],
      "name": "setImageId",
      "outputs": [],
      "stateMutability": "nonpayable",
      "type": "function"
    },
    {
      "inputs": [
        {
          "internalType": "address",
          "name": "newOwner",
          "type": "address"
        }
      ],
      "name": "transferOwnership",
      "outputs": [],
      "stateMutability": "nonpayable",
      "type": "function"
    },
    {
      "inputs": [
        {
          "internalType": "address",
          "name": "newImplementation",
          "type": "address"
        },
        {
          "internalType": "bytes",
          "name": "data",
          "type": "bytes"
        }
      ],
      "name": "upgradeToAndCall",
      "outputs": [],
      "stateMutability": "payable",
      "type": "function"
    },
    {
      "inputs": [
        {
          "internalType": "bytes",
          "name": "journal",
          "type": "bytes"
        },
        {
          "internalType": "bytes",
          "name": "seal",
          "type": "bytes"
        }
      ],
      "name": "verifyAndEmit",
      "outputs": [
        {
          "internalType": "bytes32",
          "name": "blobSha2",
          "type": "bytes32"
        }
      ],
      "stateMutability": "nonpayable",
      "type": "function"
    }
  ],
  "bytecode": "0x60a06040523073ffffffffffffffffffffffffffffffffffffffff1660809073ffffffffffffffffffffffffffffffffffffffff1681525034801562000043575f80fd5b50620000546200005a60201b60201c565b620001c4565b5f6200006b6200015e60201b60201c565b9050805f0160089054906101000a900460ff1615620000b6576040517ff92ee8a900000000000000000000000000000000000000000000000000000000815260040160405180910390fd5b67ffffffffffffffff8016815f015f9054906101000a900467ffffffffffffffff1667ffffffffffffffff16146200015b5767ffffffffffffffff815f015f6101000a81548167ffffffffffffffff021916908367ffffffffffffffff1602179055507fc7f505b2f371ae2175ee4913f4499e1f2633a7b5936321eed1cdaeb6115181d267ffffffffffffffff604051620001529190620001a9565b60405180910390a15b50565b5f7ff0c57e16840df040f15088dc2f81fe391c3923bec73e23a9662efc9c229c6a00905090565b5f67ffffffffffffffff82169050919050565b620001a38162000185565b82525050565b5f602082019050620001be5f83018462000198565b92915050565b608051613624620001eb5f395f81816107bc0152818161081101526109cb01526136245ff3fe608060405260043610610090575f3560e01c80638da5cb5b116100585780638da5cb5b14610154578063901129c21461017e578063ad3cb1cc146101a6578063ef3f7dd5146101d0578063f2fde38b146101fa57610090565b8063485cc955146100945780634f1ef286146100bc57806352d1902d146100d8578063715018a614610102578063857c301314610118575b5f80fd5b34801561009f575f80fd5b506100ba60048036038101906100b59190611082565b610222565b005b6100d660048036038101906100d191906111fc565b61044c565b005b3480156100e3575f80fd5b506100ec61046b565b6040516100f9919061126e565b60405180910390f35b34801561010d575f80fd5b5061011661049c565b005b348015610123575f80fd5b5061013e600480360381019061013991906112e4565b6104af565b60405161014b919061126e565b60405180910390f35b34801561015f575f80fd5b50610168610675565b604051610175919061136c565b60405180910390f35b348015610189575f80fd5b506101a4600480360381019061019f91906113af565b6106aa565b005b3480156101b1575f80fd5b506101ba6106bc565b6040516101c79190611454565b60405180910390f35b3480156101db575f80fd5b506101e46106f5565b6040516101f1919061126e565b60405180910390f35b348015610205575f80fd5b50610220600480360381019061021b9190611474565b6106fb565b005b5f61022b61077f565b90505f815f0160089054906101000a900460ff161590505f825f015f9054906101000a900467ffffffffffffffff1690505f808267ffffffffffffffff161480156102735750825b90505f60018367ffffffffffffffff161480156102a657505f3073ffffffffffffffffffffffffffffffffffffffff163b145b9050811580156102b4575080155b156102eb576040517ff92ee8a900000000000000000000000000000000000000000000000000000000815260040160405180910390fd5b6001855f015f6101000a81548167ffffffffffffffff021916908367ffffffffffffffff1602179055508315610338576001855f0160086101000a81548160ff0219169083151502179055505b7f9e93086bf9d7f4ab9c2677826be1ba16d1708805778fcd18ae7cf6041346f5145f1b600281905550865f806101000a81548173ffffffffffffffffffffffffffffffffffffffff021916908373ffffffffffffffffffffffffffffffffffffffff1602179055508560015f6101000a81548173ffffffffffffffffffffffffffffffffffffffff021916908373ffffffffffffffffffffffffffffffffffffffff1602179055506103e9336107a6565b8315610443575f855f0160086101000a81548160ff0219169083151502179055507fc7f505b2f371ae2175ee4913f4499e1f2633a7b5936321eed1cdaeb6115181d2600160405161043a91906114f4565b60405180910390a15b50505050505050565b6104546107ba565b61045d826108a0565b61046782826108ab565b5050565b5f6104746109c9565b7f360894a13ba1a3210667c828492db98dca3e2076cc3735a920a3ca505d382bbc5f1b905090565b6104a4610a50565b6104ad5f610ad7565b565b5f60015f9054906101000a900473ffffffffffffffffffffffffffffffffffffffff1673ffffffffffffffffffffffffffffffffffffffff163373ffffffffffffffffffffffffffffffffffffffff161461053f576040517f08c379a000000000000000000000000000000000000000000000000000000000815260040161053690611557565b60405180910390fd5b5f84806020019051810190610554919061282d565b90505f8054906101000a900473ffffffffffffffffffffffffffffffffffffffff1673ffffffffffffffffffffffffffffffffffffffff1663ab750e75858560025460028a6040516105a691906128b8565b602060405180830381855afa1580156105c1573d5f803e3d5ffd5b5050506040513d601f19601f820116820180604052508101906105e491906128ce565b6040518563ffffffff1660e01b81526004016106039493929190612935565b5f6040518083038186803b158015610619575f80fd5b505afa15801561062b573d5f803e3d5ffd5b505050507f4e8f7dc31ca78bc800a87e098b882d89dddcd76edd47b38261e9402c3a6c85dc8160405161065e91906135ce565b60405180910390a180602001519150509392505050565b5f8061067f610ba8565b9050805f015f9054906101000a900473ffffffffffffffffffffffffffffffffffffffff1691505090565b6106b2610a50565b8060028190555050565b6040518060400160405280600581526020017f352e302e3000000000000000000000000000000000000000000000000000000081525081565b60025481565b610703610a50565b5f73ffffffffffffffffffffffffffffffffffffffff168173ffffffffffffffffffffffffffffffffffffffff1603610773575f6040517f1e4fbdf700000000000000000000000000000000000000000000000000000000815260040161076a919061136c565b60405180910390fd5b61077c81610ad7565b50565b5f7ff0c57e16840df040f15088dc2f81fe391c3923bec73e23a9662efc9c229c6a00905090565b6107ae610bcf565b6107b781610c0f565b50565b7f000000000000000000000000000000000000000000000000000000000000000073ffffffffffffffffffffffffffffffffffffffff163073ffffffffffffffffffffffffffffffffffffffff16148061086757507f000000000000000000000000000000000000000000000000000000000000000073ffffffffffffffffffffffffffffffffffffffff1661084e610c93565b73ffffffffffffffffffffffffffffffffffffffff1614155b1561089e576040517fe07c8dba00000000000000000000000000000000000000000000000000000000815260040160405180910390fd5b565b6108a8610a50565b50565b8173ffffffffffffffffffffffffffffffffffffffff166352d1902d6040518163ffffffff1660e01b8152600401602060405180830381865afa92505050801561091357506040513d601f19601f8201168201806040525081019061091091906128ce565b60015b61095457816040517f4c9c8ce300000000000000000000000000000000000000000000000000000000815260040161094b919061136c565b60405180910390fd5b7f360894a13ba1a3210667c828492db98dca3e2076cc3735a920a3ca505d382bbc5f1b81146109ba57806040517faa1d49a40000000000000000000000000000000000000000000000000000000081526004016109b1919061126e565b60405180910390fd5b6109c48383610ce6565b505050565b7f000000000000000000000000000000000000000000000000000000000000000073ffffffffffffffffffffffffffffffffffffffff163073ffffffffffffffffffffffffffffffffffffffff1614610a4e576040517fe07c8dba00000000000000000000000000000000000000000000000000000000815260040160405180910390fd5b565b610a58610d58565b73ffffffffffffffffffffffffffffffffffffffff16610a76610675565b73ffffffffffffffffffffffffffffffffffffffff1614610ad557610a99610d58565b6040517f118cdaa7000000000000000000000000000000000000000000000000000000008152600401610acc919061136c565b60405180910390fd5b565b5f610ae0610ba8565b90505f815f015f9054906101000a900473ffffffffffffffffffffffffffffffffffffffff16905082825f015f6101000a81548173ffffffffffffffffffffffffffffffffffffffff021916908373ffffffffffffffffffffffffffffffffffffffff1602179055508273ffffffffffffffffffffffffffffffffffffffff168173ffffffffffffffffffffffffffffffffffffffff167f8be0079c531659141344cd1fd0a4f28419497f9722a3daafe3b4186f6b6457e060405160405180910390a3505050565b5f7f9016d09d72d40fdae2fd8ceac6b6234c7706214fd39c1cd1e609a0528c199300905090565b610bd7610d5f565b610c0d576040517fd7e6bcf800000000000000000000000000000000000000000000000000000000815260040160405180910390fd5b565b610c17610bcf565b5f73ffffffffffffffffffffffffffffffffffffffff168173ffffffffffffffffffffffffffffffffffffffff1603610c87575f6040517f1e4fbdf7000000000000000000000000000000000000000000000000000000008152600401610c7e919061136c565b60405180910390fd5b610c9081610ad7565b50565b5f610cbf7f360894a13ba1a3210667c828492db98dca3e2076cc3735a920a3ca505d382bbc5f1b610d7d565b5f015f9054906101000a900473ffffffffffffffffffffffffffffffffffffffff16905090565b610cef82610d86565b8173ffffffffffffffffffffffffffffffffffffffff167fbc7cd75a20ee27fd9adebab32041f755214dbc6bffa90cc0225b39da2e5c2d3b60405160405180910390a25f81511115610d4b57610d458282610e4f565b50610d54565b610d53610ecf565b5b5050565b5f33905090565b5f610d6861077f565b5f0160089054906101000a900460ff16905090565b5f819050919050565b5f8173ffffffffffffffffffffffffffffffffffffffff163b03610de157806040517f4c9c8ce3000000000000000000000000000000000000000000000000000000008152600401610dd8919061136c565b60405180910390fd5b80610e0d7f360894a13ba1a3210667c828492db98dca3e2076cc3735a920a3ca505d382bbc5f1b610d7d565b5f015f6101000a81548173ffffffffffffffffffffffffffffffffffffffff021916908373ffffffffffffffffffffffffffffffffffffffff16021790555050565b60605f808473ffffffffffffffffffffffffffffffffffffffff1684604051610e7891906128b8565b5f60405180830381855af49150503d805f8114610eb0576040519150601f19603f3d011682016040523d82523d5f602084013e610eb5565b606091505b5091509150610ec5858383610f0b565b9250505092915050565b5f341115610f09576040517fb398979f00000000000000000000000000000000000000000000000000000000815260040160405180910390fd5b565b606082610f2057610f1b82610f98565b610f90565b5f8251148015610f4657505f8473ffffffffffffffffffffffffffffffffffffffff163b145b15610f8857836040517f9996b315000000000000000000000000000000000000000000000000000000008152600401610f7f919061136c565b60405180910390fd5b819050610f91565b5b9392505050565b5f81511115610faa5780518082602001fd5b6040517fd6bda27500000000000000000000000000000000000000000000000000000000815260040160405180910390fd5b5f604051905090565b5f80fd5b5f80fd5b5f73ffffffffffffffffffffffffffffffffffffffff82169050919050565b5f61101682610fed565b9050919050565b5f6110278261100c565b9050919050565b6110378161101d565b8114611041575f80fd5b50565b5f813590506110528161102e565b92915050565b6110618161100c565b811461106b575f80fd5b50565b5f8135905061107c81611058565b92915050565b5f806040838503121561109857611097610fe5565b5b5f6110a585828601611044565b92505060206110b68582860161106e565b9150509250929050565b5f80fd5b5f80fd5b5f601f19601f8301169050919050565b7f4e487b71000000000000000000000000000000000000000000000000000000005f52604160045260245ffd5b61110e826110c8565b810181811067ffffffffffffffff8211171561112d5761112c6110d8565b5b80604052505050565b5f61113f610fdc565b905061114b8282611105565b919050565b5f67ffffffffffffffff82111561116a576111696110d8565b5b611173826110c8565b9050602081019050919050565b828183375f83830152505050565b5f6111a061119b84611150565b611136565b9050828152602081018484840111156111bc576111bb6110c4565b5b6111c7848285611180565b509392505050565b5f82601f8301126111e3576111e26110c0565b5b81356111f384826020860161118e565b91505092915050565b5f806040838503121561121257611211610fe5565b5b5f61121f8582860161106e565b925050602083013567ffffffffffffffff8111156112405761123f610fe9565b5b61124c858286016111cf565b9150509250929050565b5f819050919050565b61126881611256565b82525050565b5f6020820190506112815f83018461125f565b92915050565b5f80fd5b5f80fd5b5f8083601f8401126112a4576112a36110c0565b5b8235905067ffffffffffffffff8111156112c1576112c0611287565b5b6020830191508360018202830111156112dd576112dc61128b565b5b9250929050565b5f805f604084860312156112fb576112fa610fe5565b5b5f84013567ffffffffffffffff81111561131857611317610fe9565b5b611324868287016111cf565b935050602084013567ffffffffffffffff81111561134557611344610fe9565b5b6113518682870161128f565b92509250509250925092565b6113668161100c565b82525050565b5f60208201905061137f5f83018461135d565b92915050565b61138e81611256565b8114611398575f80fd5b50565b5f813590506113a981611385565b92915050565b5f602082840312156113c4576113c3610fe5565b5b5f6113d18482850161139b565b91505092915050565b5f81519050919050565b5f82825260208201905092915050565b5f5b838110156114115780820151818401526020810190506113f6565b5f8484015250505050565b5f611426826113da565b61143081856113e4565b93506114408185602086016113f4565b611449816110c8565b840191505092915050565b5f6020820190508181035f83015261146c818461141c565b905092915050565b5f6020828403121561148957611488610fe5565b5b5f6114968482850161106e565b91505092915050565b5f819050919050565b5f67ffffffffffffffff82169050919050565b5f819050919050565b5f6114de6114d96114d48461149f565b6114bb565b6114a8565b9050919050565b6114ee816114c4565b82525050565b5f6020820190506115075f8301846114e5565b92915050565b7f6d73672e73656e646572206973206e6f74204464657853657175656e636572005f82015250565b5f611541601f836113e4565b915061154c8261150d565b602082019050919050565b5f6020820190508181035f83015261156e81611535565b9050919050565b5f80fd5b5f80fd5b5f8115159050919050565b6115918161157d565b811461159b575f80fd5b50565b5f815190506115ac81611588565b92915050565b5f815190506115c081611385565b92915050565b5f67ffffffffffffffff8211156115e0576115df6110d8565b5b602082029050602081019050919050565b5f67ffffffffffffffff82111561160b5761160a6110d8565b5b611614826110c8565b9050602081019050919050565b5f61163361162e846115f1565b611136565b90508281526020810184848401111561164f5761164e6110c4565b5b61165a8482856113f4565b509392505050565b5f82601f830112611676576116756110c0565b5b8151611686848260208601611621565b91505092915050565b5f67ffffffffffffffff8211156116a9576116a86110d8565b5b602082029050602081019050919050565b5f6116cc6116c78461168f565b611136565b905080838252602082019050602084028301858111156116ef576116ee61128b565b5b835b8181101561173657805167ffffffffffffffff811115611714576117136110c0565b5b8086016117218982611662565b855260208501945050506020810190506116f1565b5050509392505050565b5f82601f830112611754576117536110c0565b5b81516117648482602086016116ba565b91505092915050565b5f67ffffffffffffffff821115611787576117866110d8565b5b602082029050602081019050919050565b5f8160030b9050919050565b6117ad81611798565b81146117b7575f80fd5b50565b5f815190506117c8816117a4565b92915050565b5f606082840312156117e3576117e2611575565b5b6117ed6060611136565b90505f82015167ffffffffffffffff81111561180c5761180b611579565b5b61181884828501611662565b5f83015250602061182b848285016117ba565b602083015250604082015167ffffffffffffffff81111561184f5761184e611579565b5b61185b84828501611740565b60408301525092915050565b5f6118796118748461176d565b611136565b9050808382526020820190506020840283018581111561189c5761189b61128b565b5b835b818110156118e357805167ffffffffffffffff8111156118c1576118c06110c0565b5b8086016118ce89826117ce565b8552602085019450505060208101905061189e565b5050509392505050565b5f82601f830112611901576119006110c0565b5b8151611911848260208601611867565b91505092915050565b5f67ffffffffffffffff821115611934576119336110d8565b5b602082029050602081019050919050565b5f6060828403121561195a57611959611575565b5b6119646060611136565b90505f82015167ffffffffffffffff81111561198357611982611579565b5b61198f84828501611662565b5f83015250602082015167ffffffffffffffff8111156119b2576119b1611579565b5b6119be84828501611662565b602083015250604082015167ffffffffffffffff8111156119e2576119e1611579565b5b6119ee84828501611662565b60408301525092915050565b5f611a0c611a078461191a565b611136565b90508083825260208201905060208402830185811115611a2f57611a2e61128b565b5b835b81811015611a7657805167ffffffffffffffff811115611a5457611a536110c0565b5b808601611a618982611945565b85526020850194505050602081019050611a31565b5050509392505050565b5f82601f830112611a9457611a936110c0565b5b8151611aa48482602086016119fa565b91505092915050565b5f60608284031215611ac257611ac1611575565b5b611acc6060611136565b90505f82015167ffffffffffffffff811115611aeb57611aea611579565b5b611af784828501611662565b5f83015250602082015167ffffffffffffffff811115611b1a57611b19611579565b5b611b2684828501611662565b602083015250604082015167ffffffffffffffff811115611b4a57611b49611579565b5b611b5684828501611740565b60408301525092915050565b5f60e08284031215611b7757611b76611575565b5b611b8160e0611136565b90505f82015167ffffffffffffffff811115611ba057611b9f611579565b5b611bac84828501611662565b5f83015250602082015167ffffffffffffffff811115611bcf57611bce611579565b5b611bdb84828501611662565b602083015250604082015167ffffffffffffffff811115611bff57611bfe611579565b5b611c0b84828501611662565b604083015250606082015167ffffffffffffffff811115611c2f57611c2e611579565b5b611c3b84828501611740565b606083015250608082015167ffffffffffffffff811115611c5f57611c5e611579565b5b611c6b848285016118ed565b60808301525060a082015167ffffffffffffffff811115611c8f57611c8e611579565b5b611c9b84828501611a80565b60a08301525060c082015167ffffffffffffffff811115611cbf57611cbe611579565b5b611ccb84828501611aad565b60c08301525092915050565b5f67ffffffffffffffff821115611cf157611cf06110d8565b5b602082029050602081019050919050565b5f67ffffffffffffffff821115611d1c57611d1b6110d8565b5b602082029050602081019050919050565b5f67ffffffffffffffff821115611d4757611d466110d8565b5b602082029050602081019050919050565b5f61ffff82169050919050565b611d6e81611d58565b8114611d78575f80fd5b50565b5f81519050611d8981611d65565b92915050565b5f60408284031215611da457611da3611575565b5b611dae6040611136565b90505f611dbd84828501611d7b565b5f83015250602082015167ffffffffffffffff811115611de057611ddf611579565b5b611dec84828501611662565b60208301525092915050565b5f611e0a611e0584611d2d565b611136565b90508083825260208201905060208402830185811115611e2d57611e2c61128b565b5b835b81811015611e7457805167ffffffffffffffff811115611e5257611e516110c0565b5b808601611e5f8982611d8f565b85526020850194505050602081019050611e2f565b5050509392505050565b5f82601f830112611e9257611e916110c0565b5b8151611ea2848260208601611df8565b91505092915050565b5f67ffffffffffffffff821115611ec557611ec46110d8565b5b602082029050602081019050919050565b5f60608284031215611eeb57611eea611575565b5b611ef56060611136565b90505f82015167ffffffffffffffff811115611f1457611f13611579565b5b611f2084828501611662565b5f83015250602082015167ffffffffffffffff811115611f4357611f42611579565b5b611f4f84828501611662565b602083015250604082015167ffffffffffffffff811115611f7357611f72611579565b5b611f7f84828501611662565b60408301525092915050565b5f611f9d611f9884611eab565b611136565b90508083825260208201905060208402830185811115611fc057611fbf61128b565b5b835b8181101561200757805167ffffffffffffffff811115611fe557611fe46110c0565b5b808601611ff28982611ed6565b85526020850194505050602081019050611fc2565b5050509392505050565b5f82601f830112612025576120246110c0565b5b8151612035848260208601611f8b565b91505092915050565b5f6060828403121561205357612052611575565b5b61205d6060611136565b90505f82015167ffffffffffffffff81111561207c5761207b611579565b5b61208884828501611662565b5f83015250602082015167ffffffffffffffff8111156120ab576120aa611579565b5b6120b784828501611e7e565b602083015250604082015167ffffffffffffffff8111156120db576120da611579565b5b6120e784828501612011565b60408301525092915050565b5f61210561210084611d02565b611136565b905080838252602082019050602084028301858111156121285761212761128b565b5b835b8181101561216f57805167ffffffffffffffff81111561214d5761214c6110c0565b5b80860161215a898261203e565b8552602085019450505060208101905061212a565b5050509392505050565b5f82601f83011261218d5761218c6110c0565b5b815161219d8482602086016120f3565b91505092915050565b5f67ffffffffffffffff8211156121c0576121bf6110d8565b5b602082029050602081019050919050565b5f602082840312156121e6576121e5611575565b5b6121f06020611136565b90505f82015167ffffffffffffffff81111561220f5761220e611579565b5b61221b84828501611662565b5f8301525092915050565b5f612238612233846121a6565b611136565b9050808382526020820190506020840283018581111561225b5761225a61128b565b5b835b818110156122a257805167ffffffffffffffff8111156122805761227f6110c0565b5b80860161228d89826121d1565b8552602085019450505060208101905061225d565b5050509392505050565b5f82601f8301126122c0576122bf6110c0565b5b81516122d0848260208601612226565b91505092915050565b5f67ffffffffffffffff8211156122f3576122f26110d8565b5b602082029050602081019050919050565b5f6060828403121561231957612318611575565b5b6123236060611136565b90505f82015167ffffffffffffffff81111561234257612341611579565b5b61234e84828501611662565b5f830152506020612361848285016117ba565b602083015250604082015167ffffffffffffffff81111561238557612384611579565b5b61239184828501611740565b60408301525092915050565b5f6123af6123aa846122d9565b611136565b905080838252602082019050602084028301858111156123d2576123d161128b565b5b835b8181101561241957805167ffffffffffffffff8111156123f7576123f66110c0565b5b8086016124048982612304565b855260208501945050506020810190506123d4565b5050509392505050565b5f82601f830112612437576124366110c0565b5b815161244784826020860161239d565b91505092915050565b5f60e0828403121561246557612464611575565b5b61246f60e0611136565b90505f82015167ffffffffffffffff81111561248e5761248d611579565b5b61249a84828501611662565b5f83015250602082015167ffffffffffffffff8111156124bd576124bc611579565b5b6124c984828501611662565b602083015250604082015167ffffffffffffffff8111156124ed576124ec611579565b5b6124f984828501611662565b604083015250606082015167ffffffffffffffff81111561251d5761251c611579565b5b61252984828501612179565b606083015250608082015167ffffffffffffffff81111561254d5761254c611579565b5b612559848285016122ac565b60808301525060a082015167ffffffffffffffff81111561257d5761257c611579565b5b61258984828501612423565b60a08301525060c082015167ffffffffffffffff8111156125ad576125ac611579565b5b6125b984828501611aad565b60c08301525092915050565b5f6125d76125d284611cd7565b611136565b905080838252602082019050602084028301858111156125fa576125f961128b565b5b835b8181101561264157805167ffffffffffffffff81111561261f5761261e6110c0565b5b80860161262c8982612450565b855260208501945050506020810190506125fc565b5050509392505050565b5f82601f83011261265f5761265e6110c0565b5b815161266f8482602086016125c5565b91505092915050565b5f6040828403121561268d5761268c611575565b5b6126976040611136565b90505f82015167ffffffffffffffff8111156126b6576126b5611579565b5b6126c284828501611b62565b5f83015250602082015167ffffffffffffffff8111156126e5576126e4611579565b5b6126f18482850161264b565b60208301525092915050565b5f61270f61270a846115c6565b611136565b905080838252602082019050602084028301858111156127325761273161128b565b5b835b8181101561277957805167ffffffffffffffff811115612757576127566110c0565b5b8086016127648982612678565b85526020850194505050602081019050612734565b5050509392505050565b5f82601f830112612797576127966110c0565b5b81516127a78482602086016126fd565b91505092915050565b5f606082840312156127c5576127c4611575565b5b6127cf6060611136565b90505f6127de8482850161159e565b5f8301525060206127f1848285016115b2565b602083015250604082015167ffffffffffffffff81111561281557612814611579565b5b61282184828501612783565b60408301525092915050565b5f6020828403121561284257612841610fe5565b5b5f82015167ffffffffffffffff81111561285f5761285e610fe9565b5b61286b848285016127b0565b91505092915050565b5f81519050919050565b5f81905092915050565b5f61289282612874565b61289c818561287e565b93506128ac8185602086016113f4565b80840191505092915050565b5f6128c38284612888565b915081905092915050565b5f602082840312156128e3576128e2610fe5565b5b5f6128f0848285016115b2565b91505092915050565b5f82825260208201905092915050565b5f61291483856128f9565b9350612921838584611180565b61292a836110c8565b840190509392505050565b5f6060820190508181035f83015261294e818688612909565b905061295d602083018561125f565b61296a604083018461125f565b95945050505050565b61297c8161157d565b82525050565b61298b81611256565b82525050565b5f81519050919050565b5f82825260208201905092915050565b5f819050602082019050919050565b5f82825260208201905092915050565b5f6129d4826113da565b6129de81856129ba565b93506129ee8185602086016113f4565b6129f7816110c8565b840191505092915050565b5f81519050919050565b5f82825260208201905092915050565b5f819050602082019050919050565b5f612a3683836129ca565b905092915050565b5f602082019050919050565b5f612a5482612a02565b612a5e8185612a0c565b935083602082028501612a7085612a1c565b805f5b85811015612aab5784840389528151612a8c8582612a2b565b9450612a9783612a3e565b925060208a01995050600181019050612a73565b50829750879550505050505092915050565b5f81519050919050565b5f82825260208201905092915050565b5f819050602082019050919050565b612aef81611798565b82525050565b5f606083015f8301518482035f860152612b0f82826129ca565b9150506020830151612b246020860182612ae6565b5060408301518482036040860152612b3c8282612a4a565b9150508091505092915050565b5f612b548383612af5565b905092915050565b5f602082019050919050565b5f612b7282612abd565b612b7c8185612ac7565b935083602082028501612b8e85612ad7565b805f5b85811015612bc95784840389528151612baa8582612b49565b9450612bb583612b5c565b925060208a01995050600181019050612b91565b50829750879550505050505092915050565b5f81519050919050565b5f82825260208201905092915050565b5f819050602082019050919050565b5f606083015f8301518482035f860152612c1e82826129ca565b91505060208301518482036020860152612c3882826129ca565b91505060408301518482036040860152612c5282826129ca565b9150508091505092915050565b5f612c6a8383612c04565b905092915050565b5f602082019050919050565b5f612c8882612bdb565b612c928185612be5565b935083602082028501612ca485612bf5565b805f5b85811015612cdf5784840389528151612cc08582612c5f565b9450612ccb83612c72565b925060208a01995050600181019050612ca7565b50829750879550505050505092915050565b5f606083015f8301518482035f860152612d0b82826129ca565b91505060208301518482036020860152612d2582826129ca565b91505060408301518482036040860152612d3f8282612a4a565b9150508091505092915050565b5f60e083015f8301518482035f860152612d6682826129ca565b91505060208301518482036020860152612d8082826129ca565b91505060408301518482036040860152612d9a82826129ca565b91505060608301518482036060860152612db48282612a4a565b91505060808301518482036080860152612dce8282612b68565b91505060a083015184820360a0860152612de88282612c7e565b91505060c083015184820360c0860152612e028282612cf1565b9150508091505092915050565b5f81519050919050565b5f82825260208201905092915050565b5f819050602082019050919050565b5f81519050919050565b5f82825260208201905092915050565b5f819050602082019050919050565b5f81519050919050565b5f82825260208201905092915050565b5f819050602082019050919050565b612e9381611d58565b82525050565b5f604083015f830151612eae5f860182612e8a565b5060208301518482036020860152612ec682826129ca565b9150508091505092915050565b5f612ede8383612e99565b905092915050565b5f602082019050919050565b5f612efc82612e61565b612f068185612e6b565b935083602082028501612f1885612e7b565b805f5b85811015612f535784840389528151612f348582612ed3565b9450612f3f83612ee6565b925060208a01995050600181019050612f1b565b50829750879550505050505092915050565b5f81519050919050565b5f82825260208201905092915050565b5f819050602082019050919050565b5f606083015f8301518482035f860152612fa882826129ca565b91505060208301518482036020860152612fc282826129ca565b91505060408301518482036040860152612fdc82826129ca565b9150508091505092915050565b5f612ff48383612f8e565b905092915050565b5f602082019050919050565b5f61301282612f65565b61301c8185612f6f565b93508360208202850161302e85612f7f565b805f5b85811015613069578484038952815161304a8582612fe9565b945061305583612ffc565b925060208a01995050600181019050613031565b50829750879550505050505092915050565b5f606083015f8301518482035f86015261309582826129ca565b915050602083015184820360208601526130af8282612ef2565b915050604083015184820360408601526130c98282613008565b9150508091505092915050565b5f6130e1838361307b565b905092915050565b5f602082019050919050565b5f6130ff82612e38565b6131098185612e42565b93508360208202850161311b85612e52565b805f5b85811015613156578484038952815161313785826130d6565b9450613142836130e9565b925060208a0199505060018101905061311e565b50829750879550505050505092915050565b5f81519050919050565b5f82825260208201905092915050565b5f819050602082019050919050565b5f602083015f8301518482035f8601526131ab82826129ca565b9150508091505092915050565b5f6131c38383613191565b905092915050565b5f602082019050919050565b5f6131e182613168565b6131eb8185613172565b9350836020820285016131fd85613182565b805f5b85811015613238578484038952815161321985826131b8565b9450613224836131cb565b925060208a01995050600181019050613200565b50829750879550505050505092915050565b5f81519050919050565b5f82825260208201905092915050565b5f819050602082019050919050565b5f606083015f8301518482035f86015261328d82826129ca565b91505060208301516132a26020860182612ae6565b50604083015184820360408601526132ba8282612a4a565b9150508091505092915050565b5f6132d28383613273565b905092915050565b5f602082019050919050565b5f6132f08261324a565b6132fa8185613254565b93508360208202850161330c85613264565b805f5b85811015613347578484038952815161332885826132c7565b9450613333836132da565b925060208a0199505060018101905061330f565b50829750879550505050505092915050565b5f60e083015f8301518482035f86015261337382826129ca565b9150506020830151848203602086015261338d82826129ca565b915050604083015184820360408601526133a782826129ca565b915050606083015184820360608601526133c182826130f5565b915050608083015184820360808601526133db82826131d7565b91505060a083015184820360a08601526133f582826132e6565b91505060c083015184820360c086015261340f8282612cf1565b9150508091505092915050565b5f6134278383613359565b905092915050565b5f602082019050919050565b5f61344582612e0f565b61344f8185612e19565b93508360208202850161346185612e29565b805f5b8581101561349c578484038952815161347d858261341c565b94506134888361342f565b925060208a01995050600181019050613464565b50829750879550505050505092915050565b5f604083015f8301518482035f8601526134c88282612d4c565b915050602083015184820360208601526134e2828261343b565b9150508091505092915050565b5f6134fa83836134ae565b905092915050565b5f602082019050919050565b5f61351882612991565b613522818561299b565b935083602082028501613534856129ab565b805f5b8581101561356f578484038952815161355085826134ef565b945061355b83613502565b925060208a01995050600181019050613537565b50829750879550505050505092915050565b5f606083015f8301516135965f860182612973565b5060208301516135a96020860182612982565b50604083015184820360408601526135c1828261350e565b9150508091505092915050565b5f6020820190508181035f8301526135e68184613581565b90509291505056fea2646970667358221220ddb6a6fa92e334696e0981072899d622d6a11e01264ee8212445a4603b97918364736f6c63430008180033",
  "linkReferences": {},
  "deployedLinkReferences": {}
}