{
  "_format": "hh-sol-artifact-1",
  "contractName": "DdexEmitter",
  "sourceName": "contracts/DdexEmitter.sol",
  "abi": [
    {
      "inputs": [],
      "stateMutability": "nonpayable",
      "type": "constructor"
    },
    {
      "inputs": [
        {
          "internalType": "address",
          "name": "target",
          "type": "address"
        }
      ],
      "name": "AddressEmptyCode",
      "type": "error"
    },
    {
      "inputs": [
        {
          "internalType": "address",
          "name": "implementation",
          "type": "address"
        }
      ],
      "name": "ERC1967InvalidImplementation",
      "type": "error"
    },
    {
      "inputs": [],
      "name": "ERC1967NonPayable",
      "type": "error"
    },
    {
      "inputs": [],
      "name": "FailedCall",
      "type": "error"
    },
    {
      "inputs": [],
      "name": "InvalidInitialization",
      "type": "error"
    },
    {
      "inputs": [],
      "name": "NotInitializing",
      "type": "error"
    },
    {
      "inputs": [
        {
          "internalType": "address",
          "name": "owner",
          "type": "address"
        }
      ],
      "name": "OwnableInvalidOwner",
      "type": "error"
    },
    {
      "inputs": [
        {
          "internalType": "address",
          "name": "account",
          "type": "address"
        }
      ],
      "name": "OwnableUnauthorizedAccount",
      "type": "error"
    },
    {
      "inputs": [],
      "name": "UUPSUnauthorizedCallContext",
      "type": "error"
    },
    {
      "inputs": [
        {
          "internalType": "bytes32",
          "name": "slot",
          "type": "bytes32"
        }
      ],
      "name": "UUPSUnsupportedProxiableUUID",
      "type": "error"
    },
    {
      "anonymous": false,
      "inputs": [
        {
          "components": [
            {
              "internalType": "bool",
              "name": "valid",
              "type": "bool"
            },
            {
              "internalType": "bytes32",
              "name": "digest",
              "type": "bytes32"
            },
            {
              "components": [
                {
                  "components": [
                    {
                      "internalType": "string",
                      "name": "title_text",
                      "type": "string"
                    },
                    {
                      "internalType": "string",
                      "name": "subtitle",
                      "type": "string"
                    },
                    {
                      "internalType": "string",
                      "name": "display_title_text",
                      "type": "string"
                    },
                    {
                      "internalType": "string[]",
                      "name": "release_types",
                      "type": "string[]"
                    },
                    {
                      "components": [
                        {
                          "internalType": "string",
                          "name": "artist_party_reference",
                          "type": "string"
                        },
                        {
                          "internalType": "int32",
                          "name": "sequence_number",
                          "type": "int32"
                        },
                        {
                          "internalType": "string[]",
                          "name": "display_artist_roles",
                          "type": "string[]"
                        }
                      ],
                      "internalType": "struct DisplayArtist[]",
                      "name": "display_artists",
                      "type": "tuple[]"
                    },
                    {
                      "components": [
                        {
                          "internalType": "string",
                          "name": "applicable_territory_code",
                          "type": "string"
                        },
                        {
                          "internalType": "string",
                          "name": "language_and_script_type",
                          "type": "string"
                        },
                        {
                          "internalType": "string",
                          "name": "display_artist_name",
                          "type": "string"
                        }
                      ],
                      "internalType": "struct DisplayArtistName[]",
                      "name": "display_artist_names",
                      "type": "tuple[]"
                    },
                    {
                      "components": [
                        {
                          "internalType": "string",
                          "name": "grid",
                          "type": "string"
                        },
                        {
                          "internalType": "string",
                          "name": "icpn",
                          "type": "string"
                        },
                        {
                          "internalType": "string[]",
                          "name": "proprietary_ids",
                          "type": "string[]"
                        }
                      ],
                      "internalType": "struct ReleaseId",
                      "name": "release_id",
                      "type": "tuple"
                    }
                  ],
                  "internalType": "struct Release",
                  "name": "release",
                  "type": "tuple"
                },
                {
                  "components": [
                    {
                      "internalType": "string",
                      "name": "display_title",
                      "type": "string"
                    },
                    {
                      "internalType": "string",
                      "name": "subtitle",
                      "type": "string"
                    },
                    {
                      "internalType": "string",
                      "name": "display_title_text",
                      "type": "string"
                    },
                    {
                      "components": [
                        {
                          "internalType": "string",
                          "name": "isrc",
                          "type": "string"
                        },
                        {
                          "components": [
                            {
                              "internalType": "uint16",
                              "name": "year",
                              "type": "uint16"
                            },
                            {
                              "internalType": "string",
                              "name": "p_line_text",
                              "type": "string"
                            }
                          ],
                          "internalType": "struct PLine[]",
                          "name": "p_lines",
                          "type": "tuple[]"
                        },
                        {
                          "components": [
                            {
                              "internalType": "string",
                              "name": "namespace",
                              "type": "string"
                            },
                            {
                              "internalType": "string",
                              "name": "user_defined_value",
                              "type": "string"
                            },
                            {
                              "internalType": "string",
                              "name": "parameter",
                              "type": "string"
                            }
                          ],
                          "internalType": "struct Fingerprint[]",
                          "name": "fingerprints",
                          "type": "tuple[]"
                        }
                      ],
                      "internalType": "struct SoundRecordingEdition[]",
                      "name": "sound_recording_editions",
                      "type": "tuple[]"
                    },
                    {
                      "components": [
                        {
                          "internalType": "string",
                          "name": "iswc",
                          "type": "string"
                        }
                      ],
                      "internalType": "struct WorkId[]",
                      "name": "work_ids",
                      "type": "tuple[]"
                    },
                    {
                      "components": [
                        {
                          "internalType": "string",
                          "name": "contributor_party_reference",
                          "type": "string"
                        },
                        {
                          "internalType": "int32",
                          "name": "sequence_number",
                          "type": "int32"
                        },
                        {
                          "internalType": "string[]",
                          "name": "contributor_roles",
                          "type": "string[]"
                        }
                      ],
                      "internalType": "struct Contributor[]",
                      "name": "contributors",
                      "type": "tuple[]"
                    },
                    {
                      "components": [
                        {
                          "internalType": "string",
                          "name": "grid",
                          "type": "string"
                        },
                        {
                          "internalType": "string",
                          "name": "icpn",
                          "type": "string"
                        },
                        {
                          "internalType": "string[]",
                          "name": "proprietary_ids",
                          "type": "string[]"
                        }
                      ],
                      "internalType": "struct ReleaseId",
                      "name": "track_release_id",
                      "type": "tuple"
                    }
                  ],
                  "internalType": "struct SoundRecording[]",
                  "name": "sound_recordings",
                  "type": "tuple[]"
                }
              ],
              "internalType": "struct ProvedMessage[]",
              "name": "messages",
              "type": "tuple[]"
            },
            {
              "internalType": "string[]",
              "name": "rejected_messages",
              "type": "string[]"
            }
          ],
          "indexed": false,
          "internalType": "struct ProverPublicOutputs",
          "name": "proverPublicOutputs",
          "type": "tuple"
        }
      ],
      "name": "BlobProcessed",
      "type": "event"
    },
    {
      "anonymous": false,
      "inputs": [
        {
          "components": [
            {
              "internalType": "bool",
              "name": "valid",
              "type": "bool"
            },
            {
              "internalType": "bytes32",
              "name": "digest",
              "type": "bytes32"
            },
            {
              "components": [
                {
                  "components": [
                    {
                      "internalType": "string",
                      "name": "title_text",
                      "type": "string"
                    },
                    {
                      "internalType": "string",
                      "name": "subtitle",
                      "type": "string"
                    },
                    {
                      "internalType": "string",
                      "name": "display_title_text",
                      "type": "string"
                    },
                    {
                      "internalType": "string[]",
                      "name": "release_types",
                      "type": "string[]"
                    },
                    {
                      "components": [
                        {
                          "internalType": "string",
                          "name": "artist_party_reference",
                          "type": "string"
                        },
                        {
                          "internalType": "int32",
                          "name": "sequence_number",
                          "type": "int32"
                        },
                        {
                          "internalType": "string[]",
                          "name": "display_artist_roles",
                          "type": "string[]"
                        }
                      ],
                      "internalType": "struct DisplayArtist[]",
                      "name": "display_artists",
                      "type": "tuple[]"
                    },
                    {
                      "components": [
                        {
                          "internalType": "string",
                          "name": "applicable_territory_code",
                          "type": "string"
                        },
                        {
                          "internalType": "string",
                          "name": "language_and_script_type",
                          "type": "string"
                        },
                        {
                          "internalType": "string",
                          "name": "display_artist_name",
                          "type": "string"
                        }
                      ],
                      "internalType": "struct DisplayArtistName[]",
                      "name": "display_artist_names",
                      "type": "tuple[]"
                    },
                    {
                      "components": [
                        {
                          "internalType": "string",
                          "name": "grid",
                          "type": "string"
                        },
                        {
                          "internalType": "string",
                          "name": "icpn",
                          "type": "string"
                        },
                        {
                          "internalType": "string[]",
                          "name": "proprietary_ids",
                          "type": "string[]"
                        }
                      ],
                      "internalType": "struct ReleaseId",
                      "name": "release_id",
                      "type": "tuple"
                    }
                  ],
                  "internalType": "struct Release",
                  "name": "release",
                  "type": "tuple"
                },
                {
                  "components": [
                    {
                      "internalType": "string",
                      "name": "display_title",
                      "type": "string"
                    },
                    {
                      "internalType": "string",
                      "name": "subtitle",
                      "type": "string"
                    },
                    {
                      "internalType": "string",
                      "name": "display_title_text",
                      "type": "string"
                    },
                    {
                      "components": [
                        {
                          "internalType": "string",
                          "name": "isrc",
                          "type": "string"
                        },
                        {
                          "components": [
                            {
                              "internalType": "uint16",
                              "name": "year",
                              "type": "uint16"
                            },
                            {
                              "internalType": "string",
                              "name": "p_line_text",
                              "type": "string"
                            }
                          ],
                          "internalType": "struct PLine[]",
                          "name": "p_lines",
                          "type": "tuple[]"
                        },
                        {
                          "components": [
                            {
                              "internalType": "string",
                              "name": "namespace",
                              "type": "string"
                            },
                            {
                              "internalType": "string",
                              "name": "user_defined_value",
                              "type": "string"
                            },
                            {
                              "internalType": "string",
                              "name": "parameter",
                              "type": "string"
                            }
                          ],
                          "internalType": "struct Fingerprint[]",
                          "name": "fingerprints",
                          "type": "tuple[]"
                        }
                      ],
                      "internalType": "struct SoundRecordingEdition[]",
                      "name": "sound_recording_editions",
                      "type": "tuple[]"
                    },
                    {
                      "components": [
                        {
                          "internalType": "string",
                          "name": "iswc",
                          "type": "string"
                        }
                      ],
                      "internalType": "struct WorkId[]",
                      "name": "work_ids",
                      "type": "tuple[]"
                    },
                    {
                      "components": [
                        {
                          "internalType": "string",
                          "name": "contributor_party_reference",
                          "type": "string"
                        },
                        {
                          "internalType": "int32",
                          "name": "sequence_number",
                          "type": "int32"
                        },
                        {
                          "internalType": "string[]",
                          "name": "contributor_roles",
                          "type": "string[]"
                        }
                      ],
                      "internalType": "struct Contributor[]",
                      "name": "contributors",
                      "type": "tuple[]"
                    },
                    {
                      "components": [
                        {
                          "internalType": "string",
                          "name": "grid",
                          "type": "string"
                        },
                        {
                          "internalType": "string",
                          "name": "icpn",
                          "type": "string"
                        },
                        {
                          "internalType": "string[]",
                          "name": "proprietary_ids",
                          "type": "string[]"
                        }
                      ],
                      "internalType": "struct ReleaseId",
                      "name": "track_release_id",
                      "type": "tuple"
                    }
                  ],
                  "internalType": "struct SoundRecording[]",
                  "name": "sound_recordings",
                  "type": "tuple[]"
                }
              ],
              "internalType": "struct ProvedMessage[]",
              "name": "messages",
              "type": "tuple[]"
            },
            {
              "internalType": "string[]",
              "name": "rejected_messages",
              "type": "string[]"
            }
          ],
          "indexed": false,
          "internalType": "struct ProverPublicOutputs",
          "name": "proverPublicOutputs",
          "type": "tuple"
        }
      ],
      "name": "BlobRejected",
      "type": "event"
    },
    {
      "anonymous": false,
      "inputs": [
        {
          "indexed": false,
          "internalType": "bytes1",
          "name": "target",
          "type": "bytes1"
        },
        {
          "indexed": false,
          "internalType": "bytes32",
          "name": "previousImageId",
          "type": "bytes32"
        },
        {
          "indexed": false,
          "internalType": "bytes32",
          "name": "currentImageId",
          "type": "bytes32"
        }
      ],
      "name": "ImageIdChanged",
      "type": "event"
    },
    {
      "anonymous": false,
      "inputs": [
        {
          "indexed": false,
          "internalType": "uint64",
          "name": "version",
          "type": "uint64"
        }
      ],
      "name": "Initialized",
      "type": "event"
    },
    {
      "anonymous": false,
      "inputs": [
        {
          "indexed": true,
          "internalType": "address",
          "name": "previousOwner",
          "type": "address"
        },
        {
          "indexed": true,
          "internalType": "address",
          "name": "newOwner",
          "type": "address"
        }
      ],
      "name": "OwnershipTransferred",
      "type": "event"
    },
    {
      "anonymous": false,
      "inputs": [
        {
          "indexed": true,
          "internalType": "address",
          "name": "implementation",
          "type": "address"
        }
      ],
      "name": "Upgraded",
      "type": "event"
    },
    {
      "inputs": [],
      "name": "BLOB_CURRENT_IMAGE_ID",
      "outputs": [
        {
          "internalType": "bytes1",
          "name": "",
          "type": "bytes1"
        }
      ],
      "stateMutability": "view",
      "type": "function"
    },
    {
      "inputs": [],
      "name": "BLOB_PREVIOUS_IMAGE_ID",
      "outputs": [
        {
          "internalType": "bytes1",
          "name": "",
          "type": "bytes1"
        }
      ],
      "stateMutability": "view",
      "type": "function"
    },
    {
      "inputs": [],
      "name": "UPGRADE_INTERFACE_VERSION",
      "outputs": [
        {
          "internalType": "string",
          "name": "",
          "type": "string"
        }
      ],
      "stateMutability": "view",
      "type": "function"
    },
    {
      "inputs": [],
      "name": "VERIFIER_CURRENT_IMAGE_ID",
      "outputs": [
        {
          "internalType": "bytes1",
          "name": "",
          "type": "bytes1"
        }
      ],
      "stateMutability": "view",
      "type": "function"
    },
    {
      "inputs": [],
      "name": "VERIFIER_PREVIOUS_IMAGE_ID",
      "outputs": [
        {
          "internalType": "bytes1",
          "name": "",
          "type": "bytes1"
        }
      ],
      "stateMutability": "view",
      "type": "function"
    },
    {
      "inputs": [],
      "name": "getSupportedBlobImageIds",
      "outputs": [
        {
          "internalType": "bytes32",
          "name": "",
          "type": "bytes32"
        },
        {
          "internalType": "bytes32",
          "name": "",
          "type": "bytes32"
        }
      ],
      "stateMutability": "view",
      "type": "function"
    },
    {
      "inputs": [],
      "name": "getSupportedVerifierImageIds",
      "outputs": [
        {
          "internalType": "bytes32",
          "name": "",
          "type": "bytes32"
        },
        {
          "internalType": "bytes32",
          "name": "",
          "type": "bytes32"
        }
      ],
      "stateMutability": "view",
      "type": "function"
    },
    {
      "inputs": [
        {
          "internalType": "contract IRiscZeroVerifier",
          "name": "_riscZeroGroth16Verifier",
          "type": "address"
        },
        {
          "internalType": "address",
          "name": "_ddexSequencerAddress",
          "type": "address"
        }
      ],
      "name": "initialize",
      "outputs": [],
      "stateMutability": "nonpayable",
      "type": "function"
    },
    {
      "inputs": [],
      "name": "owner",
      "outputs": [
        {
          "internalType": "address",
          "name": "",
          "type": "address"
        }
      ],
      "stateMutability": "view",
      "type": "function"
    },
    {
      "inputs": [],
      "name": "proxiableUUID",
      "outputs": [
        {
          "internalType": "bytes32",
          "name": "",
          "type": "bytes32"
        }
      ],
      "stateMutability": "view",
      "type": "function"
    },
    {
      "inputs": [],
      "name": "renounceOwnership",
      "outputs": [],
      "stateMutability": "nonpayable",
      "type": "function"
    },
    {
      "inputs": [
        {
          "internalType": "bytes1[]",
          "name": "_targets",
          "type": "bytes1[]"
        },
        {
          "internalType": "bytes32[]",
          "name": "_newImageIds",
          "type": "bytes32[]"
        }
      ],
      "name": "setImageIds",
      "outputs": [],
      "stateMutability": "nonpayable",
      "type": "function"
    },
    {
      "inputs": [
        {
          "internalType": "address",
          "name": "newOwner",
          "type": "address"
        }
      ],
      "name": "transferOwnership",
      "outputs": [],
      "stateMutability": "nonpayable",
      "type": "function"
    },
    {
      "inputs": [
        {
          "internalType": "address",
          "name": "newImplementation",
          "type": "address"
        },
        {
          "internalType": "bytes",
          "name": "data",
          "type": "bytes"
        }
      ],
      "name": "upgradeToAndCall",
      "outputs": [],
      "stateMutability": "payable",
      "type": "function"
    },
    {
      "inputs": [
        {
          "internalType": "bytes32",
          "name": "_imageId",
          "type": "bytes32"
        },
        {
          "internalType": "bytes",
          "name": "_journal",
          "type": "bytes"
        },
        {
          "internalType": "bytes",
          "name": "_seal",
          "type": "bytes"
        }
      ],
      "name": "verifyAndEmit",
      "outputs": [
        {
          "internalType": "bytes32",
          "name": "blobSha2",
          "type": "bytes32"
        }
      ],
      "stateMutability": "nonpayable",
      "type": "function"
    }
  ],
  "bytecode": "0x60a06040523073ffffffffffffffffffffffffffffffffffffffff1660809073ffffffffffffffffffffffffffffffffffffffff1681525034801562000043575f80fd5b50620000546200005a60201b60201c565b620001c4565b5f6200006b6200015e60201b60201c565b9050805f0160089054906101000a900460ff1615620000b6576040517ff92ee8a900000000000000000000000000000000000000000000000000000000815260040160405180910390fd5b67ffffffffffffffff8016815f015f9054906101000a900467ffffffffffffffff1667ffffffffffffffff16146200015b5767ffffffffffffffff815f015f6101000a81548167ffffffffffffffff021916908367ffffffffffffffff1602179055507fc7f505b2f371ae2175ee4913f4499e1f2633a7b5936321eed1cdaeb6115181d267ffffffffffffffff604051620001529190620001a9565b60405180910390a15b50565b5f7ff0c57e16840df040f15088dc2f81fe391c3923bec73e23a9662efc9c229c6a00905090565b5f67ffffffffffffffff82169050919050565b620001a38162000185565b82525050565b5f602082019050620001be5f83018462000198565b92915050565b608051614276620001eb5f395f8181610fa001528181610ff501526111af01526142765ff3fe6080604052600436106100e7575f3560e01c806352d1902d116100895780639789fa4b116100585780639789fa4b146102a6578063ad3cb1cc146102d0578063cae8858e146102fa578063f2fde38b14610325576100e7565b806352d1902d146102125780636e0f29b01461023c578063715018a6146102665780638da5cb5b1461027c576100e7565b8063485cc955116100c5578063485cc955146101675780634a418c6b1461018f5780634f1ef286146101ba57806350ce22af146101d6576100e7565b806303ce8cb5146100eb578063347937ac146101155780633cbd314e1461013f575b5f80fd5b3480156100f6575f80fd5b506100ff61034d565b60405161010c9190611773565b60405180910390f35b348015610120575f80fd5b50610129610355565b6040516101369190611773565b60405180910390f35b34801561014a575f80fd5b5061016560048036038101906101609190611a0a565b61035d565b005b348015610172575f80fd5b5061018d60048036038101906101889190611b15565b6105ad565b005b34801561019a575f80fd5b506101a36108ae565b6040516101b1929190611b62565b60405180910390f35b6101d460048036038101906101cf9190611c39565b61096c565b005b3480156101e1575f80fd5b506101fc60048036038101906101f79190611cec565b61098b565b6040516102099190611d79565b60405180910390f35b34801561021d575f80fd5b50610226610cd8565b6040516102339190611d79565b60405180910390f35b348015610247575f80fd5b50610250610d09565b60405161025d9190611773565b60405180910390f35b348015610271575f80fd5b5061027a610d11565b005b348015610287575f80fd5b50610290610d24565b60405161029d9190611da1565b60405180910390f35b3480156102b1575f80fd5b506102ba610d59565b6040516102c79190611773565b60405180910390f35b3480156102db575f80fd5b506102e4610d61565b6040516102f19190611e34565b60405180910390f35b348015610305575f80fd5b5061030e610d9a565b60405161031c929190611b62565b60405180910390f35b348015610330575f80fd5b5061034b60048036038101906103469190611e54565b610e58565b005b600260f81b81565b600460f81b81565b610365610edc565b80518251146103a9576040517f08c379a00000000000000000000000000000000000000000000000000000000081526004016103a090611eef565b60405180910390fd5b5f5b82518110156105a8575f8382815181106103c8576103c7611f0d565b5b602002602001015190505f8383815181106103e6576103e5611f0d565b5b602002602001015190505f60f81b7effffffffffffffffffffffffffffffffffffffffffffffffffffffffffffff1916827effffffffffffffffffffffffffffffffffffffffffffffffffffffffffffff191611801561046b5750600560f81b827effffffffffffffffffffffffffffffffffffffffffffffffffffffffffffff1916105b6104aa576040517f08c379a00000000000000000000000000000000000000000000000000000000081526004016104a190611f84565b60405180910390fd5b5f60025f847effffffffffffffffffffffffffffffffffffffffffffffffffffffffffffff19167effffffffffffffffffffffffffffffffffffffffffffffffffffffffffffff191681526020019081526020015f205490508160025f857effffffffffffffffffffffffffffffffffffffffffffffffffffffffffffff19167effffffffffffffffffffffffffffffffffffffffffffffffffffffffffffff191681526020019081526020015f20819055507fc142d06f1e5097dbe675da5107cad63d4b0a4af127efd83cf3482ff3ea67bbb483828460405161059093929190611fa2565b60405180910390a150505080806001019150506103ab565b505050565b5f6105b6610f63565b90505f815f0160089054906101000a900460ff161590505f825f015f9054906101000a900467ffffffffffffffff1690505f808267ffffffffffffffff161480156105fe5750825b90505f60018367ffffffffffffffff1614801561063157505f3073ffffffffffffffffffffffffffffffffffffffff163b145b90508115801561063f575080155b15610676576040517ff92ee8a900000000000000000000000000000000000000000000000000000000815260040160405180910390fd5b6001855f015f6101000a81548167ffffffffffffffff021916908367ffffffffffffffff16021790555083156106c3576001855f0160086101000a81548160ff0219169083151502179055505b7fe2ce8b6b162ff96551a1d8a574c3bb5849e2909bec40347321b9eab366acc9665f1b60025f600160f81b7effffffffffffffffffffffffffffffffffffffffffffffffffffffffffffff19167effffffffffffffffffffffffffffffffffffffffffffffffffffffffffffff191681526020019081526020015f20819055507fe2ce8b6b162ff96551a1d8a574c3bb5849e2909bec40347321b9eab366acc9665f1b60025f600360f81b7effffffffffffffffffffffffffffffffffffffffffffffffffffffffffffff19167effffffffffffffffffffffffffffffffffffffffffffffffffffffffffffff191681526020019081526020015f2081905550865f806101000a81548173ffffffffffffffffffffffffffffffffffffffff021916908373ffffffffffffffffffffffffffffffffffffffff1602179055508560015f6101000a81548173ffffffffffffffffffffffffffffffffffffffff021916908373ffffffffffffffffffffffffffffffffffffffff16021790555061084b33610f8a565b83156108a5575f855f0160086101000a81548160ff0219169083151502179055507fc7f505b2f371ae2175ee4913f4499e1f2633a7b5936321eed1cdaeb6115181d2600160405161089c919061202c565b60405180910390a15b50505050505050565b5f8060025f600160f81b7effffffffffffffffffffffffffffffffffffffffffffffffffffffffffffff19167effffffffffffffffffffffffffffffffffffffffffffffffffffffffffffff191681526020019081526020015f205460025f600260f81b7effffffffffffffffffffffffffffffffffffffffffffffffffffffffffffff19167effffffffffffffffffffffffffffffffffffffffffffffffffffffffffffff191681526020019081526020015f2054915091509091565b610974610f9e565b61097d82611084565b610987828261108f565b5050565b5f60015f9054906101000a900473ffffffffffffffffffffffffffffffffffffffff1673ffffffffffffffffffffffffffffffffffffffff163373ffffffffffffffffffffffffffffffffffffffff1614610a1b576040517f08c379a0000000000000000000000000000000000000000000000000000000008152600401610a129061208f565b60405180910390fd5b5f801b8503610a5f576040517f08c379a0000000000000000000000000000000000000000000000000000000008152600401610a56906120f7565b60405180910390fd5b8460025f600360f81b7effffffffffffffffffffffffffffffffffffffffffffffffffffffffffffff19167effffffffffffffffffffffffffffffffffffffffffffffffffffffffffffff191681526020019081526020015f20541480610b1e57508460025f600460f81b7effffffffffffffffffffffffffffffffffffffffffffffffffffffffffffff19167effffffffffffffffffffffffffffffffffffffffffffffffffffffffffffff191681526020019081526020015f2054145b610b5d576040517f08c379a0000000000000000000000000000000000000000000000000000000008152600401610b549061215f565b60405180910390fd5b5f84806020019051810190610b729190613465565b90505f8054906101000a900473ffffffffffffffffffffffffffffffffffffffff1673ffffffffffffffffffffffffffffffffffffffff1663ab750e7585858960028a604051610bc291906134f0565b602060405180830381855afa158015610bdd573d5f803e3d5ffd5b5050506040513d601f19601f82011682018060405250810190610c009190613506565b6040518563ffffffff1660e01b8152600401610c1f949392919061356d565b5f6040518083038186803b158015610c35575f80fd5b505afa158015610c47573d5f803e3d5ffd5b50505050805f015115610c90577fe85dfe163e33a0083c35060dbded7a362283f8f15be3ce97f3164a42d43b323881604051610c839190614220565b60405180910390a1610cc8565b7f953c3e7e4a92994a180d0a5861d06c6dc5111ef87ca51a4f7d3946c70bf3c73481604051610cbf9190614220565b60405180910390a15b8060200151915050949350505050565b5f610ce16111ad565b7f360894a13ba1a3210667c828492db98dca3e2076cc3735a920a3ca505d382bbc5f1b905090565b600160f81b81565b610d19610edc565b610d225f611234565b565b5f80610d2e611305565b9050805f015f9054906101000a900473ffffffffffffffffffffffffffffffffffffffff1691505090565b600360f81b81565b6040518060400160405280600581526020017f352e302e3000000000000000000000000000000000000000000000000000000081525081565b5f8060025f600360f81b7effffffffffffffffffffffffffffffffffffffffffffffffffffffffffffff19167effffffffffffffffffffffffffffffffffffffffffffffffffffffffffffff191681526020019081526020015f205460025f600460f81b7effffffffffffffffffffffffffffffffffffffffffffffffffffffffffffff19167effffffffffffffffffffffffffffffffffffffffffffffffffffffffffffff191681526020019081526020015f2054915091509091565b610e60610edc565b5f73ffffffffffffffffffffffffffffffffffffffff168173ffffffffffffffffffffffffffffffffffffffff1603610ed0575f6040517f1e4fbdf7000000000000000000000000000000000000000000000000000000008152600401610ec79190611da1565b60405180910390fd5b610ed981611234565b50565b610ee461132c565b73ffffffffffffffffffffffffffffffffffffffff16610f02610d24565b73ffffffffffffffffffffffffffffffffffffffff1614610f6157610f2561132c565b6040517f118cdaa7000000000000000000000000000000000000000000000000000000008152600401610f589190611da1565b60405180910390fd5b565b5f7ff0c57e16840df040f15088dc2f81fe391c3923bec73e23a9662efc9c229c6a00905090565b610f92611333565b610f9b81611373565b50565b7f000000000000000000000000000000000000000000000000000000000000000073ffffffffffffffffffffffffffffffffffffffff163073ffffffffffffffffffffffffffffffffffffffff16148061104b57507f000000000000000000000000000000000000000000000000000000000000000073ffffffffffffffffffffffffffffffffffffffff166110326113f7565b73ffffffffffffffffffffffffffffffffffffffff1614155b15611082576040517fe07c8dba00000000000000000000000000000000000000000000000000000000815260040160405180910390fd5b565b61108c610edc565b50565b8173ffffffffffffffffffffffffffffffffffffffff166352d1902d6040518163ffffffff1660e01b8152600401602060405180830381865afa9250505080156110f757506040513d601f19601f820116820180604052508101906110f49190613506565b60015b61113857816040517f4c9c8ce300000000000000000000000000000000000000000000000000000000815260040161112f9190611da1565b60405180910390fd5b7f360894a13ba1a3210667c828492db98dca3e2076cc3735a920a3ca505d382bbc5f1b811461119e57806040517faa1d49a40000000000000000000000000000000000000000000000000000000081526004016111959190611d79565b60405180910390fd5b6111a8838361144a565b505050565b7f000000000000000000000000000000000000000000000000000000000000000073ffffffffffffffffffffffffffffffffffffffff163073ffffffffffffffffffffffffffffffffffffffff1614611232576040517fe07c8dba00000000000000000000000000000000000000000000000000000000815260040160405180910390fd5b565b5f61123d611305565b90505f815f015f9054906101000a900473ffffffffffffffffffffffffffffffffffffffff16905082825f015f6101000a81548173ffffffffffffffffffffffffffffffffffffffff021916908373ffffffffffffffffffffffffffffffffffffffff1602179055508273ffffffffffffffffffffffffffffffffffffffff168173ffffffffffffffffffffffffffffffffffffffff167f8be0079c531659141344cd1fd0a4f28419497f9722a3daafe3b4186f6b6457e060405160405180910390a3505050565b5f7f9016d09d72d40fdae2fd8ceac6b6234c7706214fd39c1cd1e609a0528c199300905090565b5f33905090565b61133b6114bc565b611371576040517fd7e6bcf800000000000000000000000000000000000000000000000000000000815260040160405180910390fd5b565b61137b611333565b5f73ffffffffffffffffffffffffffffffffffffffff168173ffffffffffffffffffffffffffffffffffffffff16036113eb575f6040517f1e4fbdf70000000000000000000000000000000000000000000000000000000081526004016113e29190611da1565b60405180910390fd5b6113f481611234565b50565b5f6114237f360894a13ba1a3210667c828492db98dca3e2076cc3735a920a3ca505d382bbc5f1b6114da565b5f015f9054906101000a900473ffffffffffffffffffffffffffffffffffffffff16905090565b611453826114e3565b8173ffffffffffffffffffffffffffffffffffffffff167fbc7cd75a20ee27fd9adebab32041f755214dbc6bffa90cc0225b39da2e5c2d3b60405160405180910390a25f815111156114af576114a982826115ac565b506114b8565b6114b761162c565b5b5050565b5f6114c5610f63565b5f0160089054906101000a900460ff16905090565b5f819050919050565b5f8173ffffffffffffffffffffffffffffffffffffffff163b0361153e57806040517f4c9c8ce30000000000000000000000000000000000000000000000000000000081526004016115359190611da1565b60405180910390fd5b8061156a7f360894a13ba1a3210667c828492db98dca3e2076cc3735a920a3ca505d382bbc5f1b6114da565b5f015f6101000a81548173ffffffffffffffffffffffffffffffffffffffff021916908373ffffffffffffffffffffffffffffffffffffffff16021790555050565b60605f808473ffffffffffffffffffffffffffffffffffffffff16846040516115d591906134f0565b5f60405180830381855af49150503d805f811461160d576040519150601f19603f3d011682016040523d82523d5f602084013e611612565b606091505b5091509150611622858383611668565b9250505092915050565b5f341115611666576040517fb398979f00000000000000000000000000000000000000000000000000000000815260040160405180910390fd5b565b60608261167d57611678826116f5565b6116ed565b5f82511480156116a357505f8473ffffffffffffffffffffffffffffffffffffffff163b145b156116e557836040517f9996b3150000000000000000000000000000000000000000000000000000000081526004016116dc9190611da1565b60405180910390fd5b8190506116ee565b5b9392505050565b5f815111156117075780518082602001fd5b6040517fd6bda27500000000000000000000000000000000000000000000000000000000815260040160405180910390fd5b5f7fff0000000000000000000000000000000000000000000000000000000000000082169050919050565b61176d81611739565b82525050565b5f6020820190506117865f830184611764565b92915050565b5f604051905090565b5f80fd5b5f80fd5b5f80fd5b5f601f19601f8301169050919050565b7f4e487b71000000000000000000000000000000000000000000000000000000005f52604160045260245ffd5b6117e7826117a1565b810181811067ffffffffffffffff82111715611806576118056117b1565b5b80604052505050565b5f61181861178c565b905061182482826117de565b919050565b5f67ffffffffffffffff821115611843576118426117b1565b5b602082029050602081019050919050565b5f80fd5b61186181611739565b811461186b575f80fd5b50565b5f8135905061187c81611858565b92915050565b5f61189461188f84611829565b61180f565b905080838252602082019050602084028301858111156118b7576118b6611854565b5b835b818110156118e057806118cc888261186e565b8452602084019350506020810190506118b9565b5050509392505050565b5f82601f8301126118fe576118fd61179d565b5b813561190e848260208601611882565b91505092915050565b5f67ffffffffffffffff821115611931576119306117b1565b5b602082029050602081019050919050565b5f819050919050565b61195481611942565b811461195e575f80fd5b50565b5f8135905061196f8161194b565b92915050565b5f61198761198284611917565b61180f565b905080838252602082019050602084028301858111156119aa576119a9611854565b5b835b818110156119d357806119bf8882611961565b8452602084019350506020810190506119ac565b5050509392505050565b5f82601f8301126119f1576119f061179d565b5b8135611a01848260208601611975565b91505092915050565b5f8060408385031215611a2057611a1f611795565b5b5f83013567ffffffffffffffff811115611a3d57611a3c611799565b5b611a49858286016118ea565b925050602083013567ffffffffffffffff811115611a6a57611a69611799565b5b611a76858286016119dd565b9150509250929050565b5f73ffffffffffffffffffffffffffffffffffffffff82169050919050565b5f611aa982611a80565b9050919050565b5f611aba82611a9f565b9050919050565b611aca81611ab0565b8114611ad4575f80fd5b50565b5f81359050611ae581611ac1565b92915050565b611af481611a9f565b8114611afe575f80fd5b50565b5f81359050611b0f81611aeb565b92915050565b5f8060408385031215611b2b57611b2a611795565b5b5f611b3885828601611ad7565b9250506020611b4985828601611b01565b9150509250929050565b611b5c81611942565b82525050565b5f604082019050611b755f830185611b53565b611b826020830184611b53565b9392505050565b5f80fd5b5f67ffffffffffffffff821115611ba757611ba66117b1565b5b611bb0826117a1565b9050602081019050919050565b828183375f83830152505050565b5f611bdd611bd884611b8d565b61180f565b905082815260208101848484011115611bf957611bf8611b89565b5b611c04848285611bbd565b509392505050565b5f82601f830112611c2057611c1f61179d565b5b8135611c30848260208601611bcb565b91505092915050565b5f8060408385031215611c4f57611c4e611795565b5b5f611c5c85828601611b01565b925050602083013567ffffffffffffffff811115611c7d57611c7c611799565b5b611c8985828601611c0c565b9150509250929050565b5f80fd5b5f8083601f840112611cac57611cab61179d565b5b8235905067ffffffffffffffff811115611cc957611cc8611c93565b5b602083019150836001820283011115611ce557611ce4611854565b5b9250929050565b5f805f8060608587031215611d0457611d03611795565b5b5f611d1187828801611961565b945050602085013567ffffffffffffffff811115611d3257611d31611799565b5b611d3e87828801611c0c565b935050604085013567ffffffffffffffff811115611d5f57611d5e611799565b5b611d6b87828801611c97565b925092505092959194509250565b5f602082019050611d8c5f830184611b53565b92915050565b611d9b81611a9f565b82525050565b5f602082019050611db45f830184611d92565b92915050565b5f81519050919050565b5f82825260208201905092915050565b5f5b83811015611df1578082015181840152602081019050611dd6565b5f8484015250505050565b5f611e0682611dba565b611e108185611dc4565b9350611e20818560208601611dd4565b611e29816117a1565b840191505092915050565b5f6020820190508181035f830152611e4c8184611dfc565b905092915050565b5f60208284031215611e6957611e68611795565b5b5f611e7684828501611b01565b91505092915050565b7f44646578456d69747465723a204d69736d617463686564206172726179206c655f8201527f6e67746873000000000000000000000000000000000000000000000000000000602082015250565b5f611ed9602583611dc4565b9150611ee482611e7f565b604082019050919050565b5f6020820190508181035f830152611f0681611ecd565b9050919050565b7f4e487b71000000000000000000000000000000000000000000000000000000005f52603260045260245ffd5b7f44646578456d69747465723a20496e76616c69642074617267657400000000005f82015250565b5f611f6e601b83611dc4565b9150611f7982611f3a565b602082019050919050565b5f6020820190508181035f830152611f9b81611f62565b9050919050565b5f606082019050611fb55f830186611764565b611fc26020830185611b53565b611fcf6040830184611b53565b949350505050565b5f819050919050565b5f67ffffffffffffffff82169050919050565b5f819050919050565b5f61201661201161200c84611fd7565b611ff3565b611fe0565b9050919050565b61202681611ffc565b82525050565b5f60208201905061203f5f83018461201d565b92915050565b7f6d73672e73656e646572206973206e6f74204464657853657175656e636572005f82015250565b5f612079601f83611dc4565b915061208482612045565b602082019050919050565b5f6020820190508181035f8301526120a68161206d565b9050919050565b7f44646578456d69747465723a20496d61676549642063616e6e6f7420626520305f82015250565b5f6120e1602083611dc4565b91506120ec826120ad565b602082019050919050565b5f6020820190508181035f83015261210e816120d5565b9050919050565b7f44646578456d69747465723a20556e737570706f7274656420696d61676549645f82015250565b5f612149602083611dc4565b915061215482612115565b602082019050919050565b5f6020820190508181035f8301526121768161213d565b9050919050565b5f80fd5b5f80fd5b5f8115159050919050565b61219981612185565b81146121a3575f80fd5b50565b5f815190506121b481612190565b92915050565b5f815190506121c88161194b565b92915050565b5f67ffffffffffffffff8211156121e8576121e76117b1565b5b602082029050602081019050919050565b5f67ffffffffffffffff821115612213576122126117b1565b5b61221c826117a1565b9050602081019050919050565b5f61223b612236846121f9565b61180f565b90508281526020810184848401111561225757612256611b89565b5b612262848285611dd4565b509392505050565b5f82601f83011261227e5761227d61179d565b5b815161228e848260208601612229565b91505092915050565b5f67ffffffffffffffff8211156122b1576122b06117b1565b5b602082029050602081019050919050565b5f6122d46122cf84612297565b61180f565b905080838252602082019050602084028301858111156122f7576122f6611854565b5b835b8181101561233e57805167ffffffffffffffff81111561231c5761231b61179d565b5b808601612329898261226a565b855260208501945050506020810190506122f9565b5050509392505050565b5f82601f83011261235c5761235b61179d565b5b815161236c8482602086016122c2565b91505092915050565b5f67ffffffffffffffff82111561238f5761238e6117b1565b5b602082029050602081019050919050565b5f8160030b9050919050565b6123b5816123a0565b81146123bf575f80fd5b50565b5f815190506123d0816123ac565b92915050565b5f606082840312156123eb576123ea61217d565b5b6123f5606061180f565b90505f82015167ffffffffffffffff81111561241457612413612181565b5b6124208482850161226a565b5f830152506020612433848285016123c2565b602083015250604082015167ffffffffffffffff81111561245757612456612181565b5b61246384828501612348565b60408301525092915050565b5f61248161247c84612375565b61180f565b905080838252602082019050602084028301858111156124a4576124a3611854565b5b835b818110156124eb57805167ffffffffffffffff8111156124c9576124c861179d565b5b8086016124d689826123d6565b855260208501945050506020810190506124a6565b5050509392505050565b5f82601f8301126125095761250861179d565b5b815161251984826020860161246f565b91505092915050565b5f67ffffffffffffffff82111561253c5761253b6117b1565b5b602082029050602081019050919050565b5f606082840312156125625761256161217d565b5b61256c606061180f565b90505f82015167ffffffffffffffff81111561258b5761258a612181565b5b6125978482850161226a565b5f83015250602082015167ffffffffffffffff8111156125ba576125b9612181565b5b6125c68482850161226a565b602083015250604082015167ffffffffffffffff8111156125ea576125e9612181565b5b6125f68482850161226a565b60408301525092915050565b5f61261461260f84612522565b61180f565b9050808382526020820190506020840283018581111561263757612636611854565b5b835b8181101561267e57805167ffffffffffffffff81111561265c5761265b61179d565b5b808601612669898261254d565b85526020850194505050602081019050612639565b5050509392505050565b5f82601f83011261269c5761269b61179d565b5b81516126ac848260208601612602565b91505092915050565b5f606082840312156126ca576126c961217d565b5b6126d4606061180f565b90505f82015167ffffffffffffffff8111156126f3576126f2612181565b5b6126ff8482850161226a565b5f83015250602082015167ffffffffffffffff81111561272257612721612181565b5b61272e8482850161226a565b602083015250604082015167ffffffffffffffff81111561275257612751612181565b5b61275e84828501612348565b60408301525092915050565b5f60e0828403121561277f5761277e61217d565b5b61278960e061180f565b90505f82015167ffffffffffffffff8111156127a8576127a7612181565b5b6127b48482850161226a565b5f83015250602082015167ffffffffffffffff8111156127d7576127d6612181565b5b6127e38482850161226a565b602083015250604082015167ffffffffffffffff81111561280757612806612181565b5b6128138482850161226a565b604083015250606082015167ffffffffffffffff81111561283757612836612181565b5b61284384828501612348565b606083015250608082015167ffffffffffffffff81111561286757612866612181565b5b612873848285016124f5565b60808301525060a082015167ffffffffffffffff81111561289757612896612181565b5b6128a384828501612688565b60a08301525060c082015167ffffffffffffffff8111156128c7576128c6612181565b5b6128d3848285016126b5565b60c08301525092915050565b5f67ffffffffffffffff8211156128f9576128f86117b1565b5b602082029050602081019050919050565b5f67ffffffffffffffff821115612924576129236117b1565b5b602082029050602081019050919050565b5f67ffffffffffffffff82111561294f5761294e6117b1565b5b602082029050602081019050919050565b5f61ffff82169050919050565b61297681612960565b8114612980575f80fd5b50565b5f815190506129918161296d565b92915050565b5f604082840312156129ac576129ab61217d565b5b6129b6604061180f565b90505f6129c584828501612983565b5f83015250602082015167ffffffffffffffff8111156129e8576129e7612181565b5b6129f48482850161226a565b60208301525092915050565b5f612a12612a0d84612935565b61180f565b90508083825260208201905060208402830185811115612a3557612a34611854565b5b835b81811015612a7c57805167ffffffffffffffff811115612a5a57612a5961179d565b5b808601612a678982612997565b85526020850194505050602081019050612a37565b5050509392505050565b5f82601f830112612a9a57612a9961179d565b5b8151612aaa848260208601612a00565b91505092915050565b5f67ffffffffffffffff821115612acd57612acc6117b1565b5b602082029050602081019050919050565b5f60608284031215612af357612af261217d565b5b612afd606061180f565b90505f82015167ffffffffffffffff811115612b1c57612b1b612181565b5b612b288482850161226a565b5f83015250602082015167ffffffffffffffff811115612b4b57612b4a612181565b5b612b578482850161226a565b602083015250604082015167ffffffffffffffff811115612b7b57612b7a612181565b5b612b878482850161226a565b60408301525092915050565b5f612ba5612ba084612ab3565b61180f565b90508083825260208201905060208402830185811115612bc857612bc7611854565b5b835b81811015612c0f57805167ffffffffffffffff811115612bed57612bec61179d565b5b808601612bfa8982612ade565b85526020850194505050602081019050612bca565b5050509392505050565b5f82601f830112612c2d57612c2c61179d565b5b8151612c3d848260208601612b93565b91505092915050565b5f60608284031215612c5b57612c5a61217d565b5b612c65606061180f565b90505f82015167ffffffffffffffff811115612c8457612c83612181565b5b612c908482850161226a565b5f83015250602082015167ffffffffffffffff811115612cb357612cb2612181565b5b612cbf84828501612a86565b602083015250604082015167ffffffffffffffff811115612ce357612ce2612181565b5b612cef84828501612c19565b60408301525092915050565b5f612d0d612d088461290a565b61180f565b90508083825260208201905060208402830185811115612d3057612d2f611854565b5b835b81811015612d7757805167ffffffffffffffff811115612d5557612d5461179d565b5b808601612d628982612c46565b85526020850194505050602081019050612d32565b5050509392505050565b5f82601f830112612d9557612d9461179d565b5b8151612da5848260208601612cfb565b91505092915050565b5f67ffffffffffffffff821115612dc857612dc76117b1565b5b602082029050602081019050919050565b5f60208284031215612dee57612ded61217d565b5b612df8602061180f565b90505f82015167ffffffffffffffff811115612e1757612e16612181565b5b612e238482850161226a565b5f8301525092915050565b5f612e40612e3b84612dae565b61180f565b90508083825260208201905060208402830185811115612e6357612e62611854565b5b835b81811015612eaa57805167ffffffffffffffff811115612e8857612e8761179d565b5b808601612e958982612dd9565b85526020850194505050602081019050612e65565b5050509392505050565b5f82601f830112612ec857612ec761179d565b5b8151612ed8848260208601612e2e565b91505092915050565b5f67ffffffffffffffff821115612efb57612efa6117b1565b5b602082029050602081019050919050565b5f60608284031215612f2157612f2061217d565b5b612f2b606061180f565b90505f82015167ffffffffffffffff811115612f4a57612f49612181565b5b612f568482850161226a565b5f830152506020612f69848285016123c2565b602083015250604082015167ffffffffffffffff811115612f8d57612f8c612181565b5b612f9984828501612348565b60408301525092915050565b5f612fb7612fb284612ee1565b61180f565b90508083825260208201905060208402830185811115612fda57612fd9611854565b5b835b8181101561302157805167ffffffffffffffff811115612fff57612ffe61179d565b5b80860161300c8982612f0c565b85526020850194505050602081019050612fdc565b5050509392505050565b5f82601f83011261303f5761303e61179d565b5b815161304f848260208601612fa5565b91505092915050565b5f60e0828403121561306d5761306c61217d565b5b61307760e061180f565b90505f82015167ffffffffffffffff81111561309657613095612181565b5b6130a28482850161226a565b5f83015250602082015167ffffffffffffffff8111156130c5576130c4612181565b5b6130d18482850161226a565b602083015250604082015167ffffffffffffffff8111156130f5576130f4612181565b5b6131018482850161226a565b604083015250606082015167ffffffffffffffff81111561312557613124612181565b5b61313184828501612d81565b606083015250608082015167ffffffffffffffff81111561315557613154612181565b5b61316184828501612eb4565b60808301525060a082015167ffffffffffffffff81111561318557613184612181565b5b6131918482850161302b565b60a08301525060c082015167ffffffffffffffff8111156131b5576131b4612181565b5b6131c1848285016126b5565b60c08301525092915050565b5f6131df6131da846128df565b61180f565b9050808382526020820190506020840283018581111561320257613201611854565b5b835b8181101561324957805167ffffffffffffffff8111156132275761322661179d565b5b8086016132348982613058565b85526020850194505050602081019050613204565b5050509392505050565b5f82601f8301126132675761326661179d565b5b81516132778482602086016131cd565b91505092915050565b5f604082840312156132955761329461217d565b5b61329f604061180f565b90505f82015167ffffffffffffffff8111156132be576132bd612181565b5b6132ca8482850161276a565b5f83015250602082015167ffffffffffffffff8111156132ed576132ec612181565b5b6132f984828501613253565b60208301525092915050565b5f613317613312846121ce565b61180f565b9050808382526020820190506020840283018581111561333a57613339611854565b5b835b8181101561338157805167ffffffffffffffff81111561335f5761335e61179d565b5b80860161336c8982613280565b8552602085019450505060208101905061333c565b5050509392505050565b5f82601f83011261339f5761339e61179d565b5b81516133af848260208601613305565b91505092915050565b5f608082840312156133cd576133cc61217d565b5b6133d7608061180f565b90505f6133e6848285016121a6565b5f8301525060206133f9848285016121ba565b602083015250604082015167ffffffffffffffff81111561341d5761341c612181565b5b6134298482850161338b565b604083015250606082015167ffffffffffffffff81111561344d5761344c612181565b5b61345984828501612348565b60608301525092915050565b5f6020828403121561347a57613479611795565b5b5f82015167ffffffffffffffff81111561349757613496611799565b5b6134a3848285016133b8565b91505092915050565b5f81519050919050565b5f81905092915050565b5f6134ca826134ac565b6134d481856134b6565b93506134e4818560208601611dd4565b80840191505092915050565b5f6134fb82846134c0565b915081905092915050565b5f6020828403121561351b5761351a611795565b5b5f613528848285016121ba565b91505092915050565b5f82825260208201905092915050565b5f61354c8385613531565b9350613559838584611bbd565b613562836117a1565b840190509392505050565b5f6060820190508181035f830152613586818688613541565b90506135956020830185611b53565b6135a26040830184611b53565b95945050505050565b6135b481612185565b82525050565b6135c381611942565b82525050565b5f81519050919050565b5f82825260208201905092915050565b5f819050602082019050919050565b5f82825260208201905092915050565b5f61360c82611dba565b61361681856135f2565b9350613626818560208601611dd4565b61362f816117a1565b840191505092915050565b5f81519050919050565b5f82825260208201905092915050565b5f819050602082019050919050565b5f61366e8383613602565b905092915050565b5f602082019050919050565b5f61368c8261363a565b6136968185613644565b9350836020820285016136a885613654565b805f5b858110156136e357848403895281516136c48582613663565b94506136cf83613676565b925060208a019950506001810190506136ab565b50829750879550505050505092915050565b5f81519050919050565b5f82825260208201905092915050565b5f819050602082019050919050565b613727816123a0565b82525050565b5f606083015f8301518482035f8601526137478282613602565b915050602083015161375c602086018261371e565b50604083015184820360408601526137748282613682565b9150508091505092915050565b5f61378c838361372d565b905092915050565b5f602082019050919050565b5f6137aa826136f5565b6137b481856136ff565b9350836020820285016137c68561370f565b805f5b8581101561380157848403895281516137e28582613781565b94506137ed83613794565b925060208a019950506001810190506137c9565b50829750879550505050505092915050565b5f81519050919050565b5f82825260208201905092915050565b5f819050602082019050919050565b5f606083015f8301518482035f8601526138568282613602565b915050602083015184820360208601526138708282613602565b9150506040830151848203604086015261388a8282613602565b9150508091505092915050565b5f6138a2838361383c565b905092915050565b5f602082019050919050565b5f6138c082613813565b6138ca818561381d565b9350836020820285016138dc8561382d565b805f5b8581101561391757848403895281516138f88582613897565b9450613903836138aa565b925060208a019950506001810190506138df565b50829750879550505050505092915050565b5f606083015f8301518482035f8601526139438282613602565b9150506020830151848203602086015261395d8282613602565b915050604083015184820360408601526139778282613682565b9150508091505092915050565b5f60e083015f8301518482035f86015261399e8282613602565b915050602083015184820360208601526139b88282613602565b915050604083015184820360408601526139d28282613602565b915050606083015184820360608601526139ec8282613682565b91505060808301518482036080860152613a0682826137a0565b91505060a083015184820360a0860152613a2082826138b6565b91505060c083015184820360c0860152613a3a8282613929565b9150508091505092915050565b5f81519050919050565b5f82825260208201905092915050565b5f819050602082019050919050565b5f81519050919050565b5f82825260208201905092915050565b5f819050602082019050919050565b5f81519050919050565b5f82825260208201905092915050565b5f819050602082019050919050565b613acb81612960565b82525050565b5f604083015f830151613ae65f860182613ac2565b5060208301518482036020860152613afe8282613602565b9150508091505092915050565b5f613b168383613ad1565b905092915050565b5f602082019050919050565b5f613b3482613a99565b613b3e8185613aa3565b935083602082028501613b5085613ab3565b805f5b85811015613b8b5784840389528151613b6c8582613b0b565b9450613b7783613b1e565b925060208a01995050600181019050613b53565b50829750879550505050505092915050565b5f81519050919050565b5f82825260208201905092915050565b5f819050602082019050919050565b5f606083015f8301518482035f860152613be08282613602565b91505060208301518482036020860152613bfa8282613602565b91505060408301518482036040860152613c148282613602565b9150508091505092915050565b5f613c2c8383613bc6565b905092915050565b5f602082019050919050565b5f613c4a82613b9d565b613c548185613ba7565b935083602082028501613c6685613bb7565b805f5b85811015613ca15784840389528151613c828582613c21565b9450613c8d83613c34565b925060208a01995050600181019050613c69565b50829750879550505050505092915050565b5f606083015f8301518482035f860152613ccd8282613602565b91505060208301518482036020860152613ce78282613b2a565b91505060408301518482036040860152613d018282613c40565b9150508091505092915050565b5f613d198383613cb3565b905092915050565b5f602082019050919050565b5f613d3782613a70565b613d418185613a7a565b935083602082028501613d5385613a8a565b805f5b85811015613d8e5784840389528151613d6f8582613d0e565b9450613d7a83613d21565b925060208a01995050600181019050613d56565b50829750879550505050505092915050565b5f81519050919050565b5f82825260208201905092915050565b5f819050602082019050919050565b5f602083015f8301518482035f860152613de38282613602565b9150508091505092915050565b5f613dfb8383613dc9565b905092915050565b5f602082019050919050565b5f613e1982613da0565b613e238185613daa565b935083602082028501613e3585613dba565b805f5b85811015613e705784840389528151613e518582613df0565b9450613e5c83613e03565b925060208a01995050600181019050613e38565b50829750879550505050505092915050565b5f81519050919050565b5f82825260208201905092915050565b5f819050602082019050919050565b5f606083015f8301518482035f860152613ec58282613602565b9150506020830151613eda602086018261371e565b5060408301518482036040860152613ef28282613682565b9150508091505092915050565b5f613f0a8383613eab565b905092915050565b5f602082019050919050565b5f613f2882613e82565b613f328185613e8c565b935083602082028501613f4485613e9c565b805f5b85811015613f7f5784840389528151613f608582613eff565b9450613f6b83613f12565b925060208a01995050600181019050613f47565b50829750879550505050505092915050565b5f60e083015f8301518482035f860152613fab8282613602565b91505060208301518482036020860152613fc58282613602565b91505060408301518482036040860152613fdf8282613602565b91505060608301518482036060860152613ff98282613d2d565b915050608083015184820360808601526140138282613e0f565b91505060a083015184820360a086015261402d8282613f1e565b91505060c083015184820360c08601526140478282613929565b9150508091505092915050565b5f61405f8383613f91565b905092915050565b5f602082019050919050565b5f61407d82613a47565b6140878185613a51565b93508360208202850161409985613a61565b805f5b858110156140d457848403895281516140b58582614054565b94506140c083614067565b925060208a0199505060018101905061409c565b50829750879550505050505092915050565b5f604083015f8301518482035f8601526141008282613984565b9150506020830151848203602086015261411a8282614073565b9150508091505092915050565b5f61413283836140e6565b905092915050565b5f602082019050919050565b5f614150826135c9565b61415a81856135d3565b93508360208202850161416c856135e3565b805f5b858110156141a757848403895281516141888582614127565b94506141938361413a565b925060208a0199505060018101905061416f565b50829750879550505050505092915050565b5f608083015f8301516141ce5f8601826135ab565b5060208301516141e160208601826135ba565b50604083015184820360408601526141f98282614146565b915050606083015184820360608601526142138282613682565b9150508091505092915050565b5f6020820190508181035f83015261423881846141b9565b90509291505056fea26469706673582212203fb9bf88df5389f9e2c6a2544a661e52171284183f7e53deb69dcff0e13f570764736f6c63430008180033",
  "linkReferences": {},
  "deployedLinkReferences": {}
}