{
  "_format": "hh-sol-artifact-1",
  "contractName": "DdexSequencer",
  "sourceName": "contracts/DdexSequencer.sol",
  "abi": [
    {
      "inputs": [
        {
          "internalType": "address",
          "name": "dataProvidersWhitelist",
          "type": "address"
        },
        {
          "internalType": "address",
          "name": "validatorsWhitelist",
          "type": "address"
        },
        {
          "internalType": "address",
          "name": "stakeVaultAddress",
          "type": "address"
        }
      ],
      "stateMutability": "nonpayable",
      "type": "constructor"
    },
    {
      "inputs": [
        {
          "internalType": "address",
          "name": "owner",
          "type": "address"
        }
      ],
      "name": "OwnableInvalidOwner",
      "type": "error"
    },
    {
      "inputs": [
        {
          "internalType": "address",
          "name": "account",
          "type": "address"
        }
      ],
      "name": "OwnableUnauthorizedAccount",
      "type": "error"
    },
    {
      "anonymous": false,
      "inputs": [
        {
          "indexed": false,
          "internalType": "bytes",
          "name": "commitment",
          "type": "bytes"
        },
        {
          "indexed": false,
          "internalType": "bytes32",
          "name": "image_id",
          "type": "bytes32"
        }
      ],
      "name": "NewBlobSubmitted",
      "type": "event"
    },
    {
      "anonymous": false,
      "inputs": [
        {
          "indexed": true,
          "internalType": "address",
          "name": "previousOwner",
          "type": "address"
        },
        {
          "indexed": true,
          "internalType": "address",
          "name": "newOwner",
          "type": "address"
        }
      ],
      "name": "OwnershipTransferred",
      "type": "event"
    },
    {
      "anonymous": false,
      "inputs": [
        {
          "indexed": false,
          "internalType": "bytes1",
          "name": "_whitelistId",
          "type": "bytes1"
        },
        {
          "indexed": false,
          "internalType": "address",
          "name": "_previousAddress",
          "type": "address"
        },
        {
          "indexed": false,
          "internalType": "address",
          "name": "_newAddress",
          "type": "address"
        }
      ],
      "name": "WhitelistChanged",
      "type": "event"
    },
    {
      "inputs": [],
      "name": "DATA_PROVIDERS_WHITELIST",
      "outputs": [
        {
          "internalType": "bytes1",
          "name": "",
          "type": "bytes1"
        }
      ],
      "stateMutability": "view",
      "type": "function"
    },
    {
      "inputs": [],
      "name": "VALIDATORS_WHITELIST",
      "outputs": [
        {
          "internalType": "bytes1",
          "name": "",
          "type": "bytes1"
        }
      ],
      "stateMutability": "view",
      "type": "function"
    },
    {
      "inputs": [],
      "name": "blobQueueHead",
      "outputs": [
        {
          "internalType": "bytes32",
          "name": "",
          "type": "bytes32"
        }
      ],
      "stateMutability": "view",
      "type": "function"
    },
    {
      "inputs": [],
      "name": "blobQueueTail",
      "outputs": [
        {
          "internalType": "bytes32",
          "name": "",
          "type": "bytes32"
        }
      ],
      "stateMutability": "view",
      "type": "function"
    },
    {
      "inputs": [
        {
          "internalType": "bytes32",
          "name": "",
          "type": "bytes32"
        }
      ],
      "name": "blobs",
      "outputs": [
        {
          "internalType": "bytes32",
          "name": "nextBlob",
          "type": "bytes32"
        },
        {
          "internalType": "bool",
          "name": "submitted",
          "type": "bool"
        },
        {
          "internalType": "address",
          "name": "proposer",
          "type": "address"
        },
        {
          "internalType": "bytes32",
          "name": "blobId",
          "type": "bytes32"
        },
        {
          "internalType": "bytes32",
          "name": "imageId",
          "type": "bytes32"
        }
      ],
      "stateMutability": "view",
      "type": "function"
    },
    {
      "inputs": [],
      "name": "ddexEmitter",
      "outputs": [
        {
          "internalType": "contract IDdexEmitter",
          "name": "",
          "type": "address"
        }
      ],
      "stateMutability": "view",
      "type": "function"
    },
    {
      "inputs": [],
      "name": "disableWhitelist",
      "outputs": [],
      "stateMutability": "nonpayable",
      "type": "function"
    },
    {
      "inputs": [],
      "name": "moveQueue",
      "outputs": [],
      "stateMutability": "nonpayable",
      "type": "function"
    },
    {
      "inputs": [],
      "name": "owner",
      "outputs": [
        {
          "internalType": "address",
          "name": "",
          "type": "address"
        }
      ],
      "stateMutability": "view",
      "type": "function"
    },
    {
      "inputs": [],
      "name": "renounceOwnership",
      "outputs": [],
      "stateMutability": "nonpayable",
      "type": "function"
    },
    {
      "inputs": [
        {
          "internalType": "contract IDdexEmitter",
          "name": "_ddexEmitter",
          "type": "address"
        }
      ],
      "name": "setDdexEmitter",
      "outputs": [],
      "stateMutability": "nonpayable",
      "type": "function"
    },
    {
      "inputs": [
        {
          "internalType": "bytes32",
          "name": "_imageId",
          "type": "bytes32"
        },
        {
          "internalType": "bytes",
          "name": "_commitment",
          "type": "bytes"
        },
        {
          "internalType": "bytes32",
          "name": "_blobSha2",
          "type": "bytes32"
        }
      ],
      "name": "submitNewBlob",
      "outputs": [],
      "stateMutability": "nonpayable",
      "type": "function"
    },
    {
      "inputs": [
        {
          "internalType": "bytes32",
          "name": "_imageId",
          "type": "bytes32"
        },
        {
          "internalType": "bytes",
          "name": "_journal",
          "type": "bytes"
        },
        {
          "internalType": "bytes",
          "name": "_seal",
          "type": "bytes"
        }
      ],
      "name": "submitProof",
      "outputs": [],
      "stateMutability": "nonpayable",
      "type": "function"
    },
    {
      "inputs": [
        {
          "internalType": "address",
          "name": "newOwner",
          "type": "address"
        }
      ],
      "name": "transferOwnership",
      "outputs": [],
      "stateMutability": "nonpayable",
      "type": "function"
    },
    {
      "inputs": [
        {
          "internalType": "bytes1",
          "name": "",
          "type": "bytes1"
        }
      ],
      "name": "whitelists",
      "outputs": [
        {
          "internalType": "address",
          "name": "",
          "type": "address"
        }
      ],
      "stateMutability": "view",
      "type": "function"
    }
  ],
  "bytecode": "0x608060405234801562000010575f80fd5b50604051620021043803806200210483398181016040528101906200003691906200057c565b335f73ffffffffffffffffffffffffffffffffffffffff168173ffffffffffffffffffffffffffffffffffffffff1603620000aa575f6040517f1e4fbdf7000000000000000000000000000000000000000000000000000000008152600401620000a19190620005e6565b60405180910390fd5b620000bb816200013160201b60201c565b50620000d283600160f81b620001f460201b60201c565b620000e882600260f81b620001f460201b60201c565b8060045f6101000a81548173ffffffffffffffffffffffffffffffffffffffff021916908373ffffffffffffffffffffffffffffffffffffffff1602179055505050506200074d565b5f60015f9054906101000a900473ffffffffffffffffffffffffffffffffffffffff1690508160015f6101000a81548173ffffffffffffffffffffffffffffffffffffffff021916908373ffffffffffffffffffffffffffffffffffffffff1602179055508173ffffffffffffffffffffffffffffffffffffffff168173ffffffffffffffffffffffffffffffffffffffff167f8be0079c531659141344cd1fd0a4f28419497f9722a3daafe3b4186f6b6457e060405160405180910390a35050565b5f73ffffffffffffffffffffffffffffffffffffffff168273ffffffffffffffffffffffffffffffffffffffff16146200029d576200025a827f5470aee900000000000000000000000000000000000000000000000000000000620003e860201b60201c565b6200029c576040517f08c379a000000000000000000000000000000000000000000000000000000000815260040162000293906200065f565b60405180910390fd5b5b5f805f837effffffffffffffffffffffffffffffffffffffffffffffffffffffffffffff19167effffffffffffffffffffffffffffffffffffffffffffffffffffffffffffff191681526020019081526020015f205f9054906101000a900473ffffffffffffffffffffffffffffffffffffffff169050825f80847effffffffffffffffffffffffffffffffffffffffffffffffffffffffffffff19167effffffffffffffffffffffffffffffffffffffffffffffffffffffffffffff191681526020019081526020015f205f6101000a81548173ffffffffffffffffffffffffffffffffffffffff021916908373ffffffffffffffffffffffffffffffffffffffff1602179055507fbdb658fbebcb4884950df11335d9177f3b8c7fb1b1f5290202b9715198d7e105828285604051620003db93929190620006bb565b60405180910390a1505050565b5f620003fa836200041d60201b60201c565b80156200041557506200041483836200047a60201b60201c565b5b905092915050565b5f62000450827f01ffc9a7000000000000000000000000000000000000000000000000000000006200047a60201b60201c565b8015620004735750620004718263ffffffff60e01b6200047a60201b60201c565b155b9050919050565b5f80826040516024016200048f919062000732565b6040516020818303038152906040526301ffc9a760e01b6020820180517bffffffffffffffffffffffffffffffffffffffffffffffffffffffff838183161783525050505090505f805f60205f8551602087018a617530fa92503d91505f519050828015620004ff575060208210155b80156200050b57505f81115b94505050505092915050565b5f80fd5b5f73ffffffffffffffffffffffffffffffffffffffff82169050919050565b5f62000546826200051b565b9050919050565b62000558816200053a565b811462000563575f80fd5b50565b5f8151905062000576816200054d565b92915050565b5f805f6060848603121562000596576200059562000517565b5b5f620005a58682870162000566565b9350506020620005b88682870162000566565b9250506040620005cb8682870162000566565b9150509250925092565b620005e0816200053a565b82525050565b5f602082019050620005fb5f830184620005d5565b92915050565b5f82825260208201905092915050565b7f496e74657266616365206e6f7420737570706f727465640000000000000000005f82015250565b5f6200064760178362000601565b9150620006548262000611565b602082019050919050565b5f6020820190508181035f830152620006788162000639565b9050919050565b5f7fff0000000000000000000000000000000000000000000000000000000000000082169050919050565b620006b5816200067f565b82525050565b5f606082019050620006d05f830186620006aa565b620006df6020830185620005d5565b620006ee6040830184620005d5565b949350505050565b5f7fffffffff0000000000000000000000000000000000000000000000000000000082169050919050565b6200072c81620006f6565b82525050565b5f602082019050620007475f83018462000721565b92915050565b6119a9806200075b5f395ff3fe608060405234801561000f575f80fd5b50600436106100f2575f3560e01c8063a02eeff311610095578063ddae462211610064578063ddae462214610216578063eb90e2cb14610234578063f2fde38b14610250578063fd80dd461461026c576100f2565b8063a02eeff31461019c578063ac904c29146101ba578063d6b0f484146101d8578063dd181c73146101e2576100f2565b8063715018a6116100d1578063715018a61461014c57806371d316a714610156578063730e214f146101605780638da5cb5b1461017e576100f2565b806265d3a6146100f657806325f16f9b14610114578063629c6d8e14610130575b5f80fd5b6100fe61029c565b60405161010b9190610e26565b60405180910390f35b61012e60048036038101906101299190610ebb565b6102a4565b005b61014a60048036038101906101459190611055565b6102ef565b005b6101546107ad565b005b61015e6107c0565b005b6101686107d2565b6040516101759190610e26565b60405180910390f35b6101866107da565b60405161019391906110d0565b60405180910390f35b6101a4610802565b6040516101b19190611144565b60405180910390f35b6101c2610827565b6040516101cf919061116c565b60405180910390f35b6101e061082d565b005b6101fc60048036038101906101f79190611185565b610852565b60405161020d9594939291906111ca565b60405180910390f35b61021e6108b0565b60405161022b919061116c565b60405180910390f35b61024e60048036038101906102499190611278565b6108b6565b005b61026a6004803603810190610265919061132f565b610af2565b005b61028660048036038101906102819190611384565b610b76565b60405161029391906110d0565b60405180910390f35b600160f81b81565b6102ac610ba5565b8060055f6101000a81548173ffffffffffffffffffffffffffffffffffffffff021916908373ffffffffffffffffffffffffffffffffffffffff16021790555050565b600160f81b600560149054906101000a900460ff16806103f657505f80827effffffffffffffffffffffffffffffffffffffffffffffffffffffffffffff19167effffffffffffffffffffffffffffffffffffffffffffffffffffffffffffff191681526020019081526020015f205f9054906101000a900473ffffffffffffffffffffffffffffffffffffffff1673ffffffffffffffffffffffffffffffffffffffff16633af32abf336040518263ffffffff1660e01b81526004016103b691906110d0565b602060405180830381865afa1580156103d1573d5f803e3d5ffd5b505050506040513d601f19601f820116820180604052508101906103f591906113d9565b5b610435576040517f08c379a000000000000000000000000000000000000000000000000000000000815260040161042c90611484565b60405180910390fd5b5f801b8403610479576040517f08c379a000000000000000000000000000000000000000000000000000000000815260040161047090611512565b60405180910390fd5b5f8060055f9054906101000a900473ffffffffffffffffffffffffffffffffffffffff1673ffffffffffffffffffffffffffffffffffffffff16634a418c6b6040518163ffffffff1660e01b81526004016040805180830381865afa1580156104e4573d5f803e3d5ffd5b505050506040513d601f19601f820116820180604052508101906105089190611544565b915091508582148061051957508581145b610558576040517f08c379a000000000000000000000000000000000000000000000000000000000815260040161054f906115f2565b60405180910390fd5b5f804990505f801b81036105a1576040517f08c379a000000000000000000000000000000000000000000000000000000000815260040161059890611680565b60405180910390fd5b5f600282876040516020016105b79291906116be565b6040516020818303038152906040526040516105d39190611755565b602060405180830381855afa1580156105ee573d5f803e3d5ffd5b5050506040513d601f19601f82011682018060405250810190610611919061176b565b90505f151560065f8481526020019081526020015f206001015f9054906101000a900460ff16151514610679576040517f08c379a000000000000000000000000000000000000000000000000000000000815260040161067090611806565b60405180910390fd5b600160065f8481526020019081526020015f206001015f6101000a81548160ff0219169083151502179055503360065f8481526020019081526020015f2060010160016101000a81548173ffffffffffffffffffffffffffffffffffffffff021916908373ffffffffffffffffffffffffffffffffffffffff1602179055508060065f8481526020019081526020015f20600201819055508760065f8481526020019081526020015f20600301819055505f801b6002540361074857816002819055508160038190555061076a565b8160065f60035481526020019081526020015f205f0181905550816003819055505b7fac98d2539fa9ebeb9e09126339ea1e80455247ad94aa6ce9b0f8a1a14598fd86878960405161079b92919061186c565b60405180910390a15050505050505050565b6107b5610ba5565b6107be5f610c2c565b565b6107c8610ba5565b6107d0610cef565b565b600260f81b81565b5f60015f9054906101000a900473ffffffffffffffffffffffffffffffffffffffff16905090565b60055f9054906101000a900473ffffffffffffffffffffffffffffffffffffffff1681565b60025481565b610835610ba5565b6001600560146101000a81548160ff021916908315150217905550565b6006602052805f5260405f205f91509050805f015490806001015f9054906101000a900460ff16908060010160019054906101000a900473ffffffffffffffffffffffffffffffffffffffff16908060020154908060030154905085565b60035481565b600260f81b600560149054906101000a900460ff16806109bd57505f80827effffffffffffffffffffffffffffffffffffffffffffffffffffffffffffff19167effffffffffffffffffffffffffffffffffffffffffffffffffffffffffffff191681526020019081526020015f205f9054906101000a900473ffffffffffffffffffffffffffffffffffffffff1673ffffffffffffffffffffffffffffffffffffffff16633af32abf336040518263ffffffff1660e01b815260040161097d91906110d0565b602060405180830381865afa158015610998573d5f803e3d5ffd5b505050506040513d601f19601f820116820180604052508101906109bc91906113d9565b5b6109fc576040517f08c379a00000000000000000000000000000000000000000000000000000000081526004016109f390611484565b60405180910390fd5b5f801b60025403610a42576040517f08c379a0000000000000000000000000000000000000000000000000000000008152600401610a39906118e4565b60405180910390fd5b60055f9054906101000a900473ffffffffffffffffffffffffffffffffffffffff1673ffffffffffffffffffffffffffffffffffffffff166350ce22af868686866040518563ffffffff1660e01b8152600401610aa2949392919061192e565b6020604051808303815f875af1158015610abe573d5f803e3d5ffd5b505050506040513d601f19601f82011682018060405250810190610ae2919061176b565b50610aeb610cef565b5050505050565b610afa610ba5565b5f73ffffffffffffffffffffffffffffffffffffffff168173ffffffffffffffffffffffffffffffffffffffff1603610b6a575f6040517f1e4fbdf7000000000000000000000000000000000000000000000000000000008152600401610b6191906110d0565b60405180910390fd5b610b7381610c2c565b50565b5f602052805f5260405f205f915054906101000a900473ffffffffffffffffffffffffffffffffffffffff1681565b610bad610d45565b73ffffffffffffffffffffffffffffffffffffffff16610bcb6107da565b73ffffffffffffffffffffffffffffffffffffffff1614610c2a57610bee610d45565b6040517f118cdaa7000000000000000000000000000000000000000000000000000000008152600401610c2191906110d0565b60405180910390fd5b565b5f60015f9054906101000a900473ffffffffffffffffffffffffffffffffffffffff1690508160015f6101000a81548173ffffffffffffffffffffffffffffffffffffffff021916908373ffffffffffffffffffffffffffffffffffffffff1602179055508173ffffffffffffffffffffffffffffffffffffffff168173ffffffffffffffffffffffffffffffffffffffff167f8be0079c531659141344cd1fd0a4f28419497f9722a3daafe3b4186f6b6457e060405160405180910390a35050565b60035460025403610d1957610d02610d4c565b5f801b6002819055505f801b600381905550610d43565b5f60065f60025481526020019081526020015f205f01549050610d3a610d4c565b80600281905550505b565b5f33905090565b5f60065f60025481526020019081526020015f206001015f6101000a81548160ff0219169083151502179055505f801b60065f60025481526020019081526020015f205f01819055505f60065f60025481526020019081526020015f2060010160016101000a81548173ffffffffffffffffffffffffffffffffffffffff021916908373ffffffffffffffffffffffffffffffffffffffff160217905550565b5f7fff0000000000000000000000000000000000000000000000000000000000000082169050919050565b610e2081610dec565b82525050565b5f602082019050610e395f830184610e17565b92915050565b5f604051905090565b5f80fd5b5f80fd5b5f73ffffffffffffffffffffffffffffffffffffffff82169050919050565b5f610e7982610e50565b9050919050565b5f610e8a82610e6f565b9050919050565b610e9a81610e80565b8114610ea4575f80fd5b50565b5f81359050610eb581610e91565b92915050565b5f60208284031215610ed057610ecf610e48565b5b5f610edd84828501610ea7565b91505092915050565b5f819050919050565b610ef881610ee6565b8114610f02575f80fd5b50565b5f81359050610f1381610eef565b92915050565b5f80fd5b5f80fd5b5f601f19601f8301169050919050565b7f4e487b71000000000000000000000000000000000000000000000000000000005f52604160045260245ffd5b610f6782610f21565b810181811067ffffffffffffffff82111715610f8657610f85610f31565b5b80604052505050565b5f610f98610e3f565b9050610fa48282610f5e565b919050565b5f67ffffffffffffffff821115610fc357610fc2610f31565b5b610fcc82610f21565b9050602081019050919050565b828183375f83830152505050565b5f610ff9610ff484610fa9565b610f8f565b90508281526020810184848401111561101557611014610f1d565b5b611020848285610fd9565b509392505050565b5f82601f83011261103c5761103b610f19565b5b813561104c848260208601610fe7565b91505092915050565b5f805f6060848603121561106c5761106b610e48565b5b5f61107986828701610f05565b935050602084013567ffffffffffffffff81111561109a57611099610e4c565b5b6110a686828701611028565b92505060406110b786828701610f05565b9150509250925092565b6110ca81610e6f565b82525050565b5f6020820190506110e35f8301846110c1565b92915050565b5f819050919050565b5f61110c61110761110284610e50565b6110e9565b610e50565b9050919050565b5f61111d826110f2565b9050919050565b5f61112e82611113565b9050919050565b61113e81611124565b82525050565b5f6020820190506111575f830184611135565b92915050565b61116681610ee6565b82525050565b5f60208201905061117f5f83018461115d565b92915050565b5f6020828403121561119a57611199610e48565b5b5f6111a784828501610f05565b91505092915050565b5f8115159050919050565b6111c4816111b0565b82525050565b5f60a0820190506111dd5f83018861115d565b6111ea60208301876111bb565b6111f760408301866110c1565b611204606083018561115d565b611211608083018461115d565b9695505050505050565b5f80fd5b5f80fd5b5f8083601f84011261123857611237610f19565b5b8235905067ffffffffffffffff8111156112555761125461121b565b5b6020830191508360018202830111156112715761127061121f565b5b9250929050565b5f805f80606085870312156112905761128f610e48565b5b5f61129d87828801610f05565b945050602085013567ffffffffffffffff8111156112be576112bd610e4c565b5b6112ca87828801611028565b935050604085013567ffffffffffffffff8111156112eb576112ea610e4c565b5b6112f787828801611223565b925092505092959194509250565b61130e81610e6f565b8114611318575f80fd5b50565b5f8135905061132981611305565b92915050565b5f6020828403121561134457611343610e48565b5b5f6113518482850161131b565b91505092915050565b61136381610dec565b811461136d575f80fd5b50565b5f8135905061137e8161135a565b92915050565b5f6020828403121561139957611398610e48565b5b5f6113a684828501611370565b91505092915050565b6113b8816111b0565b81146113c2575f80fd5b50565b5f815190506113d3816113af565b92915050565b5f602082840312156113ee576113ed610e48565b5b5f6113fb848285016113c5565b91505092915050565b5f82825260208201905092915050565b7f4464657853657175656e6365723a2053656e646572206973206e6f74207768695f8201527f74656c6973746564000000000000000000000000000000000000000000000000602082015250565b5f61146e602883611404565b915061147982611414565b604082019050919050565b5f6020820190508181035f83015261149b81611462565b9050919050565b7f4464657853657175656e6365723a20496d61676549642063616e6e6f742062655f8201527f2030000000000000000000000000000000000000000000000000000000000000602082015250565b5f6114fc602283611404565b9150611507826114a2565b604082019050919050565b5f6020820190508181035f830152611529816114f0565b9050919050565b5f8151905061153e81610eef565b92915050565b5f806040838503121561155a57611559610e48565b5b5f61156785828601611530565b925050602061157885828601611530565b9150509250929050565b7f4464657853657175656e6365723a20556e737570706f7274656420696d6167655f8201527f4964000000000000000000000000000000000000000000000000000000000000602082015250565b5f6115dc602283611404565b91506115e782611582565b604082019050919050565b5f6020820190508181035f830152611609816115d0565b9050919050565b7f4464657853657175656e6365723a20426c6f62206e6f7420666f756e6420696e5f8201527f2074780000000000000000000000000000000000000000000000000000000000602082015250565b5f61166a602383611404565b915061167582611610565b604082019050919050565b5f6020820190508181035f8301526116978161165e565b9050919050565b5f819050919050565b6116b86116b382610ee6565b61169e565b82525050565b5f6116c982856116a7565b6020820191506116d982846116a7565b6020820191508190509392505050565b5f81519050919050565b5f81905092915050565b5f5b8381101561171a5780820151818401526020810190506116ff565b5f8484015250505050565b5f61172f826116e9565b61173981856116f3565b93506117498185602086016116fd565b80840191505092915050565b5f6117608284611725565b915081905092915050565b5f602082840312156117805761177f610e48565b5b5f61178d84828501611530565b91505092915050565b7f4464657853657175656e6365723a20426c6f6220616c7265616479207375626d5f8201527f6974746564000000000000000000000000000000000000000000000000000000602082015250565b5f6117f0602583611404565b91506117fb82611796565b604082019050919050565b5f6020820190508181035f83015261181d816117e4565b9050919050565b5f82825260208201905092915050565b5f61183e826116e9565b6118488185611824565b93506118588185602086016116fd565b61186181610f21565b840191505092915050565b5f6040820190508181035f8301526118848185611834565b9050611893602083018461115d565b9392505050565b7f4464657853657175656e6365723a20517565756520697320656d7074790000005f82015250565b5f6118ce601d83611404565b91506118d98261189a565b602082019050919050565b5f6020820190508181035f8301526118fb816118c2565b9050919050565b5f61190d8385611824565b935061191a838584610fd9565b61192383610f21565b840190509392505050565b5f6060820190506119415f83018761115d565b81810360208301526119538186611834565b90508181036040830152611968818486611902565b90509594505050505056fea2646970667358221220de84b87d6712800b13e230eb442cd7781c23308ce7ea04293eb6e04070b9d0d264736f6c63430008180033",
  "linkReferences": {},
  "deployedLinkReferences": {}
}