{
  "_format": "hh-sol-artifact-1",
  "contractName": "DdexEmitter",
  "sourceName": "contracts/DdexEmitter.sol",
  "abi": [
    {
      "inputs": [],
      "stateMutability": "nonpayable",
      "type": "constructor"
    },
    {
      "inputs": [
        {
          "internalType": "address",
          "name": "target",
          "type": "address"
        }
      ],
      "name": "AddressEmptyCode",
      "type": "error"
    },
    {
      "inputs": [
        {
          "internalType": "address",
          "name": "implementation",
          "type": "address"
        }
      ],
      "name": "ERC1967InvalidImplementation",
      "type": "error"
    },
    {
      "inputs": [],
      "name": "ERC1967NonPayable",
      "type": "error"
    },
    {
      "inputs": [],
      "name": "FailedCall",
      "type": "error"
    },
    {
      "inputs": [],
      "name": "InvalidInitialization",
      "type": "error"
    },
    {
      "inputs": [],
      "name": "NotInitializing",
      "type": "error"
    },
    {
      "inputs": [
        {
          "internalType": "address",
          "name": "owner",
          "type": "address"
        }
      ],
      "name": "OwnableInvalidOwner",
      "type": "error"
    },
    {
      "inputs": [
        {
          "internalType": "address",
          "name": "account",
          "type": "address"
        }
      ],
      "name": "OwnableUnauthorizedAccount",
      "type": "error"
    },
    {
      "inputs": [],
      "name": "UUPSUnauthorizedCallContext",
      "type": "error"
    },
    {
      "inputs": [
        {
          "internalType": "bytes32",
          "name": "slot",
          "type": "bytes32"
        }
      ],
      "name": "UUPSUnsupportedProxiableUUID",
      "type": "error"
    },
    {
      "anonymous": false,
      "inputs": [
        {
          "components": [
            {
              "internalType": "bool",
              "name": "valid",
              "type": "bool"
            },
            {
              "internalType": "bytes32",
              "name": "digest",
              "type": "bytes32"
            },
            {
              "components": [
                {
                  "components": [
                    {
                      "internalType": "string",
                      "name": "title_text",
                      "type": "string"
                    },
                    {
                      "internalType": "string",
                      "name": "subtitle",
                      "type": "string"
                    },
                    {
                      "internalType": "string",
                      "name": "display_title_text",
                      "type": "string"
                    },
                    {
                      "internalType": "string[]",
                      "name": "release_types",
                      "type": "string[]"
                    },
                    {
                      "components": [
                        {
                          "internalType": "string",
                          "name": "artist_party_reference",
                          "type": "string"
                        },
                        {
                          "internalType": "int32",
                          "name": "sequence_number",
                          "type": "int32"
                        },
                        {
                          "internalType": "string[]",
                          "name": "display_artist_roles",
                          "type": "string[]"
                        }
                      ],
                      "internalType": "struct DisplayArtist[]",
                      "name": "display_artists",
                      "type": "tuple[]"
                    },
                    {
                      "components": [
                        {
                          "internalType": "string",
                          "name": "applicable_territory_code",
                          "type": "string"
                        },
                        {
                          "internalType": "string",
                          "name": "language_and_script_type",
                          "type": "string"
                        },
                        {
                          "internalType": "string",
                          "name": "display_artist_name",
                          "type": "string"
                        }
                      ],
                      "internalType": "struct DisplayArtistName[]",
                      "name": "display_artist_names",
                      "type": "tuple[]"
                    },
                    {
                      "components": [
                        {
                          "internalType": "string",
                          "name": "grid",
                          "type": "string"
                        },
                        {
                          "internalType": "string",
                          "name": "icpn",
                          "type": "string"
                        },
                        {
                          "internalType": "string[]",
                          "name": "proprietary_ids",
                          "type": "string[]"
                        }
                      ],
                      "internalType": "struct ReleaseId",
                      "name": "release_id",
                      "type": "tuple"
                    }
                  ],
                  "internalType": "struct Release",
                  "name": "release",
                  "type": "tuple"
                },
                {
                  "components": [
                    {
                      "internalType": "string",
                      "name": "display_title",
                      "type": "string"
                    },
                    {
                      "internalType": "string",
                      "name": "subtitle",
                      "type": "string"
                    },
                    {
                      "internalType": "string",
                      "name": "display_title_text",
                      "type": "string"
                    },
                    {
                      "components": [
                        {
                          "internalType": "string",
                          "name": "isrc",
                          "type": "string"
                        },
                        {
                          "components": [
                            {
                              "internalType": "uint16",
                              "name": "year",
                              "type": "uint16"
                            },
                            {
                              "internalType": "string",
                              "name": "p_line_text",
                              "type": "string"
                            }
                          ],
                          "internalType": "struct PLine[]",
                          "name": "p_lines",
                          "type": "tuple[]"
                        },
                        {
                          "components": [
                            {
                              "internalType": "string",
                              "name": "namespace",
                              "type": "string"
                            },
                            {
                              "internalType": "string",
                              "name": "user_defined_value",
                              "type": "string"
                            },
                            {
                              "internalType": "string",
                              "name": "parameter",
                              "type": "string"
                            }
                          ],
                          "internalType": "struct Fingerprint[]",
                          "name": "fingerprints",
                          "type": "tuple[]"
                        }
                      ],
                      "internalType": "struct SoundRecordingEdition[]",
                      "name": "sound_recording_editions",
                      "type": "tuple[]"
                    },
                    {
                      "components": [
                        {
                          "internalType": "string",
                          "name": "iswc",
                          "type": "string"
                        }
                      ],
                      "internalType": "struct WorkId[]",
                      "name": "work_ids",
                      "type": "tuple[]"
                    },
                    {
                      "components": [
                        {
                          "internalType": "string",
                          "name": "contributor_party_reference",
                          "type": "string"
                        },
                        {
                          "internalType": "int32",
                          "name": "sequence_number",
                          "type": "int32"
                        },
                        {
                          "internalType": "string[]",
                          "name": "contributor_roles",
                          "type": "string[]"
                        }
                      ],
                      "internalType": "struct Contributor[]",
                      "name": "contributors",
                      "type": "tuple[]"
                    },
                    {
                      "components": [
                        {
                          "internalType": "string",
                          "name": "grid",
                          "type": "string"
                        },
                        {
                          "internalType": "string",
                          "name": "icpn",
                          "type": "string"
                        },
                        {
                          "internalType": "string[]",
                          "name": "proprietary_ids",
                          "type": "string[]"
                        }
                      ],
                      "internalType": "struct ReleaseId",
                      "name": "track_release_id",
                      "type": "tuple"
                    }
                  ],
                  "internalType": "struct SoundRecording[]",
                  "name": "sound_recordings",
                  "type": "tuple[]"
                }
              ],
              "internalType": "struct ProvedMessage[]",
              "name": "messages",
              "type": "tuple[]"
            },
            {
              "internalType": "string[]",
              "name": "rejected_messages",
              "type": "string[]"
            }
          ],
          "indexed": false,
          "internalType": "struct ProverPublicOutputs",
          "name": "proverPublicOutputs",
          "type": "tuple"
        },
        {
          "indexed": false,
          "internalType": "string",
          "name": "cid",
          "type": "string"
        }
      ],
      "name": "BlobProcessed",
      "type": "event"
    },
    {
      "anonymous": false,
      "inputs": [
        {
          "components": [
            {
              "internalType": "bool",
              "name": "valid",
              "type": "bool"
            },
            {
              "internalType": "bytes32",
              "name": "digest",
              "type": "bytes32"
            },
            {
              "components": [
                {
                  "components": [
                    {
                      "internalType": "string",
                      "name": "title_text",
                      "type": "string"
                    },
                    {
                      "internalType": "string",
                      "name": "subtitle",
                      "type": "string"
                    },
                    {
                      "internalType": "string",
                      "name": "display_title_text",
                      "type": "string"
                    },
                    {
                      "internalType": "string[]",
                      "name": "release_types",
                      "type": "string[]"
                    },
                    {
                      "components": [
                        {
                          "internalType": "string",
                          "name": "artist_party_reference",
                          "type": "string"
                        },
                        {
                          "internalType": "int32",
                          "name": "sequence_number",
                          "type": "int32"
                        },
                        {
                          "internalType": "string[]",
                          "name": "display_artist_roles",
                          "type": "string[]"
                        }
                      ],
                      "internalType": "struct DisplayArtist[]",
                      "name": "display_artists",
                      "type": "tuple[]"
                    },
                    {
                      "components": [
                        {
                          "internalType": "string",
                          "name": "applicable_territory_code",
                          "type": "string"
                        },
                        {
                          "internalType": "string",
                          "name": "language_and_script_type",
                          "type": "string"
                        },
                        {
                          "internalType": "string",
                          "name": "display_artist_name",
                          "type": "string"
                        }
                      ],
                      "internalType": "struct DisplayArtistName[]",
                      "name": "display_artist_names",
                      "type": "tuple[]"
                    },
                    {
                      "components": [
                        {
                          "internalType": "string",
                          "name": "grid",
                          "type": "string"
                        },
                        {
                          "internalType": "string",
                          "name": "icpn",
                          "type": "string"
                        },
                        {
                          "internalType": "string[]",
                          "name": "proprietary_ids",
                          "type": "string[]"
                        }
                      ],
                      "internalType": "struct ReleaseId",
                      "name": "release_id",
                      "type": "tuple"
                    }
                  ],
                  "internalType": "struct Release",
                  "name": "release",
                  "type": "tuple"
                },
                {
                  "components": [
                    {
                      "internalType": "string",
                      "name": "display_title",
                      "type": "string"
                    },
                    {
                      "internalType": "string",
                      "name": "subtitle",
                      "type": "string"
                    },
                    {
                      "internalType": "string",
                      "name": "display_title_text",
                      "type": "string"
                    },
                    {
                      "components": [
                        {
                          "internalType": "string",
                          "name": "isrc",
                          "type": "string"
                        },
                        {
                          "components": [
                            {
                              "internalType": "uint16",
                              "name": "year",
                              "type": "uint16"
                            },
                            {
                              "internalType": "string",
                              "name": "p_line_text",
                              "type": "string"
                            }
                          ],
                          "internalType": "struct PLine[]",
                          "name": "p_lines",
                          "type": "tuple[]"
                        },
                        {
                          "components": [
                            {
                              "internalType": "string",
                              "name": "namespace",
                              "type": "string"
                            },
                            {
                              "internalType": "string",
                              "name": "user_defined_value",
                              "type": "string"
                            },
                            {
                              "internalType": "string",
                              "name": "parameter",
                              "type": "string"
                            }
                          ],
                          "internalType": "struct Fingerprint[]",
                          "name": "fingerprints",
                          "type": "tuple[]"
                        }
                      ],
                      "internalType": "struct SoundRecordingEdition[]",
                      "name": "sound_recording_editions",
                      "type": "tuple[]"
                    },
                    {
                      "components": [
                        {
                          "internalType": "string",
                          "name": "iswc",
                          "type": "string"
                        }
                      ],
                      "internalType": "struct WorkId[]",
                      "name": "work_ids",
                      "type": "tuple[]"
                    },
                    {
                      "components": [
                        {
                          "internalType": "string",
                          "name": "contributor_party_reference",
                          "type": "string"
                        },
                        {
                          "internalType": "int32",
                          "name": "sequence_number",
                          "type": "int32"
                        },
                        {
                          "internalType": "string[]",
                          "name": "contributor_roles",
                          "type": "string[]"
                        }
                      ],
                      "internalType": "struct Contributor[]",
                      "name": "contributors",
                      "type": "tuple[]"
                    },
                    {
                      "components": [
                        {
                          "internalType": "string",
                          "name": "grid",
                          "type": "string"
                        },
                        {
                          "internalType": "string",
                          "name": "icpn",
                          "type": "string"
                        },
                        {
                          "internalType": "string[]",
                          "name": "proprietary_ids",
                          "type": "string[]"
                        }
                      ],
                      "internalType": "struct ReleaseId",
                      "name": "track_release_id",
                      "type": "tuple"
                    }
                  ],
                  "internalType": "struct SoundRecording[]",
                  "name": "sound_recordings",
                  "type": "tuple[]"
                }
              ],
              "internalType": "struct ProvedMessage[]",
              "name": "messages",
              "type": "tuple[]"
            },
            {
              "internalType": "string[]",
              "name": "rejected_messages",
              "type": "string[]"
            }
          ],
          "indexed": false,
          "internalType": "struct ProverPublicOutputs",
          "name": "proverPublicOutputs",
          "type": "tuple"
        },
        {
          "indexed": false,
          "internalType": "string",
          "name": "cid",
          "type": "string"
        }
      ],
      "name": "BlobRejected",
      "type": "event"
    },
    {
      "anonymous": false,
      "inputs": [
        {
          "indexed": false,
          "internalType": "bytes1",
          "name": "target",
          "type": "bytes1"
        },
        {
          "indexed": false,
          "internalType": "bytes32",
          "name": "previousImageId",
          "type": "bytes32"
        },
        {
          "indexed": false,
          "internalType": "bytes32",
          "name": "currentImageId",
          "type": "bytes32"
        }
      ],
      "name": "ImageIdChanged",
      "type": "event"
    },
    {
      "anonymous": false,
      "inputs": [
        {
          "indexed": false,
          "internalType": "uint64",
          "name": "version",
          "type": "uint64"
        }
      ],
      "name": "Initialized",
      "type": "event"
    },
    {
      "anonymous": false,
      "inputs": [
        {
          "indexed": true,
          "internalType": "address",
          "name": "previousOwner",
          "type": "address"
        },
        {
          "indexed": true,
          "internalType": "address",
          "name": "newOwner",
          "type": "address"
        }
      ],
      "name": "OwnershipTransferred",
      "type": "event"
    },
    {
      "anonymous": false,
      "inputs": [
        {
          "indexed": true,
          "internalType": "address",
          "name": "implementation",
          "type": "address"
        }
      ],
      "name": "Upgraded",
      "type": "event"
    },
    {
      "inputs": [],
      "name": "BLOB_CURRENT_IMAGE_ID",
      "outputs": [
        {
          "internalType": "bytes1",
          "name": "",
          "type": "bytes1"
        }
      ],
      "stateMutability": "view",
      "type": "function"
    },
    {
      "inputs": [],
      "name": "BLOB_PREVIOUS_IMAGE_ID",
      "outputs": [
        {
          "internalType": "bytes1",
          "name": "",
          "type": "bytes1"
        }
      ],
      "stateMutability": "view",
      "type": "function"
    },
    {
      "inputs": [],
      "name": "UPGRADE_INTERFACE_VERSION",
      "outputs": [
        {
          "internalType": "string",
          "name": "",
          "type": "string"
        }
      ],
      "stateMutability": "view",
      "type": "function"
    },
    {
      "inputs": [],
      "name": "VERIFIER_CURRENT_IMAGE_ID",
      "outputs": [
        {
          "internalType": "bytes1",
          "name": "",
          "type": "bytes1"
        }
      ],
      "stateMutability": "view",
      "type": "function"
    },
    {
      "inputs": [],
      "name": "VERIFIER_PREVIOUS_IMAGE_ID",
      "outputs": [
        {
          "internalType": "bytes1",
          "name": "",
          "type": "bytes1"
        }
      ],
      "stateMutability": "view",
      "type": "function"
    },
    {
      "inputs": [],
      "name": "getSupportedBlobImageIds",
      "outputs": [
        {
          "internalType": "bytes32",
          "name": "",
          "type": "bytes32"
        },
        {
          "internalType": "bytes32",
          "name": "",
          "type": "bytes32"
        }
      ],
      "stateMutability": "view",
      "type": "function"
    },
    {
      "inputs": [],
      "name": "getSupportedVerifierImageIds",
      "outputs": [
        {
          "internalType": "bytes32",
          "name": "",
          "type": "bytes32"
        },
        {
          "internalType": "bytes32",
          "name": "",
          "type": "bytes32"
        }
      ],
      "stateMutability": "view",
      "type": "function"
    },
    {
      "inputs": [
        {
          "internalType": "contract IRiscZeroVerifier",
          "name": "_riscZeroGroth16Verifier",
          "type": "address"
        },
        {
          "internalType": "address",
          "name": "_ddexSequencerAddress",
          "type": "address"
        }
      ],
      "name": "initialize",
      "outputs": [],
      "stateMutability": "nonpayable",
      "type": "function"
    },
    {
      "inputs": [],
      "name": "owner",
      "outputs": [
        {
          "internalType": "address",
          "name": "",
          "type": "address"
        }
      ],
      "stateMutability": "view",
      "type": "function"
    },
    {
      "inputs": [],
      "name": "proxiableUUID",
      "outputs": [
        {
          "internalType": "bytes32",
          "name": "",
          "type": "bytes32"
        }
      ],
      "stateMutability": "view",
      "type": "function"
    },
    {
      "inputs": [],
      "name": "renounceOwnership",
      "outputs": [],
      "stateMutability": "nonpayable",
      "type": "function"
    },
    {
      "inputs": [
        {
          "internalType": "bytes1[]",
          "name": "_targets",
          "type": "bytes1[]"
        },
        {
          "internalType": "bytes32[]",
          "name": "_newImageIds",
          "type": "bytes32[]"
        }
      ],
      "name": "setImageIds",
      "outputs": [],
      "stateMutability": "nonpayable",
      "type": "function"
    },
    {
      "inputs": [
        {
          "internalType": "address",
          "name": "newOwner",
          "type": "address"
        }
      ],
      "name": "transferOwnership",
      "outputs": [],
      "stateMutability": "nonpayable",
      "type": "function"
    },
    {
      "inputs": [
        {
          "internalType": "address",
          "name": "newImplementation",
          "type": "address"
        },
        {
          "internalType": "bytes",
          "name": "data",
          "type": "bytes"
        }
      ],
      "name": "upgradeToAndCall",
      "outputs": [],
      "stateMutability": "payable",
      "type": "function"
    },
    {
      "inputs": [
        {
          "internalType": "bytes32",
          "name": "_imageId",
          "type": "bytes32"
        },
        {
          "internalType": "bytes",
          "name": "_journal",
          "type": "bytes"
        },
        {
          "internalType": "bytes",
          "name": "_seal",
          "type": "bytes"
        },
        {
          "internalType": "string",
          "name": "_cid",
          "type": "string"
        }
      ],
      "name": "verifyAndEmit",
      "outputs": [
        {
          "internalType": "bytes32",
          "name": "blobSha2",
          "type": "bytes32"
        }
      ],
      "stateMutability": "nonpayable",
      "type": "function"
    }
  ],
  "bytecode": "0x60a06040523073ffffffffffffffffffffffffffffffffffffffff1660809073ffffffffffffffffffffffffffffffffffffffff1681525034801562000043575f80fd5b50620000546200005a60201b60201c565b620001c4565b5f6200006b6200015e60201b60201c565b9050805f0160089054906101000a900460ff1615620000b6576040517ff92ee8a900000000000000000000000000000000000000000000000000000000815260040160405180910390fd5b67ffffffffffffffff8016815f015f9054906101000a900467ffffffffffffffff1667ffffffffffffffff16146200015b5767ffffffffffffffff815f015f6101000a81548167ffffffffffffffff021916908367ffffffffffffffff1602179055507fc7f505b2f371ae2175ee4913f4499e1f2633a7b5936321eed1cdaeb6115181d267ffffffffffffffff604051620001529190620001a9565b60405180910390a15b50565b5f7ff0c57e16840df040f15088dc2f81fe391c3923bec73e23a9662efc9c229c6a00905090565b5f67ffffffffffffffff82169050919050565b620001a38162000185565b82525050565b5f602082019050620001be5f83018462000198565b92915050565b60805161432d620001eb5f395f8181610fa501528181610ffa01526111b4015261432d5ff3fe6080604052600436106100e7575f3560e01c80636e0f29b011610089578063ad3cb1cc11610058578063ad3cb1cc14610294578063cae8858e146102be578063cdc3cbea146102e9578063f2fde38b14610325576100e7565b80636e0f29b014610200578063715018a61461022a5780638da5cb5b146102405780639789fa4b1461026a576100e7565b8063485cc955116100c5578063485cc955146101675780634a418c6b1461018f5780634f1ef286146101ba57806352d1902d146101d6576100e7565b806303ce8cb5146100eb578063347937ac146101155780633cbd314e1461013f575b5f80fd5b3480156100f6575f80fd5b506100ff61034d565b60405161010c9190611778565b60405180910390f35b348015610120575f80fd5b50610129610355565b6040516101369190611778565b60405180910390f35b34801561014a575f80fd5b5061016560048036038101906101609190611a0f565b61035d565b005b348015610172575f80fd5b5061018d60048036038101906101889190611b1a565b6105ad565b005b34801561019a575f80fd5b506101a36108ae565b6040516101b1929190611b67565b60405180910390f35b6101d460048036038101906101cf9190611c3e565b61096c565b005b3480156101e1575f80fd5b506101ea61098b565b6040516101f79190611c98565b60405180910390f35b34801561020b575f80fd5b506102146109bc565b6040516102219190611778565b60405180910390f35b348015610235575f80fd5b5061023e6109c4565b005b34801561024b575f80fd5b506102546109d7565b6040516102619190611cc0565b60405180910390f35b348015610275575f80fd5b5061027e610a0c565b60405161028b9190611778565b60405180910390f35b34801561029f575f80fd5b506102a8610a14565b6040516102b59190611d53565b60405180910390f35b3480156102c9575f80fd5b506102d2610a4d565b6040516102e0929190611b67565b60405180910390f35b3480156102f4575f80fd5b5061030f600480360381019061030a9190611e6a565b610b0b565b60405161031c9190611c98565b60405180910390f35b348015610330575f80fd5b5061034b60048036038101906103469190611f26565b610e5d565b005b600260f81b81565b600460f81b81565b610365610ee1565b80518251146103a9576040517f08c379a00000000000000000000000000000000000000000000000000000000081526004016103a090611fc1565b60405180910390fd5b5f5b82518110156105a8575f8382815181106103c8576103c7611fdf565b5b602002602001015190505f8383815181106103e6576103e5611fdf565b5b602002602001015190505f60f81b7effffffffffffffffffffffffffffffffffffffffffffffffffffffffffffff1916827effffffffffffffffffffffffffffffffffffffffffffffffffffffffffffff191611801561046b5750600560f81b827effffffffffffffffffffffffffffffffffffffffffffffffffffffffffffff1916105b6104aa576040517f08c379a00000000000000000000000000000000000000000000000000000000081526004016104a190612056565b60405180910390fd5b5f60025f847effffffffffffffffffffffffffffffffffffffffffffffffffffffffffffff19167effffffffffffffffffffffffffffffffffffffffffffffffffffffffffffff191681526020019081526020015f205490508160025f857effffffffffffffffffffffffffffffffffffffffffffffffffffffffffffff19167effffffffffffffffffffffffffffffffffffffffffffffffffffffffffffff191681526020019081526020015f20819055507fc142d06f1e5097dbe675da5107cad63d4b0a4af127efd83cf3482ff3ea67bbb483828460405161059093929190612074565b60405180910390a150505080806001019150506103ab565b505050565b5f6105b6610f68565b90505f815f0160089054906101000a900460ff161590505f825f015f9054906101000a900467ffffffffffffffff1690505f808267ffffffffffffffff161480156105fe5750825b90505f60018367ffffffffffffffff1614801561063157505f3073ffffffffffffffffffffffffffffffffffffffff163b145b90508115801561063f575080155b15610676576040517ff92ee8a900000000000000000000000000000000000000000000000000000000815260040160405180910390fd5b6001855f015f6101000a81548167ffffffffffffffff021916908367ffffffffffffffff16021790555083156106c3576001855f0160086101000a81548160ff0219169083151502179055505b7fe2ce8b6b162ff96551a1d8a574c3bb5849e2909bec40347321b9eab366acc9665f1b60025f600160f81b7effffffffffffffffffffffffffffffffffffffffffffffffffffffffffffff19167effffffffffffffffffffffffffffffffffffffffffffffffffffffffffffff191681526020019081526020015f20819055507fe2ce8b6b162ff96551a1d8a574c3bb5849e2909bec40347321b9eab366acc9665f1b60025f600360f81b7effffffffffffffffffffffffffffffffffffffffffffffffffffffffffffff19167effffffffffffffffffffffffffffffffffffffffffffffffffffffffffffff191681526020019081526020015f2081905550865f806101000a81548173ffffffffffffffffffffffffffffffffffffffff021916908373ffffffffffffffffffffffffffffffffffffffff1602179055508560015f6101000a81548173ffffffffffffffffffffffffffffffffffffffff021916908373ffffffffffffffffffffffffffffffffffffffff16021790555061084b33610f8f565b83156108a5575f855f0160086101000a81548160ff0219169083151502179055507fc7f505b2f371ae2175ee4913f4499e1f2633a7b5936321eed1cdaeb6115181d2600160405161089c91906120fe565b60405180910390a15b50505050505050565b5f8060025f600160f81b7effffffffffffffffffffffffffffffffffffffffffffffffffffffffffffff19167effffffffffffffffffffffffffffffffffffffffffffffffffffffffffffff191681526020019081526020015f205460025f600260f81b7effffffffffffffffffffffffffffffffffffffffffffffffffffffffffffff19167effffffffffffffffffffffffffffffffffffffffffffffffffffffffffffff191681526020019081526020015f2054915091509091565b610974610fa3565b61097d82611089565b6109878282611094565b5050565b5f6109946111b2565b7f360894a13ba1a3210667c828492db98dca3e2076cc3735a920a3ca505d382bbc5f1b905090565b600160f81b81565b6109cc610ee1565b6109d55f611239565b565b5f806109e161130a565b9050805f015f9054906101000a900473ffffffffffffffffffffffffffffffffffffffff1691505090565b600360f81b81565b6040518060400160405280600581526020017f352e302e3000000000000000000000000000000000000000000000000000000081525081565b5f8060025f600360f81b7effffffffffffffffffffffffffffffffffffffffffffffffffffffffffffff19167effffffffffffffffffffffffffffffffffffffffffffffffffffffffffffff191681526020019081526020015f205460025f600460f81b7effffffffffffffffffffffffffffffffffffffffffffffffffffffffffffff19167effffffffffffffffffffffffffffffffffffffffffffffffffffffffffffff191681526020019081526020015f2054915091509091565b5f60015f9054906101000a900473ffffffffffffffffffffffffffffffffffffffff1673ffffffffffffffffffffffffffffffffffffffff163373ffffffffffffffffffffffffffffffffffffffff1614610b9b576040517f08c379a0000000000000000000000000000000000000000000000000000000008152600401610b9290612161565b60405180910390fd5b5f801b8603610bdf576040517f08c379a0000000000000000000000000000000000000000000000000000000008152600401610bd6906121c9565b60405180910390fd5b8560025f600360f81b7effffffffffffffffffffffffffffffffffffffffffffffffffffffffffffff19167effffffffffffffffffffffffffffffffffffffffffffffffffffffffffffff191681526020019081526020015f20541480610c9e57508560025f600460f81b7effffffffffffffffffffffffffffffffffffffffffffffffffffffffffffff19167effffffffffffffffffffffffffffffffffffffffffffffffffffffffffffff191681526020019081526020015f2054145b610cdd576040517f08c379a0000000000000000000000000000000000000000000000000000000008152600401610cd490612231565b60405180910390fd5b5f85806020019051810190610cf29190613507565b90505f8054906101000a900473ffffffffffffffffffffffffffffffffffffffff1673ffffffffffffffffffffffffffffffffffffffff1663ab750e7586868a60028b604051610d429190613592565b602060405180830381855afa158015610d5d573d5f803e3d5ffd5b5050506040513d601f19601f82011682018060405250810190610d8091906135a8565b6040518563ffffffff1660e01b8152600401610d9f949392919061360f565b5f6040518083038186803b158015610db5575f80fd5b505afa158015610dc7573d5f803e3d5ffd5b50505050805f015115610e12577f821c862d99c89aff68f79723c668cf0a65368554b21344ca6228efa2025987e38184604051610e059291906142c2565b60405180910390a1610e4c565b7f685402ddc5425c8bd2976ed9f112774ca64ca97c428fafc80f1e7c3a3fddfcd98184604051610e439291906142c2565b60405180910390a15b806020015191505095945050505050565b610e65610ee1565b5f73ffffffffffffffffffffffffffffffffffffffff168173ffffffffffffffffffffffffffffffffffffffff1603610ed5575f6040517f1e4fbdf7000000000000000000000000000000000000000000000000000000008152600401610ecc9190611cc0565b60405180910390fd5b610ede81611239565b50565b610ee9611331565b73ffffffffffffffffffffffffffffffffffffffff16610f076109d7565b73ffffffffffffffffffffffffffffffffffffffff1614610f6657610f2a611331565b6040517f118cdaa7000000000000000000000000000000000000000000000000000000008152600401610f5d9190611cc0565b60405180910390fd5b565b5f7ff0c57e16840df040f15088dc2f81fe391c3923bec73e23a9662efc9c229c6a00905090565b610f97611338565b610fa081611378565b50565b7f000000000000000000000000000000000000000000000000000000000000000073ffffffffffffffffffffffffffffffffffffffff163073ffffffffffffffffffffffffffffffffffffffff16148061105057507f000000000000000000000000000000000000000000000000000000000000000073ffffffffffffffffffffffffffffffffffffffff166110376113fc565b73ffffffffffffffffffffffffffffffffffffffff1614155b15611087576040517fe07c8dba00000000000000000000000000000000000000000000000000000000815260040160405180910390fd5b565b611091610ee1565b50565b8173ffffffffffffffffffffffffffffffffffffffff166352d1902d6040518163ffffffff1660e01b8152600401602060405180830381865afa9250505080156110fc57506040513d601f19601f820116820180604052508101906110f991906135a8565b60015b61113d57816040517f4c9c8ce30000000000000000000000000000000000000000000000000000000081526004016111349190611cc0565b60405180910390fd5b7f360894a13ba1a3210667c828492db98dca3e2076cc3735a920a3ca505d382bbc5f1b81146111a357806040517faa1d49a400000000000000000000000000000000000000000000000000000000815260040161119a9190611c98565b60405180910390fd5b6111ad838361144f565b505050565b7f000000000000000000000000000000000000000000000000000000000000000073ffffffffffffffffffffffffffffffffffffffff163073ffffffffffffffffffffffffffffffffffffffff1614611237576040517fe07c8dba00000000000000000000000000000000000000000000000000000000815260040160405180910390fd5b565b5f61124261130a565b90505f815f015f9054906101000a900473ffffffffffffffffffffffffffffffffffffffff16905082825f015f6101000a81548173ffffffffffffffffffffffffffffffffffffffff021916908373ffffffffffffffffffffffffffffffffffffffff1602179055508273ffffffffffffffffffffffffffffffffffffffff168173ffffffffffffffffffffffffffffffffffffffff167f8be0079c531659141344cd1fd0a4f28419497f9722a3daafe3b4186f6b6457e060405160405180910390a3505050565b5f7f9016d09d72d40fdae2fd8ceac6b6234c7706214fd39c1cd1e609a0528c199300905090565b5f33905090565b6113406114c1565b611376576040517fd7e6bcf800000000000000000000000000000000000000000000000000000000815260040160405180910390fd5b565b611380611338565b5f73ffffffffffffffffffffffffffffffffffffffff168173ffffffffffffffffffffffffffffffffffffffff16036113f0575f6040517f1e4fbdf70000000000000000000000000000000000000000000000000000000081526004016113e79190611cc0565b60405180910390fd5b6113f981611239565b50565b5f6114287f360894a13ba1a3210667c828492db98dca3e2076cc3735a920a3ca505d382bbc5f1b6114df565b5f015f9054906101000a900473ffffffffffffffffffffffffffffffffffffffff16905090565b611458826114e8565b8173ffffffffffffffffffffffffffffffffffffffff167fbc7cd75a20ee27fd9adebab32041f755214dbc6bffa90cc0225b39da2e5c2d3b60405160405180910390a25f815111156114b4576114ae82826115b1565b506114bd565b6114bc611631565b5b5050565b5f6114ca610f68565b5f0160089054906101000a900460ff16905090565b5f819050919050565b5f8173ffffffffffffffffffffffffffffffffffffffff163b0361154357806040517f4c9c8ce300000000000000000000000000000000000000000000000000000000815260040161153a9190611cc0565b60405180910390fd5b8061156f7f360894a13ba1a3210667c828492db98dca3e2076cc3735a920a3ca505d382bbc5f1b6114df565b5f015f6101000a81548173ffffffffffffffffffffffffffffffffffffffff021916908373ffffffffffffffffffffffffffffffffffffffff16021790555050565b60605f808473ffffffffffffffffffffffffffffffffffffffff16846040516115da9190613592565b5f60405180830381855af49150503d805f8114611612576040519150601f19603f3d011682016040523d82523d5f602084013e611617565b606091505b509150915061162785838361166d565b9250505092915050565b5f34111561166b576040517fb398979f00000000000000000000000000000000000000000000000000000000815260040160405180910390fd5b565b6060826116825761167d826116fa565b6116f2565b5f82511480156116a857505f8473ffffffffffffffffffffffffffffffffffffffff163b145b156116ea57836040517f9996b3150000000000000000000000000000000000000000000000000000000081526004016116e19190611cc0565b60405180910390fd5b8190506116f3565b5b9392505050565b5f8151111561170c5780518082602001fd5b6040517fd6bda27500000000000000000000000000000000000000000000000000000000815260040160405180910390fd5b5f7fff0000000000000000000000000000000000000000000000000000000000000082169050919050565b6117728161173e565b82525050565b5f60208201905061178b5f830184611769565b92915050565b5f604051905090565b5f80fd5b5f80fd5b5f80fd5b5f601f19601f8301169050919050565b7f4e487b71000000000000000000000000000000000000000000000000000000005f52604160045260245ffd5b6117ec826117a6565b810181811067ffffffffffffffff8211171561180b5761180a6117b6565b5b80604052505050565b5f61181d611791565b905061182982826117e3565b919050565b5f67ffffffffffffffff821115611848576118476117b6565b5b602082029050602081019050919050565b5f80fd5b6118668161173e565b8114611870575f80fd5b50565b5f813590506118818161185d565b92915050565b5f6118996118948461182e565b611814565b905080838252602082019050602084028301858111156118bc576118bb611859565b5b835b818110156118e557806118d18882611873565b8452602084019350506020810190506118be565b5050509392505050565b5f82601f830112611903576119026117a2565b5b8135611913848260208601611887565b91505092915050565b5f67ffffffffffffffff821115611936576119356117b6565b5b602082029050602081019050919050565b5f819050919050565b61195981611947565b8114611963575f80fd5b50565b5f8135905061197481611950565b92915050565b5f61198c6119878461191c565b611814565b905080838252602082019050602084028301858111156119af576119ae611859565b5b835b818110156119d857806119c48882611966565b8452602084019350506020810190506119b1565b5050509392505050565b5f82601f8301126119f6576119f56117a2565b5b8135611a0684826020860161197a565b91505092915050565b5f8060408385031215611a2557611a2461179a565b5b5f83013567ffffffffffffffff811115611a4257611a4161179e565b5b611a4e858286016118ef565b925050602083013567ffffffffffffffff811115611a6f57611a6e61179e565b5b611a7b858286016119e2565b9150509250929050565b5f73ffffffffffffffffffffffffffffffffffffffff82169050919050565b5f611aae82611a85565b9050919050565b5f611abf82611aa4565b9050919050565b611acf81611ab5565b8114611ad9575f80fd5b50565b5f81359050611aea81611ac6565b92915050565b611af981611aa4565b8114611b03575f80fd5b50565b5f81359050611b1481611af0565b92915050565b5f8060408385031215611b3057611b2f61179a565b5b5f611b3d85828601611adc565b9250506020611b4e85828601611b06565b9150509250929050565b611b6181611947565b82525050565b5f604082019050611b7a5f830185611b58565b611b876020830184611b58565b9392505050565b5f80fd5b5f67ffffffffffffffff821115611bac57611bab6117b6565b5b611bb5826117a6565b9050602081019050919050565b828183375f83830152505050565b5f611be2611bdd84611b92565b611814565b905082815260208101848484011115611bfe57611bfd611b8e565b5b611c09848285611bc2565b509392505050565b5f82601f830112611c2557611c246117a2565b5b8135611c35848260208601611bd0565b91505092915050565b5f8060408385031215611c5457611c5361179a565b5b5f611c6185828601611b06565b925050602083013567ffffffffffffffff811115611c8257611c8161179e565b5b611c8e85828601611c11565b9150509250929050565b5f602082019050611cab5f830184611b58565b92915050565b611cba81611aa4565b82525050565b5f602082019050611cd35f830184611cb1565b92915050565b5f81519050919050565b5f82825260208201905092915050565b5f5b83811015611d10578082015181840152602081019050611cf5565b5f8484015250505050565b5f611d2582611cd9565b611d2f8185611ce3565b9350611d3f818560208601611cf3565b611d48816117a6565b840191505092915050565b5f6020820190508181035f830152611d6b8184611d1b565b905092915050565b5f80fd5b5f8083601f840112611d8c57611d8b6117a2565b5b8235905067ffffffffffffffff811115611da957611da8611d73565b5b602083019150836001820283011115611dc557611dc4611859565b5b9250929050565b5f67ffffffffffffffff821115611de657611de56117b6565b5b611def826117a6565b9050602081019050919050565b5f611e0e611e0984611dcc565b611814565b905082815260208101848484011115611e2a57611e29611b8e565b5b611e35848285611bc2565b509392505050565b5f82601f830112611e5157611e506117a2565b5b8135611e61848260208601611dfc565b91505092915050565b5f805f805f60808688031215611e8357611e8261179a565b5b5f611e9088828901611966565b955050602086013567ffffffffffffffff811115611eb157611eb061179e565b5b611ebd88828901611c11565b945050604086013567ffffffffffffffff811115611ede57611edd61179e565b5b611eea88828901611d77565b9350935050606086013567ffffffffffffffff811115611f0d57611f0c61179e565b5b611f1988828901611e3d565b9150509295509295909350565b5f60208284031215611f3b57611f3a61179a565b5b5f611f4884828501611b06565b91505092915050565b7f44646578456d69747465723a204d69736d617463686564206172726179206c655f8201527f6e67746873000000000000000000000000000000000000000000000000000000602082015250565b5f611fab602583611ce3565b9150611fb682611f51565b604082019050919050565b5f6020820190508181035f830152611fd881611f9f565b9050919050565b7f4e487b71000000000000000000000000000000000000000000000000000000005f52603260045260245ffd5b7f44646578456d69747465723a20496e76616c69642074617267657400000000005f82015250565b5f612040601b83611ce3565b915061204b8261200c565b602082019050919050565b5f6020820190508181035f83015261206d81612034565b9050919050565b5f6060820190506120875f830186611769565b6120946020830185611b58565b6120a16040830184611b58565b949350505050565b5f819050919050565b5f67ffffffffffffffff82169050919050565b5f819050919050565b5f6120e86120e36120de846120a9565b6120c5565b6120b2565b9050919050565b6120f8816120ce565b82525050565b5f6020820190506121115f8301846120ef565b92915050565b7f6d73672e73656e646572206973206e6f74204464657853657175656e636572005f82015250565b5f61214b601f83611ce3565b915061215682612117565b602082019050919050565b5f6020820190508181035f8301526121788161213f565b9050919050565b7f44646578456d69747465723a20496d61676549642063616e6e6f7420626520305f82015250565b5f6121b3602083611ce3565b91506121be8261217f565b602082019050919050565b5f6020820190508181035f8301526121e0816121a7565b9050919050565b7f44646578456d69747465723a20556e737570706f7274656420696d61676549645f82015250565b5f61221b602083611ce3565b9150612226826121e7565b602082019050919050565b5f6020820190508181035f8301526122488161220f565b9050919050565b5f80fd5b5f80fd5b5f8115159050919050565b61226b81612257565b8114612275575f80fd5b50565b5f8151905061228681612262565b92915050565b5f8151905061229a81611950565b92915050565b5f67ffffffffffffffff8211156122ba576122b96117b6565b5b602082029050602081019050919050565b5f6122dd6122d884611dcc565b611814565b9050828152602081018484840111156122f9576122f8611b8e565b5b612304848285611cf3565b509392505050565b5f82601f8301126123205761231f6117a2565b5b81516123308482602086016122cb565b91505092915050565b5f67ffffffffffffffff821115612353576123526117b6565b5b602082029050602081019050919050565b5f61237661237184612339565b611814565b9050808382526020820190506020840283018581111561239957612398611859565b5b835b818110156123e057805167ffffffffffffffff8111156123be576123bd6117a2565b5b8086016123cb898261230c565b8552602085019450505060208101905061239b565b5050509392505050565b5f82601f8301126123fe576123fd6117a2565b5b815161240e848260208601612364565b91505092915050565b5f67ffffffffffffffff821115612431576124306117b6565b5b602082029050602081019050919050565b5f8160030b9050919050565b61245781612442565b8114612461575f80fd5b50565b5f815190506124728161244e565b92915050565b5f6060828403121561248d5761248c61224f565b5b6124976060611814565b90505f82015167ffffffffffffffff8111156124b6576124b5612253565b5b6124c28482850161230c565b5f8301525060206124d584828501612464565b602083015250604082015167ffffffffffffffff8111156124f9576124f8612253565b5b612505848285016123ea565b60408301525092915050565b5f61252361251e84612417565b611814565b9050808382526020820190506020840283018581111561254657612545611859565b5b835b8181101561258d57805167ffffffffffffffff81111561256b5761256a6117a2565b5b8086016125788982612478565b85526020850194505050602081019050612548565b5050509392505050565b5f82601f8301126125ab576125aa6117a2565b5b81516125bb848260208601612511565b91505092915050565b5f67ffffffffffffffff8211156125de576125dd6117b6565b5b602082029050602081019050919050565b5f606082840312156126045761260361224f565b5b61260e6060611814565b90505f82015167ffffffffffffffff81111561262d5761262c612253565b5b6126398482850161230c565b5f83015250602082015167ffffffffffffffff81111561265c5761265b612253565b5b6126688482850161230c565b602083015250604082015167ffffffffffffffff81111561268c5761268b612253565b5b6126988482850161230c565b60408301525092915050565b5f6126b66126b1846125c4565b611814565b905080838252602082019050602084028301858111156126d9576126d8611859565b5b835b8181101561272057805167ffffffffffffffff8111156126fe576126fd6117a2565b5b80860161270b89826125ef565b855260208501945050506020810190506126db565b5050509392505050565b5f82601f83011261273e5761273d6117a2565b5b815161274e8482602086016126a4565b91505092915050565b5f6060828403121561276c5761276b61224f565b5b6127766060611814565b90505f82015167ffffffffffffffff81111561279557612794612253565b5b6127a18482850161230c565b5f83015250602082015167ffffffffffffffff8111156127c4576127c3612253565b5b6127d08482850161230c565b602083015250604082015167ffffffffffffffff8111156127f4576127f3612253565b5b612800848285016123ea565b60408301525092915050565b5f60e082840312156128215761282061224f565b5b61282b60e0611814565b90505f82015167ffffffffffffffff81111561284a57612849612253565b5b6128568482850161230c565b5f83015250602082015167ffffffffffffffff81111561287957612878612253565b5b6128858482850161230c565b602083015250604082015167ffffffffffffffff8111156128a9576128a8612253565b5b6128b58482850161230c565b604083015250606082015167ffffffffffffffff8111156128d9576128d8612253565b5b6128e5848285016123ea565b606083015250608082015167ffffffffffffffff81111561290957612908612253565b5b61291584828501612597565b60808301525060a082015167ffffffffffffffff81111561293957612938612253565b5b6129458482850161272a565b60a08301525060c082015167ffffffffffffffff81111561296957612968612253565b5b61297584828501612757565b60c08301525092915050565b5f67ffffffffffffffff82111561299b5761299a6117b6565b5b602082029050602081019050919050565b5f67ffffffffffffffff8211156129c6576129c56117b6565b5b602082029050602081019050919050565b5f67ffffffffffffffff8211156129f1576129f06117b6565b5b602082029050602081019050919050565b5f61ffff82169050919050565b612a1881612a02565b8114612a22575f80fd5b50565b5f81519050612a3381612a0f565b92915050565b5f60408284031215612a4e57612a4d61224f565b5b612a586040611814565b90505f612a6784828501612a25565b5f83015250602082015167ffffffffffffffff811115612a8a57612a89612253565b5b612a968482850161230c565b60208301525092915050565b5f612ab4612aaf846129d7565b611814565b90508083825260208201905060208402830185811115612ad757612ad6611859565b5b835b81811015612b1e57805167ffffffffffffffff811115612afc57612afb6117a2565b5b808601612b098982612a39565b85526020850194505050602081019050612ad9565b5050509392505050565b5f82601f830112612b3c57612b3b6117a2565b5b8151612b4c848260208601612aa2565b91505092915050565b5f67ffffffffffffffff821115612b6f57612b6e6117b6565b5b602082029050602081019050919050565b5f60608284031215612b9557612b9461224f565b5b612b9f6060611814565b90505f82015167ffffffffffffffff811115612bbe57612bbd612253565b5b612bca8482850161230c565b5f83015250602082015167ffffffffffffffff811115612bed57612bec612253565b5b612bf98482850161230c565b602083015250604082015167ffffffffffffffff811115612c1d57612c1c612253565b5b612c298482850161230c565b60408301525092915050565b5f612c47612c4284612b55565b611814565b90508083825260208201905060208402830185811115612c6a57612c69611859565b5b835b81811015612cb157805167ffffffffffffffff811115612c8f57612c8e6117a2565b5b808601612c9c8982612b80565b85526020850194505050602081019050612c6c565b5050509392505050565b5f82601f830112612ccf57612cce6117a2565b5b8151612cdf848260208601612c35565b91505092915050565b5f60608284031215612cfd57612cfc61224f565b5b612d076060611814565b90505f82015167ffffffffffffffff811115612d2657612d25612253565b5b612d328482850161230c565b5f83015250602082015167ffffffffffffffff811115612d5557612d54612253565b5b612d6184828501612b28565b602083015250604082015167ffffffffffffffff811115612d8557612d84612253565b5b612d9184828501612cbb565b60408301525092915050565b5f612daf612daa846129ac565b611814565b90508083825260208201905060208402830185811115612dd257612dd1611859565b5b835b81811015612e1957805167ffffffffffffffff811115612df757612df66117a2565b5b808601612e048982612ce8565b85526020850194505050602081019050612dd4565b5050509392505050565b5f82601f830112612e3757612e366117a2565b5b8151612e47848260208601612d9d565b91505092915050565b5f67ffffffffffffffff821115612e6a57612e696117b6565b5b602082029050602081019050919050565b5f60208284031215612e9057612e8f61224f565b5b612e9a6020611814565b90505f82015167ffffffffffffffff811115612eb957612eb8612253565b5b612ec58482850161230c565b5f8301525092915050565b5f612ee2612edd84612e50565b611814565b90508083825260208201905060208402830185811115612f0557612f04611859565b5b835b81811015612f4c57805167ffffffffffffffff811115612f2a57612f296117a2565b5b808601612f378982612e7b565b85526020850194505050602081019050612f07565b5050509392505050565b5f82601f830112612f6a57612f696117a2565b5b8151612f7a848260208601612ed0565b91505092915050565b5f67ffffffffffffffff821115612f9d57612f9c6117b6565b5b602082029050602081019050919050565b5f60608284031215612fc357612fc261224f565b5b612fcd6060611814565b90505f82015167ffffffffffffffff811115612fec57612feb612253565b5b612ff88482850161230c565b5f83015250602061300b84828501612464565b602083015250604082015167ffffffffffffffff81111561302f5761302e612253565b5b61303b848285016123ea565b60408301525092915050565b5f61305961305484612f83565b611814565b9050808382526020820190506020840283018581111561307c5761307b611859565b5b835b818110156130c357805167ffffffffffffffff8111156130a1576130a06117a2565b5b8086016130ae8982612fae565b8552602085019450505060208101905061307e565b5050509392505050565b5f82601f8301126130e1576130e06117a2565b5b81516130f1848260208601613047565b91505092915050565b5f60e0828403121561310f5761310e61224f565b5b61311960e0611814565b90505f82015167ffffffffffffffff81111561313857613137612253565b5b6131448482850161230c565b5f83015250602082015167ffffffffffffffff81111561316757613166612253565b5b6131738482850161230c565b602083015250604082015167ffffffffffffffff81111561319757613196612253565b5b6131a38482850161230c565b604083015250606082015167ffffffffffffffff8111156131c7576131c6612253565b5b6131d384828501612e23565b606083015250608082015167ffffffffffffffff8111156131f7576131f6612253565b5b61320384828501612f56565b60808301525060a082015167ffffffffffffffff81111561322757613226612253565b5b613233848285016130cd565b60a08301525060c082015167ffffffffffffffff81111561325757613256612253565b5b61326384828501612757565b60c08301525092915050565b5f61328161327c84612981565b611814565b905080838252602082019050602084028301858111156132a4576132a3611859565b5b835b818110156132eb57805167ffffffffffffffff8111156132c9576132c86117a2565b5b8086016132d689826130fa565b855260208501945050506020810190506132a6565b5050509392505050565b5f82601f830112613309576133086117a2565b5b815161331984826020860161326f565b91505092915050565b5f604082840312156133375761333661224f565b5b6133416040611814565b90505f82015167ffffffffffffffff8111156133605761335f612253565b5b61336c8482850161280c565b5f83015250602082015167ffffffffffffffff81111561338f5761338e612253565b5b61339b848285016132f5565b60208301525092915050565b5f6133b96133b4846122a0565b611814565b905080838252602082019050602084028301858111156133dc576133db611859565b5b835b8181101561342357805167ffffffffffffffff811115613401576134006117a2565b5b80860161340e8982613322565b855260208501945050506020810190506133de565b5050509392505050565b5f82601f830112613441576134406117a2565b5b81516134518482602086016133a7565b91505092915050565b5f6080828403121561346f5761346e61224f565b5b6134796080611814565b90505f61348884828501612278565b5f83015250602061349b8482850161228c565b602083015250604082015167ffffffffffffffff8111156134bf576134be612253565b5b6134cb8482850161342d565b604083015250606082015167ffffffffffffffff8111156134ef576134ee612253565b5b6134fb848285016123ea565b60608301525092915050565b5f6020828403121561351c5761351b61179a565b5b5f82015167ffffffffffffffff8111156135395761353861179e565b5b6135458482850161345a565b91505092915050565b5f81519050919050565b5f81905092915050565b5f61356c8261354e565b6135768185613558565b9350613586818560208601611cf3565b80840191505092915050565b5f61359d8284613562565b915081905092915050565b5f602082840312156135bd576135bc61179a565b5b5f6135ca8482850161228c565b91505092915050565b5f82825260208201905092915050565b5f6135ee83856135d3565b93506135fb838584611bc2565b613604836117a6565b840190509392505050565b5f6060820190508181035f8301526136288186886135e3565b90506136376020830185611b58565b6136446040830184611b58565b95945050505050565b61365681612257565b82525050565b61366581611947565b82525050565b5f81519050919050565b5f82825260208201905092915050565b5f819050602082019050919050565b5f82825260208201905092915050565b5f6136ae82611cd9565b6136b88185613694565b93506136c8818560208601611cf3565b6136d1816117a6565b840191505092915050565b5f81519050919050565b5f82825260208201905092915050565b5f819050602082019050919050565b5f61371083836136a4565b905092915050565b5f602082019050919050565b5f61372e826136dc565b61373881856136e6565b93508360208202850161374a856136f6565b805f5b8581101561378557848403895281516137668582613705565b945061377183613718565b925060208a0199505060018101905061374d565b50829750879550505050505092915050565b5f81519050919050565b5f82825260208201905092915050565b5f819050602082019050919050565b6137c981612442565b82525050565b5f606083015f8301518482035f8601526137e982826136a4565b91505060208301516137fe60208601826137c0565b50604083015184820360408601526138168282613724565b9150508091505092915050565b5f61382e83836137cf565b905092915050565b5f602082019050919050565b5f61384c82613797565b61385681856137a1565b935083602082028501613868856137b1565b805f5b858110156138a357848403895281516138848582613823565b945061388f83613836565b925060208a0199505060018101905061386b565b50829750879550505050505092915050565b5f81519050919050565b5f82825260208201905092915050565b5f819050602082019050919050565b5f606083015f8301518482035f8601526138f882826136a4565b9150506020830151848203602086015261391282826136a4565b9150506040830151848203604086015261392c82826136a4565b9150508091505092915050565b5f61394483836138de565b905092915050565b5f602082019050919050565b5f613962826138b5565b61396c81856138bf565b93508360208202850161397e856138cf565b805f5b858110156139b9578484038952815161399a8582613939565b94506139a58361394c565b925060208a01995050600181019050613981565b50829750879550505050505092915050565b5f606083015f8301518482035f8601526139e582826136a4565b915050602083015184820360208601526139ff82826136a4565b91505060408301518482036040860152613a198282613724565b9150508091505092915050565b5f60e083015f8301518482035f860152613a4082826136a4565b91505060208301518482036020860152613a5a82826136a4565b91505060408301518482036040860152613a7482826136a4565b91505060608301518482036060860152613a8e8282613724565b91505060808301518482036080860152613aa88282613842565b91505060a083015184820360a0860152613ac28282613958565b91505060c083015184820360c0860152613adc82826139cb565b9150508091505092915050565b5f81519050919050565b5f82825260208201905092915050565b5f819050602082019050919050565b5f81519050919050565b5f82825260208201905092915050565b5f819050602082019050919050565b5f81519050919050565b5f82825260208201905092915050565b5f819050602082019050919050565b613b6d81612a02565b82525050565b5f604083015f830151613b885f860182613b64565b5060208301518482036020860152613ba082826136a4565b9150508091505092915050565b5f613bb88383613b73565b905092915050565b5f602082019050919050565b5f613bd682613b3b565b613be08185613b45565b935083602082028501613bf285613b55565b805f5b85811015613c2d5784840389528151613c0e8582613bad565b9450613c1983613bc0565b925060208a01995050600181019050613bf5565b50829750879550505050505092915050565b5f81519050919050565b5f82825260208201905092915050565b5f819050602082019050919050565b5f606083015f8301518482035f860152613c8282826136a4565b91505060208301518482036020860152613c9c82826136a4565b91505060408301518482036040860152613cb682826136a4565b9150508091505092915050565b5f613cce8383613c68565b905092915050565b5f602082019050919050565b5f613cec82613c3f565b613cf68185613c49565b935083602082028501613d0885613c59565b805f5b85811015613d435784840389528151613d248582613cc3565b9450613d2f83613cd6565b925060208a01995050600181019050613d0b565b50829750879550505050505092915050565b5f606083015f8301518482035f860152613d6f82826136a4565b91505060208301518482036020860152613d898282613bcc565b91505060408301518482036040860152613da38282613ce2565b9150508091505092915050565b5f613dbb8383613d55565b905092915050565b5f602082019050919050565b5f613dd982613b12565b613de38185613b1c565b935083602082028501613df585613b2c565b805f5b85811015613e305784840389528151613e118582613db0565b9450613e1c83613dc3565b925060208a01995050600181019050613df8565b50829750879550505050505092915050565b5f81519050919050565b5f82825260208201905092915050565b5f819050602082019050919050565b5f602083015f8301518482035f860152613e8582826136a4565b9150508091505092915050565b5f613e9d8383613e6b565b905092915050565b5f602082019050919050565b5f613ebb82613e42565b613ec58185613e4c565b935083602082028501613ed785613e5c565b805f5b85811015613f125784840389528151613ef38582613e92565b9450613efe83613ea5565b925060208a01995050600181019050613eda565b50829750879550505050505092915050565b5f81519050919050565b5f82825260208201905092915050565b5f819050602082019050919050565b5f606083015f8301518482035f860152613f6782826136a4565b9150506020830151613f7c60208601826137c0565b5060408301518482036040860152613f948282613724565b9150508091505092915050565b5f613fac8383613f4d565b905092915050565b5f602082019050919050565b5f613fca82613f24565b613fd48185613f2e565b935083602082028501613fe685613f3e565b805f5b8581101561402157848403895281516140028582613fa1565b945061400d83613fb4565b925060208a01995050600181019050613fe9565b50829750879550505050505092915050565b5f60e083015f8301518482035f86015261404d82826136a4565b9150506020830151848203602086015261406782826136a4565b9150506040830151848203604086015261408182826136a4565b9150506060830151848203606086015261409b8282613dcf565b915050608083015184820360808601526140b58282613eb1565b91505060a083015184820360a08601526140cf8282613fc0565b91505060c083015184820360c08601526140e982826139cb565b9150508091505092915050565b5f6141018383614033565b905092915050565b5f602082019050919050565b5f61411f82613ae9565b6141298185613af3565b93508360208202850161413b85613b03565b805f5b85811015614176578484038952815161415785826140f6565b945061416283614109565b925060208a0199505060018101905061413e565b50829750879550505050505092915050565b5f604083015f8301518482035f8601526141a28282613a26565b915050602083015184820360208601526141bc8282614115565b9150508091505092915050565b5f6141d48383614188565b905092915050565b5f602082019050919050565b5f6141f28261366b565b6141fc8185613675565b93508360208202850161420e85613685565b805f5b85811015614249578484038952815161422a85826141c9565b9450614235836141dc565b925060208a01995050600181019050614211565b50829750879550505050505092915050565b5f608083015f8301516142705f86018261364d565b506020830151614283602086018261365c565b506040830151848203604086015261429b82826141e8565b915050606083015184820360608601526142b58282613724565b9150508091505092915050565b5f6040820190508181035f8301526142da818561425b565b905081810360208301526142ee8184611d1b565b9050939250505056fea2646970667358221220238c0742358f3ff1e17a0c06c7ce0f064c90368a4f915591dc73f0a096eae99864736f6c63430008180033",
  "linkReferences": {},
  "deployedLinkReferences": {}
}