{
  "_format": "hh-sol-artifact-1",
  "contractName": "DdexSequencer",
  "sourceName": "contracts/DdexSequencer.sol",
  "abi": [
    {
      "inputs": [
        {
          "internalType": "address",
          "name": "dataProvidersWhitelist",
          "type": "address"
        },
        {
          "internalType": "address",
          "name": "validatorsWhitelist",
          "type": "address"
        },
        {
          "internalType": "address",
          "name": "stakeVaultAddress",
          "type": "address"
        }
      ],
      "stateMutability": "nonpayable",
      "type": "constructor"
    },
    {
      "inputs": [
        {
          "internalType": "address",
          "name": "owner",
          "type": "address"
        }
      ],
      "name": "OwnableInvalidOwner",
      "type": "error"
    },
    {
      "inputs": [
        {
          "internalType": "address",
          "name": "account",
          "type": "address"
        }
      ],
      "name": "OwnableUnauthorizedAccount",
      "type": "error"
    },
    {
      "anonymous": false,
      "inputs": [
        {
          "indexed": false,
          "internalType": "bytes",
          "name": "commitment",
          "type": "bytes"
        }
      ],
      "name": "NewBlobSubmitted",
      "type": "event"
    },
    {
      "anonymous": false,
      "inputs": [
        {
          "indexed": true,
          "internalType": "address",
          "name": "previousOwner",
          "type": "address"
        },
        {
          "indexed": true,
          "internalType": "address",
          "name": "newOwner",
          "type": "address"
        }
      ],
      "name": "OwnershipTransferred",
      "type": "event"
    },
    {
      "anonymous": false,
      "inputs": [
        {
          "indexed": false,
          "internalType": "bytes1",
          "name": "_whitelistId",
          "type": "bytes1"
        },
        {
          "indexed": false,
          "internalType": "address",
          "name": "_previousAddress",
          "type": "address"
        },
        {
          "indexed": false,
          "internalType": "address",
          "name": "_newAddress",
          "type": "address"
        }
      ],
      "name": "WhitelistChanged",
      "type": "event"
    },
    {
      "inputs": [],
      "name": "DATA_PROVIDERS_WHITELIST",
      "outputs": [
        {
          "internalType": "bytes1",
          "name": "",
          "type": "bytes1"
        }
      ],
      "stateMutability": "view",
      "type": "function"
    },
    {
      "inputs": [],
      "name": "VALIDATORS_WHITELIST",
      "outputs": [
        {
          "internalType": "bytes1",
          "name": "",
          "type": "bytes1"
        }
      ],
      "stateMutability": "view",
      "type": "function"
    },
    {
      "inputs": [],
      "name": "blobQueueHead",
      "outputs": [
        {
          "internalType": "bytes32",
          "name": "",
          "type": "bytes32"
        }
      ],
      "stateMutability": "view",
      "type": "function"
    },
    {
      "inputs": [],
      "name": "blobQueueTail",
      "outputs": [
        {
          "internalType": "bytes32",
          "name": "",
          "type": "bytes32"
        }
      ],
      "stateMutability": "view",
      "type": "function"
    },
    {
      "inputs": [
        {
          "internalType": "bytes32",
          "name": "",
          "type": "bytes32"
        }
      ],
      "name": "blobs",
      "outputs": [
        {
          "internalType": "bytes32",
          "name": "nextBlob",
          "type": "bytes32"
        },
        {
          "internalType": "bool",
          "name": "submitted",
          "type": "bool"
        },
        {
          "internalType": "address",
          "name": "proposer",
          "type": "address"
        },
        {
          "internalType": "bytes32",
          "name": "blobId",
          "type": "bytes32"
        }
      ],
      "stateMutability": "view",
      "type": "function"
    },
    {
      "inputs": [],
      "name": "disableWhitelist",
      "outputs": [],
      "stateMutability": "nonpayable",
      "type": "function"
    },
    {
      "inputs": [],
      "name": "moveQueue",
      "outputs": [],
      "stateMutability": "nonpayable",
      "type": "function"
    },
    {
      "inputs": [],
      "name": "owner",
      "outputs": [
        {
          "internalType": "address",
          "name": "",
          "type": "address"
        }
      ],
      "stateMutability": "view",
      "type": "function"
    },
    {
      "inputs": [],
      "name": "renounceOwnership",
      "outputs": [],
      "stateMutability": "nonpayable",
      "type": "function"
    },
    {
      "inputs": [
        {
          "internalType": "contract IDdexEmitter",
          "name": "_ddexEmitter",
          "type": "address"
        }
      ],
      "name": "setDdexEmitter",
      "outputs": [],
      "stateMutability": "nonpayable",
      "type": "function"
    },
    {
      "inputs": [
        {
          "internalType": "bytes",
          "name": "commitment",
          "type": "bytes"
        },
        {
          "internalType": "bytes32",
          "name": "blobSha2",
          "type": "bytes32"
        }
      ],
      "name": "submitNewBlob",
      "outputs": [],
      "stateMutability": "nonpayable",
      "type": "function"
    },
    {
      "inputs": [
        {
          "internalType": "bytes",
          "name": "journal",
          "type": "bytes"
        },
        {
          "internalType": "bytes",
          "name": "seal",
          "type": "bytes"
        }
      ],
      "name": "submitProof",
      "outputs": [],
      "stateMutability": "nonpayable",
      "type": "function"
    },
    {
      "inputs": [
        {
          "internalType": "address",
          "name": "newOwner",
          "type": "address"
        }
      ],
      "name": "transferOwnership",
      "outputs": [],
      "stateMutability": "nonpayable",
      "type": "function"
    },
    {
      "inputs": [
        {
          "internalType": "bytes1",
          "name": "",
          "type": "bytes1"
        }
      ],
      "name": "whitelists",
      "outputs": [
        {
          "internalType": "address",
          "name": "",
          "type": "address"
        }
      ],
      "stateMutability": "view",
      "type": "function"
    }
  ],
  "bytecode": "0x608060405234801562000010575f80fd5b5060405162001cdb38038062001cdb83398181016040528101906200003691906200057c565b335f73ffffffffffffffffffffffffffffffffffffffff168173ffffffffffffffffffffffffffffffffffffffff1603620000aa575f6040517f1e4fbdf7000000000000000000000000000000000000000000000000000000008152600401620000a19190620005e6565b60405180910390fd5b620000bb816200013160201b60201c565b50620000d283600160f81b620001f460201b60201c565b620000e882600260f81b620001f460201b60201c565b8060045f6101000a81548173ffffffffffffffffffffffffffffffffffffffff021916908373ffffffffffffffffffffffffffffffffffffffff1602179055505050506200074d565b5f60015f9054906101000a900473ffffffffffffffffffffffffffffffffffffffff1690508160015f6101000a81548173ffffffffffffffffffffffffffffffffffffffff021916908373ffffffffffffffffffffffffffffffffffffffff1602179055508173ffffffffffffffffffffffffffffffffffffffff168173ffffffffffffffffffffffffffffffffffffffff167f8be0079c531659141344cd1fd0a4f28419497f9722a3daafe3b4186f6b6457e060405160405180910390a35050565b5f73ffffffffffffffffffffffffffffffffffffffff168273ffffffffffffffffffffffffffffffffffffffff16146200029d576200025a827f5470aee900000000000000000000000000000000000000000000000000000000620003e860201b60201c565b6200029c576040517f08c379a000000000000000000000000000000000000000000000000000000000815260040162000293906200065f565b60405180910390fd5b5b5f805f837effffffffffffffffffffffffffffffffffffffffffffffffffffffffffffff19167effffffffffffffffffffffffffffffffffffffffffffffffffffffffffffff191681526020019081526020015f205f9054906101000a900473ffffffffffffffffffffffffffffffffffffffff169050825f80847effffffffffffffffffffffffffffffffffffffffffffffffffffffffffffff19167effffffffffffffffffffffffffffffffffffffffffffffffffffffffffffff191681526020019081526020015f205f6101000a81548173ffffffffffffffffffffffffffffffffffffffff021916908373ffffffffffffffffffffffffffffffffffffffff1602179055507fbdb658fbebcb4884950df11335d9177f3b8c7fb1b1f5290202b9715198d7e105828285604051620003db93929190620006bb565b60405180910390a1505050565b5f620003fa836200041d60201b60201c565b80156200041557506200041483836200047a60201b60201c565b5b905092915050565b5f62000450827f01ffc9a7000000000000000000000000000000000000000000000000000000006200047a60201b60201c565b8015620004735750620004718263ffffffff60e01b6200047a60201b60201c565b155b9050919050565b5f80826040516024016200048f919062000732565b6040516020818303038152906040526301ffc9a760e01b6020820180517bffffffffffffffffffffffffffffffffffffffffffffffffffffffff838183161783525050505090505f805f60205f8551602087018a617530fa92503d91505f519050828015620004ff575060208210155b80156200050b57505f81115b94505050505092915050565b5f80fd5b5f73ffffffffffffffffffffffffffffffffffffffff82169050919050565b5f62000546826200051b565b9050919050565b62000558816200053a565b811462000563575f80fd5b50565b5f8151905062000576816200054d565b92915050565b5f805f6060848603121562000596576200059562000517565b5b5f620005a58682870162000566565b9350506020620005b88682870162000566565b9250506040620005cb8682870162000566565b9150509250925092565b620005e0816200053a565b82525050565b5f602082019050620005fb5f830184620005d5565b92915050565b5f82825260208201905092915050565b7f496e74657266616365206e6f7420737570706f727465640000000000000000005f82015250565b5f6200064760178362000601565b9150620006548262000611565b602082019050919050565b5f6020820190508181035f830152620006788162000639565b9050919050565b5f7fff0000000000000000000000000000000000000000000000000000000000000082169050919050565b620006b5816200067f565b82525050565b5f606082019050620006d05f830186620006aa565b620006df6020830185620005d5565b620006ee6040830184620005d5565b949350505050565b5f7fffffffff0000000000000000000000000000000000000000000000000000000082169050919050565b6200072c81620006f6565b82525050565b5f602082019050620007475f83018462000721565b92915050565b611580806200075b5f395ff3fe608060405234801561000f575f80fd5b50600436106100e7575f3560e01c80638da5cb5b1161008a578063dd181c7311610064578063dd181c73146101d5578063ddae462214610208578063f2fde38b14610226578063fd80dd4614610242576100e7565b80638da5cb5b1461018f578063ac904c29146101ad578063d6b0f484146101cb576100e7565b80633aef1477116100c65780633aef147714610141578063715018a61461015d57806371d316a714610167578063730e214f14610171576100e7565b806265d3a6146100eb57806325f16f9b146101095780633942e87914610125575b5f80fd5b6100f3610272565b6040516101009190610c8d565b60405180910390f35b610123600480360381019061011e9190610d22565b61027a565b005b61013f600480360381019061013a9190610ebc565b6102c5565b005b61015b60048036038101906101569190610f73565b610642565b005b61016561087b565b005b61016f61088e565b005b6101796108a0565b6040516101869190610c8d565b60405180910390f35b6101976108a8565b6040516101a49190610ffb565b60405180910390f35b6101b56108d0565b6040516101c29190611023565b60405180910390f35b6101d36108d6565b005b6101ef60048036038101906101ea919061103c565b6108fb565b6040516101ff9493929190611081565b60405180910390f35b610210610953565b60405161021d9190611023565b60405180910390f35b610240600480360381019061023b91906110ee565b610959565b005b61025c60048036038101906102579190611143565b6109dd565b6040516102699190610ffb565b60405180910390f35b600160f81b81565b610282610a0c565b8060055f6101000a81548173ffffffffffffffffffffffffffffffffffffffff021916908373ffffffffffffffffffffffffffffffffffffffff16021790555050565b600160f81b600560149054906101000a900460ff16806103cc57505f80827effffffffffffffffffffffffffffffffffffffffffffffffffffffffffffff19167effffffffffffffffffffffffffffffffffffffffffffffffffffffffffffff191681526020019081526020015f205f9054906101000a900473ffffffffffffffffffffffffffffffffffffffff1673ffffffffffffffffffffffffffffffffffffffff16633af32abf336040518263ffffffff1660e01b815260040161038c9190610ffb565b602060405180830381865afa1580156103a7573d5f803e3d5ffd5b505050506040513d601f19601f820116820180604052508101906103cb9190611198565b5b61040b576040517f08c379a00000000000000000000000000000000000000000000000000000000081526004016104029061121d565b60405180910390fd5b5f804990505f801b8103610454576040517f08c379a000000000000000000000000000000000000000000000000000000000815260040161044b90611285565b60405180910390fd5b5f6002828560405160200161046a9291906112c3565b604051602081830303815290604052604051610486919061135a565b602060405180830381855afa1580156104a1573d5f803e3d5ffd5b5050506040513d601f19601f820116820180604052508101906104c49190611384565b90505f151560065f8481526020019081526020015f206001015f9054906101000a900460ff1615151461052c576040517f08c379a0000000000000000000000000000000000000000000000000000000008152600401610523906113f9565b60405180910390fd5b600160065f8481526020019081526020015f206001015f6101000a81548160ff0219169083151502179055503360065f8481526020019081526020015f2060010160016101000a81548173ffffffffffffffffffffffffffffffffffffffff021916908373ffffffffffffffffffffffffffffffffffffffff1602179055508060065f8481526020019081526020015f20600201819055505f801b600254036105e2578160028190555081600381905550610604565b8160065f60035481526020019081526020015f205f0181905550816003819055505b7f6a6fc970009454e3172a2ec189981caa44b6d81bfc3a7ba62cf8367df4aecf7585604051610633919061145f565b60405180910390a15050505050565b600260f81b600560149054906101000a900460ff168061074957505f80827effffffffffffffffffffffffffffffffffffffffffffffffffffffffffffff19167effffffffffffffffffffffffffffffffffffffffffffffffffffffffffffff191681526020019081526020015f205f9054906101000a900473ffffffffffffffffffffffffffffffffffffffff1673ffffffffffffffffffffffffffffffffffffffff16633af32abf336040518263ffffffff1660e01b81526004016107099190610ffb565b602060405180830381865afa158015610724573d5f803e3d5ffd5b505050506040513d601f19601f820116820180604052508101906107489190611198565b5b610788576040517f08c379a000000000000000000000000000000000000000000000000000000000815260040161077f9061121d565b60405180910390fd5b5f801b600254036107ce576040517f08c379a00000000000000000000000000000000000000000000000000000000081526004016107c5906114c9565b60405180910390fd5b60055f9054906101000a900473ffffffffffffffffffffffffffffffffffffffff1673ffffffffffffffffffffffffffffffffffffffff1663857c30138585856040518463ffffffff1660e01b815260040161082c93929190611513565b6020604051808303815f875af1158015610848573d5f803e3d5ffd5b505050506040513d601f19601f8201168201806040525081019061086c9190611384565b50610875610a93565b50505050565b610883610a0c565b61088c5f610ae9565b565b610896610a0c565b61089e610a93565b565b600260f81b81565b5f60015f9054906101000a900473ffffffffffffffffffffffffffffffffffffffff16905090565b60025481565b6108de610a0c565b6001600560146101000a81548160ff021916908315150217905550565b6006602052805f5260405f205f91509050805f015490806001015f9054906101000a900460ff16908060010160019054906101000a900473ffffffffffffffffffffffffffffffffffffffff16908060020154905084565b60035481565b610961610a0c565b5f73ffffffffffffffffffffffffffffffffffffffff168173ffffffffffffffffffffffffffffffffffffffff16036109d1575f6040517f1e4fbdf70000000000000000000000000000000000000000000000000000000081526004016109c89190610ffb565b60405180910390fd5b6109da81610ae9565b50565b5f602052805f5260405f205f915054906101000a900473ffffffffffffffffffffffffffffffffffffffff1681565b610a14610bac565b73ffffffffffffffffffffffffffffffffffffffff16610a326108a8565b73ffffffffffffffffffffffffffffffffffffffff1614610a9157610a55610bac565b6040517f118cdaa7000000000000000000000000000000000000000000000000000000008152600401610a889190610ffb565b60405180910390fd5b565b60035460025403610abd57610aa6610bb3565b5f801b6002819055505f801b600381905550610ae7565b5f60065f60025481526020019081526020015f205f01549050610ade610bb3565b80600281905550505b565b5f60015f9054906101000a900473ffffffffffffffffffffffffffffffffffffffff1690508160015f6101000a81548173ffffffffffffffffffffffffffffffffffffffff021916908373ffffffffffffffffffffffffffffffffffffffff1602179055508173ffffffffffffffffffffffffffffffffffffffff168173ffffffffffffffffffffffffffffffffffffffff167f8be0079c531659141344cd1fd0a4f28419497f9722a3daafe3b4186f6b6457e060405160405180910390a35050565b5f33905090565b5f60065f60025481526020019081526020015f206001015f6101000a81548160ff0219169083151502179055505f801b60065f60025481526020019081526020015f205f01819055505f60065f60025481526020019081526020015f2060010160016101000a81548173ffffffffffffffffffffffffffffffffffffffff021916908373ffffffffffffffffffffffffffffffffffffffff160217905550565b5f7fff0000000000000000000000000000000000000000000000000000000000000082169050919050565b610c8781610c53565b82525050565b5f602082019050610ca05f830184610c7e565b92915050565b5f604051905090565b5f80fd5b5f80fd5b5f73ffffffffffffffffffffffffffffffffffffffff82169050919050565b5f610ce082610cb7565b9050919050565b5f610cf182610cd6565b9050919050565b610d0181610ce7565b8114610d0b575f80fd5b50565b5f81359050610d1c81610cf8565b92915050565b5f60208284031215610d3757610d36610caf565b5b5f610d4484828501610d0e565b91505092915050565b5f80fd5b5f80fd5b5f601f19601f8301169050919050565b7f4e487b71000000000000000000000000000000000000000000000000000000005f52604160045260245ffd5b610d9b82610d55565b810181811067ffffffffffffffff82111715610dba57610db9610d65565b5b80604052505050565b5f610dcc610ca6565b9050610dd88282610d92565b919050565b5f67ffffffffffffffff821115610df757610df6610d65565b5b610e0082610d55565b9050602081019050919050565b828183375f83830152505050565b5f610e2d610e2884610ddd565b610dc3565b905082815260208101848484011115610e4957610e48610d51565b5b610e54848285610e0d565b509392505050565b5f82601f830112610e7057610e6f610d4d565b5b8135610e80848260208601610e1b565b91505092915050565b5f819050919050565b610e9b81610e89565b8114610ea5575f80fd5b50565b5f81359050610eb681610e92565b92915050565b5f8060408385031215610ed257610ed1610caf565b5b5f83013567ffffffffffffffff811115610eef57610eee610cb3565b5b610efb85828601610e5c565b9250506020610f0c85828601610ea8565b9150509250929050565b5f80fd5b5f80fd5b5f8083601f840112610f3357610f32610d4d565b5b8235905067ffffffffffffffff811115610f5057610f4f610f16565b5b602083019150836001820283011115610f6c57610f6b610f1a565b5b9250929050565b5f805f60408486031215610f8a57610f89610caf565b5b5f84013567ffffffffffffffff811115610fa757610fa6610cb3565b5b610fb386828701610e5c565b935050602084013567ffffffffffffffff811115610fd457610fd3610cb3565b5b610fe086828701610f1e565b92509250509250925092565b610ff581610cd6565b82525050565b5f60208201905061100e5f830184610fec565b92915050565b61101d81610e89565b82525050565b5f6020820190506110365f830184611014565b92915050565b5f6020828403121561105157611050610caf565b5b5f61105e84828501610ea8565b91505092915050565b5f8115159050919050565b61107b81611067565b82525050565b5f6080820190506110945f830187611014565b6110a16020830186611072565b6110ae6040830185610fec565b6110bb6060830184611014565b95945050505050565b6110cd81610cd6565b81146110d7575f80fd5b50565b5f813590506110e8816110c4565b92915050565b5f6020828403121561110357611102610caf565b5b5f611110848285016110da565b91505092915050565b61112281610c53565b811461112c575f80fd5b50565b5f8135905061113d81611119565b92915050565b5f6020828403121561115857611157610caf565b5b5f6111658482850161112f565b91505092915050565b61117781611067565b8114611181575f80fd5b50565b5f815190506111928161116e565b92915050565b5f602082840312156111ad576111ac610caf565b5b5f6111ba84828501611184565b91505092915050565b5f82825260208201905092915050565b7f53656e646572206973206e6f742077686974656c6973746564000000000000005f82015250565b5f6112076019836111c3565b9150611212826111d3565b602082019050919050565b5f6020820190508181035f830152611234816111fb565b9050919050565b7f426c6f62206e6f7420666f756e6420696e2074780000000000000000000000005f82015250565b5f61126f6014836111c3565b915061127a8261123b565b602082019050919050565b5f6020820190508181035f83015261129c81611263565b9050919050565b5f819050919050565b6112bd6112b882610e89565b6112a3565b82525050565b5f6112ce82856112ac565b6020820191506112de82846112ac565b6020820191508190509392505050565b5f81519050919050565b5f81905092915050565b5f5b8381101561131f578082015181840152602081019050611304565b5f8484015250505050565b5f611334826112ee565b61133e81856112f8565b935061134e818560208601611302565b80840191505092915050565b5f611365828461132a565b915081905092915050565b5f8151905061137e81610e92565b92915050565b5f6020828403121561139957611398610caf565b5b5f6113a684828501611370565b91505092915050565b7f426c6f6220616c7265616479207375626d6974746564000000000000000000005f82015250565b5f6113e36016836111c3565b91506113ee826113af565b602082019050919050565b5f6020820190508181035f830152611410816113d7565b9050919050565b5f82825260208201905092915050565b5f611431826112ee565b61143b8185611417565b935061144b818560208601611302565b61145481610d55565b840191505092915050565b5f6020820190508181035f8301526114778184611427565b905092915050565b7f517565756520697320656d7074790000000000000000000000000000000000005f82015250565b5f6114b3600e836111c3565b91506114be8261147f565b602082019050919050565b5f6020820190508181035f8301526114e0816114a7565b9050919050565b5f6114f28385611417565b93506114ff838584610e0d565b61150883610d55565b840190509392505050565b5f6040820190508181035f83015261152b8186611427565b905081810360208301526115408184866114e7565b905094935050505056fea2646970667358221220f2cbaa14766d7bfa167d20a4b74bb0ea7d2aff2ff5a09915d42e56daf76a2ef864736f6c63430008180033",
  "linkReferences": {},
  "deployedLinkReferences": {}
}