{
  "_format": "hh-sol-artifact-1",
  "contractName": "DdexSequencer",
  "sourceName": "contracts/DdexSequencer.sol",
  "abi": [
    {
      "inputs": [
        {
          "internalType": "address",
          "name": "dataProvidersWhitelist",
          "type": "address"
        },
        {
          "internalType": "address",
          "name": "validatorsWhitelist",
          "type": "address"
        },
        {
          "internalType": "address",
          "name": "stakeVaultAddress",
          "type": "address"
        }
      ],
      "stateMutability": "nonpayable",
      "type": "constructor"
    },
    {
      "inputs": [
        {
          "internalType": "address",
          "name": "owner",
          "type": "address"
        }
      ],
      "name": "OwnableInvalidOwner",
      "type": "error"
    },
    {
      "inputs": [
        {
          "internalType": "address",
          "name": "account",
          "type": "address"
        }
      ],
      "name": "OwnableUnauthorizedAccount",
      "type": "error"
    },
    {
      "anonymous": false,
      "inputs": [
        {
          "indexed": false,
          "internalType": "bytes",
          "name": "commitment",
          "type": "bytes"
        },
        {
          "indexed": false,
          "internalType": "bytes32",
          "name": "image_id",
          "type": "bytes32"
        }
      ],
      "name": "NewBlobSubmitted",
      "type": "event"
    },
    {
      "anonymous": false,
      "inputs": [
        {
          "indexed": true,
          "internalType": "address",
          "name": "previousOwner",
          "type": "address"
        },
        {
          "indexed": true,
          "internalType": "address",
          "name": "newOwner",
          "type": "address"
        }
      ],
      "name": "OwnershipTransferred",
      "type": "event"
    },
    {
      "anonymous": false,
      "inputs": [
        {
          "indexed": false,
          "internalType": "bytes1",
          "name": "_whitelistId",
          "type": "bytes1"
        },
        {
          "indexed": false,
          "internalType": "address",
          "name": "_previousAddress",
          "type": "address"
        },
        {
          "indexed": false,
          "internalType": "address",
          "name": "_newAddress",
          "type": "address"
        }
      ],
      "name": "WhitelistChanged",
      "type": "event"
    },
    {
      "anonymous": false,
      "inputs": [
        {
          "indexed": false,
          "internalType": "bool",
          "name": "current_status",
          "type": "bool"
        }
      ],
      "name": "WhitelistingStatusChanged",
      "type": "event"
    },
    {
      "inputs": [],
      "name": "DATA_PROVIDERS_WHITELIST",
      "outputs": [
        {
          "internalType": "bytes1",
          "name": "",
          "type": "bytes1"
        }
      ],
      "stateMutability": "view",
      "type": "function"
    },
    {
      "inputs": [],
      "name": "VALIDATORS_WHITELIST",
      "outputs": [
        {
          "internalType": "bytes1",
          "name": "",
          "type": "bytes1"
        }
      ],
      "stateMutability": "view",
      "type": "function"
    },
    {
      "inputs": [],
      "name": "blobQueueHead",
      "outputs": [
        {
          "internalType": "bytes32",
          "name": "",
          "type": "bytes32"
        }
      ],
      "stateMutability": "view",
      "type": "function"
    },
    {
      "inputs": [],
      "name": "blobQueueTail",
      "outputs": [
        {
          "internalType": "bytes32",
          "name": "",
          "type": "bytes32"
        }
      ],
      "stateMutability": "view",
      "type": "function"
    },
    {
      "inputs": [
        {
          "internalType": "bytes32",
          "name": "",
          "type": "bytes32"
        }
      ],
      "name": "blobs",
      "outputs": [
        {
          "internalType": "bytes32",
          "name": "nextBlob",
          "type": "bytes32"
        },
        {
          "internalType": "bool",
          "name": "submitted",
          "type": "bool"
        },
        {
          "internalType": "address",
          "name": "proposer",
          "type": "address"
        },
        {
          "internalType": "bytes32",
          "name": "blobId",
          "type": "bytes32"
        },
        {
          "internalType": "bytes32",
          "name": "imageId",
          "type": "bytes32"
        }
      ],
      "stateMutability": "view",
      "type": "function"
    },
    {
      "inputs": [],
      "name": "ddexEmitter",
      "outputs": [
        {
          "internalType": "contract IDdexEmitter",
          "name": "",
          "type": "address"
        }
      ],
      "stateMutability": "view",
      "type": "function"
    },
    {
      "inputs": [],
      "name": "moveQueue",
      "outputs": [],
      "stateMutability": "nonpayable",
      "type": "function"
    },
    {
      "inputs": [],
      "name": "owner",
      "outputs": [
        {
          "internalType": "address",
          "name": "",
          "type": "address"
        }
      ],
      "stateMutability": "view",
      "type": "function"
    },
    {
      "inputs": [],
      "name": "renounceOwnership",
      "outputs": [],
      "stateMutability": "nonpayable",
      "type": "function"
    },
    {
      "inputs": [
        {
          "internalType": "contract IDdexEmitter",
          "name": "_ddexEmitter",
          "type": "address"
        }
      ],
      "name": "setDdexEmitter",
      "outputs": [],
      "stateMutability": "nonpayable",
      "type": "function"
    },
    {
      "inputs": [
        {
          "internalType": "bool",
          "name": "_disabled",
          "type": "bool"
        }
      ],
      "name": "setWhitelistingStatus",
      "outputs": [],
      "stateMutability": "nonpayable",
      "type": "function"
    },
    {
      "inputs": [
        {
          "internalType": "bytes32",
          "name": "_imageId",
          "type": "bytes32"
        },
        {
          "internalType": "bytes",
          "name": "_commitment",
          "type": "bytes"
        },
        {
          "internalType": "bytes32",
          "name": "_blobSha2",
          "type": "bytes32"
        }
      ],
      "name": "submitNewBlob",
      "outputs": [],
      "stateMutability": "nonpayable",
      "type": "function"
    },
    {
      "inputs": [
        {
          "internalType": "bytes32",
          "name": "_imageId",
          "type": "bytes32"
        },
        {
          "internalType": "bytes",
          "name": "_journal",
          "type": "bytes"
        },
        {
          "internalType": "bytes",
          "name": "_seal",
          "type": "bytes"
        }
      ],
      "name": "submitProof",
      "outputs": [],
      "stateMutability": "nonpayable",
      "type": "function"
    },
    {
      "inputs": [
        {
          "internalType": "address",
          "name": "newOwner",
          "type": "address"
        }
      ],
      "name": "transferOwnership",
      "outputs": [],
      "stateMutability": "nonpayable",
      "type": "function"
    },
    {
      "inputs": [
        {
          "internalType": "bytes1",
          "name": "",
          "type": "bytes1"
        }
      ],
      "name": "whitelists",
      "outputs": [
        {
          "internalType": "address",
          "name": "",
          "type": "address"
        }
      ],
      "stateMutability": "view",
      "type": "function"
    }
  ],
  "bytecode": "0x608060405234801562000010575f80fd5b50604051620021c0380380620021c083398181016040528101906200003691906200057c565b335f73ffffffffffffffffffffffffffffffffffffffff168173ffffffffffffffffffffffffffffffffffffffff1603620000aa575f6040517f1e4fbdf7000000000000000000000000000000000000000000000000000000008152600401620000a19190620005e6565b60405180910390fd5b620000bb816200013160201b60201c565b50620000d283600160f81b620001f460201b60201c565b620000e882600260f81b620001f460201b60201c565b8060045f6101000a81548173ffffffffffffffffffffffffffffffffffffffff021916908373ffffffffffffffffffffffffffffffffffffffff1602179055505050506200074d565b5f60015f9054906101000a900473ffffffffffffffffffffffffffffffffffffffff1690508160015f6101000a81548173ffffffffffffffffffffffffffffffffffffffff021916908373ffffffffffffffffffffffffffffffffffffffff1602179055508173ffffffffffffffffffffffffffffffffffffffff168173ffffffffffffffffffffffffffffffffffffffff167f8be0079c531659141344cd1fd0a4f28419497f9722a3daafe3b4186f6b6457e060405160405180910390a35050565b5f73ffffffffffffffffffffffffffffffffffffffff168273ffffffffffffffffffffffffffffffffffffffff16146200029d576200025a827f5470aee900000000000000000000000000000000000000000000000000000000620003e860201b60201c565b6200029c576040517f08c379a000000000000000000000000000000000000000000000000000000000815260040162000293906200065f565b60405180910390fd5b5b5f805f837effffffffffffffffffffffffffffffffffffffffffffffffffffffffffffff19167effffffffffffffffffffffffffffffffffffffffffffffffffffffffffffff191681526020019081526020015f205f9054906101000a900473ffffffffffffffffffffffffffffffffffffffff169050825f80847effffffffffffffffffffffffffffffffffffffffffffffffffffffffffffff19167effffffffffffffffffffffffffffffffffffffffffffffffffffffffffffff191681526020019081526020015f205f6101000a81548173ffffffffffffffffffffffffffffffffffffffff021916908373ffffffffffffffffffffffffffffffffffffffff1602179055507fbdb658fbebcb4884950df11335d9177f3b8c7fb1b1f5290202b9715198d7e105828285604051620003db93929190620006bb565b60405180910390a1505050565b5f620003fa836200041d60201b60201c565b80156200041557506200041483836200047a60201b60201c565b5b905092915050565b5f62000450827f01ffc9a7000000000000000000000000000000000000000000000000000000006200047a60201b60201c565b8015620004735750620004718263ffffffff60e01b6200047a60201b60201c565b155b9050919050565b5f80826040516024016200048f919062000732565b6040516020818303038152906040526301ffc9a760e01b6020820180517bffffffffffffffffffffffffffffffffffffffffffffffffffffffff838183161783525050505090505f805f60205f8551602087018a617530fa92503d91505f519050828015620004ff575060208210155b80156200050b57505f81115b94505050505092915050565b5f80fd5b5f73ffffffffffffffffffffffffffffffffffffffff82169050919050565b5f62000546826200051b565b9050919050565b62000558816200053a565b811462000563575f80fd5b50565b5f8151905062000576816200054d565b92915050565b5f805f6060848603121562000596576200059562000517565b5b5f620005a58682870162000566565b9350506020620005b88682870162000566565b9250506040620005cb8682870162000566565b9150509250925092565b620005e0816200053a565b82525050565b5f602082019050620005fb5f830184620005d5565b92915050565b5f82825260208201905092915050565b7f496e74657266616365206e6f7420737570706f727465640000000000000000005f82015250565b5f6200064760178362000601565b9150620006548262000611565b602082019050919050565b5f6020820190508181035f830152620006788162000639565b9050919050565b5f7fff0000000000000000000000000000000000000000000000000000000000000082169050919050565b620006b5816200067f565b82525050565b5f606082019050620006d05f830186620006aa565b620006df6020830185620005d5565b620006ee6040830184620005d5565b949350505050565b5f7fffffffff0000000000000000000000000000000000000000000000000000000082169050919050565b6200072c81620006f6565b82525050565b5f602082019050620007475f83018462000721565b92915050565b611a65806200075b5f395ff3fe608060405234801561000f575f80fd5b50600436106100f2575f3560e01c8063a02eeff311610095578063eb89c8ce11610064578063eb89c8ce1461022a578063eb90e2cb14610246578063f2fde38b14610262578063fd80dd461461027e576100f2565b8063a02eeff31461019c578063ac904c29146101ba578063dd181c73146101d8578063ddae46221461020c576100f2565b8063715018a6116100d1578063715018a61461014c57806371d316a714610156578063730e214f146101605780638da5cb5b1461017e576100f2565b806265d3a6146100f657806325f16f9b14610114578063629c6d8e14610130575b5f80fd5b6100fe6102ae565b60405161010b9190610e8a565b60405180910390f35b61012e60048036038101906101299190610f1f565b6102b6565b005b61014a600480360381019061014591906110b9565b610301565b005b6101546107bf565b005b61015e6107d2565b005b6101686107e4565b6040516101759190610e8a565b60405180910390f35b6101866107ec565b6040516101939190611134565b60405180910390f35b6101a4610814565b6040516101b191906111a8565b60405180910390f35b6101c2610839565b6040516101cf91906111d0565b60405180910390f35b6101f260048036038101906101ed91906111e9565b61083f565b60405161020395949392919061122e565b60405180910390f35b61021461089d565b60405161022191906111d0565b60405180910390f35b610244600480360381019061023f91906112a9565b6108a3565b005b610260600480360381019061025b9190611331565b61091a565b005b61027c600480360381019061027791906113e8565b610b56565b005b6102986004803603810190610293919061143d565b610bda565b6040516102a59190611134565b60405180910390f35b600160f81b81565b6102be610c09565b8060055f6101000a81548173ffffffffffffffffffffffffffffffffffffffff021916908373ffffffffffffffffffffffffffffffffffffffff16021790555050565b600160f81b600560149054906101000a900460ff168061040857505f80827effffffffffffffffffffffffffffffffffffffffffffffffffffffffffffff19167effffffffffffffffffffffffffffffffffffffffffffffffffffffffffffff191681526020019081526020015f205f9054906101000a900473ffffffffffffffffffffffffffffffffffffffff1673ffffffffffffffffffffffffffffffffffffffff16633af32abf336040518263ffffffff1660e01b81526004016103c89190611134565b602060405180830381865afa1580156103e3573d5f803e3d5ffd5b505050506040513d601f19601f82011682018060405250810190610407919061147c565b5b610447576040517f08c379a000000000000000000000000000000000000000000000000000000000815260040161043e90611527565b60405180910390fd5b5f801b840361048b576040517f08c379a0000000000000000000000000000000000000000000000000000000008152600401610482906115b5565b60405180910390fd5b5f8060055f9054906101000a900473ffffffffffffffffffffffffffffffffffffffff1673ffffffffffffffffffffffffffffffffffffffff16634a418c6b6040518163ffffffff1660e01b81526004016040805180830381865afa1580156104f6573d5f803e3d5ffd5b505050506040513d601f19601f8201168201806040525081019061051a91906115e7565b915091508582148061052b57508581145b61056a576040517f08c379a000000000000000000000000000000000000000000000000000000000815260040161056190611695565b60405180910390fd5b5f804990505f801b81036105b3576040517f08c379a00000000000000000000000000000000000000000000000000000000081526004016105aa90611723565b60405180910390fd5b5f600282876040516020016105c9929190611761565b6040516020818303038152906040526040516105e591906117f8565b602060405180830381855afa158015610600573d5f803e3d5ffd5b5050506040513d601f19601f82011682018060405250810190610623919061180e565b90505f151560065f8481526020019081526020015f206001015f9054906101000a900460ff1615151461068b576040517f08c379a0000000000000000000000000000000000000000000000000000000008152600401610682906118a9565b60405180910390fd5b600160065f8481526020019081526020015f206001015f6101000a81548160ff0219169083151502179055503360065f8481526020019081526020015f2060010160016101000a81548173ffffffffffffffffffffffffffffffffffffffff021916908373ffffffffffffffffffffffffffffffffffffffff1602179055508060065f8481526020019081526020015f20600201819055508760065f8481526020019081526020015f20600301819055505f801b6002540361075a57816002819055508160038190555061077c565b8160065f60035481526020019081526020015f205f0181905550816003819055505b7fac98d2539fa9ebeb9e09126339ea1e80455247ad94aa6ce9b0f8a1a14598fd8687896040516107ad92919061190f565b60405180910390a15050505050505050565b6107c7610c09565b6107d05f610c90565b565b6107da610c09565b6107e2610d53565b565b600260f81b81565b5f60015f9054906101000a900473ffffffffffffffffffffffffffffffffffffffff16905090565b60055f9054906101000a900473ffffffffffffffffffffffffffffffffffffffff1681565b60025481565b6006602052805f5260405f205f91509050805f015490806001015f9054906101000a900460ff16908060010160019054906101000a900473ffffffffffffffffffffffffffffffffffffffff16908060020154908060030154905085565b60035481565b6108ab610c09565b801515600560149054906101000a900460ff161515146109175780600560146101000a81548160ff0219169083151502179055507fbc5fc42dba474600377c59d580874ad42480f5921ddef1c42b813cf0282340b08160405161090e919061193d565b60405180910390a15b50565b600260f81b600560149054906101000a900460ff1680610a2157505f80827effffffffffffffffffffffffffffffffffffffffffffffffffffffffffffff19167effffffffffffffffffffffffffffffffffffffffffffffffffffffffffffff191681526020019081526020015f205f9054906101000a900473ffffffffffffffffffffffffffffffffffffffff1673ffffffffffffffffffffffffffffffffffffffff16633af32abf336040518263ffffffff1660e01b81526004016109e19190611134565b602060405180830381865afa1580156109fc573d5f803e3d5ffd5b505050506040513d601f19601f82011682018060405250810190610a20919061147c565b5b610a60576040517f08c379a0000000000000000000000000000000000000000000000000000000008152600401610a5790611527565b60405180910390fd5b5f801b60025403610aa6576040517f08c379a0000000000000000000000000000000000000000000000000000000008152600401610a9d906119a0565b60405180910390fd5b60055f9054906101000a900473ffffffffffffffffffffffffffffffffffffffff1673ffffffffffffffffffffffffffffffffffffffff166350ce22af868686866040518563ffffffff1660e01b8152600401610b0694939291906119ea565b6020604051808303815f875af1158015610b22573d5f803e3d5ffd5b505050506040513d601f19601f82011682018060405250810190610b46919061180e565b50610b4f610d53565b5050505050565b610b5e610c09565b5f73ffffffffffffffffffffffffffffffffffffffff168173ffffffffffffffffffffffffffffffffffffffff1603610bce575f6040517f1e4fbdf7000000000000000000000000000000000000000000000000000000008152600401610bc59190611134565b60405180910390fd5b610bd781610c90565b50565b5f602052805f5260405f205f915054906101000a900473ffffffffffffffffffffffffffffffffffffffff1681565b610c11610da9565b73ffffffffffffffffffffffffffffffffffffffff16610c2f6107ec565b73ffffffffffffffffffffffffffffffffffffffff1614610c8e57610c52610da9565b6040517f118cdaa7000000000000000000000000000000000000000000000000000000008152600401610c859190611134565b60405180910390fd5b565b5f60015f9054906101000a900473ffffffffffffffffffffffffffffffffffffffff1690508160015f6101000a81548173ffffffffffffffffffffffffffffffffffffffff021916908373ffffffffffffffffffffffffffffffffffffffff1602179055508173ffffffffffffffffffffffffffffffffffffffff168173ffffffffffffffffffffffffffffffffffffffff167f8be0079c531659141344cd1fd0a4f28419497f9722a3daafe3b4186f6b6457e060405160405180910390a35050565b60035460025403610d7d57610d66610db0565b5f801b6002819055505f801b600381905550610da7565b5f60065f60025481526020019081526020015f205f01549050610d9e610db0565b80600281905550505b565b5f33905090565b5f60065f60025481526020019081526020015f206001015f6101000a81548160ff0219169083151502179055505f801b60065f60025481526020019081526020015f205f01819055505f60065f60025481526020019081526020015f2060010160016101000a81548173ffffffffffffffffffffffffffffffffffffffff021916908373ffffffffffffffffffffffffffffffffffffffff160217905550565b5f7fff0000000000000000000000000000000000000000000000000000000000000082169050919050565b610e8481610e50565b82525050565b5f602082019050610e9d5f830184610e7b565b92915050565b5f604051905090565b5f80fd5b5f80fd5b5f73ffffffffffffffffffffffffffffffffffffffff82169050919050565b5f610edd82610eb4565b9050919050565b5f610eee82610ed3565b9050919050565b610efe81610ee4565b8114610f08575f80fd5b50565b5f81359050610f1981610ef5565b92915050565b5f60208284031215610f3457610f33610eac565b5b5f610f4184828501610f0b565b91505092915050565b5f819050919050565b610f5c81610f4a565b8114610f66575f80fd5b50565b5f81359050610f7781610f53565b92915050565b5f80fd5b5f80fd5b5f601f19601f8301169050919050565b7f4e487b71000000000000000000000000000000000000000000000000000000005f52604160045260245ffd5b610fcb82610f85565b810181811067ffffffffffffffff82111715610fea57610fe9610f95565b5b80604052505050565b5f610ffc610ea3565b90506110088282610fc2565b919050565b5f67ffffffffffffffff82111561102757611026610f95565b5b61103082610f85565b9050602081019050919050565b828183375f83830152505050565b5f61105d6110588461100d565b610ff3565b90508281526020810184848401111561107957611078610f81565b5b61108484828561103d565b509392505050565b5f82601f8301126110a05761109f610f7d565b5b81356110b084826020860161104b565b91505092915050565b5f805f606084860312156110d0576110cf610eac565b5b5f6110dd86828701610f69565b935050602084013567ffffffffffffffff8111156110fe576110fd610eb0565b5b61110a8682870161108c565b925050604061111b86828701610f69565b9150509250925092565b61112e81610ed3565b82525050565b5f6020820190506111475f830184611125565b92915050565b5f819050919050565b5f61117061116b61116684610eb4565b61114d565b610eb4565b9050919050565b5f61118182611156565b9050919050565b5f61119282611177565b9050919050565b6111a281611188565b82525050565b5f6020820190506111bb5f830184611199565b92915050565b6111ca81610f4a565b82525050565b5f6020820190506111e35f8301846111c1565b92915050565b5f602082840312156111fe576111fd610eac565b5b5f61120b84828501610f69565b91505092915050565b5f8115159050919050565b61122881611214565b82525050565b5f60a0820190506112415f8301886111c1565b61124e602083018761121f565b61125b6040830186611125565b61126860608301856111c1565b61127560808301846111c1565b9695505050505050565b61128881611214565b8114611292575f80fd5b50565b5f813590506112a38161127f565b92915050565b5f602082840312156112be576112bd610eac565b5b5f6112cb84828501611295565b91505092915050565b5f80fd5b5f80fd5b5f8083601f8401126112f1576112f0610f7d565b5b8235905067ffffffffffffffff81111561130e5761130d6112d4565b5b60208301915083600182028301111561132a576113296112d8565b5b9250929050565b5f805f806060858703121561134957611348610eac565b5b5f61135687828801610f69565b945050602085013567ffffffffffffffff81111561137757611376610eb0565b5b6113838782880161108c565b935050604085013567ffffffffffffffff8111156113a4576113a3610eb0565b5b6113b0878288016112dc565b925092505092959194509250565b6113c781610ed3565b81146113d1575f80fd5b50565b5f813590506113e2816113be565b92915050565b5f602082840312156113fd576113fc610eac565b5b5f61140a848285016113d4565b91505092915050565b61141c81610e50565b8114611426575f80fd5b50565b5f8135905061143781611413565b92915050565b5f6020828403121561145257611451610eac565b5b5f61145f84828501611429565b91505092915050565b5f815190506114768161127f565b92915050565b5f6020828403121561149157611490610eac565b5b5f61149e84828501611468565b91505092915050565b5f82825260208201905092915050565b7f4464657853657175656e6365723a2053656e646572206973206e6f74207768695f8201527f74656c6973746564000000000000000000000000000000000000000000000000602082015250565b5f6115116028836114a7565b915061151c826114b7565b604082019050919050565b5f6020820190508181035f83015261153e81611505565b9050919050565b7f4464657853657175656e6365723a20496d61676549642063616e6e6f742062655f8201527f2030000000000000000000000000000000000000000000000000000000000000602082015250565b5f61159f6022836114a7565b91506115aa82611545565b604082019050919050565b5f6020820190508181035f8301526115cc81611593565b9050919050565b5f815190506115e181610f53565b92915050565b5f80604083850312156115fd576115fc610eac565b5b5f61160a858286016115d3565b925050602061161b858286016115d3565b9150509250929050565b7f4464657853657175656e6365723a20556e737570706f7274656420696d6167655f8201527f4964000000000000000000000000000000000000000000000000000000000000602082015250565b5f61167f6022836114a7565b915061168a82611625565b604082019050919050565b5f6020820190508181035f8301526116ac81611673565b9050919050565b7f4464657853657175656e6365723a20426c6f62206e6f7420666f756e6420696e5f8201527f2074780000000000000000000000000000000000000000000000000000000000602082015250565b5f61170d6023836114a7565b9150611718826116b3565b604082019050919050565b5f6020820190508181035f83015261173a81611701565b9050919050565b5f819050919050565b61175b61175682610f4a565b611741565b82525050565b5f61176c828561174a565b60208201915061177c828461174a565b6020820191508190509392505050565b5f81519050919050565b5f81905092915050565b5f5b838110156117bd5780820151818401526020810190506117a2565b5f8484015250505050565b5f6117d28261178c565b6117dc8185611796565b93506117ec8185602086016117a0565b80840191505092915050565b5f61180382846117c8565b915081905092915050565b5f6020828403121561182357611822610eac565b5b5f611830848285016115d3565b91505092915050565b7f4464657853657175656e6365723a20426c6f6220616c7265616479207375626d5f8201527f6974746564000000000000000000000000000000000000000000000000000000602082015250565b5f6118936025836114a7565b915061189e82611839565b604082019050919050565b5f6020820190508181035f8301526118c081611887565b9050919050565b5f82825260208201905092915050565b5f6118e18261178c565b6118eb81856118c7565b93506118fb8185602086016117a0565b61190481610f85565b840191505092915050565b5f6040820190508181035f83015261192781856118d7565b905061193660208301846111c1565b9392505050565b5f6020820190506119505f83018461121f565b92915050565b7f4464657853657175656e6365723a20517565756520697320656d7074790000005f82015250565b5f61198a601d836114a7565b915061199582611956565b602082019050919050565b5f6020820190508181035f8301526119b78161197e565b9050919050565b5f6119c983856118c7565b93506119d683858461103d565b6119df83610f85565b840190509392505050565b5f6060820190506119fd5f8301876111c1565b8181036020830152611a0f81866118d7565b90508181036040830152611a248184866119be565b90509594505050505056fea26469706673582212204dd89ccc702ecb16a38796fc30f1eac32c40e887938f92be26e788523ec4595764736f6c63430008180033",
  "linkReferences": {},
  "deployedLinkReferences": {}
}