{
  "_format": "hh-sol-artifact-1",
  "contractName": "DdexEmitter",
  "sourceName": "contracts/DdexEmitter.sol",
  "abi": [
    {
      "inputs": [],
      "stateMutability": "nonpayable",
      "type": "constructor"
    },
    {
      "inputs": [
        {
          "internalType": "address",
          "name": "target",
          "type": "address"
        }
      ],
      "name": "AddressEmptyCode",
      "type": "error"
    },
    {
      "inputs": [
        {
          "internalType": "address",
          "name": "implementation",
          "type": "address"
        }
      ],
      "name": "ERC1967InvalidImplementation",
      "type": "error"
    },
    {
      "inputs": [],
      "name": "ERC1967NonPayable",
      "type": "error"
    },
    {
      "inputs": [],
      "name": "FailedCall",
      "type": "error"
    },
    {
      "inputs": [],
      "name": "InvalidInitialization",
      "type": "error"
    },
    {
      "inputs": [],
      "name": "NotInitializing",
      "type": "error"
    },
    {
      "inputs": [
        {
          "internalType": "address",
          "name": "owner",
          "type": "address"
        }
      ],
      "name": "OwnableInvalidOwner",
      "type": "error"
    },
    {
      "inputs": [
        {
          "internalType": "address",
          "name": "account",
          "type": "address"
        }
      ],
      "name": "OwnableUnauthorizedAccount",
      "type": "error"
    },
    {
      "inputs": [],
      "name": "UUPSUnauthorizedCallContext",
      "type": "error"
    },
    {
      "inputs": [
        {
          "internalType": "bytes32",
          "name": "slot",
          "type": "bytes32"
        }
      ],
      "name": "UUPSUnsupportedProxiableUUID",
      "type": "error"
    },
    {
      "anonymous": false,
      "inputs": [
        {
          "components": [
            {
              "internalType": "bool",
              "name": "is_valid",
              "type": "bool"
            },
            {
              "internalType": "bytes32",
              "name": "digest",
              "type": "bytes32"
            },
            {
              "components": [
                {
                  "internalType": "string",
                  "name": "message_id",
                  "type": "string"
                }
              ],
              "internalType": "struct ProvedMessage[]",
              "name": "messages",
              "type": "tuple[]"
            }
          ],
          "indexed": false,
          "internalType": "struct ProverPublicOutputs",
          "name": "proverPublicOutputs",
          "type": "tuple"
        }
      ],
      "name": "BlobProcessed",
      "type": "event"
    },
    {
      "anonymous": false,
      "inputs": [
        {
          "indexed": false,
          "internalType": "uint64",
          "name": "version",
          "type": "uint64"
        }
      ],
      "name": "Initialized",
      "type": "event"
    },
    {
      "anonymous": false,
      "inputs": [
        {
          "indexed": true,
          "internalType": "address",
          "name": "previousOwner",
          "type": "address"
        },
        {
          "indexed": true,
          "internalType": "address",
          "name": "newOwner",
          "type": "address"
        }
      ],
      "name": "OwnershipTransferred",
      "type": "event"
    },
    {
      "anonymous": false,
      "inputs": [
        {
          "indexed": true,
          "internalType": "address",
          "name": "implementation",
          "type": "address"
        }
      ],
      "name": "Upgraded",
      "type": "event"
    },
    {
      "inputs": [],
      "name": "UPGRADE_INTERFACE_VERSION",
      "outputs": [
        {
          "internalType": "string",
          "name": "",
          "type": "string"
        }
      ],
      "stateMutability": "view",
      "type": "function"
    },
    {
      "inputs": [],
      "name": "imageId",
      "outputs": [
        {
          "internalType": "bytes32",
          "name": "",
          "type": "bytes32"
        }
      ],
      "stateMutability": "view",
      "type": "function"
    },
    {
      "inputs": [
        {
          "internalType": "contract IRiscZeroVerifier",
          "name": "_riscZeroGroth16Verifier",
          "type": "address"
        },
        {
          "internalType": "address",
          "name": "_ddexSequencerAddress",
          "type": "address"
        }
      ],
      "name": "initialize",
      "outputs": [],
      "stateMutability": "nonpayable",
      "type": "function"
    },
    {
      "inputs": [],
      "name": "owner",
      "outputs": [
        {
          "internalType": "address",
          "name": "",
          "type": "address"
        }
      ],
      "stateMutability": "view",
      "type": "function"
    },
    {
      "inputs": [],
      "name": "proxiableUUID",
      "outputs": [
        {
          "internalType": "bytes32",
          "name": "",
          "type": "bytes32"
        }
      ],
      "stateMutability": "view",
      "type": "function"
    },
    {
      "inputs": [],
      "name": "renounceOwnership",
      "outputs": [],
      "stateMutability": "nonpayable",
      "type": "function"
    },
    {
      "inputs": [
        {
          "internalType": "bytes32",
          "name": "newImage",
          "type": "bytes32"
        }
      ],
      "name": "setImageId",
      "outputs": [],
      "stateMutability": "nonpayable",
      "type": "function"
    },
    {
      "inputs": [
        {
          "internalType": "address",
          "name": "newOwner",
          "type": "address"
        }
      ],
      "name": "transferOwnership",
      "outputs": [],
      "stateMutability": "nonpayable",
      "type": "function"
    },
    {
      "inputs": [
        {
          "internalType": "address",
          "name": "newImplementation",
          "type": "address"
        },
        {
          "internalType": "bytes",
          "name": "data",
          "type": "bytes"
        }
      ],
      "name": "upgradeToAndCall",
      "outputs": [],
      "stateMutability": "payable",
      "type": "function"
    },
    {
      "inputs": [
        {
          "internalType": "bytes",
          "name": "journal",
          "type": "bytes"
        },
        {
          "internalType": "bytes",
          "name": "seal",
          "type": "bytes"
        }
      ],
      "name": "verifyAndEmit",
      "outputs": [
        {
          "internalType": "bytes32",
          "name": "blobSha2",
          "type": "bytes32"
        }
      ],
      "stateMutability": "nonpayable",
      "type": "function"
    }
  ],
  "bytecode": "0x60a06040523073ffffffffffffffffffffffffffffffffffffffff1660809073ffffffffffffffffffffffffffffffffffffffff1681525034801562000043575f80fd5b50620000546200005a60201b60201c565b620001c4565b5f6200006b6200015e60201b60201c565b9050805f0160089054906101000a900460ff1615620000b6576040517ff92ee8a900000000000000000000000000000000000000000000000000000000815260040160405180910390fd5b67ffffffffffffffff8016815f015f9054906101000a900467ffffffffffffffff1667ffffffffffffffff16146200015b5767ffffffffffffffff815f015f6101000a81548167ffffffffffffffff021916908367ffffffffffffffff1602179055507fc7f505b2f371ae2175ee4913f4499e1f2633a7b5936321eed1cdaeb6115181d267ffffffffffffffff604051620001529190620001a9565b60405180910390a15b50565b5f7ff0c57e16840df040f15088dc2f81fe391c3923bec73e23a9662efc9c229c6a00905090565b5f67ffffffffffffffff82169050919050565b620001a38162000185565b82525050565b5f602082019050620001be5f83018462000198565b92915050565b608051611b45620001eb5f395f81816107bc0152818161081101526109cb0152611b455ff3fe608060405260043610610090575f3560e01c80638da5cb5b116100585780638da5cb5b14610154578063901129c21461017e578063ad3cb1cc146101a6578063ef3f7dd5146101d0578063f2fde38b146101fa57610090565b8063485cc955146100945780634f1ef286146100bc57806352d1902d146100d8578063715018a614610102578063857c301314610118575b5f80fd5b34801561009f575f80fd5b506100ba60048036038101906100b59190611082565b610222565b005b6100d660048036038101906100d191906111fc565b61044c565b005b3480156100e3575f80fd5b506100ec61046b565b6040516100f9919061126e565b60405180910390f35b34801561010d575f80fd5b5061011661049c565b005b348015610123575f80fd5b5061013e600480360381019061013991906112e4565b6104af565b60405161014b919061126e565b60405180910390f35b34801561015f575f80fd5b50610168610675565b604051610175919061136c565b60405180910390f35b348015610189575f80fd5b506101a4600480360381019061019f91906113af565b6106aa565b005b3480156101b1575f80fd5b506101ba6106bc565b6040516101c79190611454565b60405180910390f35b3480156101db575f80fd5b506101e46106f5565b6040516101f1919061126e565b60405180910390f35b348015610205575f80fd5b50610220600480360381019061021b9190611474565b6106fb565b005b5f61022b61077f565b90505f815f0160089054906101000a900460ff161590505f825f015f9054906101000a900467ffffffffffffffff1690505f808267ffffffffffffffff161480156102735750825b90505f60018367ffffffffffffffff161480156102a657505f3073ffffffffffffffffffffffffffffffffffffffff163b145b9050811580156102b4575080155b156102eb576040517ff92ee8a900000000000000000000000000000000000000000000000000000000815260040160405180910390fd5b6001855f015f6101000a81548167ffffffffffffffff021916908367ffffffffffffffff1602179055508315610338576001855f0160086101000a81548160ff0219169083151502179055505b7f5073ced9d1cacc94206e828398a178c37bf0789ed4e81c282d58abd27e1219b95f1b600281905550865f806101000a81548173ffffffffffffffffffffffffffffffffffffffff021916908373ffffffffffffffffffffffffffffffffffffffff1602179055508560015f6101000a81548173ffffffffffffffffffffffffffffffffffffffff021916908373ffffffffffffffffffffffffffffffffffffffff1602179055506103e9336107a6565b8315610443575f855f0160086101000a81548160ff0219169083151502179055507fc7f505b2f371ae2175ee4913f4499e1f2633a7b5936321eed1cdaeb6115181d2600160405161043a91906114f4565b60405180910390a15b50505050505050565b6104546107ba565b61045d826108a0565b61046782826108ab565b5050565b5f6104746109c9565b7f360894a13ba1a3210667c828492db98dca3e2076cc3735a920a3ca505d382bbc5f1b905090565b6104a4610a50565b6104ad5f610ad7565b565b5f60015f9054906101000a900473ffffffffffffffffffffffffffffffffffffffff1673ffffffffffffffffffffffffffffffffffffffff163373ffffffffffffffffffffffffffffffffffffffff161461053f576040517f08c379a000000000000000000000000000000000000000000000000000000000815260040161053690611557565b60405180910390fd5b5f848060200190518101906105549190611814565b90505f8054906101000a900473ffffffffffffffffffffffffffffffffffffffff1673ffffffffffffffffffffffffffffffffffffffff1663ab750e75858560025460028a6040516105a6919061189f565b602060405180830381855afa1580156105c1573d5f803e3d5ffd5b5050506040513d601f19601f820116820180604052508101906105e491906118b5565b6040518563ffffffff1660e01b8152600401610603949392919061191c565b5f6040518083038186803b158015610619575f80fd5b505afa15801561062b573d5f803e3d5ffd5b505050507f0485a545174cd3b922da257e42d5f16f2d0b01f4833b761c51e719473cb4ae748160405161065e9190611aef565b60405180910390a180602001519150509392505050565b5f8061067f610ba8565b9050805f015f9054906101000a900473ffffffffffffffffffffffffffffffffffffffff1691505090565b6106b2610a50565b8060028190555050565b6040518060400160405280600581526020017f352e302e3000000000000000000000000000000000000000000000000000000081525081565b60025481565b610703610a50565b5f73ffffffffffffffffffffffffffffffffffffffff168173ffffffffffffffffffffffffffffffffffffffff1603610773575f6040517f1e4fbdf700000000000000000000000000000000000000000000000000000000815260040161076a919061136c565b60405180910390fd5b61077c81610ad7565b50565b5f7ff0c57e16840df040f15088dc2f81fe391c3923bec73e23a9662efc9c229c6a00905090565b6107ae610bcf565b6107b781610c0f565b50565b7f000000000000000000000000000000000000000000000000000000000000000073ffffffffffffffffffffffffffffffffffffffff163073ffffffffffffffffffffffffffffffffffffffff16148061086757507f000000000000000000000000000000000000000000000000000000000000000073ffffffffffffffffffffffffffffffffffffffff1661084e610c93565b73ffffffffffffffffffffffffffffffffffffffff1614155b1561089e576040517fe07c8dba00000000000000000000000000000000000000000000000000000000815260040160405180910390fd5b565b6108a8610a50565b50565b8173ffffffffffffffffffffffffffffffffffffffff166352d1902d6040518163ffffffff1660e01b8152600401602060405180830381865afa92505050801561091357506040513d601f19601f8201168201806040525081019061091091906118b5565b60015b61095457816040517f4c9c8ce300000000000000000000000000000000000000000000000000000000815260040161094b919061136c565b60405180910390fd5b7f360894a13ba1a3210667c828492db98dca3e2076cc3735a920a3ca505d382bbc5f1b81146109ba57806040517faa1d49a40000000000000000000000000000000000000000000000000000000081526004016109b1919061126e565b60405180910390fd5b6109c48383610ce6565b505050565b7f000000000000000000000000000000000000000000000000000000000000000073ffffffffffffffffffffffffffffffffffffffff163073ffffffffffffffffffffffffffffffffffffffff1614610a4e576040517fe07c8dba00000000000000000000000000000000000000000000000000000000815260040160405180910390fd5b565b610a58610d58565b73ffffffffffffffffffffffffffffffffffffffff16610a76610675565b73ffffffffffffffffffffffffffffffffffffffff1614610ad557610a99610d58565b6040517f118cdaa7000000000000000000000000000000000000000000000000000000008152600401610acc919061136c565b60405180910390fd5b565b5f610ae0610ba8565b90505f815f015f9054906101000a900473ffffffffffffffffffffffffffffffffffffffff16905082825f015f6101000a81548173ffffffffffffffffffffffffffffffffffffffff021916908373ffffffffffffffffffffffffffffffffffffffff1602179055508273ffffffffffffffffffffffffffffffffffffffff168173ffffffffffffffffffffffffffffffffffffffff167f8be0079c531659141344cd1fd0a4f28419497f9722a3daafe3b4186f6b6457e060405160405180910390a3505050565b5f7f9016d09d72d40fdae2fd8ceac6b6234c7706214fd39c1cd1e609a0528c199300905090565b610bd7610d5f565b610c0d576040517fd7e6bcf800000000000000000000000000000000000000000000000000000000815260040160405180910390fd5b565b610c17610bcf565b5f73ffffffffffffffffffffffffffffffffffffffff168173ffffffffffffffffffffffffffffffffffffffff1603610c87575f6040517f1e4fbdf7000000000000000000000000000000000000000000000000000000008152600401610c7e919061136c565b60405180910390fd5b610c9081610ad7565b50565b5f610cbf7f360894a13ba1a3210667c828492db98dca3e2076cc3735a920a3ca505d382bbc5f1b610d7d565b5f015f9054906101000a900473ffffffffffffffffffffffffffffffffffffffff16905090565b610cef82610d86565b8173ffffffffffffffffffffffffffffffffffffffff167fbc7cd75a20ee27fd9adebab32041f755214dbc6bffa90cc0225b39da2e5c2d3b60405160405180910390a25f81511115610d4b57610d458282610e4f565b50610d54565b610d53610ecf565b5b5050565b5f33905090565b5f610d6861077f565b5f0160089054906101000a900460ff16905090565b5f819050919050565b5f8173ffffffffffffffffffffffffffffffffffffffff163b03610de157806040517f4c9c8ce3000000000000000000000000000000000000000000000000000000008152600401610dd8919061136c565b60405180910390fd5b80610e0d7f360894a13ba1a3210667c828492db98dca3e2076cc3735a920a3ca505d382bbc5f1b610d7d565b5f015f6101000a81548173ffffffffffffffffffffffffffffffffffffffff021916908373ffffffffffffffffffffffffffffffffffffffff16021790555050565b60605f808473ffffffffffffffffffffffffffffffffffffffff1684604051610e78919061189f565b5f60405180830381855af49150503d805f8114610eb0576040519150601f19603f3d011682016040523d82523d5f602084013e610eb5565b606091505b5091509150610ec5858383610f0b565b9250505092915050565b5f341115610f09576040517fb398979f00000000000000000000000000000000000000000000000000000000815260040160405180910390fd5b565b606082610f2057610f1b82610f98565b610f90565b5f8251148015610f4657505f8473ffffffffffffffffffffffffffffffffffffffff163b145b15610f8857836040517f9996b315000000000000000000000000000000000000000000000000000000008152600401610f7f919061136c565b60405180910390fd5b819050610f91565b5b9392505050565b5f81511115610faa5780518082602001fd5b6040517fd6bda27500000000000000000000000000000000000000000000000000000000815260040160405180910390fd5b5f604051905090565b5f80fd5b5f80fd5b5f73ffffffffffffffffffffffffffffffffffffffff82169050919050565b5f61101682610fed565b9050919050565b5f6110278261100c565b9050919050565b6110378161101d565b8114611041575f80fd5b50565b5f813590506110528161102e565b92915050565b6110618161100c565b811461106b575f80fd5b50565b5f8135905061107c81611058565b92915050565b5f806040838503121561109857611097610fe5565b5b5f6110a585828601611044565b92505060206110b68582860161106e565b9150509250929050565b5f80fd5b5f80fd5b5f601f19601f8301169050919050565b7f4e487b71000000000000000000000000000000000000000000000000000000005f52604160045260245ffd5b61110e826110c8565b810181811067ffffffffffffffff8211171561112d5761112c6110d8565b5b80604052505050565b5f61113f610fdc565b905061114b8282611105565b919050565b5f67ffffffffffffffff82111561116a576111696110d8565b5b611173826110c8565b9050602081019050919050565b828183375f83830152505050565b5f6111a061119b84611150565b611136565b9050828152602081018484840111156111bc576111bb6110c4565b5b6111c7848285611180565b509392505050565b5f82601f8301126111e3576111e26110c0565b5b81356111f384826020860161118e565b91505092915050565b5f806040838503121561121257611211610fe5565b5b5f61121f8582860161106e565b925050602083013567ffffffffffffffff8111156112405761123f610fe9565b5b61124c858286016111cf565b9150509250929050565b5f819050919050565b61126881611256565b82525050565b5f6020820190506112815f83018461125f565b92915050565b5f80fd5b5f80fd5b5f8083601f8401126112a4576112a36110c0565b5b8235905067ffffffffffffffff8111156112c1576112c0611287565b5b6020830191508360018202830111156112dd576112dc61128b565b5b9250929050565b5f805f604084860312156112fb576112fa610fe5565b5b5f84013567ffffffffffffffff81111561131857611317610fe9565b5b611324868287016111cf565b935050602084013567ffffffffffffffff81111561134557611344610fe9565b5b6113518682870161128f565b92509250509250925092565b6113668161100c565b82525050565b5f60208201905061137f5f83018461135d565b92915050565b61138e81611256565b8114611398575f80fd5b50565b5f813590506113a981611385565b92915050565b5f602082840312156113c4576113c3610fe5565b5b5f6113d18482850161139b565b91505092915050565b5f81519050919050565b5f82825260208201905092915050565b5f5b838110156114115780820151818401526020810190506113f6565b5f8484015250505050565b5f611426826113da565b61143081856113e4565b93506114408185602086016113f4565b611449816110c8565b840191505092915050565b5f6020820190508181035f83015261146c818461141c565b905092915050565b5f6020828403121561148957611488610fe5565b5b5f6114968482850161106e565b91505092915050565b5f819050919050565b5f67ffffffffffffffff82169050919050565b5f819050919050565b5f6114de6114d96114d48461149f565b6114bb565b6114a8565b9050919050565b6114ee816114c4565b82525050565b5f6020820190506115075f8301846114e5565b92915050565b7f6d73672e73656e646572206973206e6f74204464657853657175656e636572005f82015250565b5f611541601f836113e4565b915061154c8261150d565b602082019050919050565b5f6020820190508181035f83015261156e81611535565b9050919050565b5f80fd5b5f80fd5b5f8115159050919050565b6115918161157d565b811461159b575f80fd5b50565b5f815190506115ac81611588565b92915050565b5f815190506115c081611385565b92915050565b5f67ffffffffffffffff8211156115e0576115df6110d8565b5b602082029050602081019050919050565b5f67ffffffffffffffff82111561160b5761160a6110d8565b5b611614826110c8565b9050602081019050919050565b5f61163361162e846115f1565b611136565b90508281526020810184848401111561164f5761164e6110c4565b5b61165a8482856113f4565b509392505050565b5f82601f830112611676576116756110c0565b5b8151611686848260208601611621565b91505092915050565b5f602082840312156116a4576116a3611575565b5b6116ae6020611136565b90505f82015167ffffffffffffffff8111156116cd576116cc611579565b5b6116d984828501611662565b5f8301525092915050565b5f6116f66116f1846115c6565b611136565b905080838252602082019050602084028301858111156117195761171861128b565b5b835b8181101561176057805167ffffffffffffffff81111561173e5761173d6110c0565b5b80860161174b898261168f565b8552602085019450505060208101905061171b565b5050509392505050565b5f82601f83011261177e5761177d6110c0565b5b815161178e8482602086016116e4565b91505092915050565b5f606082840312156117ac576117ab611575565b5b6117b66060611136565b90505f6117c58482850161159e565b5f8301525060206117d8848285016115b2565b602083015250604082015167ffffffffffffffff8111156117fc576117fb611579565b5b6118088482850161176a565b60408301525092915050565b5f6020828403121561182957611828610fe5565b5b5f82015167ffffffffffffffff81111561184657611845610fe9565b5b61185284828501611797565b91505092915050565b5f81519050919050565b5f81905092915050565b5f6118798261185b565b6118838185611865565b93506118938185602086016113f4565b80840191505092915050565b5f6118aa828461186f565b915081905092915050565b5f602082840312156118ca576118c9610fe5565b5b5f6118d7848285016115b2565b91505092915050565b5f82825260208201905092915050565b5f6118fb83856118e0565b9350611908838584611180565b611911836110c8565b840190509392505050565b5f6060820190508181035f8301526119358186886118f0565b9050611944602083018561125f565b611951604083018461125f565b95945050505050565b6119638161157d565b82525050565b61197281611256565b82525050565b5f81519050919050565b5f82825260208201905092915050565b5f819050602082019050919050565b5f82825260208201905092915050565b5f6119bb826113da565b6119c581856119a1565b93506119d58185602086016113f4565b6119de816110c8565b840191505092915050565b5f602083015f8301518482035f860152611a0382826119b1565b9150508091505092915050565b5f611a1b83836119e9565b905092915050565b5f602082019050919050565b5f611a3982611978565b611a438185611982565b935083602082028501611a5585611992565b805f5b85811015611a905784840389528151611a718582611a10565b9450611a7c83611a23565b925060208a01995050600181019050611a58565b50829750879550505050505092915050565b5f606083015f830151611ab75f86018261195a565b506020830151611aca6020860182611969565b5060408301518482036040860152611ae28282611a2f565b9150508091505092915050565b5f6020820190508181035f830152611b078184611aa2565b90509291505056fea2646970667358221220fca68855e9f023bf860e8462df3b9cd589c7b41f24680f2e2a92c9fb078175fb64736f6c63430008180033",
  "linkReferences": {},
  "deployedLinkReferences": {}
}