{
  "_format": "hh-sol-artifact-1",
  "contractName": "AgreementERC20",
  "sourceName": "contracts/agreements/AgreementERC20.sol",
  "abi": [
    {
      "inputs": [
        {
          "internalType": "address",
          "name": "target",
          "type": "address"
        }
      ],
      "name": "AddressEmptyCode",
      "type": "error"
    },
    {
      "inputs": [],
      "name": "AlreadyExist",
      "type": "error"
    },
    {
      "inputs": [],
      "name": "BurnNotAllowed",
      "type": "error"
    },
    {
      "inputs": [],
      "name": "ClaimWithRelayerNotSupported",
      "type": "error"
    },
    {
      "inputs": [],
      "name": "CurrencyNotSupported",
      "type": "error"
    },
    {
      "inputs": [
        {
          "internalType": "address",
          "name": "implementation",
          "type": "address"
        }
      ],
      "name": "ERC1967InvalidImplementation",
      "type": "error"
    },
    {
      "inputs": [],
      "name": "ERC1967NonPayable",
      "type": "error"
    },
    {
      "inputs": [
        {
          "internalType": "address",
          "name": "spender",
          "type": "address"
        },
        {
          "internalType": "uint256",
          "name": "allowance",
          "type": "uint256"
        },
        {
          "internalType": "uint256",
          "name": "needed",
          "type": "uint256"
        }
      ],
      "name": "ERC20InsufficientAllowance",
      "type": "error"
    },
    {
      "inputs": [
        {
          "internalType": "address",
          "name": "sender",
          "type": "address"
        },
        {
          "internalType": "uint256",
          "name": "balance",
          "type": "uint256"
        },
        {
          "internalType": "uint256",
          "name": "needed",
          "type": "uint256"
        }
      ],
      "name": "ERC20InsufficientBalance",
      "type": "error"
    },
    {
      "inputs": [
        {
          "internalType": "address",
          "name": "approver",
          "type": "address"
        }
      ],
      "name": "ERC20InvalidApprover",
      "type": "error"
    },
    {
      "inputs": [
        {
          "internalType": "address",
          "name": "receiver",
          "type": "address"
        }
      ],
      "name": "ERC20InvalidReceiver",
      "type": "error"
    },
    {
      "inputs": [
        {
          "internalType": "address",
          "name": "sender",
          "type": "address"
        }
      ],
      "name": "ERC20InvalidSender",
      "type": "error"
    },
    {
      "inputs": [
        {
          "internalType": "address",
          "name": "spender",
          "type": "address"
        }
      ],
      "name": "ERC20InvalidSpender",
      "type": "error"
    },
    {
      "inputs": [],
      "name": "EmptyHoldersInput",
      "type": "error"
    },
    {
      "inputs": [],
      "name": "FailedCall",
      "type": "error"
    },
    {
      "inputs": [],
      "name": "FirstHolderMustBeAdmin",
      "type": "error"
    },
    {
      "inputs": [],
      "name": "InvalidInitialization",
      "type": "error"
    },
    {
      "inputs": [],
      "name": "LastAdminRemovalNotAllowed",
      "type": "error"
    },
    {
      "inputs": [],
      "name": "NotAdmin",
      "type": "error"
    },
    {
      "inputs": [],
      "name": "NotInitializing",
      "type": "error"
    },
    {
      "inputs": [],
      "name": "OnlyAdminAllowed",
      "type": "error"
    },
    {
      "inputs": [
        {
          "internalType": "address",
          "name": "expected",
          "type": "address"
        },
        {
          "internalType": "address",
          "name": "actual",
          "type": "address"
        }
      ],
      "name": "OnlyFeeManagerAllowed",
      "type": "error"
    },
    {
      "inputs": [],
      "name": "ReentrancyGuardReentrantCall",
      "type": "error"
    },
    {
      "inputs": [
        {
          "internalType": "address",
          "name": "token",
          "type": "address"
        }
      ],
      "name": "SafeERC20FailedOperation",
      "type": "error"
    },
    {
      "inputs": [],
      "name": "SelfTransfer",
      "type": "error"
    },
    {
      "inputs": [],
      "name": "UUPSUnauthorizedCallContext",
      "type": "error"
    },
    {
      "inputs": [
        {
          "internalType": "bytes32",
          "name": "slot",
          "type": "bytes32"
        }
      ],
      "name": "UUPSUnsupportedProxiableUUID",
      "type": "error"
    },
    {
      "inputs": [],
      "name": "ZeroAddressNotAllowed",
      "type": "error"
    },
    {
      "inputs": [],
      "name": "ZeroBalanceHolder",
      "type": "error"
    },
    {
      "anonymous": false,
      "inputs": [
        {
          "indexed": false,
          "internalType": "address",
          "name": "account",
          "type": "address"
        }
      ],
      "name": "AdminAdded",
      "type": "event"
    },
    {
      "anonymous": false,
      "inputs": [
        {
          "indexed": false,
          "internalType": "address",
          "name": "account",
          "type": "address"
        }
      ],
      "name": "AdminRemoved",
      "type": "event"
    },
    {
      "anonymous": false,
      "inputs": [
        {
          "indexed": true,
          "internalType": "address",
          "name": "owner",
          "type": "address"
        },
        {
          "indexed": true,
          "internalType": "address",
          "name": "spender",
          "type": "address"
        },
        {
          "indexed": false,
          "internalType": "uint256",
          "name": "value",
          "type": "uint256"
        }
      ],
      "name": "Approval",
      "type": "event"
    },
    {
      "anonymous": false,
      "inputs": [
        {
          "indexed": false,
          "internalType": "string",
          "name": "dataHash",
          "type": "string"
        }
      ],
      "name": "DataHashChanged",
      "type": "event"
    },
    {
      "anonymous": false,
      "inputs": [
        {
          "indexed": false,
          "internalType": "address",
          "name": "currency",
          "type": "address"
        },
        {
          "indexed": false,
          "internalType": "uint256",
          "name": "amount",
          "type": "uint256"
        }
      ],
      "name": "ERC20IncomeRegistered",
      "type": "event"
    },
    {
      "anonymous": false,
      "inputs": [
        {
          "indexed": false,
          "internalType": "uint256",
          "name": "amount",
          "type": "uint256"
        },
        {
          "indexed": false,
          "internalType": "address",
          "name": "currency",
          "type": "address"
        }
      ],
      "name": "FeeAvailable",
      "type": "event"
    },
    {
      "anonymous": false,
      "inputs": [
        {
          "indexed": false,
          "internalType": "uint256",
          "name": "amount",
          "type": "uint256"
        },
        {
          "indexed": false,
          "internalType": "address",
          "name": "currency",
          "type": "address"
        }
      ],
      "name": "FeeCollected",
      "type": "event"
    },
    {
      "anonymous": false,
      "inputs": [
        {
          "indexed": false,
          "internalType": "address",
          "name": "account",
          "type": "address"
        },
        {
          "indexed": false,
          "internalType": "uint256",
          "name": "value",
          "type": "uint256"
        },
        {
          "indexed": false,
          "internalType": "address",
          "name": "currency",
          "type": "address"
        }
      ],
      "name": "HolderFundsClaimed",
      "type": "event"
    },
    {
      "anonymous": false,
      "inputs": [
        {
          "indexed": false,
          "internalType": "uint64",
          "name": "version",
          "type": "uint64"
        }
      ],
      "name": "Initialized",
      "type": "event"
    },
    {
      "anonymous": false,
      "inputs": [
        {
          "indexed": false,
          "internalType": "address",
          "name": "from",
          "type": "address"
        },
        {
          "indexed": false,
          "internalType": "uint256",
          "name": "amount",
          "type": "uint256"
        }
      ],
      "name": "NativeCoinReceived",
      "type": "event"
    },
    {
      "anonymous": false,
      "inputs": [
        {
          "indexed": false,
          "internalType": "string",
          "name": "addedUri",
          "type": "string"
        },
        {
          "indexed": false,
          "internalType": "address",
          "name": "addedByAccount",
          "type": "address"
        }
      ],
      "name": "RevenueStreamURIAdded",
      "type": "event"
    },
    {
      "anonymous": false,
      "inputs": [
        {
          "indexed": false,
          "internalType": "string",
          "name": "removedUri",
          "type": "string"
        },
        {
          "indexed": false,
          "internalType": "address",
          "name": "removedByAccount",
          "type": "address"
        }
      ],
      "name": "RevenueStreamURIRemoved",
      "type": "event"
    },
    {
      "anonymous": false,
      "inputs": [
        {
          "indexed": true,
          "internalType": "address",
          "name": "from",
          "type": "address"
        },
        {
          "indexed": true,
          "internalType": "address",
          "name": "to",
          "type": "address"
        },
        {
          "indexed": false,
          "internalType": "uint256",
          "name": "value",
          "type": "uint256"
        }
      ],
      "name": "Transfer",
      "type": "event"
    },
    {
      "anonymous": false,
      "inputs": [
        {
          "indexed": true,
          "internalType": "address",
          "name": "implementation",
          "type": "address"
        }
      ],
      "name": "Upgraded",
      "type": "event"
    },
    {
      "inputs": [],
      "name": "UPGRADE_INTERFACE_VERSION",
      "outputs": [
        {
          "internalType": "string",
          "name": "",
          "type": "string"
        }
      ],
      "stateMutability": "view",
      "type": "function"
    },
    {
      "inputs": [
        {
          "internalType": "address",
          "name": "user",
          "type": "address"
        }
      ],
      "name": "addAdmin",
      "outputs": [],
      "stateMutability": "nonpayable",
      "type": "function"
    },
    {
      "inputs": [
        {
          "internalType": "address",
          "name": "owner",
          "type": "address"
        },
        {
          "internalType": "address",
          "name": "spender",
          "type": "address"
        }
      ],
      "name": "allowance",
      "outputs": [
        {
          "internalType": "uint256",
          "name": "",
          "type": "uint256"
        }
      ],
      "stateMutability": "view",
      "type": "function"
    },
    {
      "inputs": [
        {
          "internalType": "address",
          "name": "spender",
          "type": "address"
        },
        {
          "internalType": "uint256",
          "name": "value",
          "type": "uint256"
        }
      ],
      "name": "approve",
      "outputs": [
        {
          "internalType": "bool",
          "name": "",
          "type": "bool"
        }
      ],
      "stateMutability": "nonpayable",
      "type": "function"
    },
    {
      "inputs": [
        {
          "internalType": "address",
          "name": "account",
          "type": "address"
        }
      ],
      "name": "balanceOf",
      "outputs": [
        {
          "internalType": "uint256",
          "name": "",
          "type": "uint256"
        }
      ],
      "stateMutability": "view",
      "type": "function"
    },
    {
      "inputs": [
        {
          "internalType": "address",
          "name": "holder",
          "type": "address"
        },
        {
          "internalType": "address",
          "name": "currency",
          "type": "address"
        }
      ],
      "name": "claimHolderFunds",
      "outputs": [],
      "stateMutability": "nonpayable",
      "type": "function"
    },
    {
      "inputs": [
        {
          "internalType": "address",
          "name": "holder",
          "type": "address"
        },
        {
          "internalType": "address",
          "name": "currency",
          "type": "address"
        }
      ],
      "name": "claimHolderFundsWithRelayerFee",
      "outputs": [],
      "stateMutability": "nonpayable",
      "type": "function"
    },
    {
      "inputs": [
        {
          "internalType": "address",
          "name": "currency",
          "type": "address"
        }
      ],
      "name": "collectFee",
      "outputs": [],
      "stateMutability": "nonpayable",
      "type": "function"
    },
    {
      "inputs": [],
      "name": "decimals",
      "outputs": [
        {
          "internalType": "uint8",
          "name": "",
          "type": "uint8"
        }
      ],
      "stateMutability": "view",
      "type": "function"
    },
    {
      "inputs": [
        {
          "internalType": "address",
          "name": "currency",
          "type": "address"
        }
      ],
      "name": "getAvailablePaymentFee",
      "outputs": [
        {
          "internalType": "uint256",
          "name": "",
          "type": "uint256"
        }
      ],
      "stateMutability": "view",
      "type": "function"
    },
    {
      "inputs": [
        {
          "internalType": "address",
          "name": "currency",
          "type": "address"
        },
        {
          "internalType": "address",
          "name": "holder",
          "type": "address"
        }
      ],
      "name": "getClaimableAmount",
      "outputs": [
        {
          "internalType": "uint256",
          "name": "claimableAmount",
          "type": "uint256"
        }
      ],
      "stateMutability": "view",
      "type": "function"
    },
    {
      "inputs": [
        {
          "internalType": "address",
          "name": "currency",
          "type": "address"
        },
        {
          "internalType": "address",
          "name": "holder",
          "type": "address"
        }
      ],
      "name": "getClaimableAmountWithRelayerFee",
      "outputs": [
        {
          "internalType": "uint256",
          "name": "claimableAmount",
          "type": "uint256"
        },
        {
          "internalType": "uint256",
          "name": "relayerCut",
          "type": "uint256"
        }
      ],
      "stateMutability": "view",
      "type": "function"
    },
    {
      "inputs": [
        {
          "components": [
            {
              "components": [
                {
                  "internalType": "address",
                  "name": "account",
                  "type": "address"
                },
                {
                  "internalType": "bool",
                  "name": "isAdmin",
                  "type": "bool"
                },
                {
                  "internalType": "uint256",
                  "name": "balance",
                  "type": "uint256"
                }
              ],
              "internalType": "struct IAgreement.Holder[]",
              "name": "holders",
              "type": "tuple[]"
            },
            {
              "internalType": "address",
              "name": "currencyManager",
              "type": "address"
            },
            {
              "internalType": "address",
              "name": "feeManager",
              "type": "address"
            },
            {
              "internalType": "address",
              "name": "agreementRelationsRegistry",
              "type": "address"
            },
            {
              "internalType": "address",
              "name": "fallbackVault",
              "type": "address"
            },
            {
              "internalType": "address",
              "name": "namespaceRegistry",
              "type": "address"
            },
            {
              "internalType": "string",
              "name": "rwaId",
              "type": "string"
            }
          ],
          "internalType": "struct IAgreementERC20.AgreementERC20InitParams",
          "name": "params",
          "type": "tuple"
        }
      ],
      "name": "initialize",
      "outputs": [],
      "stateMutability": "nonpayable",
      "type": "function"
    },
    {
      "inputs": [
        {
          "internalType": "address",
          "name": "user",
          "type": "address"
        }
      ],
      "name": "isAdmin",
      "outputs": [
        {
          "internalType": "bool",
          "name": "",
          "type": "bool"
        }
      ],
      "stateMutability": "view",
      "type": "function"
    },
    {
      "inputs": [],
      "name": "name",
      "outputs": [
        {
          "internalType": "string",
          "name": "",
          "type": "string"
        }
      ],
      "stateMutability": "view",
      "type": "function"
    },
    {
      "inputs": [
        {
          "internalType": "address",
          "name": "",
          "type": "address"
        },
        {
          "internalType": "address",
          "name": "",
          "type": "address"
        },
        {
          "internalType": "uint256[]",
          "name": "",
          "type": "uint256[]"
        },
        {
          "internalType": "uint256[]",
          "name": "",
          "type": "uint256[]"
        },
        {
          "internalType": "bytes",
          "name": "",
          "type": "bytes"
        }
      ],
      "name": "onERC1155BatchReceived",
      "outputs": [
        {
          "internalType": "bytes4",
          "name": "",
          "type": "bytes4"
        }
      ],
      "stateMutability": "nonpayable",
      "type": "function"
    },
    {
      "inputs": [
        {
          "internalType": "address",
          "name": "",
          "type": "address"
        },
        {
          "internalType": "address",
          "name": "",
          "type": "address"
        },
        {
          "internalType": "uint256",
          "name": "",
          "type": "uint256"
        },
        {
          "internalType": "uint256",
          "name": "",
          "type": "uint256"
        },
        {
          "internalType": "bytes",
          "name": "",
          "type": "bytes"
        }
      ],
      "name": "onERC1155Received",
      "outputs": [
        {
          "internalType": "bytes4",
          "name": "",
          "type": "bytes4"
        }
      ],
      "stateMutability": "nonpayable",
      "type": "function"
    },
    {
      "inputs": [],
      "name": "proxiableUUID",
      "outputs": [
        {
          "internalType": "bytes32",
          "name": "",
          "type": "bytes32"
        }
      ],
      "stateMutability": "view",
      "type": "function"
    },
    {
      "inputs": [
        {
          "internalType": "address",
          "name": "user",
          "type": "address"
        }
      ],
      "name": "removeAdmin",
      "outputs": [],
      "stateMutability": "nonpayable",
      "type": "function"
    },
    {
      "inputs": [],
      "name": "rwaId",
      "outputs": [
        {
          "internalType": "string",
          "name": "",
          "type": "string"
        }
      ],
      "stateMutability": "view",
      "type": "function"
    },
    {
      "inputs": [
        {
          "internalType": "bytes4",
          "name": "interfaceId",
          "type": "bytes4"
        }
      ],
      "name": "supportsInterface",
      "outputs": [
        {
          "internalType": "bool",
          "name": "",
          "type": "bool"
        }
      ],
      "stateMutability": "view",
      "type": "function"
    },
    {
      "inputs": [],
      "name": "symbol",
      "outputs": [
        {
          "internalType": "string",
          "name": "",
          "type": "string"
        }
      ],
      "stateMutability": "view",
      "type": "function"
    },
    {
      "inputs": [],
      "name": "totalSupply",
      "outputs": [
        {
          "internalType": "uint256",
          "name": "",
          "type": "uint256"
        }
      ],
      "stateMutability": "view",
      "type": "function"
    },
    {
      "inputs": [
        {
          "internalType": "address",
          "name": "to",
          "type": "address"
        },
        {
          "internalType": "uint256",
          "name": "value",
          "type": "uint256"
        }
      ],
      "name": "transfer",
      "outputs": [
        {
          "internalType": "bool",
          "name": "",
          "type": "bool"
        }
      ],
      "stateMutability": "nonpayable",
      "type": "function"
    },
    {
      "inputs": [
        {
          "internalType": "address",
          "name": "from",
          "type": "address"
        },
        {
          "internalType": "address",
          "name": "to",
          "type": "address"
        },
        {
          "internalType": "uint256",
          "name": "value",
          "type": "uint256"
        }
      ],
      "name": "transferFrom",
      "outputs": [
        {
          "internalType": "bool",
          "name": "",
          "type": "bool"
        }
      ],
      "stateMutability": "nonpayable",
      "type": "function"
    },
    {
      "inputs": [
        {
          "internalType": "address",
          "name": "agreement",
          "type": "address"
        },
        {
          "internalType": "address",
          "name": "recipient",
          "type": "address"
        },
        {
          "internalType": "uint256",
          "name": "amount",
          "type": "uint256"
        }
      ],
      "name": "transferOwnedERC1155Shares",
      "outputs": [],
      "stateMutability": "nonpayable",
      "type": "function"
    },
    {
      "inputs": [
        {
          "internalType": "address",
          "name": "agreement",
          "type": "address"
        },
        {
          "internalType": "address",
          "name": "recipient",
          "type": "address"
        },
        {
          "internalType": "uint256",
          "name": "amount",
          "type": "uint256"
        }
      ],
      "name": "transferOwnedERC20Shares",
      "outputs": [],
      "stateMutability": "nonpayable",
      "type": "function"
    },
    {
      "inputs": [
        {
          "internalType": "address",
          "name": "newImplementation",
          "type": "address"
        },
        {
          "internalType": "bytes",
          "name": "data",
          "type": "bytes"
        }
      ],
      "name": "upgradeToAndCall",
      "outputs": [],
      "stateMutability": "payable",
      "type": "function"
    },
    {
      "stateMutability": "payable",
      "type": "receive"
    }
  ],
  "bytecode": "0x60a06040523060805234801561001457600080fd5b5061001d610022565b6100d4565b7ff0c57e16840df040f15088dc2f81fe391c3923bec73e23a9662efc9c229c6a00805468010000000000000000900460ff16156100725760405163f92ee8a960e01b815260040160405180910390fd5b80546001600160401b03908116146100d15780546001600160401b0319166001600160401b0390811782556040519081527fc7f505b2f371ae2175ee4913f4499e1f2633a7b5936321eed1cdaeb6115181d29060200160405180910390a15b50565b608051613d6b6100fd600039600081816119d1015281816119fa0152611bd80152613d6b6000f3fe6080604052600436106101bb5760003560e01c806370480275116100ec578063ad3cb1cc1161008a578063bc197c8111610064578063bc197c8114610590578063dd62ed3e146105ee578063e5bdabdb14610653578063f23a6e611461067357600080fd5b8063ad3cb1cc14610507578063b932cf2d14610550578063bb7dbfe71461057057600080fd5b806398ce7164116100c657806398ce7164146104875780639f9e8b36146104a7578063a57f0881146104c7578063a9059cbb146104e757600080fd5b806370480275146103fd57806370a082311461041d57806395d89b411461047257600080fd5b8063313ce5671161015957806356af074c1161013357806356af074c146103735780635db929a6146103a85780635f8ba961146103bd57806369b59e75146103dd57600080fd5b8063313ce5671461032f5780634f1ef2861461034b57806352d1902d1461035e57600080fd5b80631785f53c116101955780631785f53c1461027657806318160ddd1461029857806323b872dd146102d657806324d7806c146102f657600080fd5b806301ffc9a7146101ff57806306fdde0314610234578063095ea7b31461025657600080fd5b366101fa57604080513381523460208201527fc89e38d2150d14766a24c72f95fbc776b7e376007f473c8bc6492e068433a8c8910160405180910390a1005b600080fd5b34801561020b57600080fd5b5061021f61021a3660046134b7565b6106b8565b60405190151581526020015b60405180910390f35b34801561024057600080fd5b506102496106fc565b60405161022b9190613505565b34801561026257600080fd5b5061021f61027136600461354d565b6107d1565b34801561028257600080fd5b50610296610291366004613579565b6107e9565b005b3480156102a457600080fd5b507f52c63247e1f47db19d5ce0460030c497f067ca4cebf71ba98eeadabe20bace02545b60405190815260200161022b565b3480156102e257600080fd5b5061021f6102f1366004613596565b61091b565b34801561030257600080fd5b5061021f610311366004613579565b6001600160a01b031660009081526020819052604090205460ff1690565b34801561033b57600080fd5b506040516012815260200161022b565b61029661035936600461368e565b610941565b34801561036a57600080fd5b506102c8610960565b34801561037f57600080fd5b5061039361038e3660046136de565b61098f565b6040805192835260208301919091520161022b565b3480156103b457600080fd5b50610249610b89565b3480156103c957600080fd5b506102966103d83660046136de565b610c17565b3480156103e957600080fd5b506102966103f8366004613579565b610cb8565b34801561040957600080fd5b50610296610418366004613579565b610f6b565b34801561042957600080fd5b506102c8610438366004613579565b6001600160a01b031660009081527f52c63247e1f47db19d5ce0460030c497f067ca4cebf71ba98eeadabe20bace00602052604090205490565b34801561047e57600080fd5b50610249610fab565b34801561049357600080fd5b506102966104a2366004613717565b610ffc565b3480156104b357600080fd5b506102966104c2366004613596565b6113a0565b3480156104d357600080fd5b506102c86104e2366004613579565b6113ed565b3480156104f357600080fd5b5061021f61050236600461354d565b611532565b34801561051357600080fd5b506102496040518060400160405280600581526020017f352e302e3000000000000000000000000000000000000000000000000000000081525081565b34801561055c57600080fd5b5061029661056b366004613596565b611540565b34801561057c57600080fd5b506102c861058b3660046136de565b61160f565b34801561059c57600080fd5b506105d56105ab3660046137e3565b7fbc197c810000000000000000000000000000000000000000000000000000000095945050505050565b6040516001600160e01b0319909116815260200161022b565b3480156105fa57600080fd5b506102c86106093660046136de565b6001600160a01b0391821660009081527f52c63247e1f47db19d5ce0460030c497f067ca4cebf71ba98eeadabe20bace016020908152604080832093909416825291909152205490565b34801561065f57600080fd5b5061029661066e3660046136de565b6117bc565b34801561067f57600080fd5b506105d561068e36600461389d565b7ff23a6e610000000000000000000000000000000000000000000000000000000095945050505050565b60006001600160e01b031982167f98ce71640000000000000000000000000000000000000000000000000000000014806106f657506106f682611833565b92915050565b7f52c63247e1f47db19d5ce0460030c497f067ca4cebf71ba98eeadabe20bace0380546060917f52c63247e1f47db19d5ce0460030c497f067ca4cebf71ba98eeadabe20bace009161074d906138fa565b80601f0160208091040260200160405190810160405280929190818152602001828054610779906138fa565b80156107c65780601f1061079b576101008083540402835291602001916107c6565b820191906000526020600020905b8154815290600101906020018083116107a957829003601f168201915b505050505091505090565b6000336107df818585611871565b5060019392505050565b3360009081526020819052604081205460ff161515900361081d57604051634777b53760e11b815260040160405180910390fd5b6001600160a01b03811660009081526020819052604090205460ff161515600114610874576040517f7bfa4b9f00000000000000000000000000000000000000000000000000000000815260040160405180910390fd5b600b546001036108b0576040517f55d0ce3a00000000000000000000000000000000000000000000000000000000815260040160405180910390fd5b600b80549060006108c08361394a565b90915550506001600160a01b03811660008181526020818152604091829020805460ff1916905590519182527fa3b62bc36326052d97ea62d63c3d60308ed4c3ea8ac079dd8499f1e9c4f80c0f91015b60405180910390a150565b60003361092985828561187e565b610934858585611935565b60019150505b9392505050565b6109496119c6565b61095282611a98565b61095c8282611acc565b5050565b600061096a611bcd565b507f360894a13ba1a3210667c828492db98dca3e2076cc3735a920a3ca505d382bbc90565b60065460405163115bdfe760e01b81526001600160a01b038481166004830152600092839291169063115bdfe790602401602060405180830381865afa1580156109dd573d6000803e3d6000fd5b505050506040513d601f19601f82011682018060405250810190610a01919061396f565b1515600003610a23576040516301537ee960e11b815260040160405180910390fd5b600754604051639af608c960e01b81526001600160a01b0386811660048301526000921690639af608c99060240160a060405180830381865afa158015610a6e573d6000803e3d6000fd5b505050506040513d601f19601f82011682018060405250810190610a92919061398c565b90506000610a9f86611c2f565b6001600160a01b038716600090815260026020526040902054610ac29190613a00565b90506000610b04866001600160a01b031660009081527f52c63247e1f47db19d5ce0460030c497f067ca4cebf71ba98eeadabe20bace00602052604090205490565b9050610b3b82888884610b357f52c63247e1f47db19d5ce0460030c497f067ca4cebf71ba98eeadabe20bace025490565b88611cae565b94508260800151836040015186610b529190613a13565b610b5c9190613a2a565b93508260600151841115610b7257826060015193505b610b7c8486613a4c565b94505050505b9250929050565b600c8054610b96906138fa565b80601f0160208091040260200160405190810160405280929190818152602001828054610bc2906138fa565b8015610c0f5780601f10610be457610100808354040283529160200191610c0f565b820191906000526020600020905b815481529060010190602001808311610bf257829003601f168201915b505050505081565b610c1f611d36565b6001600160a01b03821660009081527f52c63247e1f47db19d5ce0460030c497f067ca4cebf71ba98eeadabe20bace0060205260408120549050610c8e828483610c877f52c63247e1f47db19d5ce0460030c497f067ca4cebf71ba98eeadabe20bace025490565b6000611db7565b5061095c60017f9b779b17422d0df92223018b32b4d1fa46e071723d6817e2486d003becc55f0055565b6007546001600160a01b03163314610d16576007546040517fbbae539b0000000000000000000000000000000000000000000000000000000081526001600160a01b0390911660048201523360248201526044015b60405180910390fd5b610d1f816120bb565b15610d2f57610d2d8161219d565b505b6001600160a01b0381166000908152600560209081526040808320546004909252822054610d5d9190613a4c565b6001600160a01b038316600090815260026020526040812080549293508392909190610d8a908490613a00565b90915550506001600160a01b03821660009081526005602052604081208054839290610db7908490613a00565b90915550506001600160a01b038216610f12576040513390600090829084908381818185875af1925050503d8060008114610e0e576040519150601f19603f3d011682016040523d82523d6000602084013e610e13565b606091505b5050905080610f0b57600954600754604080517f8da5cb5b00000000000000000000000000000000000000000000000000000000815290516001600160a01b0393841693635cd9ce95938893911691638da5cb5b916004808201926020929091908290030181865afa158015610e8d573d6000803e3d6000fd5b505050506040513d601f19601f82011682018060405250810190610eb19190613a5f565b6040516001600160e01b031960e085901b1681526001600160a01b0390911660048201526024016000604051808303818588803b158015610ef157600080fd5b505af1158015610f05573d6000803e3d6000fd5b50505050505b5050610f26565b610f266001600160a01b03831633836122dc565b604080518281526001600160a01b03841660208201527ff10cda68996dfb656d49ab0db3c62cc5f0849710633671a337171c3ad9255186910160405180910390a15050565b3360009081526020819052604081205460ff1615159003610f9f57604051634777b53760e11b815260040160405180910390fd5b610fa88161235c565b50565b7f52c63247e1f47db19d5ce0460030c497f067ca4cebf71ba98eeadabe20bace0480546060917f52c63247e1f47db19d5ce0460030c497f067ca4cebf71ba98eeadabe20bace009161074d906138fa565b6000611006612422565b805490915060ff68010000000000000000820416159067ffffffffffffffff166000811580156110335750825b905060008267ffffffffffffffff1660011480156110505750303b155b90508115801561105e575080155b15611095576040517ff92ee8a900000000000000000000000000000000000000000000000000000000815260040160405180910390fd5b84547fffffffffffffffffffffffffffffffffffffffffffffffff000000000000000016600117855583156110e057845468ff00000000000000001916680100000000000000001785555b6110ea8680613a7c565b9050600003611125576040517f610c87e200000000000000000000000000000000000000000000000000000000815260040160405180910390fd5b61112f8680613a7c565b600081811061114057611140613ac5565b90506060020160200160208101906111589190613adb565b1515600003611193576040517fec68a59100000000000000000000000000000000000000000000000000000000815260040160405180910390fd5b6112076040518060400160405280600c81526020017f4f572041677265656d656e7400000000000000000000000000000000000000008152506040518060400160405280600581526020017f736861726500000000000000000000000000000000000000000000000000000081525061244b565b61120f61245d565b61121761245d565b6113066040518060c001604052808860200160208101906112389190613579565b6001600160a01b0316815260200161125660608a0160408b01613579565b6001600160a01b0316815260200161127460808a0160608b01613579565b6001600160a01b0316815260200161129260a08a0160808b01613579565b6001600160a01b031681526020016112b060c08a0160a08b01613579565b6001600160a01b031681526020016112cb60c08a018a613af8565b8080601f0160208091040260200160405190810160405280939291908181526020018383808284376000920191909152505050915250612465565b60005b6113138780613a7c565b905081101561134c576113446113298880613a7c565b8381811061133957611339613ac5565b905060600201612508565b600101611309565b50831561139857845468ff000000000000000019168555604051600181527fc7f505b2f371ae2175ee4913f4499e1f2633a7b5936321eed1cdaeb6115181d29060200160405180910390a15b505050505050565b3360009081526020819052604081205460ff16151590036113d457604051634777b53760e11b815260040160405180910390fd5b6113e86001600160a01b03841683836122dc565b505050565b600754604051639af608c960e01b81526001600160a01b0383811660048301526000928392911690639af608c99060240160a060405180830381865afa15801561143b573d6000803e3d6000fd5b505050506040513d601f19601f8201168201806040525081019061145f919061398c565b6001600160a01b038416600090815260056020908152604080832054600490925282205492935090916114929190613a4c565b905061149d846120bb565b1561093a5760006114ad85611c2f565b6001600160a01b038616600090815260026020526040812054919250906114d5908390613a00565b6001600160a01b038716600090815260016020526040812054919250906114fc9083613a4c565b905084608001518560200151826115139190613a13565b61151d9190613a2a565b6115279085613a00565b979650505050505050565b6000336107df818585611935565b3360009081526020819052604081205460ff161515900361157457604051634777b53760e11b815260040160405180910390fd5b6040517ff242432a0000000000000000000000000000000000000000000000000000000081523060048201526001600160a01b038381166024830152600160448301526064820183905260a06084830152600060a483015284169063f242432a9060c401600060405180830381600087803b1580156115f257600080fd5b505af1158015611606573d6000803e3d6000fd5b50505050505050565b60065460405163115bdfe760e01b81526001600160a01b038481166004830152600092169063115bdfe790602401602060405180830381865afa15801561165a573d6000803e3d6000fd5b505050506040513d601f19601f8201168201806040525081019061167e919061396f565b15156000036116a0576040516301537ee960e11b815260040160405180910390fd5b600754604051639af608c960e01b81526001600160a01b0385811660048301526000921690639af608c99060240160a060405180830381865afa1580156116eb573d6000803e3d6000fd5b505050506040513d601f19601f8201168201806040525081019061170f919061398c565b9050600061171c85611c2f565b6001600160a01b03861660009081526002602052604090205461173f9190613a00565b90506000611781856001600160a01b031660009081527f52c63247e1f47db19d5ce0460030c497f067ca4cebf71ba98eeadabe20bace00602052604090205490565b90506117b282878784610b357f52c63247e1f47db19d5ce0460030c497f067ca4cebf71ba98eeadabe20bace025490565b9695505050505050565b6117c4611d36565b6001600160a01b03821660009081527f52c63247e1f47db19d5ce0460030c497f067ca4cebf71ba98eeadabe20bace0060205260408120549050610c8e82848361182c7f52c63247e1f47db19d5ce0460030c497f067ca4cebf71ba98eeadabe20bace025490565b6001611db7565b60006001600160e01b031982167f972d81ae0000000000000000000000000000000000000000000000000000000014806106f657506106f682612638565b6113e8838383600161269f565b6001600160a01b0383811660009081527f52c63247e1f47db19d5ce0460030c497f067ca4cebf71ba98eeadabe20bace01602090815260408083209386168352929052205460001981101561192f5781811015611920576040517ffb8f41b20000000000000000000000000000000000000000000000000000000081526001600160a01b03841660048201526024810182905260448101839052606401610d0d565b61192f8484848403600061269f565b50505050565b6001600160a01b038316611978576040517f96c6fd1e00000000000000000000000000000000000000000000000000000000815260006004820152602401610d0d565b6001600160a01b0382166119bb576040517fec442f0500000000000000000000000000000000000000000000000000000000815260006004820152602401610d0d565b6113e88383836127cb565b306001600160a01b037f0000000000000000000000000000000000000000000000000000000000000000161480611a5f57507f00000000000000000000000000000000000000000000000000000000000000006001600160a01b0316611a537f360894a13ba1a3210667c828492db98dca3e2076cc3735a920a3ca505d382bbc546001600160a01b031690565b6001600160a01b031614155b15611a96576040517fe07c8dba00000000000000000000000000000000000000000000000000000000815260040160405180910390fd5b565b3360009081526020819052604081205460ff1615159003610fa857604051634777b53760e11b815260040160405180910390fd5b816001600160a01b03166352d1902d6040518163ffffffff1660e01b8152600401602060405180830381865afa925050508015611b26575060408051601f3d908101601f19168201909252611b2391810190613b3f565b60015b611b67576040517f4c9c8ce30000000000000000000000000000000000000000000000000000000081526001600160a01b0383166004820152602401610d0d565b7f360894a13ba1a3210667c828492db98dca3e2076cc3735a920a3ca505d382bbc8114611bc3576040517faa1d49a400000000000000000000000000000000000000000000000000000000815260048101829052602401610d0d565b6113e88383612c2b565b306001600160a01b037f00000000000000000000000000000000000000000000000000000000000000001614611a96576040517fe07c8dba00000000000000000000000000000000000000000000000000000000815260040160405180910390fd5b60006001600160a01b038216611c46575047919050565b6040516370a0823160e01b81523060048201526001600160a01b038316906370a0823190602401602060405180830381865afa158015611c8a573d6000803e3d6000fd5b505050506040513d601f19601f820116820180604052508101906106f69190613b3f565b6001600160a01b038086166000908152600360209081526040808320938816835292905290812054819084908690611ce6908b613a4c565b611cf09190613a13565b611cfa9190613a2a565b905060008360800151846020015183611d139190613a13565b611d1d9190613a2a565b9050611d298183613a4c565b9998505050505050505050565b7f9b779b17422d0df92223018b32b4d1fa46e071723d6817e2486d003becc55f0080547ffffffffffffffffffffffffffffffffffffffffffffffffffffffffffffffffe01611db1576040517f3ee5aeb500000000000000000000000000000000000000000000000000000000815260040160405180910390fd5b60029055565b60065460405163115bdfe760e01b81526001600160a01b0387811660048301529091169063115bdfe790602401602060405180830381865afa158015611e01573d6000803e3d6000fd5b505050506040513d601f19601f82011682018060405250810190611e25919061396f565b1515600003611e47576040516301537ee960e11b815260040160405180910390fd5b611e796040518060a0016040528060008152602001600081526020016000815260200160008152602001600081525090565b611e82866120bb565b15611e9757611e908661219d565b9050611f08565b600754604051639af608c960e01b81526001600160a01b03888116600483015290911690639af608c99060240160a060405180830381865afa158015611ee1573d6000803e3d6000fd5b505050506040513d601f19601f82011682018060405250810190611f05919061398c565b90505b818015611f1757506060810151155b15611f4e576040517fae579b8200000000000000000000000000000000000000000000000000000000815260040160405180910390fd5b6001600160a01b0380871660009081526001602090815260408083205460038352818420948a1684529390915290205414611398576001600160a01b038616600090815260016020526040812054611faa908888888887611cae565b90508015611606576001600160a01b0380881660008181526001602090815260408083205460038352818420958c1684529482528083209490945591815260029091529081208054839290612000908490613a00565b909155506000905083151560010361205c57608083015160408401516120269084613a13565b6120309190613a2a565b90508260600151811115612045575060608201515b61204f8183613a4c565b915061205c883383612c81565b612067888884612c81565b604080516001600160a01b038981168252602082018590528a168183015290517f7ad03c75731443b9aa8c4ef314c910b65084479f5165445811d316458707a09e9181900360600190a15050505050505050565b60006001600160a01b038216612112576001600160a01b0382166000908152600260205260409020546120ef904790613a00565b6001600160a01b0390921660009081526001602052604090205491909110919050565b6040516370a0823160e01b81523060048201526001600160a01b038316906370a0823190602401602060405180830381865afa158015612156573d6000803e3d6000fd5b505050506040513d601f19601f8201168201806040525081019061217a9190613b3f565b6001600160a01b0383166000908152600260205260409020546120ef9190613a00565b6121cf6040518060a0016040528060008152602001600081526020016000815260200160008152602001600081525090565b6121d882612d70565b905060006001600160a01b0383166121f157504761225c565b6040516370a0823160e01b81523060048201526001600160a01b038416906370a0823190602401602060405180830381865afa158015612235573d6000803e3d6000fd5b505050506040513d601f19601f820116820180604052508101906122599190613b3f565b90505b6001600160a01b038316600090815260026020526040902054612280908290613a00565b6001600160a01b0384166000818152600160209081526040918290209390935580519182529181018390527f7b77d0078c28d1984a6400af648a7d90d8b39f8a8ef975f688cc8961e03c5286910160405180910390a150919050565b604080516001600160a01b038416602482015260448082018490528251808303909101815260649091019091526020810180517bffffffffffffffffffffffffffffffffffffffffffffffffffffffff167fa9059cbb000000000000000000000000000000000000000000000000000000001790526113e8908490612fa8565b6001600160a01b03811660009081526020819052604090205460ff1615156001036123b3576040517fcfa5127400000000000000000000000000000000000000000000000000000000815260040160405180910390fd5b6001600160a01b0381166000908152602081905260408120805460ff19166001179055600b8054916123e483613b58565b90915550506040516001600160a01b03821681527f44d6d25963f097ad14f29f06854a01f575648a1ef82f30e562ccd3889717e33990602001610910565b6000807ff0c57e16840df040f15088dc2f81fe391c3923bec73e23a9662efc9c229c6a006106f6565b612453613032565b61095c8282613070565b611a96613032565b61246d613032565b8051600680547fffffffffffffffffffffffff00000000000000000000000000000000000000009081166001600160a01b03938416179091556020830151600780548316918416919091179055604083015160088054831691841691909117905560608301516009805483169184169190911790556080830151600a8054909216921691909117905560a0810151600c9061095c9082613bc5565b604081013515801561252757506125256040820160208301613adb565b155b1561255e576040517ff27855be00000000000000000000000000000000000000000000000000000000815260040160405180910390fd5b600061256d6020830183613579565b6001600160a01b0316036125ad576040517f8579befe00000000000000000000000000000000000000000000000000000000815260040160405180910390fd5b6125bd6104386020830183613579565b156125f4576040517fcfa5127400000000000000000000000000000000000000000000000000000000815260040160405180910390fd5b61260e6126046020830183613579565b82604001356130d3565b61261e6040820160208301613adb565b15610fa857610fa86126336020830183613579565b61235c565b60006001600160e01b031982167f4e2312e00000000000000000000000000000000000000000000000000000000014806106f657507f01ffc9a7000000000000000000000000000000000000000000000000000000006001600160e01b03198316146106f6565b7f52c63247e1f47db19d5ce0460030c497f067ca4cebf71ba98eeadabe20bace006001600160a01b038516612703576040517fe602df0500000000000000000000000000000000000000000000000000000000815260006004820152602401610d0d565b6001600160a01b038416612746576040517f94280d6200000000000000000000000000000000000000000000000000000000815260006004820152602401610d0d565b6001600160a01b038086166000908152600183016020908152604080832093881683529290522083905581156127c457836001600160a01b0316856001600160a01b03167f8c5be1e5ebec7d5bd14f71427d1e84f3dd0314c0f7b2291e5b200ac8c7c3b925856040516127bb91815260200190565b60405180910390a35b5050505050565b306001600160a01b0383160361280d576040517f4d9ecd9100000000000000000000000000000000000000000000000000000000815260040160405180910390fd5b6001600160a01b03821661284d576040517fe5d8776700000000000000000000000000000000000000000000000000000000815260040160405180910390fd5b6001600160a01b03821660009081527f52c63247e1f47db19d5ce0460030c497f067ca4cebf71ba98eeadabe20bace00602052604090205415801561289c57506000826001600160a01b03163b115b80156128b057506001600160a01b03831615155b1561292e576008546040517fc467f4620000000000000000000000000000000000000000000000000000000081526001600160a01b0384811660048301529091169063c467f46290602401600060405180830381600087803b15801561291557600080fd5b505af1158015612929573d6000803e3d6000fd5b505050505b8061296d846001600160a01b031660009081527f52c63247e1f47db19d5ce0460030c497f067ca4cebf71ba98eeadabe20bace00602052604090205490565b14801561298457506000836001600160a01b03163b115b15612a02576008546040517f287e8e060000000000000000000000000000000000000000000000000000000081526001600160a01b0385811660048301529091169063287e8e0690602401600060405180830381600087803b1580156129e957600080fd5b505af11580156129fd573d6000803e3d6000fd5b505050505b6001600160a01b03831615612b1157600654604080517fc4c98c9600000000000000000000000000000000000000000000000000000000815290516000926001600160a01b03169163c4c98c9691600480830192869291908290030181865afa158015612a73573d6000803e3d6000fd5b505050506040513d6000823e601f3d908101601f19168201604052612a9b9190810190613c84565b805190915060005b81811015612b0d576000838281518110612abf57612abf613ac5565b60200260200101519050612ad38782610c17565b6001600160a01b0390811660009081526001602081815260408084205460038352818520958c168552949091529091209190915501612aa3565b5050505b6001600160a01b03821615612c2057600654604080517fc4c98c9600000000000000000000000000000000000000000000000000000000815290516000926001600160a01b03169163c4c98c9691600480830192869291908290030181865afa158015612b82573d6000803e3d6000fd5b505050506040513d6000823e601f3d908101601f19168201604052612baa9190810190613c84565b805190915060005b81811015612c1c576000838281518110612bce57612bce613ac5565b60200260200101519050612be28682610c17565b6001600160a01b0390811660009081526001602081815260408084205460038352818520958b168552949091529091209190915501612bb2565b5050505b6113e8838383613122565b612c348261328b565b6040516001600160a01b038316907fbc7cd75a20ee27fd9adebab32041f755214dbc6bffa90cc0225b39da2e5c2d3b90600090a2805115612c79576113e88282613333565b61095c6133a9565b6001600160a01b0383166113d4576000826001600160a01b03168260405160006040518083038185875af1925050503d8060008114612cdc576040519150601f19603f3d011682016040523d82523d6000602084013e612ce1565b606091505b509091505080151560000361192f576009546040517f5cd9ce950000000000000000000000000000000000000000000000000000000081526001600160a01b03858116600483015290911690635cd9ce959084906024016000604051808303818588803b158015612d5157600080fd5b505af1158015612d65573d6000803e3d6000fd5b505050505050505050565b612da26040518060a0016040528060008152602001600081526020016000815260200160008152602001600081525090565b600754604051639af608c960e01b81526001600160a01b03848116600483015290911690639af608c99060240160a060405180830381865afa158015612dec573d6000803e3d6000fd5b505050506040513d601f19601f82011682018060405250810190612e10919061398c565b905060006001600160a01b038316612e63576001600160a01b038316600090815260016020908152604080832054600290925290912054612e52904790613a00565b612e5c9190613a4c565b9050612f0d565b6001600160a01b038316600081815260016020526040908190205490516370a0823160e01b81523060048201529091906370a0823190602401602060405180830381865afa158015612eb9573d6000803e3d6000fd5b505050506040513d601f19601f82011682018060405250810190612edd9190613b3f565b6001600160a01b038516600090815260026020526040902054612f009190613a00565b612f0a9190613a4c565b90505b60008260800151836020015183612f249190613a13565b612f2e9190613a2a565b6001600160a01b038516600090815260046020526040812080549293508392909190612f5b908490613a00565b9091555050604080518281526001600160a01b03861660208201527f88d3c79dad769abc62f06323af00167fa698e8036341825f0e890f5625d5dae9910160405180910390a15050919050565b600080602060008451602086016000885af180612fcb576040513d6000823e3d81fd5b50506000513d91508115612fe3578060011415612ff0565b6001600160a01b0384163b155b1561192f576040517f5274afe70000000000000000000000000000000000000000000000000000000081526001600160a01b0385166004820152602401610d0d565b61303a6133e1565b611a96576040517fd7e6bcf800000000000000000000000000000000000000000000000000000000815260040160405180910390fd5b613078613032565b7f52c63247e1f47db19d5ce0460030c497f067ca4cebf71ba98eeadabe20bace007f52c63247e1f47db19d5ce0460030c497f067ca4cebf71ba98eeadabe20bace036130c48482613bc5565b506004810161192f8382613bc5565b6001600160a01b038216613116576040517fec442f0500000000000000000000000000000000000000000000000000000000815260006004820152602401610d0d565b61095c600083836127cb565b7f52c63247e1f47db19d5ce0460030c497f067ca4cebf71ba98eeadabe20bace006001600160a01b03841661317057818160020160008282546131659190613a00565b909155506131fb9050565b6001600160a01b038416600090815260208290526040902054828110156131dc576040517fe450d38c0000000000000000000000000000000000000000000000000000000081526001600160a01b03861660048201526024810182905260448101849052606401610d0d565b6001600160a01b03851660009081526020839052604090209083900390555b6001600160a01b038316613219576002810180548390039055613238565b6001600160a01b03831660009081526020829052604090208054830190555b826001600160a01b0316846001600160a01b03167fddf252ad1be2c89b69c2b068fc378daa952ba7f163c4a11628f55a4df523b3ef8460405161327d91815260200190565b60405180910390a350505050565b806001600160a01b03163b6000036132da576040517f4c9c8ce30000000000000000000000000000000000000000000000000000000081526001600160a01b0382166004820152602401610d0d565b7f360894a13ba1a3210667c828492db98dca3e2076cc3735a920a3ca505d382bbc80547fffffffffffffffffffffffff0000000000000000000000000000000000000000166001600160a01b0392909216919091179055565b6060600080846001600160a01b0316846040516133509190613d19565b600060405180830381855af49150503d806000811461338b576040519150601f19603f3d011682016040523d82523d6000602084013e613390565b606091505b50915091506133a0858383613400565b95945050505050565b3415611a96576040517fb398979f00000000000000000000000000000000000000000000000000000000815260040160405180910390fd5b60006133eb612422565b5468010000000000000000900460ff16919050565b6060826134155761341082613475565b61093a565b815115801561342c57506001600160a01b0384163b155b1561346e576040517f9996b3150000000000000000000000000000000000000000000000000000000081526001600160a01b0385166004820152602401610d0d565b508061093a565b8051156134855780518082602001fd5b6040517fd6bda27500000000000000000000000000000000000000000000000000000000815260040160405180910390fd5b6000602082840312156134c957600080fd5b81356001600160e01b03198116811461093a57600080fd5b60005b838110156134fc5781810151838201526020016134e4565b50506000910152565b60208152600082518060208401526135248160408501602087016134e1565b601f01601f19169190910160400192915050565b6001600160a01b0381168114610fa857600080fd5b6000806040838503121561356057600080fd5b823561356b81613538565b946020939093013593505050565b60006020828403121561358b57600080fd5b813561093a81613538565b6000806000606084860312156135ab57600080fd5b83356135b681613538565b925060208401356135c681613538565b929592945050506040919091013590565b634e487b7160e01b600052604160045260246000fd5b604051601f8201601f1916810167ffffffffffffffff81118282101715613616576136166135d7565b604052919050565b600082601f83011261362f57600080fd5b813567ffffffffffffffff811115613649576136496135d7565b61365c6020601f19601f840116016135ed565b81815284602083860101111561367157600080fd5b816020850160208301376000918101602001919091529392505050565b600080604083850312156136a157600080fd5b82356136ac81613538565b9150602083013567ffffffffffffffff8111156136c857600080fd5b6136d48582860161361e565b9150509250929050565b600080604083850312156136f157600080fd5b82356136fc81613538565b9150602083013561370c81613538565b809150509250929050565b60006020828403121561372957600080fd5b813567ffffffffffffffff81111561374057600080fd5b820160e0818503121561093a57600080fd5b600067ffffffffffffffff82111561376c5761376c6135d7565b5060051b60200190565b600082601f83011261378757600080fd5b813561379a61379582613752565b6135ed565b8082825260208201915060208360051b8601019250858311156137bc57600080fd5b602085015b838110156137d95780358352602092830192016137c1565b5095945050505050565b600080600080600060a086880312156137fb57600080fd5b853561380681613538565b9450602086013561381681613538565b9350604086013567ffffffffffffffff81111561383257600080fd5b61383e88828901613776565b935050606086013567ffffffffffffffff81111561385b57600080fd5b61386788828901613776565b925050608086013567ffffffffffffffff81111561388457600080fd5b6138908882890161361e565b9150509295509295909350565b600080600080600060a086880312156138b557600080fd5b85356138c081613538565b945060208601356138d081613538565b93506040860135925060608601359150608086013567ffffffffffffffff81111561388457600080fd5b600181811c9082168061390e57607f821691505b60208210810361392e57634e487b7160e01b600052602260045260246000fd5b50919050565b634e487b7160e01b600052601160045260246000fd5b60008161395957613959613934565b506000190190565b8015158114610fa857600080fd5b60006020828403121561398157600080fd5b815161093a81613961565b600060a082840312801561399f57600080fd5b5060405160009060a0810167ffffffffffffffff811182821017156139c6576139c66135d7565b6040908152845182526020808601519083015284810151908201526060808501519082015260809384015193810193909352509092915050565b808201808211156106f6576106f6613934565b80820281158282048414176106f6576106f6613934565b600082613a4757634e487b7160e01b600052601260045260246000fd5b500490565b818103818111156106f6576106f6613934565b600060208284031215613a7157600080fd5b815161093a81613538565b6000808335601e19843603018112613a9357600080fd5b83018035915067ffffffffffffffff821115613aae57600080fd5b6020019150606081023603821315610b8257600080fd5b634e487b7160e01b600052603260045260246000fd5b600060208284031215613aed57600080fd5b813561093a81613961565b6000808335601e19843603018112613b0f57600080fd5b83018035915067ffffffffffffffff821115613b2a57600080fd5b602001915036819003821315610b8257600080fd5b600060208284031215613b5157600080fd5b5051919050565b60006000198203613b6b57613b6b613934565b5060010190565b601f8211156113e857828211156113e857806000526020600020601f840160051c6020851015613ba0575060005b90810190601f840160051c0360005b8181101561139857600083820155600101613baf565b815167ffffffffffffffff811115613bdf57613bdf6135d7565b613bf381613bed84546138fa565b84613b72565b6020601f821160018114613c275760008315613c0f5750848201515b600019600385901b1c1916600184901b1784556127c4565b600084815260208120601f198516915b82811015613c575787850151825560209485019460019092019101613c37565b5084821015613c755786840151600019600387901b60f8161c191681555b50505050600190811b01905550565b600060208284031215613c9657600080fd5b815167ffffffffffffffff811115613cad57600080fd5b8201601f81018413613cbe57600080fd5b8051613ccc61379582613752565b8082825260208201915060208360051b850101925086831115613cee57600080fd5b6020840193505b828410156117b2578351613d0881613538565b825260209384019390910190613cf5565b60008251613d2b8184602087016134e1565b919091019291505056fea2646970667358221220814e0fc05d64481cdaf687a81d053b169ff61457b4a267161d9f5bab262bf95364736f6c63430008200033",
  "linkReferences": {},
  "deployedLinkReferences": {}
}