{
  "_format": "hh-sol-artifact-1",
  "contractName": "AgreementFactory",
  "sourceName": "contracts/agreements/AgreementFactory.sol",
  "abi": [
    {
      "inputs": [],
      "stateMutability": "nonpayable",
      "type": "constructor"
    },
    {
      "inputs": [],
      "name": "AccessDenied",
      "type": "error"
    },
    {
      "inputs": [
        {
          "internalType": "address",
          "name": "target",
          "type": "address"
        }
      ],
      "name": "AddressEmptyCode",
      "type": "error"
    },
    {
      "inputs": [
        {
          "internalType": "address",
          "name": "implementation",
          "type": "address"
        }
      ],
      "name": "ERC1967InvalidImplementation",
      "type": "error"
    },
    {
      "inputs": [],
      "name": "ERC1967NonPayable",
      "type": "error"
    },
    {
      "inputs": [],
      "name": "FailedCall",
      "type": "error"
    },
    {
      "inputs": [],
      "name": "FeeCollectionFailed",
      "type": "error"
    },
    {
      "inputs": [
        {
          "internalType": "uint256",
          "name": "expected",
          "type": "uint256"
        },
        {
          "internalType": "uint256",
          "name": "actual",
          "type": "uint256"
        }
      ],
      "name": "IncorrectCreationFee",
      "type": "error"
    },
    {
      "inputs": [],
      "name": "InvalidInitialization",
      "type": "error"
    },
    {
      "inputs": [
        {
          "internalType": "bytes4",
          "name": "expectedInterfaceId",
          "type": "bytes4"
        },
        {
          "internalType": "address",
          "name": "contractAddress",
          "type": "address"
        }
      ],
      "name": "InvalidInterface",
      "type": "error"
    },
    {
      "inputs": [],
      "name": "NoCodeAddress",
      "type": "error"
    },
    {
      "inputs": [],
      "name": "NotInitializing",
      "type": "error"
    },
    {
      "inputs": [
        {
          "internalType": "address",
          "name": "owner",
          "type": "address"
        }
      ],
      "name": "OwnableInvalidOwner",
      "type": "error"
    },
    {
      "inputs": [
        {
          "internalType": "address",
          "name": "account",
          "type": "address"
        }
      ],
      "name": "OwnableUnauthorizedAccount",
      "type": "error"
    },
    {
      "inputs": [],
      "name": "ReentrancyGuardReentrantCall",
      "type": "error"
    },
    {
      "inputs": [],
      "name": "UUPSUnauthorizedCallContext",
      "type": "error"
    },
    {
      "inputs": [
        {
          "internalType": "bytes32",
          "name": "slot",
          "type": "bytes32"
        }
      ],
      "name": "UUPSUnsupportedProxiableUUID",
      "type": "error"
    },
    {
      "inputs": [],
      "name": "ZeroAddressNotAllowed",
      "type": "error"
    },
    {
      "anonymous": false,
      "inputs": [
        {
          "indexed": false,
          "internalType": "address",
          "name": "agreementAddress",
          "type": "address"
        },
        {
          "indexed": false,
          "internalType": "enum AgreementFactory.TokenStandard",
          "name": "tokenStandard",
          "type": "uint8"
        },
        {
          "indexed": false,
          "internalType": "string",
          "name": "rwaId",
          "type": "string"
        }
      ],
      "name": "AgreementCreated",
      "type": "event"
    },
    {
      "anonymous": false,
      "inputs": [
        {
          "indexed": false,
          "internalType": "address",
          "name": "agreementImplementation",
          "type": "address"
        },
        {
          "indexed": false,
          "internalType": "enum AgreementFactory.TokenStandard",
          "name": "tokenStandard",
          "type": "uint8"
        }
      ],
      "name": "AgreementImplementationChanged",
      "type": "event"
    },
    {
      "anonymous": false,
      "inputs": [
        {
          "indexed": false,
          "internalType": "uint256",
          "name": "amount",
          "type": "uint256"
        },
        {
          "indexed": false,
          "internalType": "address",
          "name": "currency",
          "type": "address"
        }
      ],
      "name": "FeeCollected",
      "type": "event"
    },
    {
      "anonymous": false,
      "inputs": [
        {
          "indexed": false,
          "internalType": "uint64",
          "name": "version",
          "type": "uint64"
        }
      ],
      "name": "Initialized",
      "type": "event"
    },
    {
      "anonymous": false,
      "inputs": [
        {
          "indexed": true,
          "internalType": "address",
          "name": "previousOwner",
          "type": "address"
        },
        {
          "indexed": true,
          "internalType": "address",
          "name": "newOwner",
          "type": "address"
        }
      ],
      "name": "OwnershipTransferred",
      "type": "event"
    },
    {
      "anonymous": false,
      "inputs": [
        {
          "indexed": true,
          "internalType": "address",
          "name": "implementation",
          "type": "address"
        }
      ],
      "name": "Upgraded",
      "type": "event"
    },
    {
      "inputs": [],
      "name": "UPGRADE_INTERFACE_VERSION",
      "outputs": [
        {
          "internalType": "string",
          "name": "",
          "type": "string"
        }
      ],
      "stateMutability": "view",
      "type": "function"
    },
    {
      "inputs": [],
      "name": "collectFee",
      "outputs": [],
      "stateMutability": "nonpayable",
      "type": "function"
    },
    {
      "inputs": [
        {
          "components": [
            {
              "internalType": "string",
              "name": "tokenUri",
              "type": "string"
            },
            {
              "internalType": "string",
              "name": "contractURI",
              "type": "string"
            },
            {
              "components": [
                {
                  "internalType": "address",
                  "name": "account",
                  "type": "address"
                },
                {
                  "internalType": "bool",
                  "name": "isAdmin",
                  "type": "bool"
                },
                {
                  "internalType": "uint256",
                  "name": "balance",
                  "type": "uint256"
                }
              ],
              "internalType": "struct IAgreement.Holder[]",
              "name": "holders",
              "type": "tuple[]"
            },
            {
              "internalType": "string",
              "name": "unassignedRwaId",
              "type": "string"
            }
          ],
          "internalType": "struct IAgreementERC1155.CreateERC1155Params[]",
          "name": "input",
          "type": "tuple[]"
        }
      ],
      "name": "createBatchERC1155",
      "outputs": [],
      "stateMutability": "payable",
      "type": "function"
    },
    {
      "inputs": [
        {
          "components": [
            {
              "components": [
                {
                  "internalType": "address",
                  "name": "account",
                  "type": "address"
                },
                {
                  "internalType": "bool",
                  "name": "isAdmin",
                  "type": "bool"
                },
                {
                  "internalType": "uint256",
                  "name": "balance",
                  "type": "uint256"
                }
              ],
              "internalType": "struct IAgreement.Holder[]",
              "name": "holders",
              "type": "tuple[]"
            },
            {
              "internalType": "string",
              "name": "unassignedRwaId",
              "type": "string"
            }
          ],
          "internalType": "struct IAgreementERC20.CreateERC20Params[]",
          "name": "input",
          "type": "tuple[]"
        }
      ],
      "name": "createBatchERC20",
      "outputs": [],
      "stateMutability": "payable",
      "type": "function"
    },
    {
      "inputs": [
        {
          "components": [
            {
              "internalType": "string",
              "name": "tokenUri",
              "type": "string"
            },
            {
              "internalType": "string",
              "name": "contractURI",
              "type": "string"
            },
            {
              "components": [
                {
                  "internalType": "address",
                  "name": "account",
                  "type": "address"
                },
                {
                  "internalType": "bool",
                  "name": "isAdmin",
                  "type": "bool"
                },
                {
                  "internalType": "uint256",
                  "name": "balance",
                  "type": "uint256"
                }
              ],
              "internalType": "struct IAgreement.Holder[]",
              "name": "holders",
              "type": "tuple[]"
            },
            {
              "internalType": "string",
              "name": "unassignedRwaId",
              "type": "string"
            }
          ],
          "internalType": "struct IAgreementERC1155.CreateERC1155Params",
          "name": "params",
          "type": "tuple"
        }
      ],
      "name": "createERC1155",
      "outputs": [],
      "stateMutability": "payable",
      "type": "function"
    },
    {
      "inputs": [
        {
          "components": [
            {
              "components": [
                {
                  "internalType": "address",
                  "name": "account",
                  "type": "address"
                },
                {
                  "internalType": "bool",
                  "name": "isAdmin",
                  "type": "bool"
                },
                {
                  "internalType": "uint256",
                  "name": "balance",
                  "type": "uint256"
                }
              ],
              "internalType": "struct IAgreement.Holder[]",
              "name": "holders",
              "type": "tuple[]"
            },
            {
              "internalType": "string",
              "name": "unassignedRwaId",
              "type": "string"
            }
          ],
          "internalType": "struct IAgreementERC20.CreateERC20Params",
          "name": "params",
          "type": "tuple"
        }
      ],
      "name": "createERC20",
      "outputs": [],
      "stateMutability": "payable",
      "type": "function"
    },
    {
      "inputs": [
        {
          "internalType": "address",
          "name": "",
          "type": "address"
        }
      ],
      "name": "createdAgreements",
      "outputs": [
        {
          "internalType": "bool",
          "name": "",
          "type": "bool"
        }
      ],
      "stateMutability": "view",
      "type": "function"
    },
    {
      "inputs": [],
      "name": "getAgreementImplementations",
      "outputs": [
        {
          "internalType": "address",
          "name": "agreementERC20",
          "type": "address"
        },
        {
          "internalType": "address",
          "name": "agreementERC1155",
          "type": "address"
        }
      ],
      "stateMutability": "view",
      "type": "function"
    },
    {
      "inputs": [
        {
          "internalType": "address",
          "name": "_agreementERC20Implementation",
          "type": "address"
        },
        {
          "internalType": "address",
          "name": "_agreementERC1155Implementation",
          "type": "address"
        },
        {
          "internalType": "address",
          "name": "_feeManager",
          "type": "address"
        },
        {
          "internalType": "address",
          "name": "_agreementRelationsRegistry",
          "type": "address"
        },
        {
          "internalType": "address",
          "name": "_currencyManager",
          "type": "address"
        },
        {
          "internalType": "address",
          "name": "_fallbackVault",
          "type": "address"
        },
        {
          "internalType": "address",
          "name": "_namespaceRegistry",
          "type": "address"
        }
      ],
      "name": "initialize",
      "outputs": [],
      "stateMutability": "nonpayable",
      "type": "function"
    },
    {
      "inputs": [],
      "name": "owner",
      "outputs": [
        {
          "internalType": "address",
          "name": "",
          "type": "address"
        }
      ],
      "stateMutability": "view",
      "type": "function"
    },
    {
      "inputs": [],
      "name": "proxiableUUID",
      "outputs": [
        {
          "internalType": "bytes32",
          "name": "",
          "type": "bytes32"
        }
      ],
      "stateMutability": "view",
      "type": "function"
    },
    {
      "inputs": [],
      "name": "renounceOwnership",
      "outputs": [],
      "stateMutability": "nonpayable",
      "type": "function"
    },
    {
      "inputs": [
        {
          "internalType": "address",
          "name": "newImplementation",
          "type": "address"
        },
        {
          "internalType": "enum AgreementFactory.TokenStandard",
          "name": "tokenStandard",
          "type": "uint8"
        }
      ],
      "name": "setAgreementImplementation",
      "outputs": [],
      "stateMutability": "nonpayable",
      "type": "function"
    },
    {
      "inputs": [
        {
          "internalType": "address",
          "name": "newAddress",
          "type": "address"
        }
      ],
      "name": "setNamespaceRegistryAddress",
      "outputs": [],
      "stateMutability": "nonpayable",
      "type": "function"
    },
    {
      "inputs": [
        {
          "internalType": "bytes4",
          "name": "interfaceId",
          "type": "bytes4"
        }
      ],
      "name": "supportsInterface",
      "outputs": [
        {
          "internalType": "bool",
          "name": "",
          "type": "bool"
        }
      ],
      "stateMutability": "view",
      "type": "function"
    },
    {
      "inputs": [
        {
          "internalType": "address",
          "name": "newOwner",
          "type": "address"
        }
      ],
      "name": "transferOwnership",
      "outputs": [],
      "stateMutability": "nonpayable",
      "type": "function"
    },
    {
      "inputs": [
        {
          "internalType": "address",
          "name": "newImplementation",
          "type": "address"
        },
        {
          "internalType": "bytes",
          "name": "data",
          "type": "bytes"
        }
      ],
      "name": "upgradeToAndCall",
      "outputs": [],
      "stateMutability": "payable",
      "type": "function"
    }
  ],
  "bytecode": "0x60a06040523060805234801561001457600080fd5b5061001d610022565b6100d4565b7ff0c57e16840df040f15088dc2f81fe391c3923bec73e23a9662efc9c229c6a00805468010000000000000000900460ff16156100725760405163f92ee8a960e01b815260040160405180910390fd5b80546001600160401b03908116146100d15780546001600160401b0319166001600160401b0390811782556040519081527fc7f505b2f371ae2175ee4913f4499e1f2633a7b5936321eed1cdaeb6115181d29060200160405180910390a15b50565b6080516129fa6100fd60003960008181610e1101528181610e3a0152610fef01526129fa6000f3fe60806040526004361061010e5760003560e01c806374672059116100a5578063c0d7adb111610074578063d4d5d32a11610059578063d4d5d32a1461032e578063f0b08c5614610343578063f2fde38b1461035657600080fd5b8063c0d7adb1146102fb578063ccbc3a6a1461031b57600080fd5b8063746720591461022b5780638da5cb5b1461023e578063ad3cb1cc14610285578063b879be39146102db57600080fd5b80634f1ef286116100e15780634f1ef286146101cd57806352d1902d146101e0578063557a56d314610203578063715018a61461021657600080fd5b806301ffc9a7146101135780632bf6ab9514610148578063340b727c1461017b57806335876476146101ab575b600080fd5b34801561011f57600080fd5b5061013361012e366004611d13565b610376565b60405190151581526020015b60405180910390f35b34801561015457600080fd5b50600354600454604080516001600160a01b0393841681529290911660208301520161013f565b34801561018757600080fd5b50610133610196366004611d59565b60076020526000908152604090205460ff1681565b3480156101b757600080fd5b506101cb6101c6366004611d74565b6103c6565b005b6101cb6101db366004611e69565b61066f565b3480156101ec57600080fd5b506101f561068e565b60405190815260200161013f565b6101cb610211366004611efa565b6106bd565b34801561022257600080fd5b506101cb6107a3565b6101cb610239366004611f35565b6107b7565b34801561024a57600080fd5b507f9016d09d72d40fdae2fd8ceac6b6234c7706214fd39c1cd1e609a0528c199300546040516001600160a01b03909116815260200161013f565b34801561029157600080fd5b506102ce6040518060400160405280600581526020017f352e302e3000000000000000000000000000000000000000000000000000000081525081565b60405161013f9190611fc0565b3480156102e757600080fd5b506101cb6102f6366004611d59565b61086b565b34801561030757600080fd5b506101cb610316366004611fd3565b6108a2565b6101cb61032936600461205a565b6109da565b34801561033a57600080fd5b506101cb610b03565b6101cb61035136600461205a565b610c1c565b34801561036257600080fd5b506101cb610371366004611d59565b610cf7565b60006001600160e01b031982167f340b727c0000000000000000000000000000000000000000000000000000000014806103c057506301ffc9a760e01b6001600160e01b03198316145b92915050565b60006103d0610d4b565b805490915060ff68010000000000000000820416159067ffffffffffffffff166000811580156103fd5750825b905060008267ffffffffffffffff16600114801561041a5750303b155b905081158015610428575080155b1561045f576040517ff92ee8a900000000000000000000000000000000000000000000000000000000815260040160405180910390fd5b84547fffffffffffffffffffffffffffffffffffffffffffffffff000000000000000016600117855583156104aa57845468ff00000000000000001916680100000000000000001785555b6104b333610d74565b6104bb610d85565b6104c3610d8d565b6104cb610d85565b6104f57fcbb37776000000000000000000000000000000000000000000000000000000008b610d9d565b61051f7f7c13bc65000000000000000000000000000000000000000000000000000000008a610d9d565b6105497fd59253710000000000000000000000000000000000000000000000000000000089610d9d565b6105737f5cd9ce950000000000000000000000000000000000000000000000000000000088610d9d565b61059d7fb66d76570000000000000000000000000000000000000000000000000000000087610d9d565b6105a88c60006108a2565b6105b38b60016108a2565b6000805473ffffffffffffffffffffffffffffffffffffffff199081166001600160a01b038d8116919091179092556002805482168c84161790556001805482168b84161790556005805482168a841617905560068054909116918816919091179055831561066157845468ff000000000000000019168555604051600181527fc7f505b2f371ae2175ee4913f4499e1f2633a7b5936321eed1cdaeb6115181d29060200160405180910390a15b505050505050505050505050565b610677610e06565b61068082610ed6565b61068a8282610ede565b5050565b6000610698610fe4565b507f360894a13ba1a3210667c828492db98dca3e2076cc3735a920a3ca505d382bbc90565b6106c5611046565b60008060009054906101000a90046001600160a01b03166001600160a01b031663dce0b4e46040518163ffffffff1660e01b8152600401602060405180830381865afa158015610719573d6000803e3d6000fd5b505050506040513d601f19601f8201168201806040525081019061073d919061209c565b905080341461076d57604051637bd9f48360e11b8152600481018290523460248201526044015b60405180910390fd5b610776826110c7565b506107a060017f9b779b17422d0df92223018b32b4d1fa46e071723d6817e2486d003becc55f0055565b50565b6107ab61149a565b6107b5600061150e565b565b6107bf611046565b60008060009054906101000a90046001600160a01b03166001600160a01b031663dce0b4e46040518163ffffffff1660e01b8152600401602060405180830381865afa158015610813573d6000803e3d6000fd5b505050506040513d601f19601f82011682018060405250810190610837919061209c565b905080341461086257604051637bd9f48360e11b815260048101829052346024820152604401610764565b6107768261158c565b61087361149a565b6006805473ffffffffffffffffffffffffffffffffffffffff19166001600160a01b0392909216919091179055565b6108aa61149a565b6001600160a01b0382166108ea576040517f8579befe00000000000000000000000000000000000000000000000000000000815260040160405180910390fd5b816001600160a01b03163b60000361092e576040517f73a0b38000000000000000000000000000000000000000000000000000000000815260040160405180910390fd5b6000816001811115610942576109426120b5565b03610974576003805473ffffffffffffffffffffffffffffffffffffffff19166001600160a01b03841617905561099d565b6004805473ffffffffffffffffffffffffffffffffffffffff19166001600160a01b0384161790555b7f6fef1fe71df3441d63cbc80ee1e09076c7be51207a97f96af3a9a1782bed84e882826040516109ce9291906120ed565b60405180910390a15050565b6109e2611046565b60008060009054906101000a90046001600160a01b03166001600160a01b031663dce0b4e46040518163ffffffff1660e01b8152600401602060405180830381865afa158015610a36573d6000803e3d6000fd5b505050506040513d601f19601f82011682018060405250810190610a5a919061209c565b9050610a66828261210a565b3414610a9957610a76828261210a565b604051637bd9f48360e11b81526004810191909152346024820152604401610764565b60005b82811015610ad857610ad0848483818110610ab957610ab961212f565b9050602002810190610acb9190612145565b61158c565b600101610a9c565b505061068a60017f9b779b17422d0df92223018b32b4d1fa46e071723d6817e2486d003becc55f0055565b6000546001600160a01b03163314610b47576040517f4ca8886700000000000000000000000000000000000000000000000000000000815260040160405180910390fd5b600080546040516001600160a01b03909116914791839083908381818185875af1925050503d8060008114610b98576040519150601f19603f3d011682016040523d82523d6000602084013e610b9d565b606091505b5090915050801515600003610bde576040517f010f71e700000000000000000000000000000000000000000000000000000000815260040160405180910390fd5b60408051838152600060208201527ff10cda68996dfb656d49ab0db3c62cc5f0849710633671a337171c3ad9255186910160405180910390a1505050565b610c24611046565b60008060009054906101000a90046001600160a01b03166001600160a01b031663dce0b4e46040518163ffffffff1660e01b8152600401602060405180830381865afa158015610c78573d6000803e3d6000fd5b505050506040513d601f19601f82011682018060405250810190610c9c919061209c565b9050610ca8828261210a565b3414610cb857610a76828261210a565b60005b82811015610ad857610cef848483818110610cd857610cd861212f565b9050602002810190610cea9190612183565b6110c7565b600101610cbb565b610cff61149a565b6001600160a01b038116610d42576040517f1e4fbdf700000000000000000000000000000000000000000000000000000000815260006004820152602401610764565b6107a08161150e565b6000807ff0c57e16840df040f15088dc2f81fe391c3923bec73e23a9662efc9c229c6a006103c0565b610d7c61188b565b6107a0816118c9565b6107b561188b565b610d9561188b565b6107b56118d1565b610db06001600160a01b038216836118d9565b151560000361068a576040517f577b17c70000000000000000000000000000000000000000000000000000000081526001600160e01b0319831660048201526001600160a01b0382166024820152604401610764565b306001600160a01b037f0000000000000000000000000000000000000000000000000000000000000000161480610e9f57507f00000000000000000000000000000000000000000000000000000000000000006001600160a01b0316610e937f360894a13ba1a3210667c828492db98dca3e2076cc3735a920a3ca505d382bbc546001600160a01b031690565b6001600160a01b031614155b156107b5576040517fe07c8dba00000000000000000000000000000000000000000000000000000000815260040160405180910390fd5b6107a061149a565b816001600160a01b03166352d1902d6040518163ffffffff1660e01b8152600401602060405180830381865afa925050508015610f38575060408051601f3d908101601f19168201909252610f359181019061209c565b60015b610f79576040517f4c9c8ce30000000000000000000000000000000000000000000000000000000081526001600160a01b0383166004820152602401610764565b7f360894a13ba1a3210667c828492db98dca3e2076cc3735a920a3ca505d382bbc8114610fd5576040517faa1d49a400000000000000000000000000000000000000000000000000000000815260048101829052602401610764565b610fdf83836118fc565b505050565b306001600160a01b037f000000000000000000000000000000000000000000000000000000000000000016146107b5576040517fe07c8dba00000000000000000000000000000000000000000000000000000000815260040160405180910390fd5b7f9b779b17422d0df92223018b32b4d1fa46e071723d6817e2486d003becc55f0080547ffffffffffffffffffffffffffffffffffffffffffffffffffffffffffffffffe016110c1576040517f3ee5aeb500000000000000000000000000000000000000000000000000000000815260040160405180910390fd5b60029055565b60006110de6110d960608401846121b7565b611952565b604080516101208101909152909150600090806110fb85806121b7565b8080601f016020809104026020016040519081016040528093929190818152602001838380828437600092019190915250505090825250602090810190611144908601866121b7565b8080601f01602080910402602001604051908101604052809392919081815260200183838082843760009201919091525050509082525060200161118b60408601866121fe565b808060200260200160405190810160405280939291908181526020016000905b828210156111d7576111c860608302860136819003810190612247565b815260200190600101906111ab565b50505091835250506001546001600160a01b039081166020830152600080548216604080850191909152600254831660608501526005548316608085015260065490921660a084015260c090920185905251919250907fdbd93161000000000000000000000000000000000000000000000000000000009061125d90849060240161231a565b60408051601f198184030181529181526020820180517bffffffffffffffffffffffffffffffffffffffffffffffffffffffff166001600160e01b03199094169390931790925260045491519092506000916001600160a01b03169083906112c490611d06565b6112cf929190612403565b604051809103906000f0801580156112eb573d6000803e3d6000fd5b506001600160a01b0381166000908152600760205260408120805460ff191660011790559091505b61132060408701876121fe565b9050811015611430576007600061133a60408901896121fe565b8481811061134a5761134a61212f565b6113609260206060909202019081019150611d59565b6001600160a01b0316815260208101919091526040016000205460ff1615611428576002546001600160a01b031663900ac601836113a160408a018a6121fe565b858181106113b1576113b161212f565b6113c79260206060909202019081019150611d59565b6040516001600160e01b031960e085901b1681526001600160a01b03928316600482015291166024820152604401600060405180830381600087803b15801561140f57600080fd5b505af1158015611423573d6000803e3d6000fd5b505050505b600101611313565b507fcdf41542c45a29fbbff172a79ed91e8198d3c4327106b1aae8baccbabfe7bff2816001866040516114659392919061242d565b60405180910390a15050505050565b60017f9b779b17422d0df92223018b32b4d1fa46e071723d6817e2486d003becc55f0055565b336114cc7f9016d09d72d40fdae2fd8ceac6b6234c7706214fd39c1cd1e609a0528c199300546001600160a01b031690565b6001600160a01b0316146107b5576040517f118cdaa7000000000000000000000000000000000000000000000000000000008152336004820152602401610764565b7f9016d09d72d40fdae2fd8ceac6b6234c7706214fd39c1cd1e609a0528c199300805473ffffffffffffffffffffffffffffffffffffffff1981166001600160a01b03848116918217845560405192169182907f8be0079c531659141344cd1fd0a4f28419497f9722a3daafe3b4186f6b6457e090600090a3505050565b600061159e6110d960208401846121b7565b6040805160e08101909152909150600090806115ba85806121fe565b808060200260200160405190810160405280939291908181526020016000905b82821015611606576115f760608302860136819003810190612247565b815260200190600101906115da565b50505091835250506001546001600160a01b039081166020830152600080548216604080850191909152600254831660608501526005548316608085015260065490921660a084015260c090920185905251919250907f98ce7164000000000000000000000000000000000000000000000000000000009061168c90849060240161245c565b60408051601f198184030181529181526020820180517bffffffffffffffffffffffffffffffffffffffffffffffffffffffff166001600160e01b03199094169390931790925260035491519092506000916001600160a01b03169083906116f390611d06565b6116fe929190612403565b604051809103906000f08015801561171a573d6000803e3d6000fd5b506001600160a01b0381166000908152600760205260408120805460ff191660011790559091505b61174c86806121fe565b9050811015611856576007600061176388806121fe565b848181106117735761177361212f565b6117899260206060909202019081019150611d59565b6001600160a01b0316815260208101919091526040016000205460ff161561184e576002546001600160a01b031663900ac601836117c789806121fe565b858181106117d7576117d761212f565b6117ed9260206060909202019081019150611d59565b6040516001600160e01b031960e085901b1681526001600160a01b03928316600482015291166024820152604401600060405180830381600087803b15801561183557600080fd5b505af1158015611849573d6000803e3d6000fd5b505050505b600101611742565b507fcdf41542c45a29fbbff172a79ed91e8198d3c4327106b1aae8baccbabfe7bff2816000866040516114659392919061242d565b611893611a13565b6107b5576040517fd7e6bcf800000000000000000000000000000000000000000000000000000000815260040160405180910390fd5b610cff61188b565b61147461188b565b60006118e483611a32565b80156118f557506118f58383611a65565b9392505050565b61190582611b04565b6040516001600160a01b038316907fbc7cd75a20ee27fd9adebab32041f755214dbc6bffa90cc0225b39da2e5c2d3b90600090a280511561194a57610fdf8282611ba1565b61068a611c17565b6006546040517fb66d76570000000000000000000000000000000000000000000000000000000081523360048201526060916000916001600160a01b039091169063b66d765790602401600060405180830381865afa1580156119b9573d6000803e3d6000fd5b505050506040513d6000823e601f3d908101601f191682016040526119e191908101906124ff565b905060008185856040516020016119fa9392919061256d565b60408051808303601f1901815291905295945050505050565b6000611a1d610d4b565b5468010000000000000000900460ff16919050565b6000611a45826301ffc9a760e01b611a65565b80156103c05750611a5e826001600160e01b0319611a65565b1592915050565b6040516001600160e01b031982166024820152600090819060440160408051601f19818403018152919052602080820180517bffffffffffffffffffffffffffffffffffffffffffffffffffffffff166301ffc9a760e01b178152825192935060009283928392909183918a617530fa92503d91506000519050828015611aed575060208210155b8015611af95750600081115b979650505050505050565b806001600160a01b03163b600003611b53576040517f4c9c8ce30000000000000000000000000000000000000000000000000000000081526001600160a01b0382166004820152602401610764565b7f360894a13ba1a3210667c828492db98dca3e2076cc3735a920a3ca505d382bbc805473ffffffffffffffffffffffffffffffffffffffff19166001600160a01b0392909216919091179055565b6060600080846001600160a01b031684604051611bbe9190612595565b600060405180830381855af49150503d8060008114611bf9576040519150601f19603f3d011682016040523d82523d6000602084013e611bfe565b606091505b5091509150611c0e858383611c4f565b95945050505050565b34156107b5576040517fb398979f00000000000000000000000000000000000000000000000000000000815260040160405180910390fd5b606082611c6457611c5f82611cc4565b6118f5565b8151158015611c7b57506001600160a01b0384163b155b15611cbd576040517f9996b3150000000000000000000000000000000000000000000000000000000081526001600160a01b0385166004820152602401610764565b5092915050565b805115611cd45780518082602001fd5b6040517fd6bda27500000000000000000000000000000000000000000000000000000000815260040160405180910390fd5b61041d806125a883390190565b600060208284031215611d2557600080fd5b81356001600160e01b0319811681146118f557600080fd5b80356001600160a01b0381168114611d5457600080fd5b919050565b600060208284031215611d6b57600080fd5b6118f582611d3d565b600080600080600080600060e0888a031215611d8f57600080fd5b611d9888611d3d565b9650611da660208901611d3d565b9550611db460408901611d3d565b9450611dc260608901611d3d565b9350611dd060808901611d3d565b9250611dde60a08901611d3d565b9150611dec60c08901611d3d565b905092959891949750929550565b634e487b7160e01b600052604160045260246000fd5b604051601f8201601f1916810167ffffffffffffffff81118282101715611e3957611e39611dfa565b604052919050565b600067ffffffffffffffff821115611e5b57611e5b611dfa565b50601f01601f191660200190565b60008060408385031215611e7c57600080fd5b611e8583611d3d565b9150602083013567ffffffffffffffff811115611ea157600080fd5b8301601f81018513611eb257600080fd5b8035611ec5611ec082611e41565b611e10565b818152866020838501011115611eda57600080fd5b816020840160208301376000602083830101528093505050509250929050565b600060208284031215611f0c57600080fd5b813567ffffffffffffffff811115611f2357600080fd5b8201608081850312156118f557600080fd5b600060208284031215611f4757600080fd5b813567ffffffffffffffff811115611f5e57600080fd5b8201604081850312156118f557600080fd5b60005b83811015611f8b578181015183820152602001611f73565b50506000910152565b60008151808452611fac816020860160208601611f70565b601f01601f19169290920160200192915050565b6020815260006118f56020830184611f94565b60008060408385031215611fe657600080fd5b611fef83611d3d565b915060208301356002811061200357600080fd5b809150509250929050565b60008083601f84011261202057600080fd5b50813567ffffffffffffffff81111561203857600080fd5b6020830191508360208260051b850101111561205357600080fd5b9250929050565b6000806020838503121561206d57600080fd5b823567ffffffffffffffff81111561208457600080fd5b6120908582860161200e565b90969095509350505050565b6000602082840312156120ae57600080fd5b5051919050565b634e487b7160e01b600052602160045260246000fd5b600281106120e957634e487b7160e01b600052602160045260246000fd5b9052565b6001600160a01b0383168152604081016118f560208301846120cb565b80820281158282048414176103c057634e487b7160e01b600052601160045260246000fd5b634e487b7160e01b600052603260045260246000fd5b600082357fffffffffffffffffffffffffffffffffffffffffffffffffffffffffffffffc183360301811261217957600080fd5b9190910192915050565b600082357fffffffffffffffffffffffffffffffffffffffffffffffffffffffffffffff8183360301811261217957600080fd5b6000808335601e198436030181126121ce57600080fd5b83018035915067ffffffffffffffff8211156121e957600080fd5b60200191503681900382131561205357600080fd5b6000808335601e1984360301811261221557600080fd5b83018035915067ffffffffffffffff82111561223057600080fd5b602001915060608102360382131561205357600080fd5b6000606082840312801561225a57600080fd5b506040516060810167ffffffffffffffff8111828210171561227e5761227e611dfa565b60405261228a83611d3d565b81526020830135801515811461229f57600080fd5b60208201526040928301359281019290925250919050565b600081518084526020840193506020830160005b828110156123105781516001600160a01b03815116875260208101511515602088015260408101516040880152506060860195506020820191506001810190506122cb565b5093949350505050565b60208152600082516101206020840152612338610140840182611f94565b90506020840151601f198483030160408501526123558282611f94565b9150506040840151601f1984830301606085015261237382826122b7565b915050606084015161239060808501826001600160a01b03169052565b5060808401516001600160a01b03811660a08501525060a08401516001600160a01b03811660c08501525060c08401516001600160a01b03811660e08501525060e08401516001600160a01b03811661010085015250610100840151601f1984830301610120850152611c0e8282611f94565b6001600160a01b03831681526040602082015260006124256040830184611f94565b949350505050565b6001600160a01b038416815261244660208201846120cb565b606060408201526000611c0e6060830184611f94565b602081526000825160e060208401526124796101008401826122b7565b90506001600160a01b0360208501511660408401526001600160a01b0360408501511660608401526001600160a01b03606085015116608084015260808401516124ce60a08501826001600160a01b03169052565b5060a08401516001600160a01b03811660c08501525060c0840151601f198483030160e0850152611c0e8282611f94565b60006020828403121561251157600080fd5b815167ffffffffffffffff81111561252857600080fd5b8201601f8101841361253957600080fd5b8051612547611ec082611e41565b81815285602083850101111561255c57600080fd5b611c0e826020830160208601611f70565b6000845161257f818460208901611f70565b8201838582376000930192835250909392505050565b60008251612179818460208701611f7056fe608060405260405161041d38038061041d83398101604081905261002291610268565b61002c8282610033565b5050610358565b61003c82610092565b6040516001600160a01b038316907fbc7cd75a20ee27fd9adebab32041f755214dbc6bffa90cc0225b39da2e5c2d3b90600090a280511561008657610081828261010e565b505050565b61008e610185565b5050565b806001600160a01b03163b6000036100cd57604051634c9c8ce360e01b81526001600160a01b03821660048201526024015b60405180910390fd5b7f360894a13ba1a3210667c828492db98dca3e2076cc3735a920a3ca505d382bbc80546001600160a01b0319166001600160a01b0392909216919091179055565b6060600080846001600160a01b03168460405161012b919061033c565b600060405180830381855af49150503d8060008114610166576040519150601f19603f3d011682016040523d82523d6000602084013e61016b565b606091505b50909250905061017c8583836101a6565b95945050505050565b34156101a45760405163b398979f60e01b815260040160405180910390fd5b565b6060826101bb576101b682610205565b6101fe565b81511580156101d257506001600160a01b0384163b155b156101fb57604051639996b31560e01b81526001600160a01b03851660048201526024016100c4565b50805b9392505050565b8051156102155780518082602001fd5b60405163d6bda27560e01b815260040160405180910390fd5b634e487b7160e01b600052604160045260246000fd5b60005b8381101561025f578181015183820152602001610247565b50506000910152565b6000806040838503121561027b57600080fd5b82516001600160a01b038116811461029257600080fd5b60208401519092506001600160401b038111156102ae57600080fd5b8301601f810185136102bf57600080fd5b80516001600160401b038111156102d8576102d861022e565b604051601f8201601f19908116603f011681016001600160401b03811182821017156103065761030661022e565b60405281815282820160200187101561031e57600080fd5b61032f826020830160208601610244565b8093505050509250929050565b6000825161034e818460208701610244565b9190910192915050565b60b7806103666000396000f3fe6080604052600a600c565b005b60186014601a565b605e565b565b600060597f360894a13ba1a3210667c828492db98dca3e2076cc3735a920a3ca505d382bbc5473ffffffffffffffffffffffffffffffffffffffff1690565b905090565b3660008037600080366000845af43d6000803e808015607c573d6000f35b3d6000fdfea2646970667358221220a5a35b923a4f38200aa56e8ee487f26f1877e7794b184a447c09c18939dc91f564736f6c63430008200033a26469706673582212202e33e3fbbbbeeedc0131c84f66544b43a987188ed98cb819c1c4c31a792fcba364736f6c63430008200033",
  "linkReferences": {},
  "deployedLinkReferences": {}
}