{
  "_format": "hh-sol-artifact-1",
  "contractName": "CurrencyManager",
  "sourceName": "contracts/CurrencyManager.sol",
  "abi": [
    {
      "inputs": [],
      "stateMutability": "nonpayable",
      "type": "constructor"
    },
    {
      "inputs": [
        {
          "internalType": "address",
          "name": "target",
          "type": "address"
        }
      ],
      "name": "AddressEmptyCode",
      "type": "error"
    },
    {
      "inputs": [],
      "name": "AlreadyListed",
      "type": "error"
    },
    {
      "inputs": [
        {
          "internalType": "address",
          "name": "implementation",
          "type": "address"
        }
      ],
      "name": "ERC1967InvalidImplementation",
      "type": "error"
    },
    {
      "inputs": [],
      "name": "ERC1967NonPayable",
      "type": "error"
    },
    {
      "inputs": [],
      "name": "FailedCall",
      "type": "error"
    },
    {
      "inputs": [],
      "name": "InvalidInitialization",
      "type": "error"
    },
    {
      "inputs": [],
      "name": "MaxCurrenciesExceeded",
      "type": "error"
    },
    {
      "inputs": [],
      "name": "NotInitializing",
      "type": "error"
    },
    {
      "inputs": [],
      "name": "NotListed",
      "type": "error"
    },
    {
      "inputs": [
        {
          "internalType": "address",
          "name": "owner",
          "type": "address"
        }
      ],
      "name": "OwnableInvalidOwner",
      "type": "error"
    },
    {
      "inputs": [
        {
          "internalType": "address",
          "name": "account",
          "type": "address"
        }
      ],
      "name": "OwnableUnauthorizedAccount",
      "type": "error"
    },
    {
      "inputs": [],
      "name": "UUPSUnauthorizedCallContext",
      "type": "error"
    },
    {
      "inputs": [
        {
          "internalType": "bytes32",
          "name": "slot",
          "type": "bytes32"
        }
      ],
      "name": "UUPSUnsupportedProxiableUUID",
      "type": "error"
    },
    {
      "anonymous": false,
      "inputs": [
        {
          "indexed": false,
          "internalType": "address",
          "name": "currencyAddress",
          "type": "address"
        },
        {
          "indexed": false,
          "internalType": "string",
          "name": "symbol",
          "type": "string"
        },
        {
          "indexed": false,
          "internalType": "string",
          "name": "name",
          "type": "string"
        },
        {
          "indexed": false,
          "internalType": "uint8",
          "name": "decimals",
          "type": "uint8"
        }
      ],
      "name": "CurrencyAdded",
      "type": "event"
    },
    {
      "anonymous": false,
      "inputs": [
        {
          "indexed": false,
          "internalType": "address",
          "name": "currencyAddress",
          "type": "address"
        }
      ],
      "name": "CurrencyRemoved",
      "type": "event"
    },
    {
      "anonymous": false,
      "inputs": [
        {
          "indexed": false,
          "internalType": "uint64",
          "name": "version",
          "type": "uint64"
        }
      ],
      "name": "Initialized",
      "type": "event"
    },
    {
      "anonymous": false,
      "inputs": [
        {
          "indexed": true,
          "internalType": "address",
          "name": "previousOwner",
          "type": "address"
        },
        {
          "indexed": true,
          "internalType": "address",
          "name": "newOwner",
          "type": "address"
        }
      ],
      "name": "OwnershipTransferred",
      "type": "event"
    },
    {
      "anonymous": false,
      "inputs": [
        {
          "indexed": true,
          "internalType": "address",
          "name": "implementation",
          "type": "address"
        }
      ],
      "name": "Upgraded",
      "type": "event"
    },
    {
      "inputs": [],
      "name": "UPGRADE_INTERFACE_VERSION",
      "outputs": [
        {
          "internalType": "string",
          "name": "",
          "type": "string"
        }
      ],
      "stateMutability": "view",
      "type": "function"
    },
    {
      "inputs": [
        {
          "internalType": "address",
          "name": "currency",
          "type": "address"
        }
      ],
      "name": "addCurrency",
      "outputs": [],
      "stateMutability": "nonpayable",
      "type": "function"
    },
    {
      "inputs": [
        {
          "internalType": "address",
          "name": "",
          "type": "address"
        }
      ],
      "name": "currencyMap",
      "outputs": [
        {
          "internalType": "bool",
          "name": "",
          "type": "bool"
        }
      ],
      "stateMutability": "view",
      "type": "function"
    },
    {
      "inputs": [],
      "name": "getCurrencyArray",
      "outputs": [
        {
          "internalType": "address[]",
          "name": "",
          "type": "address[]"
        }
      ],
      "stateMutability": "view",
      "type": "function"
    },
    {
      "inputs": [
        {
          "internalType": "address[]",
          "name": "initialList",
          "type": "address[]"
        }
      ],
      "name": "initialize",
      "outputs": [],
      "stateMutability": "nonpayable",
      "type": "function"
    },
    {
      "inputs": [],
      "name": "maxCurrencies",
      "outputs": [
        {
          "internalType": "uint8",
          "name": "",
          "type": "uint8"
        }
      ],
      "stateMutability": "view",
      "type": "function"
    },
    {
      "inputs": [],
      "name": "owner",
      "outputs": [
        {
          "internalType": "address",
          "name": "",
          "type": "address"
        }
      ],
      "stateMutability": "view",
      "type": "function"
    },
    {
      "inputs": [],
      "name": "proxiableUUID",
      "outputs": [
        {
          "internalType": "bytes32",
          "name": "",
          "type": "bytes32"
        }
      ],
      "stateMutability": "view",
      "type": "function"
    },
    {
      "inputs": [
        {
          "internalType": "address",
          "name": "currency",
          "type": "address"
        }
      ],
      "name": "removeCurrency",
      "outputs": [],
      "stateMutability": "nonpayable",
      "type": "function"
    },
    {
      "inputs": [],
      "name": "renounceOwnership",
      "outputs": [],
      "stateMutability": "nonpayable",
      "type": "function"
    },
    {
      "inputs": [
        {
          "internalType": "uint8",
          "name": "newValue",
          "type": "uint8"
        }
      ],
      "name": "setMaxCurrencies",
      "outputs": [],
      "stateMutability": "nonpayable",
      "type": "function"
    },
    {
      "inputs": [
        {
          "internalType": "bytes4",
          "name": "interfaceId",
          "type": "bytes4"
        }
      ],
      "name": "supportsInterface",
      "outputs": [
        {
          "internalType": "bool",
          "name": "",
          "type": "bool"
        }
      ],
      "stateMutability": "view",
      "type": "function"
    },
    {
      "inputs": [
        {
          "internalType": "address",
          "name": "newOwner",
          "type": "address"
        }
      ],
      "name": "transferOwnership",
      "outputs": [],
      "stateMutability": "nonpayable",
      "type": "function"
    },
    {
      "inputs": [
        {
          "internalType": "address",
          "name": "newImplementation",
          "type": "address"
        },
        {
          "internalType": "bytes",
          "name": "data",
          "type": "bytes"
        }
      ],
      "name": "upgradeToAndCall",
      "outputs": [],
      "stateMutability": "payable",
      "type": "function"
    }
  ],
  "bytecode": "0x60a06040523060805234801561001457600080fd5b5061001d610022565b6100d4565b7ff0c57e16840df040f15088dc2f81fe391c3923bec73e23a9662efc9c229c6a00805468010000000000000000900460ff16156100725760405163f92ee8a960e01b815260040160405180910390fd5b80546001600160401b03908116146100d15780546001600160401b0319166001600160401b0390811782556040519081527fc7f505b2f371ae2175ee4913f4499e1f2633a7b5936321eed1cdaeb6115181d29060200160405180910390a15b50565b60805161172c6100fd60003960008181610bae01528181610bd70152610d8c015261172c6000f3fe6080604052600436106100dd5760003560e01c80639c7190361161007f578063c4c98c9611610059578063c4c98c961461029d578063c5d3a107146102bf578063f2fde38b146102df578063f90b8aca146102ff57600080fd5b80639c719036146101fb578063a224cee714610227578063ad3cb1cc1461024757600080fd5b806352d1902d116100bb57806352d1902d1461015c578063715018a61461017f5780638ab234b6146101945780638da5cb5b146101b457600080fd5b806301ffc9a7146100e2578063115bdfe7146101175780634f1ef28614610147575b600080fd5b3480156100ee57600080fd5b506101026100fd3660046112d5565b61031f565b60405190151581526020015b60405180910390f35b34801561012357600080fd5b50610102610132366004611333565b60016020526000908152604090205460ff1681565b61015a6101553660046113bd565b6103b8565b005b34801561016857600080fd5b506101716103d7565b60405190815260200161010e565b34801561018b57600080fd5b5061015a610406565b3480156101a057600080fd5b5061015a6101af366004611333565b61041a565b3480156101c057600080fd5b507f9016d09d72d40fdae2fd8ceac6b6234c7706214fd39c1cd1e609a0528c199300546040516001600160a01b03909116815260200161010e565b34801561020757600080fd5b506000546102159060ff1681565b60405160ff909116815260200161010e565b34801561023357600080fd5b5061015a61024236600461144e565b6106c0565b34801561025357600080fd5b506102906040518060400160405280600581526020017f352e302e3000000000000000000000000000000000000000000000000000000081525081565b60405161010e9190611515565b3480156102a957600080fd5b506102b26108c4565b60405161010e9190611528565b3480156102cb57600080fd5b5061015a6102da366004611333565b610926565b3480156102eb57600080fd5b5061015a6102fa366004611333565b610b06565b34801561030b57600080fd5b5061015a61031a366004611583565b610b5f565b60007fffffffff0000000000000000000000000000000000000000000000000000000082167fd59253710000000000000000000000000000000000000000000000000000000014806103b257507f01ffc9a7000000000000000000000000000000000000000000000000000000007fffffffff000000000000000000000000000000000000000000000000000000008316145b92915050565b6103c0610ba3565b6103c982610c73565b6103d38282610c7b565b5050565b60006103e1610d81565b507f360894a13ba1a3210667c828492db98dca3e2076cc3735a920a3ca505d382bbc90565b61040e610de3565b6104186000610e57565b565b610422610de3565b60005460025460ff909116900361044c5760405163fa88b75360e01b815260040160405180910390fd5b6001600160a01b03811660009081526001602081905260409091205460ff16151590036104a5576040517fa3d582ec00000000000000000000000000000000000000000000000000000000815260040160405180910390fd5b6001600160a01b0381166104be576104bb610ed5565b50565b6001600160a01b0381166000818152600160208190526040808320805460ff19168317905560028054928301815583527f405787fa12a823e0f2b7631cc41b3ba8828b3321ca811111fa75cd3aa3bb5ace909101805473ffffffffffffffffffffffffffffffffffffffff19168417905580517f95d89b4100000000000000000000000000000000000000000000000000000000815290519192916395d89b419160048082019286929091908290030181865afa158015610583573d6000803e3d6000fd5b505050506040513d6000823e601f3d908101601f191682016040526105ab91908101906115a0565b90506000826001600160a01b03166306fdde036040518163ffffffff1660e01b8152600401600060405180830381865afa1580156105ed573d6000803e3d6000fd5b505050506040513d6000823e601f3d908101601f1916820160405261061591908101906115a0565b90506000836001600160a01b031663313ce5676040518163ffffffff1660e01b8152600401602060405180830381865afa158015610657573d6000803e3d6000fd5b505050506040513d601f19601f8201168201806040525081019061067b919061160e565b90507f0cc17b5f9d72c1dfaaaee309b03b343fb4cc69b27cd45fbcfc4c403206e29c4a848484846040516106b2949392919061162b565b60405180910390a150505050565b60006106ca610fd3565b805490915060ff68010000000000000000820416159067ffffffffffffffff166000811580156106f75750825b905060008267ffffffffffffffff1660011480156107145750303b155b905081158015610722575080155b15610759576040517ff92ee8a900000000000000000000000000000000000000000000000000000000815260040160405180910390fd5b84547fffffffffffffffffffffffffffffffffffffffffffffffff000000000000000016600117855583156107a457845468ff00000000000000001916680100000000000000001785555b60328611156107c65760405163fa88b75360e01b815260040160405180910390fd5b6000805460ff191660ff88161790556107de33610ffc565b6107e661100d565b6107ee61100d565b60005b8681101561086f57600088888381811061080d5761080d611674565b90506020020160208101906108229190611333565b6001600160a01b03160361083d57610838610ed5565b610867565b61086788888381811061085257610852611674565b90506020020160208101906101af9190611333565b6001016107f1565b5083156108bb57845468ff000000000000000019168555604051600181527fc7f505b2f371ae2175ee4913f4499e1f2633a7b5936321eed1cdaeb6115181d29060200160405180910390a15b50505050505050565b6060600280548060200260200160405190810160405280929190818152602001828054801561091c57602002820191906000526020600020905b81546001600160a01b031681526001909101906020018083116108fe575b5050505050905090565b61092e610de3565b6001600160a01b03811660009081526001602052604081205460ff1615159003610984576040517f665c1c5700000000000000000000000000000000000000000000000000000000815260040160405180910390fd5b6001600160a01b0381166000908152600160205260408120805460ff191690555b600254811015610ac657600281815481106109c2576109c2611674565b6000918252602090912001546001600160a01b0390811690831603610abe57600280546109f19060019061168a565b81548110610a0157610a01611674565b600091825260209091200154600280546001600160a01b039092169183908110610a2d57610a2d611674565b9060005260206000200160006101000a8154816001600160a01b0302191690836001600160a01b031602179055506002805480610a6c57610a6c6116ab565b60008281526020902081017fffffffffffffffffffffffffffffffffffffffffffffffffffffffffffffffff908101805473ffffffffffffffffffffffffffffffffffffffff19169055019055610ac6565b6001016109a5565b506040516001600160a01b03821681527fa40d69111be14f29022626d38310e47cc2d7f4cb728961509c2f65a4bee08c5b9060200160405180910390a150565b610b0e610de3565b6001600160a01b038116610b56576040517f1e4fbdf7000000000000000000000000000000000000000000000000000000008152600060048201526024015b60405180910390fd5b6104bb81610e57565b610b67610de3565b60025460ff82161015610b8d5760405163fa88b75360e01b815260040160405180910390fd5b6000805460ff191660ff92909216919091179055565b306001600160a01b037f0000000000000000000000000000000000000000000000000000000000000000161480610c3c57507f00000000000000000000000000000000000000000000000000000000000000006001600160a01b0316610c307f360894a13ba1a3210667c828492db98dca3e2076cc3735a920a3ca505d382bbc546001600160a01b031690565b6001600160a01b031614155b15610418576040517fe07c8dba00000000000000000000000000000000000000000000000000000000815260040160405180910390fd5b6104bb610de3565b816001600160a01b03166352d1902d6040518163ffffffff1660e01b8152600401602060405180830381865afa925050508015610cd5575060408051601f3d908101601f19168201909252610cd2918101906116c1565b60015b610d16576040517f4c9c8ce30000000000000000000000000000000000000000000000000000000081526001600160a01b0383166004820152602401610b4d565b7f360894a13ba1a3210667c828492db98dca3e2076cc3735a920a3ca505d382bbc8114610d72576040517faa1d49a400000000000000000000000000000000000000000000000000000000815260048101829052602401610b4d565b610d7c8383611015565b505050565b306001600160a01b037f00000000000000000000000000000000000000000000000000000000000000001614610418576040517fe07c8dba00000000000000000000000000000000000000000000000000000000815260040160405180910390fd5b33610e157f9016d09d72d40fdae2fd8ceac6b6234c7706214fd39c1cd1e609a0528c199300546001600160a01b031690565b6001600160a01b031614610418576040517f118cdaa7000000000000000000000000000000000000000000000000000000008152336004820152602401610b4d565b7f9016d09d72d40fdae2fd8ceac6b6234c7706214fd39c1cd1e609a0528c199300805473ffffffffffffffffffffffffffffffffffffffff1981166001600160a01b03848116918217845560405192169182907f8be0079c531659141344cd1fd0a4f28419497f9722a3daafe3b4186f6b6457e090600090a3505050565b600160208181527fa6eef7e35abe7026729641147f7915573c7e97b47efa546f5f6e3230263bcb49805460ff19168317905560028054928301815560009081527f405787fa12a823e0f2b7631cc41b3ba8828b3321ca811111fa75cd3aa3bb5ace909201805473ffffffffffffffffffffffffffffffffffffffff191690556040805183815260809281018390529182019290925260a0818301819052600b908201527f6e617469766520636f696e00000000000000000000000000000000000000000060c08201526012606082015290517f0cc17b5f9d72c1dfaaaee309b03b343fb4cc69b27cd45fbcfc4c403206e29c4a9181900360e00190a1565b6000807ff0c57e16840df040f15088dc2f81fe391c3923bec73e23a9662efc9c229c6a006103b2565b61100461106b565b6104bb816110a9565b61041861106b565b61101e826110b1565b6040516001600160a01b038316907fbc7cd75a20ee27fd9adebab32041f755214dbc6bffa90cc0225b39da2e5c2d3b90600090a280511561106357610d7c828261114e565b6103d36111c4565b6110736111fc565b610418576040517fd7e6bcf800000000000000000000000000000000000000000000000000000000815260040160405180910390fd5b610b0e61106b565b806001600160a01b03163b600003611100576040517f4c9c8ce30000000000000000000000000000000000000000000000000000000081526001600160a01b0382166004820152602401610b4d565b7f360894a13ba1a3210667c828492db98dca3e2076cc3735a920a3ca505d382bbc805473ffffffffffffffffffffffffffffffffffffffff19166001600160a01b0392909216919091179055565b6060600080846001600160a01b03168460405161116b91906116da565b600060405180830381855af49150503d80600081146111a6576040519150601f19603f3d011682016040523d82523d6000602084013e6111ab565b606091505b50915091506111bb85838361121b565b95945050505050565b3415610418576040517fb398979f00000000000000000000000000000000000000000000000000000000815260040160405180910390fd5b6000611206610fd3565b5468010000000000000000900460ff16919050565b6060826112305761122b82611293565b61128c565b815115801561124757506001600160a01b0384163b155b15611289576040517f9996b3150000000000000000000000000000000000000000000000000000000081526001600160a01b0385166004820152602401610b4d565b50805b9392505050565b8051156112a35780518082602001fd5b6040517fd6bda27500000000000000000000000000000000000000000000000000000000815260040160405180910390fd5b6000602082840312156112e757600080fd5b81357fffffffff000000000000000000000000000000000000000000000000000000008116811461128c57600080fd5b80356001600160a01b038116811461132e57600080fd5b919050565b60006020828403121561134557600080fd5b61128c82611317565b634e487b7160e01b600052604160045260246000fd5b604051601f8201601f1916810167ffffffffffffffff8111828210171561138d5761138d61134e565b604052919050565b600067ffffffffffffffff8211156113af576113af61134e565b50601f01601f191660200190565b600080604083850312156113d057600080fd5b6113d983611317565b9150602083013567ffffffffffffffff8111156113f557600080fd5b8301601f8101851361140657600080fd5b803561141961141482611395565b611364565b81815286602083850101111561142e57600080fd5b816020840160208301376000602083830101528093505050509250929050565b6000806020838503121561146157600080fd5b823567ffffffffffffffff81111561147857600080fd5b8301601f8101851361148957600080fd5b803567ffffffffffffffff8111156114a057600080fd5b8560208260051b84010111156114b557600080fd5b6020919091019590945092505050565b60005b838110156114e05781810151838201526020016114c8565b50506000910152565b600081518084526115018160208601602086016114c5565b601f01601f19169290920160200192915050565b60208152600061128c60208301846114e9565b602080825282518282018190526000918401906040840190835b818110156115695783516001600160a01b0316835260209384019390920191600101611542565b509095945050505050565b60ff811681146104bb57600080fd5b60006020828403121561159557600080fd5b813561128c81611574565b6000602082840312156115b257600080fd5b815167ffffffffffffffff8111156115c957600080fd5b8201601f810184136115da57600080fd5b80516115e861141482611395565b8181528560208385010111156115fd57600080fd5b6111bb8260208301602086016114c5565b60006020828403121561162057600080fd5b815161128c81611574565b6001600160a01b038516815260806020820152600061164d60808301866114e9565b828103604084015261165f81866114e9565b91505060ff8316606083015295945050505050565b634e487b7160e01b600052603260045260246000fd5b818103818111156103b257634e487b7160e01b600052601160045260246000fd5b634e487b7160e01b600052603160045260246000fd5b6000602082840312156116d357600080fd5b5051919050565b600082516116ec8184602087016114c5565b919091019291505056fea26469706673582212205c62d887f97594ee1fa8a99090120dfec3277b54db78f2220427d76cd35922a064736f6c63430008200033",
  "linkReferences": {},
  "deployedLinkReferences": {}
}