{
  "_format": "hh-sol-artifact-1",
  "contractName": "ERC20TokenMock",
  "sourceName": "contracts/shared/ERC20TokenMock/ERC20TokenMock.sol",
  "abi": [
    {
      "inputs": [],
      "stateMutability": "nonpayable",
      "type": "constructor"
    },
    {
      "inputs": [
        {
          "internalType": "address",
          "name": "target",
          "type": "address"
        }
      ],
      "name": "AddressEmptyCode",
      "type": "error"
    },
    {
      "inputs": [],
      "name": "ECDSAInvalidSignature",
      "type": "error"
    },
    {
      "inputs": [
        {
          "internalType": "uint256",
          "name": "length",
          "type": "uint256"
        }
      ],
      "name": "ECDSAInvalidSignatureLength",
      "type": "error"
    },
    {
      "inputs": [
        {
          "internalType": "bytes32",
          "name": "s",
          "type": "bytes32"
        }
      ],
      "name": "ECDSAInvalidSignatureS",
      "type": "error"
    },
    {
      "inputs": [
        {
          "internalType": "address",
          "name": "implementation",
          "type": "address"
        }
      ],
      "name": "ERC1967InvalidImplementation",
      "type": "error"
    },
    {
      "inputs": [],
      "name": "ERC1967NonPayable",
      "type": "error"
    },
    {
      "inputs": [
        {
          "internalType": "address",
          "name": "spender",
          "type": "address"
        },
        {
          "internalType": "uint256",
          "name": "allowance",
          "type": "uint256"
        },
        {
          "internalType": "uint256",
          "name": "needed",
          "type": "uint256"
        }
      ],
      "name": "ERC20InsufficientAllowance",
      "type": "error"
    },
    {
      "inputs": [
        {
          "internalType": "address",
          "name": "sender",
          "type": "address"
        },
        {
          "internalType": "uint256",
          "name": "balance",
          "type": "uint256"
        },
        {
          "internalType": "uint256",
          "name": "needed",
          "type": "uint256"
        }
      ],
      "name": "ERC20InsufficientBalance",
      "type": "error"
    },
    {
      "inputs": [
        {
          "internalType": "address",
          "name": "approver",
          "type": "address"
        }
      ],
      "name": "ERC20InvalidApprover",
      "type": "error"
    },
    {
      "inputs": [
        {
          "internalType": "address",
          "name": "receiver",
          "type": "address"
        }
      ],
      "name": "ERC20InvalidReceiver",
      "type": "error"
    },
    {
      "inputs": [
        {
          "internalType": "address",
          "name": "sender",
          "type": "address"
        }
      ],
      "name": "ERC20InvalidSender",
      "type": "error"
    },
    {
      "inputs": [
        {
          "internalType": "address",
          "name": "spender",
          "type": "address"
        }
      ],
      "name": "ERC20InvalidSpender",
      "type": "error"
    },
    {
      "inputs": [],
      "name": "FailedCall",
      "type": "error"
    },
    {
      "inputs": [],
      "name": "InvalidInitialization",
      "type": "error"
    },
    {
      "inputs": [],
      "name": "NotInitializing",
      "type": "error"
    },
    {
      "inputs": [
        {
          "internalType": "address",
          "name": "owner",
          "type": "address"
        }
      ],
      "name": "OwnableInvalidOwner",
      "type": "error"
    },
    {
      "inputs": [
        {
          "internalType": "address",
          "name": "account",
          "type": "address"
        }
      ],
      "name": "OwnableUnauthorizedAccount",
      "type": "error"
    },
    {
      "inputs": [],
      "name": "UUPSUnauthorizedCallContext",
      "type": "error"
    },
    {
      "inputs": [
        {
          "internalType": "bytes32",
          "name": "slot",
          "type": "bytes32"
        }
      ],
      "name": "UUPSUnsupportedProxiableUUID",
      "type": "error"
    },
    {
      "anonymous": false,
      "inputs": [
        {
          "indexed": true,
          "internalType": "address",
          "name": "owner",
          "type": "address"
        },
        {
          "indexed": true,
          "internalType": "address",
          "name": "spender",
          "type": "address"
        },
        {
          "indexed": false,
          "internalType": "uint256",
          "name": "value",
          "type": "uint256"
        }
      ],
      "name": "Approval",
      "type": "event"
    },
    {
      "anonymous": false,
      "inputs": [
        {
          "indexed": true,
          "internalType": "address",
          "name": "authorizer",
          "type": "address"
        },
        {
          "indexed": true,
          "internalType": "bytes32",
          "name": "nonce",
          "type": "bytes32"
        }
      ],
      "name": "AuthorizationCanceled",
      "type": "event"
    },
    {
      "anonymous": false,
      "inputs": [
        {
          "indexed": true,
          "internalType": "address",
          "name": "authorizer",
          "type": "address"
        },
        {
          "indexed": true,
          "internalType": "bytes32",
          "name": "nonce",
          "type": "bytes32"
        }
      ],
      "name": "AuthorizationUsed",
      "type": "event"
    },
    {
      "anonymous": false,
      "inputs": [],
      "name": "EIP712DomainChanged",
      "type": "event"
    },
    {
      "anonymous": false,
      "inputs": [
        {
          "indexed": false,
          "internalType": "uint64",
          "name": "version",
          "type": "uint64"
        }
      ],
      "name": "Initialized",
      "type": "event"
    },
    {
      "anonymous": false,
      "inputs": [
        {
          "indexed": true,
          "internalType": "address",
          "name": "previousOwner",
          "type": "address"
        },
        {
          "indexed": true,
          "internalType": "address",
          "name": "newOwner",
          "type": "address"
        }
      ],
      "name": "OwnershipTransferred",
      "type": "event"
    },
    {
      "anonymous": false,
      "inputs": [
        {
          "indexed": true,
          "internalType": "address",
          "name": "from",
          "type": "address"
        },
        {
          "indexed": true,
          "internalType": "address",
          "name": "to",
          "type": "address"
        },
        {
          "indexed": false,
          "internalType": "uint256",
          "name": "value",
          "type": "uint256"
        }
      ],
      "name": "Transfer",
      "type": "event"
    },
    {
      "anonymous": false,
      "inputs": [
        {
          "indexed": true,
          "internalType": "address",
          "name": "implementation",
          "type": "address"
        }
      ],
      "name": "Upgraded",
      "type": "event"
    },
    {
      "inputs": [],
      "name": "CANCEL_AUTHORIZATION_TYPEHASH",
      "outputs": [
        {
          "internalType": "bytes32",
          "name": "",
          "type": "bytes32"
        }
      ],
      "stateMutability": "view",
      "type": "function"
    },
    {
      "inputs": [],
      "name": "RECEIVE_WITH_AUTHORIZATION_TYPEHASH",
      "outputs": [
        {
          "internalType": "bytes32",
          "name": "",
          "type": "bytes32"
        }
      ],
      "stateMutability": "view",
      "type": "function"
    },
    {
      "inputs": [],
      "name": "TRANSFER_WITH_AUTHORIZATION_TYPEHASH",
      "outputs": [
        {
          "internalType": "bytes32",
          "name": "",
          "type": "bytes32"
        }
      ],
      "stateMutability": "view",
      "type": "function"
    },
    {
      "inputs": [],
      "name": "UPGRADE_INTERFACE_VERSION",
      "outputs": [
        {
          "internalType": "string",
          "name": "",
          "type": "string"
        }
      ],
      "stateMutability": "view",
      "type": "function"
    },
    {
      "inputs": [
        {
          "internalType": "address",
          "name": "owner",
          "type": "address"
        },
        {
          "internalType": "address",
          "name": "spender",
          "type": "address"
        }
      ],
      "name": "allowance",
      "outputs": [
        {
          "internalType": "uint256",
          "name": "",
          "type": "uint256"
        }
      ],
      "stateMutability": "view",
      "type": "function"
    },
    {
      "inputs": [
        {
          "internalType": "address",
          "name": "spender",
          "type": "address"
        },
        {
          "internalType": "uint256",
          "name": "value",
          "type": "uint256"
        }
      ],
      "name": "approve",
      "outputs": [
        {
          "internalType": "bool",
          "name": "",
          "type": "bool"
        }
      ],
      "stateMutability": "nonpayable",
      "type": "function"
    },
    {
      "inputs": [
        {
          "internalType": "address",
          "name": "authorizer",
          "type": "address"
        },
        {
          "internalType": "bytes32",
          "name": "nonce",
          "type": "bytes32"
        }
      ],
      "name": "authorizationState",
      "outputs": [
        {
          "internalType": "bool",
          "name": "",
          "type": "bool"
        }
      ],
      "stateMutability": "view",
      "type": "function"
    },
    {
      "inputs": [
        {
          "internalType": "address",
          "name": "account",
          "type": "address"
        }
      ],
      "name": "balanceOf",
      "outputs": [
        {
          "internalType": "uint256",
          "name": "",
          "type": "uint256"
        }
      ],
      "stateMutability": "view",
      "type": "function"
    },
    {
      "inputs": [],
      "name": "decimals",
      "outputs": [
        {
          "internalType": "uint8",
          "name": "",
          "type": "uint8"
        }
      ],
      "stateMutability": "view",
      "type": "function"
    },
    {
      "inputs": [],
      "name": "eip712Domain",
      "outputs": [
        {
          "internalType": "bytes1",
          "name": "fields",
          "type": "bytes1"
        },
        {
          "internalType": "string",
          "name": "name",
          "type": "string"
        },
        {
          "internalType": "string",
          "name": "version",
          "type": "string"
        },
        {
          "internalType": "uint256",
          "name": "chainId",
          "type": "uint256"
        },
        {
          "internalType": "address",
          "name": "verifyingContract",
          "type": "address"
        },
        {
          "internalType": "bytes32",
          "name": "salt",
          "type": "bytes32"
        },
        {
          "internalType": "uint256[]",
          "name": "extensions",
          "type": "uint256[]"
        }
      ],
      "stateMutability": "view",
      "type": "function"
    },
    {
      "inputs": [
        {
          "internalType": "string",
          "name": "name",
          "type": "string"
        },
        {
          "internalType": "string",
          "name": "symbol",
          "type": "string"
        },
        {
          "internalType": "uint8",
          "name": "decimalPoints",
          "type": "uint8"
        }
      ],
      "name": "initialize",
      "outputs": [],
      "stateMutability": "nonpayable",
      "type": "function"
    },
    {
      "inputs": [
        {
          "internalType": "address",
          "name": "user",
          "type": "address"
        },
        {
          "internalType": "uint256",
          "name": "amount",
          "type": "uint256"
        }
      ],
      "name": "mintTo",
      "outputs": [],
      "stateMutability": "nonpayable",
      "type": "function"
    },
    {
      "inputs": [],
      "name": "name",
      "outputs": [
        {
          "internalType": "string",
          "name": "",
          "type": "string"
        }
      ],
      "stateMutability": "view",
      "type": "function"
    },
    {
      "inputs": [],
      "name": "owner",
      "outputs": [
        {
          "internalType": "address",
          "name": "",
          "type": "address"
        }
      ],
      "stateMutability": "view",
      "type": "function"
    },
    {
      "inputs": [],
      "name": "proxiableUUID",
      "outputs": [
        {
          "internalType": "bytes32",
          "name": "",
          "type": "bytes32"
        }
      ],
      "stateMutability": "view",
      "type": "function"
    },
    {
      "inputs": [],
      "name": "renounceOwnership",
      "outputs": [],
      "stateMutability": "nonpayable",
      "type": "function"
    },
    {
      "inputs": [],
      "name": "symbol",
      "outputs": [
        {
          "internalType": "string",
          "name": "",
          "type": "string"
        }
      ],
      "stateMutability": "view",
      "type": "function"
    },
    {
      "inputs": [],
      "name": "totalSupply",
      "outputs": [
        {
          "internalType": "uint256",
          "name": "",
          "type": "uint256"
        }
      ],
      "stateMutability": "view",
      "type": "function"
    },
    {
      "inputs": [
        {
          "internalType": "address",
          "name": "to",
          "type": "address"
        },
        {
          "internalType": "uint256",
          "name": "value",
          "type": "uint256"
        }
      ],
      "name": "transfer",
      "outputs": [
        {
          "internalType": "bool",
          "name": "",
          "type": "bool"
        }
      ],
      "stateMutability": "nonpayable",
      "type": "function"
    },
    {
      "inputs": [
        {
          "internalType": "address",
          "name": "from",
          "type": "address"
        },
        {
          "internalType": "address",
          "name": "to",
          "type": "address"
        },
        {
          "internalType": "uint256",
          "name": "value",
          "type": "uint256"
        }
      ],
      "name": "transferFrom",
      "outputs": [
        {
          "internalType": "bool",
          "name": "",
          "type": "bool"
        }
      ],
      "stateMutability": "nonpayable",
      "type": "function"
    },
    {
      "inputs": [
        {
          "internalType": "address",
          "name": "newOwner",
          "type": "address"
        }
      ],
      "name": "transferOwnership",
      "outputs": [],
      "stateMutability": "nonpayable",
      "type": "function"
    },
    {
      "inputs": [
        {
          "internalType": "address",
          "name": "from",
          "type": "address"
        },
        {
          "internalType": "address",
          "name": "to",
          "type": "address"
        },
        {
          "internalType": "uint256",
          "name": "value",
          "type": "uint256"
        },
        {
          "internalType": "uint256",
          "name": "validAfter",
          "type": "uint256"
        },
        {
          "internalType": "uint256",
          "name": "validBefore",
          "type": "uint256"
        },
        {
          "internalType": "bytes32",
          "name": "nonce",
          "type": "bytes32"
        },
        {
          "internalType": "uint8",
          "name": "v",
          "type": "uint8"
        },
        {
          "internalType": "bytes32",
          "name": "r",
          "type": "bytes32"
        },
        {
          "internalType": "bytes32",
          "name": "s",
          "type": "bytes32"
        }
      ],
      "name": "transferWithAuthorization",
      "outputs": [],
      "stateMutability": "nonpayable",
      "type": "function"
    },
    {
      "inputs": [
        {
          "internalType": "address",
          "name": "newImplementation",
          "type": "address"
        },
        {
          "internalType": "bytes",
          "name": "data",
          "type": "bytes"
        }
      ],
      "name": "upgradeToAndCall",
      "outputs": [],
      "stateMutability": "payable",
      "type": "function"
    },
    {
      "inputs": [],
      "name": "version",
      "outputs": [
        {
          "internalType": "string",
          "name": "",
          "type": "string"
        }
      ],
      "stateMutability": "view",
      "type": "function"
    }
  ],
  "bytecode": "0x60a06040523060805234801561001457600080fd5b5061001d610022565b6100d4565b7ff0c57e16840df040f15088dc2f81fe391c3923bec73e23a9662efc9c229c6a00805468010000000000000000900460ff16156100725760405163f92ee8a960e01b815260040160405180910390fd5b80546001600160401b03908116146100d15780546001600160401b0319166001600160401b0390811782556040519081527fc7f505b2f371ae2175ee4913f4499e1f2633a7b5936321eed1cdaeb6115181d29060200160405180910390a15b50565b6080516123ef6100fd60003960008181610d3701528181610d600152610f1001526123ef6000f3fe60806040526004361061018b5760003560e01c80637f2eecc3116100d6578063ad3cb1cc1161007f578063e3ee160e11610059578063e3ee160e14610576578063e94a010214610596578063f2fde38b146105da57600080fd5b8063ad3cb1cc14610494578063d9169487146104dd578063dd62ed3e1461051157600080fd5b806395d89b41116100b057806395d89b411461042b578063a0cc6a6814610440578063a9059cbb1461047457600080fd5b80637f2eecc31461038857806384b0196e146103bc5780638da5cb5b146103e457600080fd5b8063449a52f81161013857806354fd4d501161011257806354fd4d50146102d557806370a082311461031e578063715018a61461037357600080fd5b8063449a52f81461028d5780634f1ef286146102ad57806352d1902d146102c057600080fd5b806318160ddd1161016957806318160ddd1461020d57806323b872dd1461024b578063313ce5671461026b57600080fd5b806306fdde0314610190578063095ea7b3146101bb5780631624f6c6146101eb575b600080fd5b34801561019c57600080fd5b506101a56105fa565b6040516101b29190611e44565b60405180910390f35b3480156101c757600080fd5b506101db6101d6366004611e73565b6106b5565b60405190151581526020016101b2565b3480156101f757600080fd5b5061020b610206366004611f5e565b6106cf565b005b34801561021957600080fd5b507f52c63247e1f47db19d5ce0460030c497f067ca4cebf71ba98eeadabe20bace02545b6040519081526020016101b2565b34801561025757600080fd5b506101db610266366004611fd7565b610871565b34801561027757600080fd5b5060015460405160ff90911681526020016101b2565b34801561029957600080fd5b5061020b6102a8366004611e73565b610897565b61020b6102bb366004612014565b6108a5565b3480156102cc57600080fd5b5061023d6108c0565b3480156102e157600080fd5b506101a56040518060400160405280600181526020017f320000000000000000000000000000000000000000000000000000000000000081525081565b34801561032a57600080fd5b5061023d610339366004612076565b6001600160a01b031660009081527f52c63247e1f47db19d5ce0460030c497f067ca4cebf71ba98eeadabe20bace00602052604090205490565b34801561037f57600080fd5b5061020b6108ef565b34801561039457600080fd5b5061023d7fd099cc98ef71107a616c4f0f941f04c322d8e254fe26b3c6668db87aae413de881565b3480156103c857600080fd5b506103d1610903565b6040516101b29796959493929190612091565b3480156103f057600080fd5b507f9016d09d72d40fdae2fd8ceac6b6234c7706214fd39c1cd1e609a0528c199300546040516001600160a01b0390911681526020016101b2565b34801561043757600080fd5b506101a56109ea565b34801561044c57600080fd5b5061023d7f7c7c6cdb67a18743f49ec6fa9b35f50d52ed05cbed4cc592e13b44501c1a226781565b34801561048057600080fd5b506101db61048f366004611e73565b610a3b565b3480156104a057600080fd5b506101a56040518060400160405280600581526020017f352e302e3000000000000000000000000000000000000000000000000000000081525081565b3480156104e957600080fd5b5061023d7f158b0a9edf7a828aad02f63cd515c68ef2f50ba807396f6d12842833a159742981565b34801561051d57600080fd5b5061023d61052c366004612145565b6001600160a01b0391821660009081527f52c63247e1f47db19d5ce0460030c497f067ca4cebf71ba98eeadabe20bace016020908152604080832093909416825291909152205490565b34801561058257600080fd5b5061020b610591366004612178565b610a49565b3480156105a257600080fd5b506101db6105b1366004611e73565b6001600160a01b0391909116600090815260208181526040808320938352929052205460ff1690565b3480156105e657600080fd5b5061020b6105f5366004612076565b610a65565b606060007f52c63247e1f47db19d5ce0460030c497f067ca4cebf71ba98eeadabe20bace005b9050806003018054610631906121f9565b80601f016020809104026020016040519081016040528092919081815260200182805461065d906121f9565b80156106aa5780601f1061067f576101008083540402835291602001916106aa565b820191906000526020600020905b81548152906001019060200180831161068d57829003601f168201915b505050505091505090565b6000336106c3818585610abc565b60019150505b92915050565b60006106d9610ace565b805490915060ff68010000000000000000820416159067ffffffffffffffff166000811580156107065750825b905060008267ffffffffffffffff1660011480156107235750303b155b905081158015610731575080155b15610768576040517ff92ee8a900000000000000000000000000000000000000000000000000000000815260040160405180910390fd5b84547fffffffffffffffffffffffffffffffffffffffffffffffff000000000000000016600117855583156107b357845468ff00000000000000001916680100000000000000001785555b6107bd8888610af7565b6107fc886040518060400160405280600181526020017f3200000000000000000000000000000000000000000000000000000000000000815250610b09565b61080533610b7c565b61080d610b8d565b6001805460ff191660ff8816179055831561086757845468ff000000000000000019168555604051600181527fc7f505b2f371ae2175ee4913f4499e1f2633a7b5936321eed1cdaeb6115181d29060200160405180910390a15b5050505050505050565b60003361087f858285610b95565b61088a858585610c4c565b60019150505b9392505050565b6108a18282610cdd565b5050565b6108ad610d2c565b6108b682610dfc565b6108a18282610e04565b60006108ca610f05565b507f360894a13ba1a3210667c828492db98dca3e2076cc3735a920a3ca505d382bbc90565b6108f7610f67565b6109016000610fdb565b565b600060608082808083817fa16a46d94261c7517cc8ff89f61c0ce93598e3c849801011dee649a6a557d100805490915015801561094257506001810154155b6109935760405162461bcd60e51b815260206004820152601560248201527f4549503731323a20556e696e697469616c697a6564000000000000000000000060448201526064015b60405180910390fd5b61099b611064565b6109a36110b5565b604080516000808252602082019092527f0f000000000000000000000000000000000000000000000000000000000000009c939b5091995046985030975095509350915050565b7f52c63247e1f47db19d5ce0460030c497f067ca4cebf71ba98eeadabe20bace0480546060917f52c63247e1f47db19d5ce0460030c497f067ca4cebf71ba98eeadabe20bace0091610631906121f9565b6000336106c3818585610c4c565b610a5a8989898989898989896110df565b505050505050505050565b610a6d610f67565b6001600160a01b038116610ab0576040517f1e4fbdf70000000000000000000000000000000000000000000000000000000081526000600482015260240161098a565b610ab981610fdb565b50565b610ac98383836001611147565b505050565b6000807ff0c57e16840df040f15088dc2f81fe391c3923bec73e23a9662efc9c229c6a006106c9565b610aff611273565b6108a182826112b1565b610b11611273565b7fa16a46d94261c7517cc8ff89f61c0ce93598e3c849801011dee649a6a557d1007fa16a46d94261c7517cc8ff89f61c0ce93598e3c849801011dee649a6a557d102610b5d848261228e565b5060038101610b6c838261228e565b5060008082556001909101555050565b610b84611273565b610ab981611314565b610901611273565b6001600160a01b0383811660009081527f52c63247e1f47db19d5ce0460030c497f067ca4cebf71ba98eeadabe20bace016020908152604080832093861683529290522054600019811015610c465781811015610c37576040517ffb8f41b20000000000000000000000000000000000000000000000000000000081526001600160a01b0384166004820152602481018290526044810183905260640161098a565b610c4684848484036000611147565b50505050565b6001600160a01b038316610c8f576040517f96c6fd1e0000000000000000000000000000000000000000000000000000000081526000600482015260240161098a565b6001600160a01b038216610cd2576040517fec442f050000000000000000000000000000000000000000000000000000000081526000600482015260240161098a565b610ac983838361131c565b6001600160a01b038216610d20576040517fec442f050000000000000000000000000000000000000000000000000000000081526000600482015260240161098a565b6108a16000838361131c565b306001600160a01b037f0000000000000000000000000000000000000000000000000000000000000000161480610dc557507f00000000000000000000000000000000000000000000000000000000000000006001600160a01b0316610db97f360894a13ba1a3210667c828492db98dca3e2076cc3735a920a3ca505d382bbc546001600160a01b031690565b6001600160a01b031614155b15610901576040517fe07c8dba00000000000000000000000000000000000000000000000000000000815260040160405180910390fd5b610ab9610f67565b816001600160a01b03166352d1902d6040518163ffffffff1660e01b8152600401602060405180830381865afa925050508015610e5e575060408051601f3d908101601f19168201909252610e5b9181019061234d565b60015b610e9f576040517f4c9c8ce30000000000000000000000000000000000000000000000000000000081526001600160a01b038316600482015260240161098a565b7f360894a13ba1a3210667c828492db98dca3e2076cc3735a920a3ca505d382bbc8114610efb576040517faa1d49a40000000000000000000000000000000000000000000000000000000081526004810182905260240161098a565b610ac98383611485565b306001600160a01b037f00000000000000000000000000000000000000000000000000000000000000001614610901576040517fe07c8dba00000000000000000000000000000000000000000000000000000000815260040160405180910390fd5b33610f997f9016d09d72d40fdae2fd8ceac6b6234c7706214fd39c1cd1e609a0528c199300546001600160a01b031690565b6001600160a01b031614610901576040517f118cdaa700000000000000000000000000000000000000000000000000000000815233600482015260240161098a565b7f9016d09d72d40fdae2fd8ceac6b6234c7706214fd39c1cd1e609a0528c19930080547fffffffffffffffffffffffff000000000000000000000000000000000000000081166001600160a01b03848116918217845560405192169182907f8be0079c531659141344cd1fd0a4f28419497f9722a3daafe3b4186f6b6457e090600090a3505050565b7fa16a46d94261c7517cc8ff89f61c0ce93598e3c849801011dee649a6a557d10280546060917fa16a46d94261c7517cc8ff89f61c0ce93598e3c849801011dee649a6a557d10091610631906121f9565b606060007fa16a46d94261c7517cc8ff89f61c0ce93598e3c849801011dee649a6a557d100610620565b610a5a89898989898988888b60405160200161113393929190928352602083019190915260f81b7fff0000000000000000000000000000000000000000000000000000000000000016604082015260410190565b6040516020818303038152906040526114db565b7f52c63247e1f47db19d5ce0460030c497f067ca4cebf71ba98eeadabe20bace006001600160a01b0385166111ab576040517fe602df050000000000000000000000000000000000000000000000000000000081526000600482015260240161098a565b6001600160a01b0384166111ee576040517f94280d620000000000000000000000000000000000000000000000000000000081526000600482015260240161098a565b6001600160a01b0380861660009081526001830160209081526040808320938816835292905220839055811561126c57836001600160a01b0316856001600160a01b03167f8c5be1e5ebec7d5bd14f71427d1e84f3dd0314c0f7b2291e5b200ac8c7c3b9258560405161126391815260200190565b60405180910390a35b5050505050565b61127b61158b565b610901576040517fd7e6bcf800000000000000000000000000000000000000000000000000000000815260040160405180910390fd5b6112b9611273565b7f52c63247e1f47db19d5ce0460030c497f067ca4cebf71ba98eeadabe20bace007f52c63247e1f47db19d5ce0460030c497f067ca4cebf71ba98eeadabe20bace03611305848261228e565b5060048101610c46838261228e565b610a6d611273565b7f52c63247e1f47db19d5ce0460030c497f067ca4cebf71ba98eeadabe20bace006001600160a01b03841661136a578181600201600082825461135f9190612366565b909155506113f59050565b6001600160a01b038416600090815260208290526040902054828110156113d6576040517fe450d38c0000000000000000000000000000000000000000000000000000000081526001600160a01b0386166004820152602481018290526044810184905260640161098a565b6001600160a01b03851660009081526020839052604090209083900390555b6001600160a01b038316611413576002810180548390039055611432565b6001600160a01b03831660009081526020829052604090208054830190555b826001600160a01b0316846001600160a01b03167fddf252ad1be2c89b69c2b068fc378daa952ba7f163c4a11628f55a4df523b3ef8460405161147791815260200190565b60405180910390a350505050565b61148e826115aa565b6040516001600160a01b038316907fbc7cd75a20ee27fd9adebab32041f755214dbc6bffa90cc0225b39da2e5c2d3b90600090a28051156114d357610ac98282611652565b6108a16116c8565b6114e787838686611700565b604080517f7c7c6cdb67a18743f49ec6fa9b35f50d52ed05cbed4cc592e13b44501c1a226760208201526001600160a01b03808a169282019290925290871660608201526080810186905260a0810185905260c0810184905260e0810183905261156d9088906101000160405160208183030381529060405280519060200120836117f4565b6115778783611866565b611582878787610c4c565b50505050505050565b6000611595610ace565b5468010000000000000000900460ff16919050565b806001600160a01b03163b6000036115f9576040517f4c9c8ce30000000000000000000000000000000000000000000000000000000081526001600160a01b038216600482015260240161098a565b7f360894a13ba1a3210667c828492db98dca3e2076cc3735a920a3ca505d382bbc80547fffffffffffffffffffffffff0000000000000000000000000000000000000000166001600160a01b0392909216919091179055565b6060600080846001600160a01b03168460405161166f9190612387565b600060405180830381855af49150503d80600081146116aa576040519150601f19603f3d011682016040523d82523d6000602084013e6116af565b606091505b50915091506116bf8583836118be565b95945050505050565b3415610901576040517fb398979f00000000000000000000000000000000000000000000000000000000815260040160405180910390fd5b8142116117755760405162461bcd60e51b815260206004820152602b60248201527f46696174546f6b656e56323a20617574686f72697a6174696f6e206973206e6f60448201527f74207965742076616c6964000000000000000000000000000000000000000000606482015260840161098a565b8042106117ea5760405162461bcd60e51b815260206004820152602560248201527f46696174546f6b656e56323a20617574686f72697a6174696f6e20697320657860448201527f7069726564000000000000000000000000000000000000000000000000000000606482015260840161098a565b610c468484611933565b611806611800836119cb565b82611a13565b6001600160a01b0316836001600160a01b031614610ac95760405162461bcd60e51b815260206004820152601e60248201527f46696174546f6b656e56323a20696e76616c6964207369676e61747572650000604482015260640161098a565b6001600160a01b038216600081815260208181526040808320858452909152808220805460ff19166001179055518392917f98de503528ee59b575ef0c0a2576a82497bfc029a5685b209e9ec333479b10a591a35050565b6060826118d3576118ce82611a3d565b610890565b81511580156118ea57506001600160a01b0384163b155b1561192c576040517f9996b3150000000000000000000000000000000000000000000000000000000081526001600160a01b038516600482015260240161098a565b5080610890565b6001600160a01b03821660009081526020818152604080832084845290915290205460ff16156108a15760405162461bcd60e51b815260206004820152602e60248201527f46696174546f6b656e56323a20617574686f72697a6174696f6e20697320757360448201527f6564206f722063616e63656c6564000000000000000000000000000000000000606482015260840161098a565b60006106c96119d8611a7f565b836040517f19010000000000000000000000000000000000000000000000000000000000008152600281019290925260228201526042902090565b600080600080611a238686611a8e565b925092509250611a338282611adb565b5090949350505050565b805115611a4d5780518082602001fd5b6040517fd6bda27500000000000000000000000000000000000000000000000000000000815260040160405180910390fd5b6000611a89611bdf565b905090565b60008060008351604103611ac85760208401516040850151606086015160001a611aba88828585611c53565b955095509550505050611ad4565b50508151600091506002905b9250925092565b6000826003811115611aef57611aef6123a3565b03611af8575050565b6001826003811115611b0c57611b0c6123a3565b03611b43576040517ff645eedf00000000000000000000000000000000000000000000000000000000815260040160405180910390fd5b6002826003811115611b5757611b576123a3565b03611b91576040517ffce698f70000000000000000000000000000000000000000000000000000000081526004810182905260240161098a565b6003826003811115611ba557611ba56123a3565b036108a1576040517fd78bce0c0000000000000000000000000000000000000000000000000000000081526004810182905260240161098a565b60007f8b73c3c69bb8fe3d512ecc4cf759cc79239f7b179b0ffacaa9a75d522b39400f611c0a611d22565b611c12611d9e565b60408051602081019490945283019190915260608201524660808201523060a082015260c00160405160208183030381529060405280519060200120905090565b600080807f7fffffffffffffffffffffffffffffff5d576e7357a4501ddfe92f46681b20a0841115611c8e5750600091506003905082611d18565b604080516000808252602082018084528a905260ff891692820192909252606081018790526080810186905260019060a0016020604051602081039080840390855afa158015611ce2573d6000803e3d6000fd5b5050604051601f1901519150506001600160a01b038116611d0e57506000925060019150829050611d18565b9250600091508190505b9450945094915050565b60007fa16a46d94261c7517cc8ff89f61c0ce93598e3c849801011dee649a6a557d10081611d4e611064565b805190915015611d6657805160209091012092915050565b81548015611d75579392505050565b7fc5d2460186f7233c927e7db2dcc703c0e500b653ca82273b7bfad8045d85a470935050505090565b60007fa16a46d94261c7517cc8ff89f61c0ce93598e3c849801011dee649a6a557d10081611dca6110b5565b805190915015611de257805160209091012092915050565b60018201548015611d75579392505050565b60005b83811015611e0f578181015183820152602001611df7565b50506000910152565b60008151808452611e30816020860160208601611df4565b601f01601f19169290920160200192915050565b6020815260006108906020830184611e18565b80356001600160a01b0381168114611e6e57600080fd5b919050565b60008060408385031215611e8657600080fd5b611e8f83611e57565b946020939093013593505050565b634e487b7160e01b600052604160045260246000fd5b60008067ffffffffffffffff841115611ece57611ece611e9d565b50604051601f19601f85018116603f0116810181811067ffffffffffffffff82111715611efd57611efd611e9d565b604052838152905080828401851015611f1557600080fd5b83836020830137600060208583010152509392505050565b600082601f830112611f3e57600080fd5b61089083833560208501611eb3565b803560ff81168114611e6e57600080fd5b600080600060608486031215611f7357600080fd5b833567ffffffffffffffff811115611f8a57600080fd5b611f9686828701611f2d565b935050602084013567ffffffffffffffff811115611fb357600080fd5b611fbf86828701611f2d565b925050611fce60408501611f4d565b90509250925092565b600080600060608486031215611fec57600080fd5b611ff584611e57565b925061200360208501611e57565b929592945050506040919091013590565b6000806040838503121561202757600080fd5b61203083611e57565b9150602083013567ffffffffffffffff81111561204c57600080fd5b8301601f8101851361205d57600080fd5b61206c85823560208401611eb3565b9150509250929050565b60006020828403121561208857600080fd5b61089082611e57565b7fff000000000000000000000000000000000000000000000000000000000000008816815260e0602082015260006120cc60e0830189611e18565b82810360408401526120de8189611e18565b606084018890526001600160a01b038716608085015260a0840186905283810360c08501528451808252602080870193509091019060005b81811015612134578351835260209384019390920191600101612116565b50909b9a5050505050505050505050565b6000806040838503121561215857600080fd5b61216183611e57565b915061216f60208401611e57565b90509250929050565b60008060008060008060008060006101208a8c03121561219757600080fd5b6121a08a611e57565b98506121ae60208b01611e57565b975060408a0135965060608a0135955060808a0135945060a08a013593506121d860c08b01611f4d565b989b979a50959894979396929550929360e081013593506101000135919050565b600181811c9082168061220d57607f821691505b60208210810361222d57634e487b7160e01b600052602260045260246000fd5b50919050565b601f821115610ac95782821115610ac957806000526020600020601f840160051c6020851015612261575060005b90810190601f840160051c0360005b8181101561228657600083820155600101612270565b505050505050565b815167ffffffffffffffff8111156122a8576122a8611e9d565b6122bc816122b684546121f9565b84612233565b6020601f8211600181146122f057600083156122d85750848201515b600019600385901b1c1916600184901b17845561126c565b600084815260208120601f198516915b828110156123205787850151825560209485019460019092019101612300565b508482101561233e5786840151600019600387901b60f8161c191681555b50505050600190811b01905550565b60006020828403121561235f57600080fd5b5051919050565b808201808211156106c957634e487b7160e01b600052601160045260246000fd5b60008251612399818460208701611df4565b9190910192915050565b634e487b7160e01b600052602160045260246000fdfea2646970667358221220888d594dcd6554bdfe9ce8acfef73a54d133797903f70e204bdffe030f77359e64736f6c63430008200033",
  "linkReferences": {},
  "deployedLinkReferences": {}
}